S01D00007367646B6367715F3438355F6D6F646966795F494F2E7372656345
S113000012C021C0AFC31FC01EC01DC01CC01BC076
S11300101AC053C318C0C4C416C09DC414C013C0AE
S113002012C011C010C011241FBECFE5D4E0DEBF42
S1130030CDBF21E0A0E6B0E001C01D92A030B20720
S1130040E1F7C1D233C7DCCF8AEA8093700083E042
S1130050809371008FB7F894109275001092760017
S113006010927700109278008FBF10927900E0E729
S1130070F0E0819190917900890F8093790080E07C
S1130080E937F807B1F787EC90E00197F1F700C082
S11300900000AD9A95E89A95F1F700008091700000
S11300A08CB981E080937B00089588E10FB6F894C1
S11300B080934100109241000FBE17BA18BA14BAC7
S11300C015BA11BA12BA81E088BB86E087BB8FEFFC
S11300D082BB83E381BB8CE285BB80E284BB82E389
S11300E084BB83E083BF81EC82BF89B7816089BF11
S11300F082EF8FBD89E18EBD80E991E097BD86BD19
S113010088EC90E09BBD8ABD84E090E099BD88BDF9
S113011085B7807F85BF85B7886085BF8BB78F73B0
S11301208BBF8BB780688BBF10BC8CE089B982E031
S11301308BB988E98AB986E880BDAD9887E893E1F0
S11301400197F1F700C000000895949895980895D8
S1130150949A959A089585B78F7085BF10929D00E3
S113016010929C0010926C0010926D0010926E0020
S113017010926F0088EC90E0909365008093640087
S11301809093670080936600909369008093680061
S113019090936B0080936A001092800010929B00F1
S11301A01092890010929600109297001092980075
S11301B010929900CDDFE6D52FE088E190E00FB6EC
S11301C0F894A895809341000FBE209341000895B0
S11301D0949907C082B385FB882780F991E0892729
S11301E0089580E00895F4DF811108C080918300B0
S11301F0909184008535914048F0A7CF8091830089
S1130200909184008C32914008F4A2CF089594997F
S113021007C082B385FB882780F991E08927089578
S113022080E008958E3E23E1920799F020F48D3EFC
S1130230934149F00895823F23E1920761F0833F9F
S1130240934191F00895A99B02C0A9980895A99A91
S11302500895AC980895BCDF8130B9F420E048EBF0
S11302605BE060E070E00EC0D2DF813071F4869B09
S113027004C06EDF83EF93E17EC420E048EC50E0DD
S113028060E070E083EF93E1E2C30895A89588E10C
S11302900FB6F89480934100109241000FBE8FE492
S11302A093EC0197F1F700C00000F8942BE088E18B
S11302B090E00FB6F894A895809341000FBE209368
S11302C04100FFCFAF92BF92CF92DF92EF92FF92A5
S11302D00F931F93CF93DF938C01C3D5EC01680177
S11302E080E6C80ED11CC601BCD57C01580180EC47
S11302F0A80EB11CC501B5D5CE15DF0531F4C8175C
S1130300D90789F0BE01C50105C0C817D90721F472
S1130310BE01C601ABD507C0E816F90621F4B70142
S1130320C801A4D5E701CE01DF91CF911F910F91B0
S1130330FF90EF90DF90CF90BF90AF9008950F9310
S11303401F93CF93DF93EC018B0190D5B801CE01BD
S1130350805A9F4F8BD5B801CE0180549F4FDF91B7
S1130360CF911F910F9182C5F89460E074EC80E006
S113037091E0E5DF69E973E182E091E0E0DF69E0C3
S113038076E184E091E0DBDF2FE788E391E0215020
S113039080409040E1F700C0000078DF84E091E005
S11303A091DF8930964109F0DFDF80E091E08ADF58
S11303B090938600809385008091850090918600BB
S11303C08130944C18F080E094EC09C08091850051
S11303D0909186008939934130F483EA93E19093B4
S11303E086008093850082E091E06CDF9093880022
S11303F08093870020918700309188008091850048
S1130400909186008217930730F480918500909133
S113041086000A9709C080918700909188008939E5
S1130420934130F489E993E19093880080938700A5
S1130430089580916300813039F510926300F89437
S1130440809194009091950090938600809385000C
S1130450609185007091860080E091E070DF20E07B
S113046048EE53E060E070E08EEE93E1F0D210923B
S11304709D0010929C0010926C0010926D001092DE
S11304806E0010926F00789480916200813029F59B
S1130490F8948091940090919500909388008093B3
S11304A08700609187007091880082E091E047DFC7
S11304B020E048EE53E060E070E08EEE93E1C7D2B6
S11304C010929D0010929C0010926C0010926D008E
S11304D010926E0010926F0078949A9910C0109246
S11304E0630082E390E0E7EEF3E03197F1F700C0B8
S11304F000009A9964C001970097A9F710C09B99CE
S11305005EC082E390E0E7EEF3E03197F1F700C0DC
S113051000009B9954C001970097A9F742C0F89432
S11305209A9931C0AC9A9A9908C087EE93E00197E2
S1130530F1F700C00000A895F6CF80919400909147
S1130540950090938600809385006091850070915A
S1130550860080E091E00EC0809194009091950017
S11305609093880080938700609187007091880041
S113057082E091E0E4DE20E048EE53E060E070E0E9
S11305808EEE93E164D210929D0010929C00109222
S11305906C0010926D0010926E0010926F007894AF
S11305A00895F8949B99EFCFAC9A9B99D5CF87EE99
S11305B093E00197F1F700C00000A895F6CF0895E5
S11305C012DE37DFF4C2F89470DDC5DDE7DE78941F
S11305D0AC9A20E04CED55E060E070E08EEE93E1E3
S11305E036D22FEF44EF51E060E070E08DEE93E1FE
S11305F02ED2C3E0D0E0A89580918900813019F40F
S113060010928900DDDF85B7806885BF889585B73E
S11306108F7785BF8091600090916100843191054E
S113062050F70196909361008093600084309105A7
S113063010F3BE01BBD3892BF1F606DDDCCF0F939B
S1130640DC01E4E6F0E02081318142815381648160
S113065075818681978100E1EBD3208331834283C6
S113066053836483758386839783B183A0832081B6
S1130670318183E0369527958A95E1F7809166006C
S11306809091670096958795820F931F209168003B
S1130690309169003695279536952795820F931FDB
S11306A020916A0030916B0063E0369527956A9536
S11306B0E1F7820F931F0F9108951F920F920FB6C7
S11306C00F9211242F938F939F93AF93BF9381EC39
S11306D082BF20917C002F5F20937C0080917E005C
S11306E090917F00019690937F0080937E002A3042
S11306F078F110927C008091960090919700A091DF
S11307009800B09199000196A11DB11D80939600A7
S113071090939700A0939800B093990081E0809300
S1130720890080917D008F5F80937D008A3080F006
S113073010927D0080919B008F5F80939B0080913D
S11307409A008F5F80939A008A3010F010929A007A
S1130750BF91AF919F918F912F910F900FBE0F90EA
S11307601F9018951F920F920FB60F9211242F937A
S11307703F934F935F936F937F938F939F93AF9325
S1130780BF93EF93FF932CB53DB580916C0090918E
S11307906D00A0916E00B0916F00820F931FA11D98
S11307A0B11D80936C0090936D00A0936E00B09384
S11307B06F0080919C0090919D00019690939D0004
S11307C080939C0080919C0090919D008130904288
S11307D008F4B0C080916C0090916D00A0916E00FF
S11307E0B0916F00E3E0880F991FAA1FBB1FEA9521
S11307F0D1F780936C0090936D00A0936E00B0933A
S11308006F0080916C0090916D00A0916E00B0918A
S11308106F00BA2FA92F982F882780936C0090938C
S11308206D00A0936E00B0936F0080916E00909164
S11308306F00909395008093940080919400909120
S11308409500FDDE90939500809394008091940030
S1130850909195008130944C30F080E094EC90932A
S113086095008093940010929D0010929C00109229
S11308706C0010926D0010926E0010926F00209127
S113088094003091950080918700909188002817FA
S1130890390718F48EE490E00DC020919400309153
S11308A0950080918500909186008217930738F413
S11308B08FE891E0909384008093830031C020916D
S11308C09400309195008091870090918800281BB6
S11308D0390B40918500509186008091870090915A
S11308E08800481B590BFA01F695E795A0E4B1E09E
S11308F093D26E0F7F1F811D911D9A0140E050E03D
S113090069D2C901805B9F4F813961E0960710F479
S11309109C0102C02FE831E03093840020938300CF
S1130920209183003091840080E991E0821B930B35
S11309309BBD8ABDFF91EF91BF91AF919F918F9124
S11309407F916F915F914F913F912F910F900FBEC7
S11309500F901F9018951F920F920FB60F921124AB
S11309608F93EF93FF9380917B008A3060F4E09142
S11309707B0081E08E0F80937B00F0E0E059FF4F15
S113098080818CB905C085E88A95F1F70000AD989F
S1130990FF91EF918F910F900FBE0F901F901895BC
S11309A01F920F920FB60F9211248F939F93EF9380
S11309B0FF938BB18C7141F010927A0010928100F8
S11309C05F9B3CC08CB1FCCF8CB190918100913085
S11309D071F5E0917A009E0F90937A00F0E0E6576B
S11309E0FF4F8083973050F110927A00109281006B
S11309F0EAE8F0E08AEA9191890F90E0E039F9079A
S1130A00D1F790919000891319C080918A008430A5
S1130A10A9F480918B00843321F481E080936300F6
S1130A200DC0853359F481E08093620007C08A3A8F
S1130A3029F410927A0081E080938100FF91EF9174
S1130A409F918F910F900FBE0F901F901895DF927A
S1130A50EF92FF920F931F93CF93DF938C01D22ECB
S1130A60009709F47DC0411551056105710509F42C
S1130A7077C080E090E02CE0289FE001299FD00D12
S1130A801124C056DF4FE880F980E016F10639F5ED
S1130A9081E08B87CB01BA01675F7F4F8F4F9F4FF8
S1130AA02AE030E040E050E095D12A833B834C8338
S1130AB05D838A819B81AC81BD8140919600509178
S1130AC097006091980070919900840F951FA61F5C
S1130AD0B71F8E839F83A887B987DA8643C00196A0
S1130AE08830910549F680E090E02CE0289FE001F1
S1130AF0299FD00D1124C056DF4FFE013B963B8544
S1130B0031112AC081E0808319830883CB01BA01A3
S1130B10675F7F4F8F4F9F4F2AE030E040E050E007
S1130B2059D12A833B834C835D838A819B81AC8129
S1130B30BD8140919600509197006091980070910A
S1130B409900840F951FA61FB71F8E839F83A887C4
S1130B50B987DA86780106C001968830910531F6A6
S1130B60E12CF12CC701DF91CF911F910F91FF90E0
S1130B70EF90DF900895AC010097B1F020E030E0F1
S1130B806CE0629FF001639FF00D1124E056FF4F6B
S1130B90808191818417950711F4138608952F5F3E
S1130BA03F4F2830310569F780E090E00895CF93F6
S1130BB0DF9380919E0090919F0087709927909376
S1130BC09F0080939E008091960090919700A09141
S1130BD09800B091990028E030E0DCE040919E005C
S1130BE050919F00CCE0D49FF001D59FF00D1124CB
S1130BF0E056FF4F4385413009F0A7C040919E0065
S1130C0050919F00D49FF001D59FF00D1124E05620
S1130C10FF4F468157816085718584179507A60724
S1130C20B70708F492C080919E0090919F00C89FDE
S1130C30F001C99FF00D1124E056FF4F82858F3FCC
S1130C4049F180919E0090919F00C89FF001C99F37
S1130C50F00D1124E056FF4F828518167CF4809124
S1130C609E0090919F00C89FF001C99FF00D112430
S1130C70E056FF4F8285815082870CC080919E0090
S1130C8090919F00C89FF001C99FF00D1124E05678
S1130C90FF4F138680919E0090919F00CCE0C89FE7
S1130CA0F001C99FF00D1124E056FF4F808191811E
S1130CB0B9DA80919E0090919F00C89FF001C99F6E
S1130CC0F00D1124E056FF4F8385813051F52091BA
S1130CD09E0030919F0080919E0090919F00C89F3C
S1130CE0F001C99FF00D1124E056FF4F82819381DA
S1130CF0A481B5814091960050919700609198002D
S1130D0070919900840F951FA61FB71FC29FF00111
S1130D10C39FF00D1124E056FF4F86839783A0876D
S1130D20B18780919E0090919F00019690939F00BF
S1130D3080939E0080919E0090919F0087709927D8
S1130D4090939F0080939E001AC040919E00509102
S1130D509F004F5F5F4F50939F0040939E004091D0
S1130D609E0050919F004770552750939F004093D9
S1130D709E00215031092115310509F02FCFDF9153
S1130D80CF910895109296001092970010929800B7
S1130D901092990010929F0010929E0080E6E0EA63
S1130DA0F0E0DF011D928A95E9F70895AA1BBB1BA9
S1130DB051E107C0AA1FBB1FA617B70710F0A61B57
S1130DC0B70B881F991F5A95A9F780959095BC0178
S1130DD0CD010895A1E21A2EAA1BBB1BFD010DC073
S1130DE0AA1FBB1FEE1FFF1FA217B307E407F507D7
S1130DF020F0A21BB30BE40BF50B661F771F881FB3
S1130E00991F1A9469F760957095809590959B0148
S1130E10AC01BD01CF010895A29FB001B39FC001F1
S1130E20A39F01D0B29F700D811D1124911D0895BF
S1130E300F93083090F0982F872F762F652F542F1B
S1130E40432F322F22270850F4CF220F331F441F81
S1130E50551F661F771F881F991F0A95B2F70F91B8
S1130E600895A8E1B0E042E050E005C012D0272F79
S1130E7011C0DC01CB01FC01E199FECF06C0FFBB30
S1130E80EEBBE09A31960DB20D9241505040B8F746
S1130E900895262FE199FECF9FBB8EBB2DBB0FB6C5
S1130EA0F894E29AE19A0FBE01960895F894FFCF60
S9030000FC
