S01D00007367646B6367715F3438355F6D6F646966795F494F2E7372656345
S113000012C021C01DC41FC01EC01DC01CC01BC007
S11300101AC0C1C318C032C516C00BC514C013C062
S113002012C011C010C011241FBECFE5D4E0DEBF42
S1130030CDBF21E0A0E6B0E001C01D92AE30B20712
S1130040E1F710D327C8DCCF8AEA8093720084E0FA
S1130050809373002FB7F894809174008A3329F445
S113006080916000809375000CC080918F00909106
S113007090009093750080918F00909190008093F0
S1130080760080918D0090918E00909377008091FE
S11300908D0090918E00809378008091A1009091C2
S11300A0A200909379008091A1009091A200809386
S11300B07A002FBF10927B00E2E7F0E081919091EB
S11300C07B00890F80937B0080E0EB37F807B1F762
S11300D087EC90E00197F1F700C00000AD9A95E835
S11300E09A95F1F70000809172008CB981E08093B9
S11300F08200089588E10FB6F8948093410010922D
S113010041000FBE17BA18BA14BA15BA11BA12BA06
S113011081E088BB86E087BB8DEF82BB81E381BB36
S11301208CE285BB82E384BB83E083BF81EC82BF26
S113013089B7816089BF82EF8FBD89E18EBD80E977
S113014091E097BD86BD88EC90E09BBD8ABD84E0BC
S113015090E099BD88BD85B7807F85BF85B78860ED
S113016085BF8BB78F738BBF8BB780688BBF10BC79
S11301708CE089B982E08BB988ED8AB986E880BDC4
S1130180AD9887E893E10197F1F700C00000089566
S1130190949895980895949A959A089585B78F7030
S11301A085BF1092AB001092AA0010926E001092BC
S11301B06F00109270001092710088EC90E09093A0
S11301C06700809366009093690080936800909321
S11301D06B0080936A0090936D0080936C00109282
S11301E087001092A900109291001092A30010921F
S11301F0A4001092A5001092A600CDDFB7D62FE080
S113020088E190E00FB6F894A895809341000FBE62
S1130210209341000895949907C082B385FB8827F1
S113022080F991E08927089580E00895F4DF811131
S113023008C080918B0090918C008535914048F0E6
S1130240A7CF80918B0090918C008C32914008F460
S1130250A2CF089582B385FB882780F991E089278E
S113026008958E3E23E1920799F020F48D3E934148
S113027049F00895823F23E1920761F0833F93415F
S113028091F00895A99B02C0A9980895A99A089588
S1130290AC980895C0DF8130B9F420E048EB5BE00E
S11302A060E070E00EC0D6DF813071F4869B04C03C
S11302B072DF83EF93E153C520E048EC50E060E047
S11302C070E083EF93E1B7C40895A89588E10FB671
S11302D0F89480934100109241000FBE8FE493EC98
S11302E00197F1F700C00000F8942BE088E190E05A
S11302F00FB6F894A895809341000FBE2093410057
S1130300FFCFAF92BF92CF92DF92EF92FF920F9303
S11303101F93CF93DF938C0198D6EC01680184E698
S1130320C80ED11CC60191D67C01580188ECA80ED8
S1130330B11CC5018AD6CE15DF0531F4C817D9071B
S113034089F0BE01C50105C0C817D90721F4BE0153
S1130350C60180D607C0E816F90621F4B701C80122
S113036079D6E701CE01DF91CF911F910F91FF90D4
S1130370EF90DF90CF90BF90AF9008950F931F93AD
S1130380CF93DF93EC018B0165D6B801CE018C5974
S11303909F4F60D6B801CE0188539F4FDF91CF9114
S11303A01F910F9157C6F89460E074EC80E091E0DF
S11303B0E5DF69E973E182E091E0E0DF69E076E19D
S11303C084E091E0DBDF60E070E086E091E0D6DF7E
S11303D02FE788E391E0215080409040E1F700C08E
S11303E0000073DF84E091E08CDF8930964109F0EE
S11303F0DADF80E091E085DF90938E0080938D00BA
S113040080918D0090918E008130944C18F080E0A2
S113041094EC09C080918D0090918E0089399341AC
S113042030F483EA93E190938E0080938D0086E00C
S113043091E067DF8A30910528F4909361008093FE
S1130440600004C0109261001092600082E091E0AC
S113045058DF9093900080938F0020918F0030910B
S1130460900080918D0090918E008217930730F454
S113047080918D0090918E000A9709C080918F0021
S1130480909190008939934130F489E993E19093F4
S1130490900080938F000895809165008130A1F5CC
S11304A010926500F8948091A1009091A20090931D
S11304B08E0080938D0060918D0070918E0080E09D
S11304C091E05CDF20E048EE53E060E070E08EEE07
S11304D093E1B1D31092AB001092AA0010926E0077
S11304E010926F0010927000109271007894AC9A80
S11304F020E048EE53E060E070E08EEE93E19BD3A1
S11305001092630010926200809164008130A1F522
S1130510F8948091A1009091A20090939000809310
S11305208F0060918F007091900082E091E026DF4F
S113053020E048EE53E060E070E08EEE93E17BD380
S11305401092AB001092AA0010926E0010926F00ED
S11305501092700010927100789410926400AC9A1A
S113056020E048EE53E060E070E08EEE93E163D368
S113057010926300109262009A9910C01092650064
S113058082E390E0E7EEF3E03197F1F700C000007A
S11305909A9964C001970097A9F710C09B995EC00F
S11305A082E390E0E7EEF3E03197F1F700C000005A
S11305B09B9954C001970097A9F742C0F8949A995F
S11305C031C0AC9A9A9908C087EE93E00197F1F78D
S11305D000C00000A895F6CF8091A1009091A200E0
S11305E090938E0080938D0060918D0070918E00A9
S11305F080E091E00EC08091A1009091A2009093C0
S1130600900080938F0060918F007091900082E041
S113061091E0B4DE20E048EE53E060E070E08EEE5E
S113062093E109D31092AB001092AA0010926E00CD
S113063010926F00109270001092710078940895D7
S1130640F8949B99EFCFAC9A9B99D5CF87EE93E022
S11306500197F1F700C00000A895F6CF0895E6DDF4
S11306601BDF99C3F89446DD99DDBCDE7894AC9A1F
S1130670AD9820E04CED55E060E070E08EEE93E143
S1130680DAD22FEF44EF51E060E070E08DEE93E1B9
S1130690D2D2CCE3D0E0A89580919100813019F4B6
S11306A010929100DCDF80916200909163008032AF
S11306B023E0920780F70196909363008093620091
S11306C08F31910540F3BE0165D4892B21F7BCDC41
S11306D0E2CFEF92FF920F931F93CF93DF93FC012E
S11306E02091660030916700409168005091690044
S11306F060916A0070916B0080916C0090916D0024
S113070000E18AD420936600309367004093680028
S11307105093690060936A0070936B0080936C003F
S113072090936D00F0936700E0936600E0916000A1
S1130730F0916100309719F10091680010916900FF
S11307408091680090916900CAE0D0E07E01EE1AC1
S1130750FF0ABE011FD4E69E9001E79E300DF69E6F
S1130760300D1124C801BE0115D46E9FC0016F9FC6
S1130770900D7E9F900D1124280F391F04C02091E5
S1130780660030916700C901DF91CF911F910F91ED
S1130790FF90EF9008951F920F920FB60F921124BD
S11307A02F938F939F93AF93BF9381EC82BF20913C
S11307B083002F5F209383008091850090918600B1
S11307C0019690938600809385002A3078F11092E8
S11307D083008091A3009091A400A091A500B09102
S11307E0A6000196A11DB11D8093A3009093A400BF
S11307F0A093A500B093A60081E08093910080911E
S113080084008F5F809384008A3080F0109284008B
S11308108091A9008F5F8093A9008091A8008F5FC9
S11308208093A8008A3010F01092A800BF91AF9175
S11308309F918F912F910F900FBE0F901F9018953D
S11308401F920F920FB60F9211242F933F934F9341
S11308505F936F937F938F939F93AF93BF93EF9324
S1130860FF932CB53DB580916E0090916F00A091DF
S11308707000B0917100820F931FA11DB11D809370
S11308806E0090936F00A0937000B09371008091FC
S1130890AA009091AB0001969093AB008093AA00BC
S11308A08091AA009091AB008130904208F4B0C0CE
S11308B080916E0090916F00A0917000B0917100D2
S11308C023E0880F991FAA1FBB1F2A95D1F7809395
S11308D06E0090936F00A0937000B09371008091AC
S11308E06E0090916F00A0917000B0917100BA2FCA
S11308F0A92F982F882780936E0090936F00A09360
S11309007000B09371008091700090917100909389
S1130910A2008093A1008091A1009091A200D9DE51
S11309209093A2008093A1008091A1009091A200D5
S11309308130944C30F080E094EC9093A20080934A
S1130940A1001092AB001092AA0010926E001092B7
S11309506F0010927000109271002091A1003091EC
S1130960A20080918F00909190002817390718F405
S11309708EE490E00DC02091A1003091A2008091FE
S11309808D0090918E008217930738F48FE891E0E0
S113099090938C0080938B0031C02091A100309102
S11309A0A20080918F0090919000281B390B4091F8
S11309B08D0050918E0080918F0090919000481B83
S11309C0590BFA01F695E795A0E4B1E019D36E0F3F
S11309D07F1F811D911D9A0140E050E0EFD2C901B3
S11309E0805B9F4F813961E0960710F49C0102C03F
S11309F02FE831E030938C0020938B0020918B0002
S1130A0030918C0080E991E0821B930B9BBD8ABDE1
S1130A10FF91EF91BF91AF919F918F917F916F91D2
S1130A205F914F913F912F910F900FBE0F901F90A8
S1130A3018951F920F920FB60F9211248F93EF9374
S1130A40FF93809182008A3060F4E091820081E01B
S1130A508E0F80938200F0E0EE58FF4F80818CB9B6
S1130A6005C085E88A95F1F70000AD98FF91EF91F4
S1130A708F910F900FBE0F901F9018951F920F9299
S1130A800FB60F9211242F933F934F935F936F935D
S1130A907F938F939F93AF93BF93EF93FF938BB108
S1130AA08C7141F010928100109288005F9BB2C05B
S1130AB08CB1FCCF8CB190918800913009F0A1C029
S1130AC0E09181009E0F90938100F0E0EE56FF4F7D
S1130AD08083993008F49EC010928100109288009F
S1130AE0E2E9F0E08AEA9191890F90E0EA39F907A6
S1130AF0D1F790919A0089138DC08091920084302F
S1130B0009F07CC010928A00109265001092640073
S1130B1090919300943321F080919400843329F4CC
S1130B2081E08093650084E308C0953311F0853338
S1130B3039F481E08093640085E3809374005BC0A2
S1130B40963311F0863321F486E3809374004FC00A
S1130B509933D1F4893309F04EC086E3809374004D
S1130B608091950090E0982F882720919600820F1D
S1130B70911D90938E0080938D0060918D007091F3
S1130B808E0080E091E02CC09833C9F4883399F545
S1130B9086E3809374008091950090E0982F8827D5
S1130BA020919600820F911D9093900080938F0066
S1130BB060918F007091900082E091E011C09A33AF
S1130BC0D1F48A33C1F480937400609196006A3042
S1130BD070F470E0709361006093600086E091E0CF
S1130BE0CDDB8FEC97E00197F1F700C00000109285
S1130BF063001092620081E08093A70010928A0043
S1130C0009C08A3A39F410928A001092810081E076
S1130C1080938800FF91EF91BF91AF919F918F9145
S1130C207F916F915F914F913F912F910F900FBEE4
S1130C300F901F901895DF92EF92FF920F931F93DE
S1130C40CF93DF938C01D22E009709F47DC0411518
S1130C5051056105710509F477C080E090E02CE04E
S1130C60289FE001299FD00D1124C255DF4FE88051
S1130C70F980E016F10639F581E08B87CB01BA01E2
S1130C80675F7F4F8F4F9F4F2AE030E040E050E096
S1130C9095D12A833B834C835D838A819B81AC817C
S1130CA0BD814091A3005091A4006091A500709172
S1130CB0A600840F951FA61FB71F8E839F83A88746
S1130CC0B987DA8643C001968830910549F680E0F9
S1130CD090E02CE0289FE001299FD00D1124C255FB
S1130CE0DF4FFE013B963B8531112AC081E08083B2
S1130CF019830883CB01BA01675F7F4F8F4F9F4FE2
S1130D002AE030E040E050E059D12A833B834C8311
S1130D105D838A819B81AC81BD814091A300509108
S1130D20A4006091A5007091A600840F951FA61FD2
S1130D30B71F8E839F83A887B987DA86780106C098
S1130D4001968830910531F6E12CF12CC701DF9131
S1130D50CF911F910F91FF90EF90DF900895AC0118
S1130D600097B1F020E030E06CE0629FF001639FF7
S1130D70F00D1124E255FF4F80819181841795076E
S1130D8011F4138608952F5F3F4F2830310569F71A
S1130D9080E090E00895CF93DF938091AC00909130
S1130DA0AD00877099279093AD008093AC0080913B
S1130DB0A3009091A400A091A500B091A60028E002
S1130DC030E0DCE04091AC005091AD00CCE0D49F29
S1130DD0F001D59FF00D1124E255FF4F43854130BA
S1130DE009F0A7C04091AC005091AD00D49FF00130
S1130DF0D59FF00D1124E255FF4F46815781608540
S1130E00718584179507A607B70708F492C08091E7
S1130E10AC009091AD00C89FF001C99FF00D112462
S1130E20E255FF4F82858F3F49F18091AC0090914C
S1130E30AD00C89FF001C99FF00D1124E255FF4F8A
S1130E40828518167CF48091AC009091AD00C89F07
S1130E50F001C99FF00D1124E255FF4F82858150A6
S1130E6082870CC08091AC009091AD00C89FF001C6
S1130E70C99FF00D1124E255FF4F13868091AC00F9
S1130E809091AD00CCE0C89FF001C99FF00D1124F2
S1130E90E255FF4F80819181E4D98091AC0090911B
S1130EA0AD00C89FF001C99FF00D1124E255FF4F1A
S1130EB08385813051F52091AC003091AD00809153
S1130EC0AC009091AD00C89FF001C99FF00D1124B2
S1130ED0E255FF4F82819381A481B5814091A300A3
S1130EE05091A4006091A5007091A600840F951FF5
S1130EF0A61FB71FC29FF001C39FF00D1124E25536
S1130F00FF4F86839783A087B1878091AC0090912F
S1130F10AD0001969093AD008093AC008091AC003D
S1130F209091AD00877099279093AD008093AC00A9
S1130F301AC04091AC005091AD004F5F5F4F509389
S1130F40AD004093AC004091AC005091AD004770AF
S1130F5055275093AD004093AC0021503109211521
S1130F60310509F02FCFDF91CF9108951092A3009E
S1130F701092A4001092A5001092A6001092AD0049
S1130F801092AC0080E6EEEAF0E0DF011D928A9553
S1130F90E9F70895AA1BBB1B51E107C0AA1FBB1F99
S1130FA0A617B70710F0A61BB70B881F991F5A95F1
S1130FB0A9F780959095BC01CD010895A1E21A2E60
S1130FC0AA1BBB1BFD010DC0AA1FBB1FEE1FFF1FE9
S1130FD0A217B307E407F50720F0A21BB30BE40B39
S1130FE0F50B661F771F881F991F1A9469F7609580
S1130FF07095809590959B01AC01BD01CF0108953A
S1131000A29FB001B39FC001A39F01D0B29F700DF6
S1131010811D1124911D08950F93083090F0982F8D
S1131020872F762F652F542F432F322F22270850D6
S1131030F4CF220F331F441F551F661F771F881FCD
S1131040991F0A95B2F70F910895A8E1B0E042E024
S113105050E005C012D0272F11C0DC01CB01FC01E8
S1131060E199FECF06C0FFBBEEBBE09A31960DB20C
S11310700D9241505040B8F70895262FE199FECFC4
S11310809FBB8EBB2DBB0FB6F894E29AE19A0FBEBC
S10B109001960895F894FFCFC6
S9030000FC
