S01D00007367646B6367715F3438355F6D6F646966795F494F2E7372656345
S113000012C021C0C2C31FC01EC01DC01CC01BC063
S11300101AC066C318C0D7C416C0B0C414C013C075
S113002012C011C010C011241FBECFE5D4E0DEBF42
S1130030CDBF21E0A0E6B0E001C01D92AC30B20714
S1130040E1F7D9D25FC7DCCF8AEA8093700084E0FD
S1130050809371009FB7F8948AEA8093750025E530
S11300602093760080937700809378009FBF10924E
S11300707900E0E7F0E0819190917900890F809315
S1130080790080E0E937F807B1F787EC90E0019751
S1130090F1F700C00000AD9A95E89A95F1F70000D9
S11300A0809170008CB981E080938000089588E18C
S11300B00FB6F89480934100109241000FBE17BA16
S11300C018BA14BA15BA11BA12BA81E088BB86E01C
S11300D087BB8DEF82BB81E381BB8CE285BB82E36E
S11300E084BB83E083BF81EC82BF89B7816089BF11
S11300F082EF8FBD89E18EBD80E991E097BD86BD19
S113010088EC90E09BBD8ABD84E090E099BD88BDF9
S113011085B7807F85BF85B7886085BF8BB78F73B0
S11301208BBF8BB780688BBF10BC8CE089B982E031
S11301308BB988ED8AB986E880BDAD9887E893E1EC
S11301400197F1F700C000000895949895980895D8
S1130150949A959A089585B78F7085BF1092A900D7
S11301601092A80010926C0010926D0010926E0014
S113017010926F0088EC90E0909365008093640087
S11301809093670080936600909369008093680061
S113019090936B0080936A00109285001092A700E0
S11301A010928F001092A1001092A2001092A3004E
S11301B01092A400CDDF12D62FE088E190E00FB6B4
S11301C0F894A895809341000FBE209341000895B0
S11301D0949907C082B385FB882780F991E0892729
S11301E0089580E00895F4DF811108C080918900AA
S11301F090918A008535914048F0A7CF809189007D
S113020090918A008C32914008F4A2CF089582B371
S113021085FB882780F991E0892708958E3E23E1A4
S1130220920799F020F48D3E934149F00895823F5E
S113023023E1920761F0833F934191F00895A99BD4
S113024002C0A9980895A99A0895AC980895C0DFAA
S11302508130B9F420E048EB5BE060E070E00EC070
S1130260D6DF813071F4869B04C072DF83EF93E1A3
S1130270AEC420E048EC50E060E070E083EF93E12E
S113028012C40895A89588E10FB6F89480934100AC
S1130290109241000FBE8FE493EC0197F1F700C078
S11302A00000F8942BE088E190E00FB6F894A8954C
S11302B0809341000FBE20934100FFCFAF92BF92C5
S11302C0CF92DF92EF92FF920F931F93CF93DF931E
S11302D08C01F3D5EC01680180E6C80ED11CC6017F
S11302E0ECD57C01580180ECA80EB11CC501E5D504
S11302F0CE15DF0531F4C817D90789F0BE01C50151
S113030005C0C817D90721F4BE01C601DBD507C053
S1130310E816F90621F4B701C801D4D5E701CE01E6
S1130320DF91CF911F910F91FF90EF90DF90CF90CD
S1130330BF90AF9008950F931F93CF93DF93EC0179
S11303408B01C0D5B801CE01805A9F4FBBD5B801EF
S1130350CE0180549F4FDF91CF911F910F91B2C571
S1130360F89460E074EC80E091E0E5DF69E973E122
S113037082E091E0E0DF69E076E184E091E0DBDFB8
S11303802FE788E391E0215080409040E1F700C0DE
S1130390000078DF84E091E091DF8930964109F034
S11303A0DFDF80E091E08ADF90938C0080938B0004
S11303B080918B0090918C008130944C18F080E0F7
S11303C094EC09C080918B0090918C008939934101
S11303D030F483EA93E190938C0080938B0082E065
S11303E091E06CDF90938E0080938D0020918D00BE
S11303F030918E0080918B0090918C00821793072E
S113040030F480918B0090918C000A9709C0809100
S11304108D0090918E008939934130F489E993E1FC
S113042090938E0080938D000895809163008130B5
S1130430A1F510926300F89480919F009091A00020
S113044090938C0080938B0060918B0070918C0052
S113045080E091E070DF20E048EE53E060E070E07F
S11304608EEE93E120D31092A9001092A80010926E
S11304706C0010926D0010926E0010926F007894D0
S1130480AC9A20E048EE53E060E070E08EEE93E139
S11304900AD3109261001092600080916200813052
S11304A0A1F5F89480919F009091A00090938E0004
S11304B080938D0060918D0070918E0082E091E0B8
S11304C03ADF20E048EE53E060E070E08EEE93E126
S11304D0EAD21092A9001092A80010926C00109217
S11304E06D0010926E0010926F007894109262006A
S11304F0AC9A20E048EE53E060E070E08EEE93E1C9
S1130500D2D210926100109260009A9910C0109299
S1130510630082E390E0E7EEF3E03197F1F700C087
S113052000009A9964C001970097A9F710C09B999D
S11305305EC082E390E0E7EEF3E03197F1F700C0AC
S113054000009B9954C001970097A9F742C0F89402
S11305509A9931C0AC9A9A9908C087EE93E00197B2
S1130560F1F700C00000A895F6CF80919F0090910C
S1130570A00090938C0080938B0060918B0070910D
S11305808C0080E091E00EC080919F009091A000CB
S113059090938E0080938D0060918D0070918E00F9
S11305A082E091E0C8DE20E048EE53E060E070E0D5
S11305B08EEE93E178D21092A9001092A8001092C6
S11305C06C0010926D0010926E0010926F0078947F
S11305D00895F8949B99EFCFAC9A9B99D5CF87EE69
S11305E093E00197F1F700C00000A895F6CF0895B5
S11305F0FADD1BDF08C3F8945ADDADDDCBDE789459
S1130600AC9AAD9820E04CED55E060E070E08EEEE1
S113061093E149D22FEF44EF51E060E070E08DEEBA
S113062093E141D2CCE3D0E0A89580918F00813052
S113063019F410928F00DCDF8091600090916100CA
S1130640803223E0920780F70196909361008093B3
S113065060008F31910540F3BE01D4D3892B21F77B
S1130660F3DCE2CF0F93DC01E4E6F0E0208131819A
S113067042815381648175818681978100E104D42C
S11306802083318342835383648375838683978372
S1130690B183A0832081318183E0369527958A95A3
S11306A0E1F7809166009091670096958795820F97
S11306B0931F2091680030916900369527953695EF
S11306C02795820F931F20916A0030916B0063E09D
S11306D0369527956A95E1F7820F931F0F91089538
S11306E01F920F920FB60F9211242F938F939F9303
S11306F0AF93BF9381EC82BF209181002F5F209341
S113070081008091830090918400019690938400ED
S1130710809383002A3078F1109281008091A100A7
S11307209091A200A091A300B091A4000196A11DF4
S1130730B11D8093A1009093A200A093A300B09355
S1130740A40081E080938F00809182008F5F80936A
S113075082008A3080F0109282008091A7008F5F1F
S11307608093A7008091A6008F5F8093A6008A30B3
S113077010F01092A600BF91AF919F918F912F918D
S11307800F900FBE0F901F9018951F920F920FB6E7
S11307900F9211242F933F934F935F936F937F9303
S11307A08F939F93AF93BF93EF93FF932CB53DB576
S11307B080916C0090916D00A0916E00B0916F00DB
S11307C0820F931FA11DB11D80936C0090936D0047
S11307D0A0936E00B0936F008091A8009091A9003F
S11307E001969093A9008093A8008091A80090910D
S11307F0A9008130904208F4B0C080916C009091BF
S11308006D00A0916E00B0916F00E3E0880F991F16
S1130810AA1FBB1FEA95D1F780936C0090936D00DB
S1130820A0936E00B0936F0080916C0090916D0066
S1130830A0916E00B0916F00BA2FA92F982F88272E
S113084080936C0090936D00A0936E00B0936F0042
S113085080916E0090916F009093A00080939F0010
S113086080919F009091A000FDDE9093A000809362
S11308709F0080919F009091A0008130944C30F0B3
S113088080E094EC9093A00080939F001092A900C4
S11308901092A80010926C0010926D0010926E00DD
S11308A010926F0020919F003091A00080918D00E4
S11308B090918E002817390718F48EE490E00DC04B
S11308C020919F003091A00080918B0090918C002A
S11308D08217930738F48FE891E090938A0080930D
S11308E0890031C020919F003091A00080918D003B
S11308F090918E00281B390B40918B0050918C00F5
S113090080918D0090918E00481B590BFA01F69549
S1130910E795A0E4B1E0ACD26E0F7F1F811D911D5D
S11309209A0140E050E082D2C901805B9F4F813937
S113093061E0960710F49C0102C02FE831E0309387
S11309408A00209389002091890030918A0080E9EF
S113095091E0821B930B9BBD8ABDFF91EF91BF91E8
S1130960AF919F918F917F916F915F914F913F9143
S11309702F910F900FBE0F901F9018951F920F92FA
S11309800FB60F9211248F93EF93FF938091800001
S11309908A3060F4E091800081E08E0F80938000C3
S11309A0F0E0E059FF4F80818CB905C085E88A9555
S11309B0F1F70000AD98FF91EF918F910F900FBE6A
S11309C00F901F9018951F920F920FB60F9211243B
S11309D08F939F93EF93FF938BB18C7141F010929F
S11309E07F00109286005F9B55C08CB1FCCF8CB108
S11309F090918600913009F044C0E0917F009E0FF1
S1130A0090937F00F0E0E057FF4F8083993008F423
S1130A1041C010927F0010928600E0E9F0E08AEA7B
S1130A209191890F90E0E839F907D1F790919800F6
S1130A30891330C080919000843001F510928800B1
S1130A40109263001092620090919100943321F00F
S1130A5080919200843329F481E08093630084E3DD
S1130A6008C0953311F0853331F481E0809362003E
S1130A7085E38093720081E08093A5001092880042
S1130A8009C08A3A39F41092880010927F0081E0FC
S1130A9080938600FF91EF919F918F910F900FBEED
S1130AA00F901F901895DF92EF92FF920F931F9370
S1130AB0CF93DF938C01D22E009709F47DC04115AA
S1130AC051056105710509F477C080E090E02CE0E0
S1130AD0289FE001299FD00D1124C455DF4FE880E1
S1130AE0F980E016F10639F581E08B87CB01BA0174
S1130AF0675F7F4F8F4F9F4F2AE030E040E050E028
S1130B0095D12A833B834C835D838A819B81AC810D
S1130B10BD814091A1005091A2006091A300709109
S1130B20A400840F951FA61FB71F8E839F83A887D9
S1130B30B987DA8643C001968830910549F680E08A
S1130B4090E02CE0289FE001299FD00D1124C4558A
S1130B50DF4FFE013B963B8531112AC081E0808343
S1130B6019830883CB01BA01675F7F4F8F4F9F4F73
S1130B702AE030E040E050E059D12A833B834C83A3
S1130B805D838A819B81AC81BD814091A10050919C
S1130B90A2006091A3007091A400840F951FA61F6A
S1130BA0B71F8E839F83A887B987DA86780106C02A
S1130BB001968830910531F6E12CF12CC701DF91C3
S1130BC0CF911F910F91FF90EF90DF900895AC01AA
S1130BD00097B1F020E030E06CE0629FF001639F89
S1130BE0F00D1124E455FF4F8081918184179507FE
S1130BF011F4138608952F5F3F4F2830310569F7AC
S1130C0080E090E00895CF93DF938091AA009091C3
S1130C10AB00877099279093AB008093AA008091D2
S1130C20A1009091A200A091A300B091A40028E09B
S1130C3030E0DCE04091AA005091AB00CCE0D49FBE
S1130C40F001D59FF00D1124E455FF4F4385413049
S1130C5009F0A7C04091AA005091AB00D49FF001C5
S1130C60D59FF00D1124E455FF4F468157816085CF
S1130C70718584179507A607B70708F492C0809179
S1130C80AA009091AB00C89FF001C99FF00D1124F8
S1130C90E455FF4F82858F3F49F18091AA009091DE
S1130CA0AB00C89FF001C99FF00D1124E455FF4F1C
S1130CB0828518167CF48091AA009091AB00C89F9D
S1130CC0F001C99FF00D1124E455FF4F8285815036
S1130CD082870CC08091AA009091AB00C89FF0015C
S1130CE0C99FF00D1124E455FF4F13868091AA008B
S1130CF09091AB00CCE0C89FF001C99FF00D112486
S1130D00E455FF4F8081918189DA8091AA00909106
S1130D10AB00C89FF001C99FF00D1124E455FF4FAB
S1130D208385813051F52091AA003091AB008091E8
S1130D30AA009091AB00C89FF001C99FF00D112447
S1130D40E455FF4F82819381A481B5814091A10034
S1130D505091A2006091A3007091A400840F951F8C
S1130D60A61FB71FC29FF001C39FF00D1124E455C5
S1130D70FF4F86839783A087B1878091AA009091C3
S1130D80AB0001969093AB008093AA008091AA00D7
S1130D909091AB00877099279093AB008093AA0041
S1130DA01AC04091AA005091AB004F5F5F4F50931F
S1130DB0AB004093AA004091AA005091AB00477049
S1130DC055275093AB004093AA00215031092115B7
S1130DD0310509F02FCFDF91CF9108951092A10032
S1130DE01092A2001092A3001092A4001092AB00E3
S1130DF01092AA0080E6ECEAF0E0DF011D928A95E9
S1130E00E9F70895AA1BBB1B51E107C0AA1FBB1F2A
S1130E10A617B70710F0A61BB70B881F991F5A9582
S1130E20A9F780959095BC01CD010895A1E21A2EF1
S1130E30AA1BBB1BFD010DC0AA1FBB1FEE1FFF1F7A
S1130E40A217B307E407F50720F0A21BB30BE40BCA
S1130E50F50B661F771F881F991F1A9469F7609511
S1130E607095809590959B01AC01BD01CF010895CB
S1130E70A29FB001B39FC001A39F01D0B29F700D88
S1130E80811D1124911D08950F93083090F0982F1F
S1130E90872F762F652F542F432F322F2227085068
S1130EA0F4CF220F331F441F551F661F771F881F5F
S1130EB0991F0A95B2F70F910895A8E1B0E042E0B6
S1130EC050E005C012D0272F11C0DC01CB01FC017A
S1130ED0E199FECF06C0FFBBEEBBE09A31960DB29E
S1130EE00D9241505040B8F70895262FE199FECF56
S1130EF09FBB8EBB2DBB0FB6F894E29AE19A0FBE4E
S10B0F0001960895F894FFCF57
S9030000FC
