S02500007367646B6367715F3438355F637279346D31366D5F70756C73655F61642E737265634D
S113000012C02CC02AC82AC029C028C027C026C0B4
S113001025C0D5C723C076C821C04BC81FC01EC089
S11300201DC01CC01BC011241FBECFE5D4E0DEBF21
S1130030CDBF10E0A0E6B0E0E2EFF2E102C005902F
S11300400D92A036B107D9F721E0A0E6B0E001C0D7
S11300501D92A139B207E1F714D749C9D1CF0F9343
S11300601F93CF93C22F009709F469C0411551051E
S11300706105710509F463C020E030E01CE0129FC3
S1130080F001139FF00D1124EA59FF4FA081B181B3
S1130090A817B907E1F481E083874283538364831B
S11300A07583428153816481758100918601109129
S11300B087012091880130918901400F511F621FEF
S11300C0731F4683578360877187C2873AC02F5F47
S11300D03F4F2830310599F620E030E01CE0129FB4
S11300E0F001139FF00D1124EA59FF4FDF011B9615
S11300F0038501111FC021E02C93918380834283E7
S11301005383648375834281538164817581009133
S11301108601109187012091880130918901400F57
S1130120511F621F731F4683578360877187C2877D
S1130130DC0107C02F5F3F4F2830310581F6A0E076
S1130140B0E0CD01CF911F910F910895CF93DF932C
S11301508091640090916500877099279093650061
S1130160809364008091860190918701A091880119
S1130170B0918901C8E0DCE04091640050916500D1
S11301802CE0D49FF001D59FF00D1124EA59FF4FC4
S11301903385313009F0A7C0409164005091650067
S11301A0D49FF001D59FF00D1124EA59FF4F4681E9
S11301B057816085718584179507A607B70708F4EA
S11301C092C08091640090916500289FF001299F5E
S11301D0F00D1124EA59FF4F82858F3F49F1809138
S11301E0640090916500289FF001299FF00D11246F
S11301F0EA59FF4F828518167CF48091640090912F
S11302006500289FF001299FF00D1124EA59FF4F42
S11302108285815082870CC0809164009091650032
S1130220289FF001299FF00D1124EA59FF4F1386EE
S11302308091640090916500CCE0C89FF001C99F53
S1130240F00D1124EA59FF4F808191817BD4809174
S1130250640090916500C89FF001C99FF00D1124BE
S1130260EA59FF4F8385813051F520916400309124
S113027065008091640090916500C89FF001C99F5A
S1130280F00D1124EA59FF4F82819381A481B58135
S11302904091860150918701609188017091890194
S11302A0840F951FA61FB71FC29FF001C39FF00DB7
S11302B01124EA59FF4F86839783A087B1878091E1
S11302C064009091650001969093650080936400AA
S11302D080916400909165008770992790936500E0
S11302E08093640017C020916400309165002F5FF3
S11302F03F4F309365002093640020916400309157
S11303006500277033273093650020936400C15043
S113031009F032CFDF91CF9108958091F817E1E091
S1130320F8E18491E5E0F8E1E491807F803C19F400
S1130330E07FE03CA1F0A89588E10FB6F8948093A3
S11303404100109241000FBE85B78F7885BF85B7F5
S1130350806885BF889585B78F7785BFF5CF000006
S1130360089588E10FB6F8948093410010924100FB
S11303700FBE18BA86E087BB8CE082BB90E891BBC5
S113038085BB80E384BB83E083BF85E082BF89B7FC
S1130390816089BF82EF8FBD89E18EBD80E991E0E4
S11303A097BD86BD88EC90E09BBD8ABD84E090E05B
S11303B099BD88BD85B7807F85BF85B7886085BFB7
S11303C08BB78F738BBF8BB780688BBF10BC83E3F5
S11303D089B982E08BB988ED8AB986E880BD97989F
S11303E08FE19EE40197F1F700C00000089585B7FE
S11303F08F7085BF109265011092660110928C0176
S113040010928A01109268011092670110926F0194
S113041010926E011092900110928F011092D000F0
S11304201092D1001092D2001092D30010926B015E
S113043080E09BE49093C9008093C8009093CB0024
S11304408093CA009093CD008093CC009093CF000A
S11304508093CE0080E099E19093C7008093C6001A
S1130460909371018093700110926C011092690154
S113047010926A0110928B0110928E0110926D01FC
S11304801092DF0010928601109287011092880169
S11304901092890110928D010895A89588E10FB6F4
S11304A0F89480934100109241000FBE2FEF80E733
S11304B092E0215080409040E1F700C00000F894A1
S11304C02BE088E190E00FB6F894A8958093410062
S11304D00FBE20934100FFCFCF93CFB7F894A895D8
S11304E0E199FECFDFD6E199FECFCFBFCF9108953A
S11304F0CF93CFB7F894A895E199FECFD8D6E199D8
S1130500FECFCFBFCF9108952F923F924F925F922B
S11305106F927F928F929F92AF92BF92CF92DF920F
S1130520EF92FF920F931F93CF93DF9300D000D0ED
S1130530CDB7DEB73C012C0182E6480E511C4301C5
S1130540E4EC8E0E911C1301FAED2F1AFEEF3F0A14
S1130550530188E7A81A8EEFB80AC301BDDFAC01C6
S1130560C2014B835C83B8DF8C01C401B5DF7C011D
S1130570C101B2DF9C01C50129833A83ADDF6C015F
S11305804B815C8129813A814017510771F54E15E1
S11305905F0589F44217530729F0BA01C101A8DFA6
S11305A05C814B814C155D0509F490C0BA01C5010D
S11305B04B835C8310C04217530789F4BA01C4010A
S11305C04B835C8395DF4B815C814C155D0509F49D
S11305D07DC0BA01C5018CDF4B815C8177C04817AF
S11305E0590769F5BA01C4010EC04E155F0599F4A7
S11305F04217530719F4BA01C201E2CF4817590749
S1130600D1F5BA01C2014B835C8372DF4B815C81FB
S1130610BA01C101E0CF4217530789F448175907BB
S113062071F4BA01C4014B835C8362DF4B815C814A
S11306304017510709F44AC0BA01C201CCCF0E15C4
S11306401F05C9F40217130761F40417150719F0FD
S1130650B801C3014DDF0C151D05B9F1B801C50181
S113066033C00C151D0549F50417150759F1B801D8
S1130670C3013EDF27C00217130761F40C151D05E3
S1130680E1F40417150719F0B801C30131DFB8010B
S1130690C4011AC0E216F30681F4EC14FD0469F4F3
S11306A0E416F50619F0B701C30122DFE016F106DE
S11306B039F0B701C2011CDF03C04FEF50E006C0A0
S11306C0A70104C0B801C10113DFA801CA010F903A
S11306D00F900F900F90DF91CF911F910F91FF908A
S11306E0EF90DF90CF90BF90AF909F908F907F90CE
S11306F06F905F904F903F902F9008950F931F93AA
S1130700CF93DF93EC018B01F3DEB801CE018E5958
S11307109F4FEEDEB801CE018C539F4FE9DEB80146
S1130720CE018A5D9E4FE4DEB801CE0188579E4F0C
S1130730DF91CF911F910F91DBCEF89460E076E9C1
S113074080EC90E0DBDF60E079E182EC90E0D6DFE2
S113075060E070E086EC90E0D1DF66E079E184EC63
S113076090E0CCDFC5E0D0E08FE39CE90197F1F79E
S113077000C0000084EC90E0C7DE8630994151F45B
S11307808FEF91EE24E0815090402040E1F700C0CB
S1130790000083DE8FEF99EF20E0815090402040ED
S11307A0E1F700C0000066E079E184EC90E0A6DFA8
S11307B021972097C9F6E4CFCF93DF93C5E0D0E02B
S11307C084EC90E0A1DE8630994169F08FEF99EFD7
S11307D020E0815090402040E1F700C000002197C4
S11307E0209771F7AADF8CEB90E08EDE893196407A
S11307F029F069E176E08CEB90E080DF8EEB90E00D
S113080083DE8530994029F065E079E08EEB90E055
S113081075DF80EC90E078DE909377018093760129
S113082080917601909177018130964918F080E0AB
S113083096E909C0809176019091770181159941DB
S113084030F488EB94E2909377018093760186EC00
S113085090E05ADE8A30910528F4909361008093E9
S1130860600004C0109261001092600082EC90E07D
S11308704BDE909379018093780120917801309137
S1130880790180917601909177018217930738F46A
S11308908091760190917701885B9B4009C080919B
S11308A07801909179018115994130F480E099E1C2
S11308B09093790180937801DF91CF910895AC9A58
S11308C0AC0160E070E020E087EB94E0C8CB9A993B
S11308D00EC08CE291E0EFE3FFE13197F1F700C045
S11308E000009A99BCC001970097A9F749C09B9949
S11308F00EC08CE291E0EFE3FFE13197F1F700C025
S113090000009B99ACC001970097A9F76CC0809137
S113091069018130C1F41092690188EB9BE0CFDF5B
S11309208091840190918501909377018093760161
S113093084E380936B0120E044EC59E060E070E0D4
S113094084EB94E01CC080916A01813009F087C077
S113095010926A0184EC99E0B2DF80918401909155
S11309608501909379018093780185E380936B01ED
S113097020E044EC59E060E070E085EB94E06FCB5C
S11309809A996DC080ED97E09ADF8EE190E09A9B92
S113099003C08EE190E00BC0EFE3FFE13197F1F784
S11309A000C00000A8950197009789F7F2CFA89599
S11309B0FFEF20E732E0F15020403040E1F700C083
S11309C000000197009799F7809184019091850127
S11309D0909377018093760160917601709177010D
S11309E080EC90E026C09B993AC080ED97E067DFE9
S11309F08EE190E09B9B28C08EE190E0A895FFEFEC
S1130A0020E732E0F15020403040E1F700C0000020
S1130A100197009799F780918401909185019093B3
S1130A20790180937801609178017091790182EC69
S1130A3090E064DE4FEF89EF90E0415080409040B9
S1130A40E1F700C000000895EFE3FFE13197F1F70B
S1130A5000C00000A8950197009761F6CDCF0895D6
S1130A608AEA8093D40083E08093D5008AB59BB54D
S1130A708093D6009093D70080E98093D80081E0DA
S1130A808093D90080916B018093DA001092DB008F
S1130A90E4EDF0E081919091DB00890F8093DB001D
S1130AA080E0EB3DF807B1F78FE396E00197F1F7AB
S1130AB000C00000979A8FE891E00197F1F700C019
S1130AC000008091D4008CB981E08093E400089503
S1130AD00F93FC012091C8003091C9004091CA00D5
S1130AE05091CB006091CC007091CD008091CE00EC
S1130AF09091CF0000E1BDD34093CA005093CB0046
S1130B006093CC007093CD008093CE009093CF007F
S1130B10F093C900E093C800809160009091610057
S1130B20892B69F08091CA009091CB006AE070E053
S1130B305ED38AE0869FF001879FF00D1124CF01D8
S1130B400F910895863B24E0920701F140F4843B21
S1130B5024E09207E1F0853B944081F10895873BBE
S1130B6024E0920721F0883B944029F00895AC9842
S1130B7010926B01089585B385FB882780F991E075
S1130B80892780FDAD9A80FFAD980895A0CE80910D
S1130B90840190918501909377018093760160910F
S1130BA076017091770180EC90E0A8DD8FE39FE1FE
S1130BB00197F1F700C0000084E316C0809184011E
S1130BC090918501909379018093780160917801E7
S1130BD07091790182EC90E091DD8FE39FE10197C0
S1130BE0F1F700C0000085E380936B01089564E28F
S1130BF073E180E190E05BD3E199FECF64E273E1BD
S1130C0080E390E054D3E199FECF64E273E180E5A0
S1130C1090E04DD3E199FECF2FEF80E792E0215091
S1130C2080409040E1F700C0000037DC4091E000D4
S1130C305091E1006091E2007091E300762F652FFE
S1130C40542F44274093E0005093E1006093E20066
S1130C507093E3008093E0008091E300823499F480
S1130C608091E200853479F48091E100813459F473
S1130C708091E000823539F481E090E09093630044
S1130C8080936200B4DF089580918401909185017E
S1130C901FDF90938501809384018091840190915A
S1130CA085018130964930F080E096E99093850182
S1130CB08093840120918401309185018091780191
S1130CC09091790103968217930718F08DE490E0D0
S1130CD00EC020918401309185018091760190911C
S1130CE0770104972817390738F08FE891E090933B
S1130CF075018093740131C0209184013091850184
S1130D008091780190917901281B390B40917601EB
S1130D10509177018091780190917901481B590B8A
S1130D20FA01F695E795A0E4B1E097D26E0F7F1F24
S1130D30811D911D9A0140E050E06DD2C901805B94
S1130D409F4F803961E0960710F49C0102C02FE8A0
S1130D5031E0309375012093740120917401309136
S1130D60750180E991E0821B930B9BBD8ABD0895B8
S1130D7090E06091C6007091C7009C01220F331F60
S1130D80280F391FA5E036952795AA95E1F74EE17E
S1130D9050E0649FC001659F900D749F900D1124D5
S1130DA0B5E096958795BA95E1F7280F391F3093EA
S1130DB0C7002093C6008091D0009091D100A091EB
S1130DC0D200B091D300820F931FA11DB11D809357
S1130DD0D0009093D100A093D200B093D30080911F
S1130DE08F019091900101969093900180938F01CF
S1130DF080918F01909190018130904808F440C017
S1130E008091D0009091D100A091D200B091D300F4
S1130E10880F991FAA1FBB1F8093D0009093D10005
S1130E20A093D200B093D3008091D0009091D100D0
S1130E30A091D200B091D300E7E0880F991FAA1FB8
S1130E40BB1FEA95D1F78093D0009093D100A09373
S1130E50D200B093D3008091D2009091D3009093AC
S1130E608501809384011092900110928F01109259
S1130E70D0001092D1001092D2001092D30004CF6F
S1130E800895F8942FEF80E792E02150804090403D
S1130E90E1F700C0000065DAAADA2FEF81EE94E0F2
S1130EA0215080409040E1F700C0000085DC789438
S1130EB034DA8CED95E003DD2FEF42E350E060E09F
S1130EC070E086EB94E0CBD82FEF48EE53E060E07F
S1130ED070E088EB94E0C3D82FE088E190E00FB68F
S1130EE0F894A895809341000FBE20934100C1E07F
S1130EF0A89580918B01813019F410928B01B0DD9B
S1130F0080918E018823C9F080918E018150809355
S1130F108E01E091DF00F0E0EE0FFF1FEB51FF4F79
S1130F208081918125DF8091DF008F5F8093DF00D6
S1130F308091DF008F738093DF0080918D0188237F
S1130F40C1F08091860190918701A0918801B091B0
S1130F50890120918D01820F911DA11DB11D8093E6
S1130F60860190938701A0938801B0938901109220
S1130F708D0180916E0190916F01CD9728F01CDC5A
S1130F8010926F0110926E0180917301893C50F0B0
S1130F9085B3829581708C2780FDAC9A80FFAC98D4
S1130FA0109273018091620090916300019729F47B
S1130FB010926300109262001ADEC8D899CF1F9273
S1130FC00F920FB60F9211248F939F9385E082BFE7
S1130FD0809165018F5F8093650190918D019F5F82
S1130FE090938D018A3090F1109265018091730184
S1130FF08F5F80937301809173018B3F18F08AEFA8
S113100080937301809166018F5F809366018A30BB
S1131010E8F01092660180918C018F5F80938C01BF
S11310208A30A0F010928C0180918A018F5F8093A6
S11310308A018C3358F010928A0180916E0190914C
S11310406F01019690936F0180936E019F918F9130
S11310500F900FBE0F901F9018951F920F920FB60E
S11310600F9211248F939F93EF93FF93E0916D015F
S1131070F0E08CB59DB5EE0FFF1FEB51FF4F918350
S1131080808380916D018F5F80936D0180916D01EC
S11310908F7380936D0180918E018F5F80938E0199
S11310A0FF91EF919F918F910F900FBE0F901F9022
S11310B018951F920F920FB60F9211248F939F933E
S11310C0EF93FF938091E4008A3060F4E091E400B0
S11310D081E08E0F8093E400F0E0EC52FF4F8081BA
S11310E08CB907C08FE891E00197F1F700C00000C8
S11310F09798FF91EF919F918F910F900FBE0F9052
S11311001F9018951F920F920FB60F9211242F93D0
S11311103F934F935F936F937F938F939F93AF937B
S1131120BF93CF93EF93FF938BB18C7141F01092E7
S1131130DE0010926C015F9B48C08CB1FCCFCCB137
S11311408C2F74DD80916C018130C1F5E091DE005B
S11311508E0F8093DE00F0E0E658FE4FC0838730A8
S1131160A0F11092DE0010926C01EAE7F1E08AEA45
S11311709191890F91E0E038F907D1F790918001BE
S1131180891323C080917A018330F9F4109273019A
S113119080917B01843321F481E0809369010AC04A
S11311A0853321F481E080936A0104C010926901BF
S11311B010926A0181E080938B0107C0CA3A29F436
S11311C01092DE0081E080936C01FF91EF91CF914A
S11311D0BF91AF919F918F917F916F915F914F914B
S11311E03F912F910F900FBE0F901F901895AA1B3F
S11311F0BB1B51E107C0AA1FBB1FA617B70710F0FE
S1131200A61BB70B881F991F5A95A9F7809590952F
S1131210BC01CD010895A1E21A2EAA1BBB1BFD013E
S11312200DC0AA1FBB1FEE1FFF1FA217B307E407C1
S1131230F50720F0A21BB30BE40BF50B661F771F19
S1131240881F991F1A9469F76095709580959095F9
S11312509B01AC01BD01CF010895A29FB001B39FD2
S1131260C001A39F01D0B29F700D811D1124911D57
S113127008950F93083090F0982F872F762F652FBD
S1131280542F432F322F22270850F4CF220F331F1D
S1131290441F551F661F771F881F991F0A95B2F7B1
S11312A00F910895A8E1B0E042E050E005C012D0EB
S11312B0272F11C0DC01CB01FC01E199FECF06C050
S11312C0FFBBEEBBE09A31960DB20D9241505040F7
S11312D0B8F70895262FE199FECF9FBB8EBB2DBB97
S11312E00FB6F894E29AE19A0FBE01960895F89425
S10512F0FFCF2A
S10B17F84A584B4A5F584C4665
S9030000FC
