S02500007367646B6367715F3438355F637279346D31366D5F70756C73655F61642E737265634D
S113000012C02CC009CD2AC029C028C027C026C0D0
S113001025C0B4CC23C055CD21C02ACD1FC01EC0DD
S11300201DC01CC01BC011241FBECFE5D4E0DEBF21
S1130030CDBF10E0A0E6B0E0EAE7FDE102C0059024
S11300400D92A036B107D9F721E0A0E6B0E001C0D7
S11300501D92AD38B207E1F74DDB8DCED1CF0F93B2
S11300601F93A22F009709F46CC041155105610537
S1130070710509F466C0E0916600F0916700E81725
S1130080F90709F493C02091720030917300281786
S1130090390709F49BC020917E0030917F00281716
S11300A0390709F496C020918A0030918B002817F3
S11300B0390709F491C020919600309197002817D0
S11300C0390709F48CC02091A2003091A3002817AD
S11300D0390709F487C02091AE003091AF0028178A
S11300E0390709F482C02091BA003091BB00281767
S11300F0390709F47DC020917100222309F47EC0E0
S113010020917D00222309F476C0209189002223C6
S113011009F477C020919500222309F475C0209139
S1130120A100222309F473C02091AD00222309F415
S113013071C02091B900222349F02091C5002223E7
S113014091F180E090E01F910F91089526E030E056
S1130150F901EE0FFF1FE20FF31FEE0FFF1FEE0F6B
S1130160FF1FEA59FF4F21E0238791838083428355
S113017053836483758342815381648175810091C3
S11301808201109183012091840130918501400FF7
S1130190511F621F731F4683578360877187A2872D
S11301A01F910F91089527E030E0D2CF20E030E096
S11301B0F901EE0FFF1FE20FF31FEE0FFF1FEE0F0B
S11301C0FF1FEA59FF4F21E02387D1CF21E030E020
S11301D0EFCF22E030E0ECCF23E030E0E9CF24E0C1
S11301E030E0E6CF25E030E0E3CF26E030E0E0CFBA
S11301F027E030E0DDCF21E030E0AACF20E030E09E
S1130200A7CF22E030E0A4CF23E030E0A1CF24E068
S113021030E09ECF25E030E09BCF80916400909148
S1130220650087709927909365008093640080919E
S1130230820190918301A0918401B0918501209164
S1130240640030916500F901EE0FFF1FE20FF31F08
S1130250EE0FFF1FEE0FFF1FEA59FF4F23852130DA
S113026009F425C120916400309165002F5F3F4F50
S11302703093650020936400209164003091650000
S11302802770332730936500209364002091640025
S113029030916500F901EE0FFF1FE20FF31FEE0F1F
S11302A0FF1FEE0FFF1FEA59FF4F2385213009F48A
S11302B0A6C120916400309165002F5F3F4F3093B9
S11302C065002093640020916400309165002770DC
S11302D033273093650020936400209164003091AB
S11302E06500F901EE0FFF1FE20FF31FEE0FFF1F72
S11302F0EE0FFF1FEA59FF4F2385213009F499C1FE
S113030020916400309165002F5F3F4F309365006A
S11303102093640020916400309165002770332796
S1130320309365002093640020916400309165004F
S1130330F901EE0FFF1FE20FF31FEE0FFF1FEE0F89
S1130340FF1FEA59FF4F2385213009F48CC1209106
S11303506400309165002F5F3F4F30936500209318
S11303606400209164003091650027703327309336
S11303706500209364002091640030916500F901C8
S1130380EE0FFF1FE20FF31FEE0FFF1FEE0FFF1F15
S1130390EA59FF4F2385213009F47FC1209164007D
S11303A0309165002F5F3F4F3093650020936400C8
S11303B020916400309165002770332730936500E5
S11303C0209364002091640030916500F901EE0FE0
S11303D0FF1FE20FF31FEE0FFF1FEE0FFF1FEA597F
S11303E0FF4F2385213009F472C1209164003091BC
S11303F065002F5F3F4F3093650020936400209188
S11304006400309165002770332730936500209392
S113041064002091640030916500F901EE0FFF1F24
S1130420E20FF31FEE0FFF1FEE0FFF1FEA59FF4FFE
S11304302385213009F465C1209164003091650061
S11304402F5F3F4F30936500209364002091640038
S11304503091650027703327309365002093640042
S11304602091640030916500F901EE0FFF1FE20F47
S1130470F31FEE0FFF1FEE0FFF1FEA59FF4F2385F7
S1130480213009F458C1809164009091650001966F
S1130490909365008093640080916400909165005E
S11304A08770992790936500809364000895209144
S11304B0640030916500F901EE0FFF1FE20FF31F96
S11304C0EE0FFF1FEE0FFF1FEA59FF4F46815781C2
S11304D06085718584179507A607B70708F4C2CE0F
S11304E08091640090916500FC01EE0FFF1FE80FFE
S11304F0F91FEE0FFF1FEE0FFF1FEA59FF4F828512
S11305008F3F29F18091640090916500FC01EE0F0A
S1130510FF1FE80FF91FEE0FFF1FEE0FFF1FEA5931
S1130520FF4F828518160CF020C1809164009091D1
S11305306500FC01EE0FFF1FE80FF91FEE0FFF1F10
S1130540EE0FFF1FEA59FF4F828581508287809109
S1130550640090916500FC01EE0FFF1FE80FF91F86
S1130560EE0FFF1FEE0FFF1FEA59FF4F80819181AD
S113057025D78091640090916500FC01EE0FFF1F68
S1130580E80FF91FEE0FFF1FEE0FFF1FEA59FF4F91
S11305908385813009F077CF209164003091650024
S11305A08091640090916500FC01EE0FFF1FE80F3D
S11305B0F91FEE0FFF1FEE0FFF1FEA59FF4F828155
S11305C09381A481B581409182015091830160910E
S11305D0840170918501840F951FA61FB71FF9012F
S11305E0EE0FFF1FE20FF31FEE0FFF1FEE0FFF1FB3
S11305F0EA59FF4F86839783A087B18744CF209120
S1130600640030916500F901EE0FFF1FE20FF31F44
S1130610EE0FFF1FEE0FFF1FEA59FF4F4681578170
S11306206085718584179507A607B70708F441CE3E
S113063057CF2091640030916500F901EE0FFF1F40
S1130640E20FF31FEE0FFF1FEE0FFF1FEA59FF4FDC
S1130650468157816085718584179507A607B7077A
S113066008F44ECE3DCF2091640030916500F9012D
S1130670EE0FFF1FE20FF31FEE0FFF1FEE0FFF1F22
S1130680EA59FF4F46815781608571858417950724
S1130690A607B70708F45BCE23CF209164003091FE
S11306A06500F901EE0FFF1FE20FF31FEE0FFF1FAE
S11306B0EE0FFF1FEA59FF4F468157816085718510
S11306C084179507A607B70708F468CE09CF2091C9
S11306D0640030916500F901EE0FFF1FE20FF31F74
S11306E0EE0FFF1FEE0FFF1FEA59FF4F46815781A0
S11306F06085718584179507A607B70708F475CE3A
S1130700EFCE2091640030916500F901EE0FFF1FD8
S1130710E20FF31FEE0FFF1FEE0FFF1FEA59FF4F0B
S1130720468157816085718584179507A607B707A9
S113073008F482CED5CE2091640030916500F90191
S1130740EE0FFF1FE20FF31FEE0FFF1FEE0FFF1F51
S1130750EA59FF4F46815781608571858417950753
S1130760A607B70708F48FCEBBCE809164009091A2
S11307706500FC01EE0FFF1FE80FF91FEE0FFF1FCE
S1130780EE0FFF1FEA59FF4F1386E1CE88E10FB643
S1130790F89480934100109241000FBE18BA86E08D
S11307A087BB8CE082BB90E891BB85BB80E384BBB4
S11307B083E083BF85E082BF89B7816089BF82EF10
S11307C08FBD89E18EBD80E991E097BD86BD88EC3F
S11307D090E09BBD8ABD84E090E099BD88BD85B75B
S11307E0807F85BF85B7886085BF8BB78F738BBFCC
S11307F08BB780688BBF10BC83E389B982E08BB967
S113080088ED8AB986E880BD97988FE19EE40197C8
S1130810F1F700C00000089585B78F7085BF10926E
S11308206101109262011092880110928601109267
S113083064011092630110926B0110926A0110928C
S11308408C0110928B011092D0001092D100109262
S1130850D2001092D3001092670180E09BE4909341
S1130860C9008093C8009093CB008093CA009093F2
S1130870CD008093CC009093CF008093CE0080E095
S113088099E19093C7008093C60090936D01809383
S11308906C01109268011092650110926601109229
S11308A0870110928A01109269011092DF00109260
S11308B0820110928301109284011092850110929A
S11308C089010895A89588E10FB6F89480934100B2
S11308D0109241000FBE2FEF80E792E0215080403C
S11308E09040E1F700C00000F8942BE088E190E02C
S11308F00FB6F894A895809341000FBE2093410051
S1130900FFCFCF93CFB7F894A895E199FECF13DA30
S1130910E199FECFCFBFCF9108952F923F924F928E
S11309205F926F927F928F929F92AF92BF92CF927B
S1130930DF92EF92FF920F931F93CF93DF9300D038
S113094000D0CDB7DEB78C012C0182E6480E511CD5
S1130950380194EC690E711C5801EAEDAE1AEEEF01
S1130960BE0A4801F8E78F1AFEEF9F0AFFB6F89413
S1130970A895E199FECFC801D9D99C838B83E199CD
S1130980FECFFFBEDFB6F894A895E199FECFC20171
S1130990CDD97C01E199FECFDFBE3FB6F894A8958E
S11309A0E199FECFC301C2D96C01E199FECF3FBEEC
S11309B02FB7F894A895E199FECFC5012A83B6D93B
S11309C01C012A81E199FECF2FBF4FB7F894A89557
S11309D0E199FECFC4014983A9D99C014981E199D8
S11309E0FECF4FBF8B819C818E159F0509F44CC0AF
S11309F08C159D0539F18215930509F053C08217B2
S1130A00930709F04FC01FB7F894A895E199FECF5A
S1130A106B817C81C3018FD9E199FECF1FBFEB812C
S1130A20FC81EE15FF0509F44BC01FB7F894A89597
S1130A30E199FECF6B817C81C2017DD9E199FECF22
S1130A401FBF3EC08215930509F401C1EB81FC81EF
S1130A50E217F30751F51FB7F894A895E199FECF73
S1130A606B817C81C20167D9E199FECF1FBF1FB79B
S1130A70F894A895E199FECF6B817C81C5015BD97F
S1130A80E199FECF1FBF1CC08C159D0509F47DC0E4
S1130A908B819C818215930509F49DC0821793076D
S1130AA009F4BCC0EC14FD0469F1E214F30409F484
S1130AB04EC0C214D304E9F08FEF90E09C838B8383
S1130AC08B819C810F900F900F900F90DF91CF91AD
S1130AD01F910F91FF90EF90DF90CF90BF90AF9058
S1130AE09F908F907F906F905F904F903F902F904A
S1130AF00895C216D30609F4F2C0EFEFF0E0FC83C8
S1130B00EB83DECFE214F30409F4C4C0E216F30667
S1130B1099F6EB81FC81EE15FF0559F0DFB6F894E8
S1130B20A895E199FECFB701C80105D9E199FECF97
S1130B30DFBE1FB7F894A895E199FECFB701C501B0
S1130B40FAD8E199FECF1FBFFC82EB82B9CFE2163F
S1130B50F30699F68B819C818E159F0559F0DFB6BB
S1130B60F894A895E199FECFB701C801E4D8E199BA
S1130B70FECFDFBE1FB7F894A895E199FECFB70169
S1130B80C301D9D8E199FECFDECF8215930581F058
S1130B901FB7F894A895E199FECF6B817C81C501BC
S1130BA02A833983C8D839812A81E199FECF1FBFAE
S1130BB0EB81FC81E217F30709F482CF1FB7F894A5
S1130BC0A895E199FECF6B817C81C401B4D8E199E9
S1130BD0FECF1FBF75CF1FB7F894A895E199FECF3C
S1130BE06B817C81C3012A833983A5D839812A8109
S1130BF0E199FECF1FBFEB81FC81E217F30709F4F3
S1130C005FCF1FB7F894A895E199FECF6B817C81E3
S1130C10C40191D8E199FECF1FBF52CF1FB7F894FA
S1130C20A895E199FECF6B817C81C30184D8E199B9
S1130C30FECF1FBF1FB7F894A895E199FECF6B8133
S1130C407C81C50178D8E199FECF1FBF39CF1FB78A
S1130C50F894A895E199FECF6B817C81C2012A8327
S1130C60398369D839812A81E199FECF1FBF8B81ED
S1130C709C818217930709F423CF1FB7F894A89592
S1130C80E199FECF6B817C81C40155D8E199FECFF7
S1130C901FBF16CF8B819C818E159F0579F0DFB61F
S1130CA0F894A895E199FECFB701C8012A83398346
S1130CB042D839812A81E199FECFDFBEE216F306DC
S1130CC059F01FB7F894A895E199FECFB701C40174
S1130CD032D8E199FECF37CFFC82EB82F1CEEB81A3
S1130CE0FC81EC15FD0559F0BFB6F894A895E1997F
S1130CF0FECFB601C8011FD8E199FECFBFBEEC14E8
S1130D00FD0451F31FB7F894A895E199FECFB601FD
S1130D10C20111D8E199FECF1FBFDC82CB82D0CEB5
S1130D20FF920F931F93CF93DF938C01EB01FFB6D8
S1130D30F894A895E199FECFBE01C801FCD7E199CA
S1130D40FECFFFBEC8018E599F4FFFB6F894A895F9
S1130D50E199FECFBE01EFD7E199FECFFFBEC801F6
S1130D608C539F4FFFB6F894A895E199FECFBE012E
S1130D70E2D7E199FECFFFBEC8018A5D9E4FFFB660
S1130D80F894A895E199FECFBE01D5D7E199FECF9D
S1130D90FFBEC80188579E4F1FB7F894A895E199E4
S1130DA0FECFBE01C8D7E199FECF1FBFDF91CF911F
S1130DB01F910F91FF900895F89460E076E980EC1C
S1130DC090E0AEDF60E079E182EC90E0A9DF60E0E2
S1130DD070E086EC90E0A4DF66E079E184EC90E0DA
S1130DE090DD66E079E186E291E08BDD66E079E111
S1130DF088E891E086DD66E079E18AEE91E081DDC4
S1130E0066E079E18CE492E07CDDC5E0D0E08FE33C
S1130E109CE90197F1F700C0000084EC90E07DDDCF
S1130E208630994109F44EC08FEF99EF20E081504C
S1130E3090402040E1F700C000001FB7F894A89547
S1130E40E199FECF66E079E184EC90E074D7E19912
S1130E50FECF1FBF1FB7F894A895E199FECF66E0B7
S1130E6079E186E291E067D7E199FECF1FBF1FB712
S1130E70F894A895E199FECF66E079E188E891E0DD
S1130E805AD7E199FECF1FBF1FB7F894A895E199EF
S1130E90FECF66E079E18AEE91E04DD7E199FECF8D
S1130EA01FBF1FB7F894A895E199FECF66E079E1DA
S1130EB08CE492E040D7E199FECF1FBF21972097A1
S1130EC009F0A5CF8FEF91EE24E0815090402040AF
S1130ED0E1F700C00000F6DCCF93DF93C5E0D0E07B
S1130EE084EC90E01ADD8630994169F08FEF99EF38
S1130EF020E0815090402040E1F700C0000021979D
S1130F00209771F759DF8CEB90E007DD893196402B
S1130F1009F441C0CFB7F894A895E199FECF69E1EF
S1130F2076E08CEB90E007D7E199FECFCFBFCFB747
S1130F30F894A895E199FECF69E176E08EE191E01D
S1130F40FAD6E199FECFCFBFCFB7F894A895E1992F
S1130F50FECF69E176E080E891E0EDD6E199FECF3D
S1130F60CFBFCFB7F894A895E199FECF69E176E0B9
S1130F7082EE91E0E0D6E199FECFCFBFCFB7F894EF
S1130F80A895E199FECF69E176E084E492E0D3D6B6
S1130F90E199FECFCFBF8EEB90E0BFDC8530994066
S1130FA009F441C0CFB7F894A895E199FECF65E064
S1130FB079E08EEB90E0BFD6E199FECFCFBFCFB7FB
S1130FC0F894A895E199FECF65E079E080E291E09C
S1130FD0B2D6E199FECFCFBFCFB7F894A895E199E7
S1130FE0FECF65E079E082E891E0A5D6E199FECFF5
S1130FF0CFBFCFB7F894A895E199FECF65E079E02B
S113100084EE91E098D6E199FECFCFBFCFB7F894A4
S1131010A895E199FECF65E079E086E492E08BD66D
S1131020E199FECFCFBF80EC90E077DC9093730121
S1131030809372018091720190917301813096497D
S1131040B8F180E096E9909373018093720186EC85
S113105090E063DC8A30910530F5909361008093D1
S1131060600082EC90E059DC9093750180937401E8
S113107020917401309175018091720190917301F6
S11310808217930718F1809174019091750181156D
S1131090994130F480E099E1909375018093740153
S11310A0DF91CF9108951092610010926000D9CF22
S11310B080917201909173018115994140F688EBFA
S11310C094E29093730180937201C1CF8091720175
S11310D090917301885B9B40909375018093740198
S11310E0DF91CF9108959A992FC08CE291E004C0CA
S11310F00197009709F4BAC0EFE3FFE13197F1F7E4
S113110000C000009A9BF4CF2091620030916300EC
S113111024313105C0F4A9014F5F5F4F5093630040
S1131120409362004430510570F09A01ABEABAEA88
S1131130D8D5969587959C01220F331F280F391F08
S113114042175307D9F108959B9910C08CE291E09E
S113115004C00197009709F4CBC0EFE3FFE1319796
S1131160F1F700C000009B9BF4CFCECF80916501C6
S1131170813009F404C180916601813029F610920E
S11311806601AC9A20E044EC59E060E070E087EB43
S113119094E065D7809180019091810190937501CD
S11311A08093740185E38093670120E044EC59E067
S11311B060E070E085EB94E052D7A6CF8AEA809392
S11311C0D40083E08093D500FFB7F894E091D60073
S11311D0EA3309F4CFC08091740190917501909322
S11311E0D70080917401909175018093D80060912B
S11311F07201709173017093D90040917201509102
S113120073014093DA002091800130918101309381
S1131210DB0080918001909181018093DC00FFBF0D
S11312209091D5002091D400920F9E0F2091D70069
S1131230920F2091D800920F970F940F930F980F4D
S11312409093DD00EFE1F3E03197F1F700C0000087
S1131250979A8FE891E00197F1F700C00000809120
S1131260D4008CB981E08093E00008959A994CCF22
S1131270AC9A20E040ED57E060E070E087EB94E04A
S1131280EED68EE190E00AC0EFE3FFE13197F1F78B
S113129000C00000A8950197009711F09A9BF4CF25
S11312A08EE190E0A895FFEF20E732E0F150204076
S11312B03040E1F700C000000197009799F7809152
S11312C080019091810190937301809372016091E8
S11312D072017091730180EC90E022DD4FEF89EF91
S11312E090E0415080409040E1F700C000000CCFF6
S11312F09B990ACFAC9A20E040ED57E060E070E0A3
S113130087EB94E0ACD68EE190E00AC0EFE3FFE116
S11313103197F1F700C00000A8950197009711F0EC
S11313209B9BF4CF8EE190E0A895FFEF20E732E09D
S1131330F15020403040E1F700C0000001970097D1
S113134099F7809180019091810190937501809328
S11313507401609174017091750182EC90E0E0DC9D
S11313604FEF89EF90E0415080409040E1F700C09A
S11313700000CACE809160008093D70038CF1092CD
S11313806501AC9A20E048EB5BE060E070E087EB3D
S113139094E065D6809180019091810190937301CE
S11313A08093720184E38093670120E044EC59E068
S11313B060E070E084EB94E052D6A6CE1F93CF9306
S11313C0DF93863B24E0920709F4D1C008F05EC0A5
S11313D0843B24E0920709F475C0853B944009F0EE
S11313E051C0809180019091810190937501809307
S11313F07401C0917401D09175011FB7F894A89538
S1131400E199FECFBE0182EC90E095D4E199FECF44
S11314101FBF1FB7F894A895E199FECFBE0184E2DF
S113142091E089D4E199FECF1FBF1FB7F894A89526
S1131430E199FECFBE0186E891E07DD4E199FECF2B
S11314401FBF1FB7F894A895E199FECFBE0188EE9F
S113145091E071D4E199FECF1FBF1FB7F894A8950E
S1131460E199FECFBE018AE492E065D4E199FECF12
S11314701FBF8FE39FE10197F1F700C0000085E3F0
S113148080936701DF91CF911F910895873B24E0FA
S1131490920789F0883B9440A9F785B385FB882798
S11314A080F991E0892780FDAD9A80FFAD98DF91A6
S11314B0CF911F910895AC9810926701DF91CF915D
S11314C01F910895809180019091810190937301FF
S11314D080937201C0917201D09173011FB7F89487
S11314E0A895E199FECFBE0180EC90E024D4E19967
S11314F0FECF1FBF1FB7F894A895E199FECFBE0198
S113150082E291E018D4E199FECF1FBF1FB7F8948F
S1131510A895E199FECFBE0184E891E00CD4E1994D
S1131520FECF1FBF1FB7F894A895E199FECFBE0167
S113153086EE91E000D4E199FECF1FBF1FB7F89467
S1131540A895E199FECFBE0188E492E0F4D3E19935
S1131550FECF1FBF8FE39FE10197F1F700C00000AA
S113156084E380936701DF91CF911F910895DF9108
S1131570CF911F91B8CD0F93E0918001F09181013B
S11315802091C8003091C9004091CA005091CB000D
S11315906091CC007091CD008091CE009091CF00ED
S11315A000E1ABD34093CA005093CB006093CC00CE
S11315B07093CD008093CE009093CF00F093C90038
S11315C0E093C8008091600090916100892BC1F084
S11315D02091CA003091CB00ADECBCEC82D396953F
S11315E087959695879596958795FC01EE0FFF1F35
S11315F0880F991F880F991F880F991FE80FF91FEB
S1131600F0938101E09380018091800190918101A8
S11316108130964930F080E096E99093810180937F
S11316208001209180013091810180917401909119
S1131630750103968217930708F056C02091800124
S11316403091810180917201909173010497281760
S11316503907C0F520918001309181018091740196
S113166090917501281B390B4091720150917301BF
S11316708091740190917501481B590BFA01F695FC
S1131680E795A0E4B1E02DD36E0F7F1F811D911D5E
S11316909A0140E050E003D3205B3F4F203981E0C2
S11316A0380728F53093710120937001209170015F
S11316B03091710180E991E0821B930B9BBD8ABD3F
S11316C00F9108958FE891E09093710180937001D8
S11316D0209170013091710180E991E0821B930B9C
S11316E09BBD8ABD0F9108958DE490E0EDCF2FE866
S11316F031E0D8CFF8942FEF80E792E0215080407A
S11317009040E1F700C0000041D886D82FEF81EE69
S113171094E0215080409040E1F700C00000DCDB01
S11317207894AC9A20E04CED55E060E070E087EBF3
S113173094E095D42FEF42E350E060E070E086EB54
S113174094E08DD42FEF48EE53E060E070E088EB36
S113175094E085D42FE088E190E00FB6F894A89542
S1131760809341000FBE20934100C1E0A895809171
S113177087018130D9F180918A0181113DC0809126
S113178089018823C1F0209189018091820190917F
S11317908301A0918401B0918501820F911DA11D47
S11317A0B11D8093820190938301A0938401B0932F
S11317B085011092890180916A0190916B01CD9706
S11317C008F0D6C080916F01893C50F085B38295B2
S11317D081708C2780FDAC9A80FFAC9810926F01C9
S11317E01CD5A89580918701813029F61092870134
S11317F080918A01882319F280918A018150809313
S11318008A01E091DF00F0E0EE0FFF1FEF51FF4F80
S11318108081918199276091C6007091C7009C01D5
S1131820220F331F280F391F36952795329522959D
S11318302F7023273F7023274EE150E0649FC0019F
S1131840659F900D749F900D1124969587959295A0
S113185082958F7089279F708927280F391F3093AD
S1131860C7002093C6008091D0009091D100A09130
S1131870D200B091D300820F931FA11DB11D80939C
S1131880D0009093D100A093D200B093D300809164
S11318908B0190918C01019690938C0180938B0124
S11318A080918B0190918C018130904808F455C04F
S11318B08091D0009091D100A091D200B091D3003A
S11318C0880F991FAA1FBB1F8093D0009093D1004B
S11318D0A093D200B093D3008091D0009091D10016
S11318E0A091D200B091D300880F991FAA1FBB1FEB
S11318F0880F991FAA1FBB1F880F991FAA1FBB1F00
S1131900880F991FAA1FBB1F880F991FAA1FBB1FEF
S1131910880F991FAA1FBB1F880F991FAA1FBB1FDF
S11319208093D0009093D100A093D200B093D300C1
S11319308091D2009091D300909381018093800193
S113194010928C0110928B011092D0001092D10051
S11319501092D2001092D3000EDE8091DF008F5FD0
S11319608093DF008091DF008F738093DF0007CFC7
S1131970B3DA10926B0110926A0124CF1F920F9276
S11319800FB60F9211248F939F9385E082BF8091AD
S113199061018F5F80936101909189019F5F9093B2
S11319A089018A3090F11092610180916F018F5FFB
S11319B080936F0180916F018B3F18F08AEF8093C1
S11319C06F01809162018F5F809362018A30E8F039
S11319D010926201809188018F5F809388018A3020
S11319E0A0F010928801809186018F5F8093860118
S11319F08C3358F01092860180916A0190916B01AA
S1131A00019690936B0180936A019F918F910F903F
S1131A100FBE0F901F9018951F920F920FB60F9242
S1131A2011248F939F93EF93FF93E0916901F0E06A
S1131A308CB59DB5EE0FFF1FEF51FF4F918380834F
S1131A40809169018F5F80936901809169018F732F
S1131A508093690180918A018F5F80938A01FF914D
S1131A60EF919F918F910F900FBE0F901F9018953B
S1131A701F920F920FB60F9211248F939F93EF939F
S1131A80FF938091E0008A30A0F4E091E00081E0CF
S1131A908E0F8093E000F0E0EC52FF4F80818CB910
S1131AA0FF91EF919F918F910F900FBE0F901F9018
S1131AB018958FE891E00197F1F700C0000097981E
S1131AC0EFCF1F920F920FB60F9211242F933F93D3
S1131AD04F935F936F937F938F939F93AF93BF9332
S1131AE0EF93FF938BB18C71D1F01092DE001092C2
S1131AF068015F9B03C08CB15F99FDCFFF91EF91AB
S1131B00BF91AF919F918F917F916F915F914F9111
S1131B103F912F910F900FBE0F901F9018959CB17D
S1131B2080916801813051F09A3A41F710926F0127
S1131B301092DE0081E080936801E0CFE091DE0046
S1131B408E0F8093DE00F0E0EA58FE4F90838930D8
S1131B50A8F21092DE0010926801409176019AEA90
S1131B60940F30917701930F20917801920F809117
S1131B707901980F60917A01960F50917B01950F2E
S1131B8050917C01950F50917D01950F50917E01EC
S1131B909513B4CF433019F010926F01AFCF109268
S1131BA06F0110926501109266013433C1F0243341
S1131BB0B1F03533F9F02533E9F0363331F126331A
S1131BC021F1393309F449C0383339F13A3319F47E
S1131BD02A3309F458C081E080938701DDCF81E086
S1131BE08093650184E38093D60010926300109281
S1131BF06200F1CF81E08093660185E38093D60093
S1131C001092630010926200E6CF86E38093D600C0
S1131C101092630010926200DECF2833E1F696E35F
S1131C209093D60090E0982F8827860F911D90936B
S1131C30750180937401609174017091750182EC57
S1131C4090E06ED88FE39FE10197F1F700C00000A8
S1131C501092630010926200BECF293309F0BBCF0B
S1131C6096E39093D60090E0982F8827860F911DD5
S1131C70909373018093720160917201709173016A
S1131C8080EC90E0DECF2093D6006A3008F770E055
S1131C90709361006093600086EC90E0D2CFA1E283
S1131CA01A2EAA1BBB1BFD010DC0AA1FBB1FEE1FD2
S1131CB0FF1FA217B307E407F50720F0A21BB30B1D
S1131CC0E40BF50B661F771F881F991F1A9469F799
S1131CD060957095809590959B01AC01BD01CF01F5
S1131CE00895A29FB001B39FC001A39F01D0B29FEA
S1131CF0700D811D1124911D08950F93083090F0EB
S1131D00982F872F762F652F542F432F322F22277A
S1131D100850F4CF220F331F441F551F661F771F2F
S1131D20881F991F0A95B2F70F910895A8E1B0E0B2
S1131D3042E050E005C012D0272F11C0DC01CB01D6
S1131D40FC01E199FECF06C0FFBBEEBBE09A3196E1
S1131D500DB20D9241505040B8F70895262FE199E5
S1131D60FECF9FBB8EBB2DBB0FB6F894E29AE19ACF
S10D1D700FBE01960895F894FFCF0A
S9030000FC
