S01200006D6D725F7A625F6E65742E73726563E5
S11300000C942B030C9448030C9448030C9448035D
S11300100C9448030C9448030C946F090C948609BF
S11300200C949D090C9448030C9448030C944803C5
S11300300C9448030C9448030C9448030C94480310
S11300400C9448030C9448030C9466080C944803DD
S11300500C9414090C9448030C94EC080C94480375
S11300600C9448030C9448030C9448030C944803E0
S11300700C94D22A0C9448030C9448033805B9050F
S11300803A056F05A405AD05AF05B505B105B7057E
S1130090B3053505FD15021607160C161116F116D3
S11300A016161B1655165A165F166416691673161D
S11300B08C168A1A9F1AAD1ABE1ACC1ADC1AEA1ABE
S11300C0FB1A221B2D1B3E1B511B641B771B821B1F
S11300D05521592163216F21772183218721912182
S11300E0D921E521F121FD21062210221A22D22252
S11300F0DC22E822F022FC2200230A234F235B2384
S1130100672373237C23862390234624D6277624CF
S113011081245C24EE27FB270A2830283C281A284F
S113012036288628862886288628862886288628AB
S11301308628862886288628862886288628592779
S1130140862886288628E525182633263D2649262E
S113015053265D268628B827C326CD26D726E32630
S1130160F7263B274527A024CD2400252D256025EF
S113017079259725B025C925D625CC27CD26ED266A
S11301809726E12586288628862886288628862894
S113019086288628862886288628862886288628EB
S11301A086288628862886288628882686288628DB
S11301B086288628862886288628862886288628CB
S11301C086288628862886288628862886288628BB
S11301D086288628862886288628682486288628CD
S11301E0862886288628862886288628862886289B
S11301F0862886288628862886288628862886288B
S1130200862886288628862886288628862886287A
S1130210862886288628862886288628862886286A
S11302208628FB266827C2277E26742686288628E9
S1130230862886288628862886288628862886284A
S1130240862886288628862886286E27B827C227E7
S1130250E4276726422800000000963007772C61C7
S11302600EEEBA51099919C46D078FF46A7035A559
S113027063E9A395649E3288DB0EA4B8DC791EE999
S1130280D5E088D9D2972B4CB609BD7CB17E072D19
S1130290B8E7911DBF906410B71DF220B06A487191
S11302A0B9F3DE41BE847DD4DA1AEBE4DD6D51B5D9
S11302B0D4F4C785D38356986C13C0A86B647AF9B9
S11302C062FDECC9658A4F5C0114D96C0663633D19
S11302D00FFAF50D088DC8206E3B5E10694CE441A1
S11302E060D5727167A2D1E4033C47D4044BFD8509
S11302F00DD26BB50AA5FAA8B5356C98B242D6C929
S1130300BBDB40F9BCACE36CD832755CDF45CF0D88
S1130310D6DC593DD1ABAC30D9263A00DE51805100
S1130320D7C81661D0BFB5F4B42123C4B356999588
S1130330BACF0FA5BDB89EB802280888055FB2D908
S11303400CC624E90BB1877C6F2F114C6858AB1D88
S113035061C13D2D66B69041DC760671DB01BC209F
S1130360D2982A10D5EF8985B1711FB5B606A5E4D8
S1130370BF9F33D4B8E8A2C9077834F9000F8EA818
S1130380099618980EE1BB0D6A7F2D3D6D08976C98
S11303906491015C63E6F4516B6B62616C1CD83050
S11303A065854E0062F2ED95066C7BA5011BC1F4D8
S11303B0088257C40FF5C6D9B06550E9B712EAB838
S11303C0BE8B7C88B9FCDF1DDD62492DDA15F37C18
S11303D0D38C654CD4FB5861B24DCE51B53A740000
S11303E0BCA3E230BBD441A5DF4AD795D83D6DC448
S11303F0D1A4FBF4D6D36AE96943FCD96E344688A8
S113040067ADD0B860DA732D0444E51D03335F4C47
S11304100AAAC97C0DDD3C710550AA4102271010BF
S11304200BBE86200CC925B56857B3856F2009D447
S113043066B99FE461CE0EF9DE5E98C9D929229887
S1130440D0B0B4A8D7C7173DB359810DB42E3B5CC7
S1130450BDB7AD6CBAC02083B8EDB6B3BF9A0CE299
S1130460B6039AD2B1743947D5EAAF77D29D15262F
S1130470DB048316DC73120B63E3843B64943E6AEF
S11304806D0DA85A6A7A0BCF0EE49DFF099327AE2F
S1130490000AB19E077D44930FF0D2A3088768F247
S11304A0011EFEC206695D5762F7CB67658071362F
S11304B06C19E7066B6E761BD4FEE02BD3895A7A4F
S11304C0DA10CC4ADD676FDFB9F9F9EFBE8E43BEAF
S11304D0B717D58EB060E8A3D6D67E93D1A1C4C297
S11304E0D83852F2DF4FF167BBD16757BCA6DD069F
S11304F0B53F4B36B248DA2B0DD84C1B0AAFF64A3F
S11305000336607A0441C3EF60DF55DF67A8EF8EDE
S11305106E3179BE69468CB361CB1A8366BCA0D2B6
S11305206F2536E2685295770CCC03470BBBB9169E
S113053002222F260555BE3BBAC5280BBDB2925ADE
S1130540B42B046AB35CA7FFD7C231CFD0B58B9E5E
S1130550D92C1DAEDE5BB0C2649B26F263EC9CA377
S11305606A750A936D02A906099C3F360EEB8567EE
S1130570077213570005824ABF95147AB8E2AE2B6E
S1130580B17B381BB60C9B8ED2920DBED5E5B7EF6E
S1130590DC7C21DFDB0BD4D2D38642E2D4F1F8B386
S11305A0DD686E83DA1FCD16BE815B26B9F6E1776E
S11305B0B06F7747B718E65A0888706A0FFFCA3BCE
S11305C006665C0B0111FF9E658F69AE62F8D3FF6E
S11305D06B6145CF6C1678E20AA0EED20DD7548336
S11305E0044EC2B30339612667A7F71660D04D479E
S11305F06949DB776E3E4A6AD1AEDC5AD6D9660BBE
S1130600DF40F03BD83753AEBCA9C59EBBDE7FCFDD
S1130610B247E9FFB5301CF2BDBD8AC2BACA3093F5
S1130620B353A6A3B4240536D0BA9306D7CD29571D
S1130630DE54BF67D9232E7A66B3B84A61C4021B5D
S1130640685D942B6F2A37BE0BB4A18E0CC31BDFDD
S1130650055A8DEF022D11241FBECFEFD0E1DEBF6E
S1130660CDBF17E0A0E0B1E0E2E5FEE602C00590F0
S11306700D92A83DB107D9F720E1A8EDB7E001C07C
S11306801D92A23FB207E1F70E9425070C94273779
S11306900C940000EAEFFFEEE491E093510AE1E0EC
S11306A0F0EF2491E5E0F0EF9491E8E0F0EF84912D
S11306B0ECE0F0EFE491243931F4943921F48C30F6
S11306C011F4EC30B9F084B7877F84BFA89588E132
S11306D00FB6F89480936000109260000FBE83B749
S11306E0817F83BF83B7816083BF889583B78E7F03
S11306F083BFF5CF000008958091D8079091D90762
S113070001969093D9078093D807459758F00E9493
S11307107C0B1092D9071092D8078091500A8F5FF2
S11307208093500A0E94251C0E94420B0E94750B64
S11307300E94C4090E94380A0E94E4140E947C1793
S11307400E946F170E943A170C945D1112B815B8E5
S113075018B81BB811B814B817B81AB83E9A389A12
S1130760399A3A9A3B9A3C9A3D9A3E9A1698179827
S113077010981198559A549A129A139A149A479A5F
S11307805E9A159A5F9A219A589A519A209A5A9A7F
S1130790539A249A239A22980895CF938091C90951
S11307A0883011F00E94A6038091790A811102C059
S11307B081E003C0843018F083E08093790A80914B
S11307C0790A0E94472A6EE082E191E00E94812A20
S11307D014BC83E085BD84EC86BD80916E0081608D
S11307E080936E006FE082E291E00E94812A82EAA7
S11307F08093800089E1809381001092820089EEC9
S113080093E0909387008093860084EF91E0909327
S113081089008093880090938B0080938A006FE016
S113082083E391E00E94812A1DBA8AE280936900E1
S1130830EA9869E184E491E00E94812A10926800B8
S113084010926B0010926C0010926D001092730065
S11308508091680084608093680080916D00806856
S113086080936D0080916800886080936800809117
S1130870730080688093730080E58CBD8DB58160C2
S11308808DBD1DBC259A2698279A6CE08FE591E0D2
S11308900E94812AC6E0C0937C0085EA80937A0096
S11308A010927B0080917A00806480937A006CE0DF
S11308B08DE691E00E94812A1092C5008CE080931D
S11308C0C40082E08093C00088ED8093C100C0938F
S11308D0C20029986EE08BE791E0CF910C94812AB5
S11308E010925B0A1092FD0A1092FC0A1092FF0A01
S11308F01092FE0A1092F30A1092F20A1092F10A70
S11309001092F00A10924D0B10924E0B10924F0B56
S11309101092500B1092510B1092520B1092530BD9
S11309201092540B1092390B10923A0B10923B0B0D
S113093010923C0B1092350B1092360B1092370B21
S11309401092380B1092DD0A10920B0B10925D0A74
S11309508FEF8093E60A83E380937E0B1092880BDB
S113096010920C0B469810922C0B1092DB0A81E02B
S11309708093340B1092870B1092510A1092CA097B
S11309801092CB090E94111D60E18BE891E00E9456
S1130990812A0E94192A64E18DE991E00E94812A4A
S11309A0419808951092DA0A1092DE0A2091140BED
S11309B03091150B3093990B2093980B8091090B70
S11309C08093040B80917C0B90917D0B40914F0D93
S11309D08217930738F481E08093AF0A4064409310
S11309E04F0D10C01092AF0A842F8F7B80934F0D50
S11309F080915C0A811106C08091840B811102C030
S1130A00459801C0459A4091750A429FC001439F91
S1130A10900D112464E670E00E9483367093990B64
S1130A206093980B08950E94D2048091E50A88236C
S1130A3081F08091550B853160F01092550B0E9426
S1130A40230B80914F0D8E7F80934F0D82E0809316
S1130A50720A08958B5893418C30910508F089C02F
S1130A60825C9F4FFC010C94CD3681E00C942212E1
S1130A700C947C038091350C2091930B3091940B52
S1130A802F5F3F4F36952795E82FF0E0E750F44F5E
S1130A9020833091F50BE32FF0E0EA50F44F2083EC
S1130AA01092940B1092930B8F5F6CE30E94773635
S1130AB09093350C81E0830F63E00E947736909326
S1130AC0F50B0E94F2169093780B8093770B0E949B
S1130AD0FE1690E09093EB0A8093EA0A08958091C1
S1130AE0B70B2091190B30911A0B2F5F3F4F36959E
S1130AF02795E82FF0E0E854F44F20833091F40B6D
S1130B00E32FF0E0EC54F44F208310921A0B109270
S1130B10190B8F5F6CE30E9477369093B70B81E0DB
S1130B20830F63E00E9477369093F40B0E940717BB
S1130B309093290B8093280B0E94131790E09093B5
S1130B400E0B80930D0B08952FEF48EC50E060E0FE
S1130B5070E080E993E10C949B280C941C170C948E
S1130B6013050C94FB1F0C9472360C94B8200C944F
S1130B70CE140895CF9380917800282F8091790026
S1130B80382FB90173708091350B9091360BA09179
S1130B90370BB091380B860F971FA11DB11D8093A1
S1130BA0350B9093360BA093370BB093380B6091B1
S1130BB0F00A7091F10A6F5F7F4F6115E4E07E07E0
S1130BC028F47093F10A6093F00A9BC01092F10A22
S1130BD01092F00AE4E0B695A79597958795EA9563
S1130BE0D1F79C0140E050E01092350B1092360B87
S1130BF01092370B1092380BC0917C00C07F60912B
S1130C007C00677009F46DC0663009F077C0E0912C
S1130C106C0A863761E4960710F12A553243A3E340
S1130C20B0E00E94E2369B01AC01AE2FB0E00E941E
S1130C30E2369B01AC0172E05695479537952795AE
S1130C407A95D1F737FF04C085E08093090B02C081
S1130C501092090B5093150B4093140B50C08B3515
S1130C6062E3960720F09C012A55324302C020E03B
S1130C7030E0A3E3B0E00E94E2369B01AC01AE2F6A
S1130C80B0E00E94E2369B01AC0162E056954795C4
S1130C90379527956A95D1F75093150B4093140B0C
S1130CA01092090B80916B0A811129C08091790BF4
S1130CB0813029F58091760B813041F08091310BA0
S1130CC0813021F08091220B8130C9F480914F0D45
S1130CD08E7F80934F0D87E08093720A0E94230BCE
S1130CE00EC0C66020916D0A2D7F213041F490938F
S1130CF02E0B80932D0B2093DF0A01C0C660C09396
S1130D007C00CF9108958091EC0A8F5F8093EC0A68
S1130D108A3008F484C01092EC0A8091100B8F5F23
S1130D208093100B8091260B8F5F8093260B80910C
S1130D30890B8F5F8093890B80911D0B8F5F8436A5
S1130D4018F480931D0B0BC010921D0B459A81E083
S1130D5080935C0A80914F0D806880934F0D809141
S1130D60340B8F5F8093340B8091EE0A8F5F8093F6
S1130D70EE0A8A3008F453C01092EE0A80919F0B59
S1130D808F5F80939F0B8091120B8F5F8093120B68
S1130D9080918C0B8F5F80938C0B8091050B8F5F00
S1130DA08093050B8091B10A8F5F893C08F088EC31
S1130DB08093B10A80919A0B8F5F80939A0B8A304B
S1130DC070F110929A0B8091550B8F5F8093550BA5
S1130DD080917A0B90917B0B019690937B0B80937F
S1130DE07A0B8091020B8F5F8093020B9091E90A3A
S1130DF0913041F09091030B913021F09091160BBA
S1130E00913069F48F3158F062E18FEB94E00E94E5
S1130E10812A0E94AE141092160B1092030B0895AF
S1130E2010921D0B10925C0A80914F0D8F77809366
S1130E304F0D8091AF0A811106C08091840B8111FE
S1130E4002C045980895459A089584B78F70809399
S1130E50C90984B7877F84BFF894A89588E10FB641
S1130E60F89480936000109260000FBE8091C909CD
S1130E70883049F02FE789EA93E021508040904080
S1130E80E1F700C0000064E082ED94E00E94812A52
S1130E9080E00E9422120E94CD030E94700465E04B
S1130EA087ED94E00E94812A80E00E9422127894C7
S1130EB00E94C2326AE070E080E090E00E945C31FF
S1130EC0813021F46EE083EB91E003C060E183ECB8
S1130ED091E00E94812A2FEF48EE53E060E070E039
S1130EE08DE893E10E949B282FEF48EE53E060E0E9
S1130EF070E08EE893E10E949B280E944A0380914F
S1130F00C909883049F02FEF80E792E021508040F2
S1130F109040E1F700C000002FE088E190E00FB6B8
S1130F20F894A895809360000FBE20936000809190
S1130F30C909843021F465E185ED91E017C0809101
S1130F40C909813021F465E18CEE91E00FC08091F4
S1130F50C909823021F468E183E092E007C08091FE
S1130F60C909883029F465E18DE192E00E94812A63
S1130F702FEF4AE050E060E070E08BE893E10E94DC
S1130F809B282FEF45E050E060E070E083E993E1B7
S1130F900E949B282FEF4AE050E060E070E085E972
S1130FA093E10E949B282FEF48EE53E060E070E04D
S1130FB081E993E10E949B282FEF40E85EEE66E30F
S1130FC070E086E993E10E949B28A8958091DA0756
S1130FD09091DB078131974258F0E5E1F8E0DF01B9
S1130FE011971C921082329688E0E932F807B9F71B
S1130FF08091DC079091DD078131974288F48091DC
S11310006F0880FD439A80FF439880915D0A813088
S113101099F48091E60A0E94ED2310925D0A0CC0B7
S1131020E9E2F8E0DF0111971C921082329688E021
S1131030ED33F807B9F7E3CF8091DF0A813081F40B
S11310401092DF0A80912D0B90912E0B0E946C0D53
S113105080912D0B90912E0B90934E0D80934D0DFE
S11310608091CB098823B9F08091CB09815080937A
S1131070CB09E091CA09F0E0E453F64F80810E9465
S113108010078091CA098F5F8093CA098091CA09A9
S11310908F778093CA090E942E298091310B813069
S11310A021F08091220B813011F4429B88B1809110
S11310B05B0A882309F489CF80915B0A815080936D
S11310C05B0A0E9483060E94BA057FCF1F920F928B
S11310D00FB60F9211248F939F93AF93BF93EF9307
S11310E0FF9382EC86BD80918E0B90918F0BA09123
S11310F0900BB091910B0196A11DB11D80938E0BA5
S113110090938F0BA093900BB093910B80917108E7
S1131110909172080196909372088093710880915F
S11311205B0A8F5F80935B0AEAEDF7E0808191812F
S1131130019691838083ECEDF7E0808191810196A3
S113114091838083EEEDF7E0808191810196918314
S11311508083E0EEF7E08081918101969183808322
S1131160E2EEF7E080819181019691838083E4EE41
S1131170F7E080819181019691838083E6EEF7E028
S113118080819181019691838083E8EEF7E08081EC
S11311909181019691838083EAEEF7E080819181C9
S11311A0019691838083ECEEF7E080819181019632
S11311B091838083EEEEF7E08081918101969183A3
S11311C08083FF91EF91BF91AF919F918F910F9089
S11311D00FBE0F901F9018951F920F920FB60F928B
S11311E011248F939F93EF93FF93E091E70AEA30E2
S11311F058F481E08E0F8093E70AF0E0EE54F54F47
S113120080818093C60007C089EF90E00197F1F7D1
S113121000C000002998FF91EF919F918F910F904A
S11312200FBE0F901F9018951F920F920FB60F923A
S113123011242F933F934F938F939F93EF93FF9397
S11312408091C6008093580B20E035E4E22FF0E053
S1131250E85AF44F80818534F1F02F5F80E090E00C
S11312604091C00047FD06C0883843E1940729F047
S11312700196F6CF8838934131F4E22FF0E0E85A32
S1131280F44F3083E3CF8091C600E22FF0E0E85AB8
S1131290F44F8083DBCFE8E5FBE080E09191890F98
S11312A09BE0EF35F907D1F790915F0B89130BC0E1
S11312B08091590B823039F480915A0B8093E60A5D
S11312C081E080935D0AFF91EF919F918F914F91FF
S11312D03F912F910F900FBE0F901F9018951F9262
S11312E00F920FB60F9211248F939F938091930BBB
S11312F09091940B01969093940B8093930B9F91F0
S11313008F910F900FBE0F901F9018951F920F9200
S11313100FB60F9211248F939F938091190B909184
S11313201A0B019690931A0B8093190B9F918F912E
S11313300F900FBE0F901F9018951F920F920FB62B
S11313400F9211242F933F934F935F936F937F9347
S11313508F939F93AF93BF93EF93FF936DE08DEDC6
S113136094E00E94812AFF91EF91BF91AF919F91E8
S11313708F917F916F915F914F913F912F910F903A
S11313800FBE0F901F9018958091110B813039F486
S11313908091620A9091630A9695879552C08091D4
S11313A0310B813041F52091950B3091960B809152
S11313B0620A9091630A8217930720F49093960B24
S11313C08093950B2091950B3091960B8091640A34
S11313D09091650A8217930728F01092960B109249
S11313E0950B3FC08091570B8823D9F18091950BC1
S11313F09091960B26C08091570B813091F5809186
S1131400620A9091630A20916E0A30916F0A8217E2
S1131410930720F490936F0A80936E0A8091640A74
S11314209091650A20916E0A30916F0A2817390746
S113143020F490936F0A80936E0A80916E0A9091C3
S11314406F0A23E0880F991F2A95E1F763E070E0A3
S11314500E94833668537F4F70938B0060938A0099
S1131460089588EC90E090938B0080938A0008950F
S11314708091110B813039F48091620A9091630A52
S11314809695879552C08091310B813041F520911A
S1131490950B3091960B8091620A9091630A8217A2
S11314A0930720F49093960B8093950B2091950BC2
S11314B03091960B8091640A9091650A8217930784
S11314C028F01092960B1092950B3FC08091570B09
S11314D08823D9F18091950B9091960B26C0809129
S11314E0570B813091F58091620A9091630A2091A3
S11314F06E0A30916F0A8217930720F490936F0A53
S113150080936E0A8091640A9091650A20916E0A14
S113151030916F0A2817390720F490936F0A80934B
S11315206E0A80916E0A90916F0A43E0880F991FAA
S11315304A95E1F763E070E00E94833668537F4F79
S11315407093890060938800089588EC90E09093EC
S11315508900809388000895409A389A81E08093A6
S1131560790BEFE4FDE080818860808308954098E2
S1131570389A1092790BEFE4FDE08081877F8083B5
S113158008953B9A81E090E09093700880936F08EF
S1131590E6EAFBE0808180628083EFE4FDE0808105
S11315A08062808381818E7F818308951092700888
S11315B010926F083B9AE6EAFBE080818F7D80837E
S11315C0EFE4FDE080818F7D808381818E7F818344
S11315D01092920B0895449A3C9A81E08093830B75
S11315E0089544983C9A1092830B0895429A3A9A2B
S11315F081E08093570BEFE4FDE08081806180837C
S11316001092B10A1092340B089542983A9A1092AB
S1131610570BEFE4FDE080818F7E808308950E9464
S1131620050B0E94D60A1092310BEFE4FDE0808195
S11316301092220B8D7F8B7F80831092110B10925E
S1131640870B3E9A08950E94B70A0E940F0B1092CE
S1131650870B84E993E10C94122981E08093920B27
S11316601092120B08958091920B813051F4909155
S1131670120B8091670A891720F41092920B0C9434
S1131680C10A08958091310B813071F5429B0EC0DF
S11316908091200B9091210B059720F50E94050B5A
S11316A00E94D60A10920C0B3E9A1CC02091200B6B
S11316B03091210B80911E0B90911F0B8A55924300
S11316C08217930778F480910C0B882339F080916A
S11316D0870B811107C010920C0B3E9A0E94F60AE8
S11316E00E942D0B0C94330B08958091220B8130B2
S11316F011F40C94330B0895CF9330916D08332378
S113170009F484C08AEA8093B20A80910F088F5F3B
S113171080930F082BEA829F212D11242695922F66
S1131720990F920F282F291B832F90E009F529E0A8
S11317302093B30A019724E1289FF001299FF00D1B
S11317401124EC5EF74F82818093B40A83818093E5
S1131750B50A84818093B60A85818093B70A86810D
S11317608093B80A87818093B90A3093BA0A3FC03C
S11317702130E9F42AE02093B30A019724E1289F59
S1131780F001299FF00D1124EC5EF74F80858093C2
S1131790B40A81858093B50A82858093B60A8385CD
S11317A08093B70A84858093B80A85851CC02BE092
S11317B02093B30A019724E1289FF001299FF00D9B
S11317C01124EC5EF74F86858093B40A8785809355
S11317D0B50A80898093B60A81898093B70A828981
S11317E08093B80A83898093B90A1092BA0A109236
S11317F0BB0AE2EBFAE081919091BB0A890F8093D6
S1131800BB0A8AE0EB3BF807B1F758C180916E0838
S11318108F5F80936E088AEA8093B20AC0911008A1
S113182026E08C2F622F0E947736923009F45EC036
S113183018F5992309F440C0913009F093C020931E
S1131840B30A8091690A8093B40A8091660A8093EE
S1131850B50A80916A0A8093B60A80916B0A8093D4
S1131860B70A80916C0A8093B80A8091730A8093B6
S1131870B90A8091740A57C0933009F457C0943060
S113188009F070C08DE08093B30A80919F0A809321
S1131890B40A8091A00A8093B50A8091A10A80932A
S11318A0B60A8091A20A8093B70A1092B80A1092DD
S11318B0B90A1092BA0AF1C085E08093B30A809104
S11318C0620A9091630A9093B40A8093B50A809156
S11318D0640A9091650A9093B60A8093B70A80913E
S11318E07B0A8093B80A8091670A19C087E08093C5
S11318F0B30A8091750A8093B40A80917A0A80931E
S1131900B50A80917C0A8093B60A80917D0A8093FF
S1131910B70A8091800A8093B80A8091810A8093E3
S1131920B90A8091680A8093BA0AB7C088E08093A4
S1131930B30A80918A0A8093B40A80918B0A8093B7
S1131940B50A80918C0A8093B60A80918D0A80939F
S1131950B70A8091780A8093B80A1092B90A8091E4
S1131960720AE1CF8091110B813039F42091620A1F
S11319703091630A3695279518C08091570B8823B8
S113198091F08091310B813029F42091950B3091A5
S1131990960B0BC08091220B813029F420916E0AA2
S11319A030916F0A02C020E030E082E08093B30AF5
S11319B08091790B811105C01092B70A1092B80A70
S11319C00CC04091980B5091990B5093B70A4091D9
S11319D0980B5091990B4093B80AE091790BA09120
S11319E0310B6091220B4091570B9091760B8091B3
S11319F0E40A50912C0B990F990F880F982B952B73
S1131A0080916F08880F880F880F982B80E4A89F17
S1131A10D001112480E8E89FF0011124EA2B80E230
S1131A20689FB0011124E62B80E1489FA001112496
S1131A30E42B9E2B9093B40A3093B50A2093B60AF4
S1131A4020912D0B30912E0B64E0369527956A95E5
S1131A50E1F73093B90A2093BA0A8091310B8130AF
S1131A6079F48091870B813059F42091950B309152
S1131A70960B232B29F08091B30A80648093B30AD8
S1131A808091220B813049F48091870B813029F4B5
S1131A908091B30A80688093B30ACF5FC093100823
S1131AA01092BB0AE2EBFAE081919091BB0A890F94
S1131AB08093BB0A8AE0EB3BF807B1F7299A85E8E3
S1131AC08A95F1F700008091B20A8093C60081E004
S1131AD08093E70ACF910895CF92DF92EF92FF921D
S1131AE00F931F93CF93DF936C01E12CF12CA7018B
S1131AF096016091070B7091080B6817790708F03D
S1131B00B2C08B3562E3960720F09C012A5532431C
S1131B1002C021E030E0A4E6B0E00E94E236209169
S1131B20680A30E040E050E00E94AB363093210B6D
S1131B302093200BC091640AD091650A0091620A37
S1131B401091630AD801AC1BBD0B0E94E2362EE54E
S1131B5039EC40E050E00E94AB363093960B209372
S1131B60950B8091950B9091960B059780F481E0ED
S1131B708093560B10922B0B8091950B9091960BA2
S1131B80892B39F41092210B1092200B02C0109271
S1131B90560B8091950B9091960B8C0F9D1F9093F3
S1131BA0960B8093950B8091A00A813009F04EC06A
S1131BB02091A20A822F90E0A0E0B0E030910E08BC
S1131BC0C816D906EA06FB0630F43F5F39320CF436
S1131BD054C038E252C03150383D0CF438ED3093E3
S1131BE00E08C816D906EA06FB0689F0C81AD90AEF
S1131BF0EA0AFB0A30E02C9DC0012D9D900D3C9D0E
S1131C00900D11246AEF70E00E94973602C060E0E4
S1131C1070E080919F0A90910E08690F711D97FDE5
S1131C207A95680F711D77FF05C0D093960BC0930A
S1131C30950B0CC00617170728F41093960B009306
S1131C40950B04C07093960B6093950B8091200BB9
S1131C509091210B8534954B68F081E080932B0B98
S1131C601092560B0DC01092210B1092200B81E0A4
S1131C708093560B10922B0B03C030930E08B6CFF3
S1131C80DF91CF911F910F91FF90EF90DF90CF9054
S1131C900895CF93CFB7F894F999FECF0E94F63602
S1131CA0F999FECFCFBFCF910895CF93CFB7F894D2
S1131CB0F999FECF0E940437F999FECFCFBFCF9197
S1131CC00895CF93CFB7F894F999FECF0E94FE36CA
S1131CD0F999FECFCFBFCF910895CF93CFB7F894A2
S1131CE0F999FECF0E941237F999FECFCFBFCF9159
S1131CF008955F926F927F928F929F92AF92BF925C
S1131D00CF92DF92EF92FF920F931F93CF93DF93C3
S1131D10EC017C0180E5E80EF11C5E0180EAA80E6E
S1131D20B11C8E0100511F4F6E0180ECC81A8EEF5A
S1131D30D80ACE010E94490E982EC7010E94490E6E
S1131D40882EC5010E94490E782EC8010E94490EB2
S1131D50582EC6010E94490E682E981017C097107D
S1131D6005C09514D9F0692DC80116C0951003C09B
S1131D70692DC50111C098122AC0692DC5010E94A0
S1131D80550E692DC8010E94550E61C0971011C0EF
S1131D9095100AC0692DC7010E94550E961409F4C6
S1131DA056C0692DC601EFCF981229C0692DC7010D
S1131DB0E6CF95100CC098120AC0692DC5010E9487
S1131DC0550E981409F443C0692DC701DCCF871060
S1131DD016C085100BC0891421F0682DCE010E9415
S1131DE0550E861499F1682DC6012EC0861025C0A3
S1131DF0891441F1682DCE010E94550E23C085102F
S1131E000BC086101AC0891421F0682DCE010E94DF
S1131E10550E682DC50118C075100FC076100DC081
S1131E20791421F0672DCE010E94550E781441F0EB
S1131E30672DC7010E94550E03C099249A9407C0C8
S1131E40972C05C0682DC8010E94550E982C892D29
S1131E50DF91CF911F910F91FF90EF90DF90CF9082
S1131E60BF90AF909F908F907F906F905F900895F8
S1131E701F93CF93DF93EC01162F0E94550E612F11
S1131E80CE01805B9F4F0E94550E612FCE0180567C
S1131E909F4F0E94550E612FCE0180519F4F0E948B
S1131EA0550E612FCE01805C9E4FDF91CF911F9123
S1131EB00C94550E2F923F924F925F926F927F92A5
S1131EC08F929F92AF92BF92CF92DF92EF92FF9246
S1131ED00F931F93CF93DF9300D000D0CDB7DEB71D
S1131EE03C012C0180E5480E511C4301E0EA8E0EB2
S1131EF0911C1301F0EF2F0E311C530180ECA81A32
S1131F008EEFB80AC3010E94610EAC01C2014B837B
S1131F105C830E94610E8C01C4010E94610E7C01ED
S1131F20C1010E94610E9C01C50129833A830E946C
S1131F30610E6C014B815C8129813A814017510704
S1131F4089F54E155F0591F44217530731F0BA0134
S1131F50C1010E946D0E5C814B814C155D0509F435
S1131F609AC0BA01C5014B835C8311C04217530761
S1131F7099F4BA01C4014B835C830E946D0E4B81BA
S1131F805C814C155D0509F486C0BA01C5010E9447
S1131F906D0E4B815C817FC04817590779F5BA01F2
S1131FA0C4010EC04E155F05A1F44217530719F47E
S1131FB0BA01C201E0CF48175907F1F5BA01C201CD
S1131FC04B835C830E946D0E4B815C81BA01C1011D
S1131FD0DECF4217530791F44817590779F4BA0131
S1131FE0C4014B835C830E946D0E4B815C8140175E
S1131FF0510709F450C0BA01C201C9CF0E151F051B
S1132000D9F40217130769F40417150721F0B8016E
S1132010C3010E946D0E0C151D05E1F1B801C50147
S113202037C00C151D0569F50417150779F1B801BA
S1132030C3010E946D0E2AC00217130769F40C1520
S11320401D05F9F40417150721F0B801C3010E9416
S11320506D0EB801C4011CC0E216F30691F4EC1431
S1132060FD0479F4E416F50621F0B701C3010E94DA
S11320706D0EE016F10641F0B701C2010E946D0E2B
S113208003C04FEF50E007C0A70105C0B801C1016C
S11320900E946D0EA801CA010F900F900F900F902F
S11320A0DF91CF911F910F91FF90EF90DF90CF9030
S11320B0BF90AF909F908F907F906F905F904F9064
S11320C03F902F9008950F931F93CF93DF93EC01CC
S11320D08B010E946D0EB801CE01805B9F4F0E9460
S11320E06D0EB801CE0180569F4F0E946D0EB8014F
S11320F0CE0180519F4F0E946D0EB801CE01805CCD
S11321009E4FDF91CF911F910F910C946D0EEF9222
S1132110FF920F931F93CF93DF93EC01162FA89593
S11321206C817D8184E091E00E9463106E817F81E7
S113213086E091E00E946310688588E091E00E9447
S1132140380F698589E091E00E94380F6A858AE03A
S113215091E00E94380F6B858BE091E00E94380F6C
S11321606C858CE091E00E94380F6D858DE091E0E4
S11321700E94380F6E858EE091E00E94380F6F85C3
S11321808FE091E00E94380F6889798980E191E0BD
S11321900E946310112331F06A897B8982E191E006
S11321A00E9463106C8984E191E00E94380F6D896C
S11321B085E191E00E94380F6E8986E191E00E94EA
S11321C0380F6F8987E191E00E94380F64E079E16C
S11321D088E191E00E9463106A8D8AE191E00E9497
S11321E0380F6B8D8BE191E00E94380F6C8D8CE180
S11321F091E00E94380F6D8D8DE191E00E94380FBF
S11322006E8D8EE191E00E94380FFE01E05CFF4F7D
S1132210608180E491E00E94380F112331F060E086
S113222070E080E291E00E94631000E010E07E0123
S1132230E00EF11EF70164A5C801845D9E4F0E9463
S1132240380FF70164A9C8018C5C9E4F0E94380FB7
S1132250F70160A9C801805D9E4F0E94380F0F5F8F
S11322601F4F0430110519F7CE018C960E941A30C5
S1132270FE01EF5BFF4F608181E491E00E94380F23
S1132280FE01EE5BFF4F608182E491E00E94380F13
S1132290FE01ED5BFF4F608183E491E00E94380F03
S11322A0CC5BDF4F688184E491E0DF91CF911F9193
S11322B00F91FF90EF900C94380F80917A0B9091CE
S11322C07B0B81319E4040F110927B0B10927A0B74
S11322D06091700A7091710A6230710520F481E096
S11322E08093270B0AC0615071097093710A60933F
S11322F0700A82E191E00E94631080E291E00E9402
S11323005A0FBC016F5F7F4F70937F0A60937E0A00
S113231080E291E00E9463108091270B813029F4C0
S11323200E94230B83E08093720A089584B7877F09
S113233084BFA89588E10FB6F8948093600010924A
S113234060000FBE8FE493EC0197F1F700C000002A
S1132350F8942BE088E190E00FB6F894A895809368
S113236060000FBE20936000FFCFCF93DF93CDB703
S1132370DEB7C055D1090FB6F894DEBF0FBECDBF8E
S11323801092AE0A84E091E09E838D8384E690E00F
S113239098878F8383E2898784E18A8734E63B8741
S11323A021E02C878CE88D872E8742E34F87288B8A
S11323B088E790E09A8B898B80E29DEF9C8B8B8BD6
S11323C01D8A4E8B3F8B388F84E099E19A8F898FD9
S11323D082E08B8F93E09C8F8D8F2E8F2F8F1AA28C
S11323E019A285E022968FAF229790EC9DA788EAE8
S11323F08EA71FA63DEF38AB9DAB8EAB1FAA28AFAF
S11324008FEF89AB8AAB8BAB1CAA23961FAE2397A5
S113241024961FAE249725962FAF25978CE02696F9
S11324208FAF269761E0CE0101960E9487102FE7B7
S113243088E391E0215080409040E1F700C0000023
S11324400E949611CF93DF93C82F88E191E00E94F8
S11324505A0F8430994179F08FE493EC0197F1F7A6
S113246000C0000088E191E00E945A0F8430994135
S113247011F00E94B51180E091E00E945A0F893159
S1132480944031F069E174E080E091E00E946310CF
S113249082E091E00E945A0F8131944131F061E170
S11324A074E182E091E00E94631084E68093680AFC
S11324B08BE091E00E94790E8093690AC11118C0E3
S11324C090914F0D813031F48093760B916090930D
S11324D04F0D0EC082E08093690A1092760B892F0B
S11324E08E7F80934F0D62E08BE091E00E94380F65
S11324F08CE091E00E94790E843610F484E603C0E7
S1132500893C08F088EC80936A0A8DE091E00E948F
S1132510790E80936B0A811104C081E08093E50AEF
S113252005C081E080936B0A1092E50A8EE091E089
S11325300E94790E853610F084E603C08A3008F4D0
S11325408AE080936C0A84E68093810A84E091E0B7
S11325500E945A0F8D3261E0960718F08CE291E0E8
S113256005C08832910510F488E290E09093630AE4
S11325708093620A86E091E00E945A0F88329105A6
S113258018F488E290E006C08D3221E0920710F042
S11325908CE291E09093650A8093640A88E091E06C
S11325A00E94790E8093660A90916C0A981718F429
S11325B09093660A05C08A3018F48AE08093660A0C
S11325C08AE08093800A89E091E00E94790E82304B
S11325D010F482E003C0893C08F088EC8093670A19
S11325E080E191E00E945A0F90936F0A80936E0AE3
S11325F02091640A3091650A8217930738F020917C
S1132600620A3091630A2817390720F430936F0A5D
S113261020936E0A82E191E00E945A0F9093710A0E
S11326208093700A009721F481E08093270B21C0E6
S113263068E170E00E94833670939C0B60939B0B5F
S113264080919B0B90919C0B8D389A4030F08CE8D4
S11326509AE090939C0B80939B0B80919B0B9091A1
S11326609C0B892B31F481E090E090939C0B809338
S11326709B0B8FE091E00E94790E9FEF980F9330AF
S113268008F081E080936D0A85E191E00E94790E63
S11326908E3110F48EE103C0853608F084E6809311
S11326A0730A85E892E090931F0B80931E0B209190
S11326B01E0B30911F0B4091730A429FC001439F30
S11326C0900D112490931F0B80931E0B86E191E0D3
S11326D00E94790E803510F480E503C0873908F034
S11326E086E98093740A81E890E09093080B8093C4
S11326F0070B2091070B3091080B4091740A429FFD
S1132700C001439F900D11249093080B8093070BF5
S113271087E191E00E94790E863410F486E403C0C8
S1132720833808F082E88093750A84E680937D0AF2
S11327308AE191E00E94790E823008F482E080936D
S1132740780A8BE191E00E94790E811102C081E048
S113275003C0843008F083E08093790A8CE191E02F
S11327600E94790E813009F082E080937A0A8DE12B
S113277091E00E94790E813009F082E080937B0A17
S11327808EE191E00E94790E811102C081E003C0C4
S1132790843608F083E680937C0A80E291E00E940C
S11327A05A0F90937F0A80937E0AD091660A2091F3
S11327B06A0A30E0AD2FB0E00E94D3366B5F7F4FE2
S11327C08F4F9F4F2AE030E040E050E00E94AB364C
S11327D030939E0B20939D0B80916C0A6AE0869F38
S11327E0C00111242817390728F0059790939E0BF0
S11327F080939D0B2AE0D29FC001112490937D0BFE
S113280080937C0BC1115FC08AE391E00E945A0F50
S11328109093990A8093980A9093480E8093470E58
S113282088E391E00E945A0F9093970A8093960A46
S113283090934B0E80934A0E8EE391E00E945A0FC0
S113284090939D0A80939C0A90934D0E80934C0E16
S11328508CE391E00E945A0F90939B0A80939A0A0A
S113286090934F0E80934E0E80E491E00E94790E77
S113287080939E0A6BE08BEE94E00E94812A609123
S1132880960A7091970A80E090E041E00E94822AC3
S11328906091980A7091990A80E090E041E00E946A
S11328A0822A60919A0A70919B0A80E090E041E04C
S11328B00E94822A60919C0A70919D0A80E090E0B7
S11328C041E00E94822A81E491E00E94790E809383
S11328D09F0A482F50E02091640A3091650A809144
S11328E0620A9091630A4217530718F084179507F8
S11328F060F40196A90102C0569547958A95E2F7BE
S1132900CA019695879580939F0A82E491E00E947C
S1132910790E823018F48093A00A02C01092A00AA3
S113292083E491E00E94790E811101C081E08093DB
S1132930A10A8091A10A8F3F19F481E08093A10A32
S113294084E491E00E94790E9BEF980F9F3008F089
S11329508CE08093A20ADF91CF9108951092E90A46
S113296010922A0B1092ED0A1092B00A1092EF0AFC
S11329701092E80A1092DC0A1092020B60E187EFD1
S113298094E00E94812A81E00E9422128FEF8093BA
S11329900A0B1092250B1092AE0A089581E08093E1
S11329A0310BEFE4FDE080811092220B82608B7F7B
S11329B080831092110B1092B10A6CE088E095E0CC
S11329C00E94812A0C94AE148091760B813009F018
S11329D0E9C0039933C080918E0B90918F0BA09125
S11329E0900BB091910B80930A0890930B08A093DD
S11329F00C08B0930D0880918E0B90918F0BA091D1
S1132A00900BB091910B409106085091070860918A
S1132A10080870910908841B950BA60BB70B893C19
S1132A209105A105B10508F440C08091790B81118D
S1132A303CC00E94D60A0E94AC0A37C080918E0B1B
S1132A4090918F0BA091900BB091910B80930608FD
S1132A5090930708A0930808B093090880918E0BFF
S1132A6090918F0BA091900BB091910B40910A081B
S1132A7050910B0860910C0870910D08841B950B04
S1132A80A60BB70B853F9140A105B10570F080916D
S1132A90790B813011F48093720A0E94230B84E92C
S1132AA093E10E9412291092C909049944C0039920
S1132AB042C080918E0B90918F0BA091900BB0919E
S1132AC0910B8093020890930308A0930408B09399
S1132AD0050880918E0B90918F0BA091900BB09173
S1132AE0910B4091FE075091FF076091000870918F
S1132AF00108841B950BA60BB70B4597A105B105DF
S1132B0008F450C08091310B81114CC08091C909E7
S1132B10883011F40C94CE1484E993E10E942D2A98
S1132B20811140C020E040E45FE160E070E084E9AE
S1132B3093E10C949B28049B35C080918E0B90915B
S1132B408F0BA091900BB091910B8093FE07909303
S1132B50FF07A0930008B093010880918E0B909119
S1132B608F0BA091900BB091910B40910208509162
S1132B7003086091040870910508841B950BA60B4B
S1132B80B70B893C9105A105B10560F08091570B05
S1132B90813041F484E993E10E9412291092C90919
S1132BA00C940F0B089581E08093220BEFE4FDE079
S1132BB080811092310B84608D7F80831092110B81
S1132BC01092B10A0E94F60A0E942D0B6EE085E174
S1132BD095E00E94812A0C94AE148091ED0A813014
S1132BE079F58091DC0A90E08830910508F0F9C00D
S1132BF0FC01E65BFF4F0C94CD366091680A8AE0D5
S1132C0091E0E4C06091690A8BE091E0DFC06091DB
S1132C106A0A8CE091E0DAC060916B0A8DE091E081
S1132C20D5C060916C0A8EE091E0D0C060916D0ACD
S1132C308FE091E0CBC060917C0A8EE191E0C6C048
S1132C408091E80A813001F58091DC0A8111C9C0C4
S1132C5080919B0B90919C0B28E1289FB001299FA8
S1132C60700D11247093710A6093700A82E191E0EF
S1132C700E9463108091700A9091710A892B09F463
S1132C80B0C01092270B08958091B00A813009F0EA
S1132C9075C08091DC0A90E08730910508F0A1C0EE
S1132CA0FC01EE5AFF4F0C94CD366091730A85E116
S1132CB091E08CC06091740A86E191E087C06091D4
S1132CC0750A87E191E082C06091780A8AE191E017
S1132CD07DC06091790A8BE191E00E94380F809168
S1132CE0790A0C94472A60917A0A8CE191E00E9457
S1132CF0380F8FEC97E00197F1F700C00000809146
S1132D007A0A823009F06DC02FEF48EE53E060E09C
S1132D1070E08DE893E130C060917B0A8DE191E031
S1132D200E94380F80916800877F809368008091AB
S1132D306D008F7780936D008EE893E10E941229D5
S1132D408FEC97E00197F1F700C0000080917B0AB7
S1132D50823009F046C080916800886080936800E2
S1132D6080916D00806880936D002FEF48EE53E0F2
S1132D7060E070E08EE893E10C949B288091DC0A7B
S1132D808230D9F028F4882349F0813071F0089515
S1132D908430F1F0B8F08530F1F008956091620A62
S1132DA07091630A84E091E006C06091640A7091B6
S1132DB0650A86E091E00C9463106091660A88E0ED
S1132DC091E004C06091670A89E091E00C94380FA7
S1132DD01092720A08958091AE0A883011F40E940C
S1132DE0B5110895E9EFFBE080E090E02191820FB6
S1132DF0911D2CE0E533F207C9F708958091F70B94
S1132E009091F60B890F9091F80B890F0895E8EBD8
S1132E10FBE080E090E02191820F911D2BE0E43FE4
S1132E20F207C9F708958091B50B9091B40B890FFF
S1132E309091B60B890F08958091500D4E9902C060
S1132E40059B07C091E09093840B81608093500DA3
S1132E500FC01092840B8E7F8093500D8091AF0A27
S1132E60811106C080915C0A811102C045980895C1
S1132E70459A089502991FC080918E0B90918F0BF3
S1132E80A091900BB091910B4091FA075091FB07E0
S1132E906091FC077091FD07841B950BA60BB70B83
S1132EA0853F9140A105B105B0F00E940F0B81E070
S1132EB08093E40A12C080918E0B90918F0BA091A5
S1132EC0900BB091910B8093FA079093FB07A0931A
S1132ED0FC07B093FD071092E40A3E9A089580918E
S1132EE07B0A813011F400000895823021F480912E
S1132EF00D0B90910E0B089580917A0A8130C1F4E4
S1132F00429B0EC0379B3FC09091B10A9531D8F1D6
S1132F109091340B993C08F463C01092340B26C092
S1132F2080910C0B813009F05BC0379951C040C0CF
S1132F30823009F055C0429B29C02091EA0A3091A1
S1132F40EB0A80917C0A43E0849FC001112401971D
S1132F5028173907C0F48091B10A8531A0F0809117
S1132F60340B893CE8F11092340B81E08093870B99
S1132F701092970B1092B10A80930C0B3E9A0E9408
S1132F80050B0C94D60A1092340B1FC080910C0BC5
S1132F90813031F52091EA0A3091EB0A80917C0A64
S1132FA043E0849FC001112402978217930780F4A1
S1132FB01092340B8091970B8F5F8093970B8091C5
S1132FC0970B833068F01092970B1092870B08953B
S1132FD08091340B853620F01092340B1092970BAD
S1132FE008958FEF9FEFDC01809364089093650848
S1132FF0A0936608B093670808950F931F934091B8
S113300064085091650860916608709167088A01A8
S11330109B010827D901C8019927AA27BB27FC01CE
S1133020EE0FFF1FEE0FFF1FEA5AFD4F452F562FDD
S1133030672F772780819181A281B3818427952787
S1133040A627B7278093640890936508A093660821
S1133050B09367081F910F9108950F931F93CF9317
S1133060DF931F92CDB7DEB78C01680F601741F074
S1133070F80181918F0169830E94FD176981F6CF60
S11330800F90DF91CF911F910F9108956091640883
S113309070916508809166089091670860957095B5
S11330A0809590950895009789F0662379F0282FEC
S11330B0FC0180E09E2F921B961738F4A191A8275B
S11330C0B0E0A05DBA4F8C91F5CF08958FEF0895CD
S11330D0FC01CB01009729F485E18083818312826E
S11330E0089564E670E00E948336262F60836AE0C8
S11330F070E00E94833661838283211105C085E1DB
S11331008083611101C0818308958091160B813001
S113311009F0B7C082E18093A70B84E18093A80BE8
S11331202091490E81E0820F8093A90B223009F48B
S11331305FC060F5222309F445C0213009F091C035
S11331408091000B9091010B34E0880F991F3A9500
S1133150E1F760916C0A70E00E948336CB016AE06B
S113316070E00E9483366C5F7F4F8DE08093AE0BDE
S113317091E19093AF0B8093B00B8EE28093B10BEF
S11331808FE28093B20B2093B30B4DC3243009F428
S113319052C008F43FC0253009F063C085E1809334
S11331A0AE0B83E18093AF0B83E28093B00B8BE093
S11331B08093B10B8093B20B80E18093B30B64E1F5
S11331C070E031C380918A0B90918B0B6BE470E0BB
S11331D00E94833685E18093AE0B81E18093AF0B2F
S11331E08CE28093B00B8DE08093B10B8EE20EC322
S11331F06091770B7091780B85E18093AE0B8CE234
S11332008093AF0B81E18093B00B82E28093B10B8A
S113321081E28FC16091280B7091290B85E1809325
S1133220AE0B91E29093AF0B22E22093B00B9093FC
S1133230B10B9CE046C280917E0A90917F0A68E1BE
S113324070E00E94833685E18093AE0B9EE29093FA
S1133250AF0B9DE29093B00B98E29093B10B93E285
S113326030C285E18093AE0B8093AF0B8093B00B9B
S11332708093B10B8093B20B8093B30B6BE770E038
S1133280D2C29091030B913009F0A2C08AE08093DE
S1133290A70B84E18093A80B8091460E21E0280FB0
S11332A02093A90B8230B9F128F4882351F081309E
S11332B0D1F07EC0833009F442C0843009F456C092
S11332C077C08091AF0A61E070E0813009F060E07E
S11332D085E18093AE0B8FE28093AF0B9DE09093DA
S11332E0B00B91E147C161E070E080910C0B81303B
S11332F009F060E085E18093AE0B8CE28093AF0B24
S113330081E18093B00B82E28093B10B89E28093D8
S1133310B20B83E211C18091130B61E070E0813044
S113332009F060E085E18093AE0B91E19093AF0BDF
S11333309CE29093B00B2BE02093B10BC2C160B11F
S1133340669566956927617070E085E18093AE0BA0
S11333508DE28093AF0B81E18093B00B84E2809384
S1133360B10B8DE08093B20B88E2E6C08091110826
S1133370909112082091620A3091630A61E070E032
S11333802817390740F02091640A3091650A8217A2
S1133390930708F060E085E18093AE0B8CE28093A4
S11333A0AF0B81E18093B00B82E28093B10B2EC20C
S11333B085E18093AE0B8093AF0B8093B00B809329
S11333C0B10B8093B20B8093B30B67E372E02BC213
S11333D09091EF0A8091DC0A913009F05CC086304C
S11333E0A0F18091250B8130C9F4EAE2F5E0A5E56E
S11333F0BAE081912D9190E0C09730E08217930755
S113340009F015C225E0E033F20799F71092EF0AAC
S113341081E08093E80A1092250B0DC2E4E2F5E006
S1133420A5E5BAE081912D9190E0C09730E0821734
S1133430930709F003C285E0EA32F80799F710927E
S1133440EF0A81E08093B00AF6C18091550A809317
S1133450A70B8091560A8093A80B8091570A8093FA
S1133460A90B8091580A8093AA0B8091590A8093E2
S1133470AB0B80915A0A8093AC0B85E18093AE0B21
S11334808093AF0B8093B00B8093B10B8093B20BFE
S11334908093B30B089594E19093A80B91E0980F57
S11334A09093A90B9091E80A913011F594E09093D0
S11334B0A70B811119C080919B0B90919C0B883EA6
S11334C0934028F460919B0B70919C0B02C067EEB3
S11334D073E085E18093AE0B98E29093AF0B93E297
S11334E09093B00B9DE2EAC067E080E396E095C15B
S11334F09091ED0A913009F093C092E09093A70B5C
S113350090E08830910508F087C0FC01E75AFF4F2E
S11335100C94CD366091680A70E085E18093AE0B1F
S113352081E18093AF0B9CE29093B00B91E2909376
S1133530B10B8093B20B8CE08093B30B74C1609198
S1133540690A70E085E18093AE0B98E29093AF0B2B
S11335509DE09093B00B9EE24AC060916A0A70E0CD
S113356085E18093AE0B8FE28093AF0B9DE0909347
S1133570B00B93E29093B10B92E2A3C060916B0AFB
S113358070E085E18093AE0B91E19093AF0B98E2EC
S11335909093B00B94E292C060916C0A70E08FE259
S11335A08093AE0B8DE08093AF0B93E29093B00BBE
S11335B08093B10B81E171C085E18093AE0B809360
S11335C0AF0B8093B00B8093B10B8093B20B8093BD
S11335D0B30B27C160916D0A70E085E18093AE0B57
S11335E091E19093AF0B9CE29093B00B9DE090938C
S11335F0B10B94E266C060917C0A70E085E180932F
S1133600AE0B91E29093AF0B9BE09093B00B809341
S1133610B10B8093B20B90CF61E188E396E0FDC0DB
S11336209091B00A913009F082C093E09093A70B77
S113363090E08730910508F076C0FC01EF59FF4F08
S11336400C94CD366091730A70E085E18093AE0BE3
S113365087E28093AF0B8DE00AC06091740A70E03A
S113366085E18093AE0B89E28093AF0B83E2809374
S1133670B00B81E18093B10B8CE2C8C06091750AF4
S113368070E08DE08093AE0B81E18093AF0B8DE20F
S11336908093B00B8FE28093B10B8093B20B81E0E7
S11336A04BCF6091780A70E085E18093AE0B9CE08B
S11336B09093AF0B93E29093B00B9DE09093B10B7A
S11336C09FE29093B20B38CF6091790A70E085E164
S11336D08093AE0B89E28093AF0B9DE29093B00B85
S11336E09BE09093B10B8093B20B81E125CF609165
S11336F07A0A70E085E18093AE0B91E29093AF0B70
S11337009BE00AC060917B0A70E085E18093AE0B78
S11337109DE09093AF0B9CE29093B00B98E2909352
S1133720B10B93E1CECF62E18AE496E076C091E0FA
S11337309093A70B8230D9F188F4882339F1813032
S113374009F068C06091640A7091650A85E180930C
S1133750AE0B9FE29093AF0B2DE023C0843009F4AD
S113376048C0C8F1853009F055C06091AE0A70E0D8
S113377085E18093AE0B80E18093AF0B8FE0809363
S1133780B00B81E28093B10B83E140C06091620A87
S11337907091630A85E18093AE0B9FE29093AF0B27
S11337A022E22093B00B9093B10B98E28ACF609100
S11337B0660A70E08FE28093AE0B8EE08093AF0BCD
S11337C08DE08093B00B8093B10B81E18093B20BB9
S11337D09093B30B28C06091670A70E085E18093F1
S11337E0AE0B90E19093AF0B9FE29093B00B9EE2EF
S11337F0DACF6091720A70E085E18093AE0B9CE0B1
S11338009093AF0B98E29093B00B27CD8093B20BBB
S11338108FE292CE62E18DE596E00E94812A0E94B9
S1133820AE1460E070E08AEA9BE00C94681865E1ED
S113383080E796E006C01092DC0A089565E186E808
S113384096E00E94812A0C94AE142091140B3091BE
S1133850150B80919D0B90919E0B2817390710F43E
S11338601092550B8091060B843369F485E18093A3
S1133870A70B8093A80B8093A90B8093AA0B80932A
S1133880AB0B80E10EC08533C1F485E18093A70BB7
S11338908093A80B8093A90B8093AA0B8093AB0B06
S11338A081E18093AC0B80919F0B8A3008F4A3C014
S11338B01092060B10929F0B08958091E90A8111D2
S11338C094C08091160B811190C08091030B8111DB
S11338D08CC08091110B813039F46091620A70912F
S11338E0630A7695679518C08091570B882391F0E9
S11338F08091310B813029F46091950B7091960B76
S11339000BC08091220B813029F460916E0A709172
S11339106F0A02C060E070E070934C0D60934B0D31
S11339208AEA9BE00E9468188091980B9091990B09
S113393090934A0D8093490D84369105C0F42AE092
S1133940289FB001299F700D11248091040B680FEA
S1133950711D87EA9BE00E9468188091A70B85314E
S113396081F08091A70B8A5E8093A70B0AC0BC01EB
S113397087EA9BE00E9468188091A80B8A5E809376
S1133980A80B8091AA0B8093B10B8091AB0B809311
S1133990B20B8091AC0B8093B30B83E18093AE0B9D
S11339A082E18093AF0B81E28093B00B8091790B1D
S11339B0813059F48091A90B8093AA0B8091A80BB4
S11339C08093A90B8091A70B05C01092AA0B85E1E7
S11339D08093A90B8093A80B80E28093A70B85E1C9
S11339E08093AB0B8093AC0B08950E9485181092C2
S11339F0DA0A1092DE0A08959091830BEFE4FDE059
S1133A00818190FB81F981839091E40A818190FB0B
S1133A1082F981839091870B818190FB83F9818363
S1133A2008950E946A2A10926C0810926B081092F2
S1133A306A081092690880E49DE09093430E809395
S1133A40420E88E39DE09093450E8093440E8DEDE5
S1133A509DE09093370C8093360C89E79DE090931A
S1133A60370D8093360D80E3E9E4FDE0DF01982F04
S1133A701D929A95E9F795E19093510D99E19093F0
S1133A80520D90E49093530D91E29093540D8093D2
S1133A90550D86E48093560D08952FEF3FEF680F80
S1133AA0791F86179707A1F0FC014191CF012427C4
S1133AB0E8E0A9015695479520FD02C09A0105C08A
S1133AC09A01F1E02F27F0EA3F27E15091F7E9CF7F
S1133AD0C9010895DF92EF92FF920F931F93CF9342
S1133AE0DF93182FEB01DB80EA80FD804F2D0C81E2
S1133AF0502F2D2D3E2D211584E0380708F465C084
S1133B00240F351F2536344008F05FC0FB01E85A06
S1133B10FF4F8081811121C08091730A8D8F809124
S1133B20740A8E8F8091750A8F8F80917D0A8FA37E
S1133B308091780A8AA38091790A8BA380917B0A69
S1133B408DA380917A0A8CA38CE0EAE8FAE0DB0189
S1133B50D49601900D928A95E1F780E5FE0138969E
S1133B60AEE5BAE001900D928A95E1F760E08EE54A
S1133B709AE00E9487106AE070E080E090E00E9482
S1133B805C318091780A8093380C80E18093390C01
S1133B90D0923A0CE0923B0CF0923C0C00933D0C1A
S1133BA066E070E088E39CE00E944D1D80933E0C2B
S1133BB090933F0C8AEA8093400C8093410C153318
S1133BC011F46AE01EC068E02AC08091780A8093EC
S1133BD0380C80E98093390C82E080933A0C63E0DE
S1133BE070E088E39CE00E944D1D80933B0C909311
S1133BF03C0C8AEA80933D0C80933E0C153361F4AF
S1133C0067E088E39CE0DF91CF911F910F91FF90D3
S1133C10EF90DF900C94812A193561F465E088E314
S1133C209CE0DF91CF911F910F91FF90EF90DF9077
S1133C300C94A733DF91CF911F910F91FF90EF90D8
S1133C40DF9008951F93CF93DF93182FC091360C04
S1133C50D091370C62E670E0CE010E944D1DFE014A
S1133C60EE59FF4F208128130BC0319680818913B0
S1133C7007C0BE01812FDF91CF911F910C946A1D63
S1133C801092410E10926B088091780A8093380C40
S1133C9080E98093390C83E080933A0C63E070E010
S1133CA088E39CE00E944D1D80933B0C90933C0C58
S1133CB08AEA80933D0C80933E0C65E088E39CE0A7
S1133CC0153329F4DF91CF911F910C94812ADF9150
S1133CD0CF911F910C94A733FF920F931F93CF930F
S1133CE0DF93F82EFB0125818481438152814F3F6C
S1133CF0510509F008F4DFC0C22FD82FCE01840F7C
S1133D00951F853131E0930768F48091780A809398
S1133D10380C83E08093390C20933A0CBA01605B31
S1133D20724F9FC0411533E0530708F4BEC085337A
S1133D3033E0930708F081C08091780A8093380CAF
S1133D4083E08093390C20933A0C8091160890E01C
S1133D50982F882720911708820F911D74E096955B
S1133D6087957A95E1F78093530D2091180830E0F8
S1133D70322F222780911908280F311DF4E036953F
S1133D802795FA95E1F72093540D20911A0830E015
S1133D90322F222780911B08280F311DB4E036955D
S1133DA02795BA95E1F72093510D20911C0830E036
S1133DB0322F222780911D08280F311D04E03695EB
S1133DC027950A95E1F72093550D2091220830E0BC
S1133DD0322F222780912308280F311D94E0369535
S1133DE027959A95E1F72093520D2091240830E00D
S1133DF0322F222780912508280F311D74E0369533
S1133E0027957A95E1F72093560D00918E0B10912A
S1133E108F0B2091900B3091910B0093590D1093BF
S1133E205A0D20935B0D30935C0D8091C9098093EA
S1133E305D0DBA01675B754F14C0411534E053073B
S1133E40A0F1813534E0930798F58091780A809346
S1133E50380C83E08093390C20933A0CBA01625AEF
S1133E60794FAE018BE39CE00E94ED368E010D5F2D
S1133E701F4FB80188E39CE00E944D1DF801E85CE7
S1133E80F34F8083FE01E85CF34F94838AEA8583D1
S1133E90868385E3F81203C06C2F695F29C099E516
S1133EA0F9123CC06C2F6B5F30C04115524018F0C2
S1133EB08730924098F18091780A8093380C83E897
S1133EC08093390C82E080933A0C63E070E088E3DD
S1133ED09CE00E944D1D80933B0C90933C0C8AEA1D
S1133EE080933D0C80933E0C85E3F8120AC067E092
S1133EF088E39CE0DF91CF911F910F91FF900C9488
S1133F00812A99E5F9120AC065E088E39CE0DF9113
S1133F10CF911F910F91FF900C94A733DF91CF9114
S1133F201F910F91FF900895FF920F931F93CF93CA
S1133F30DF93F82EC091420ED091430E66E070E0FC
S1133F40CE010E944D1D8C019E8190130CC09F8157
S1133F50911309C0BE018F2DDF91CF911F910F9155
S1133F60FF900C946C1E6DE184E392E00E94812A20
S1133F70B80180E090E041E00E94822A1092480D4E
S1133F8010926C088091780A8093380C83E88093AF
S1133F90390C83E080933A0C63E070E088E39CE0A2
S1133FA00E944D1D80933B0C90933C0C8AEA8093B5
S1133FB03D0C80933E0C85E3F8120AC067E088E369
S1133FC09CE0DF91CF911F910F91FF900C94812A77
S1133FD089E5F8120AC065E088E39CE0DF91CF919F
S1133FE01F910F91FF900C94A733DF91CF911F91F4
S1133FF00F91FF9008950E94FC1C80916A08813003
S113400029F410926A0885E30E94941F809169083C
S1134010813029F41092690885E30C94221E0895D6
S1134020CF93DF93C82FD0916C08D13069F5E0911C
S1134030440EF091450E8091480D91E0980F9093B5
S1134040480DE80FF11DC0838091480D883008F4B5
S11340508CC01092480D10926C0882E993E10E9482
S113406012298091440E9091450E2091420E309178
S1134070430E3093450E2093440E9093430E809349
S1134080420ED0936A0871C0D0916B08D13069F5A3
S1134090E091360DF091370D8091410E91E0980F2B
S11340A09093410EE80FF11DC0838091410E843638
S11340B008F45BC01092410E10926B0882E993E100
S11340C00E9412298091360D9091370D2091360C63
S11340D03091370C3093370D2093360D9093370C75
S11340E08093360CD093690840C09091780A8091EF
S11340F06808981338C0C330D1F481E080936C0809
S11341001092680820E042E350E060E070E082E949
S113411093E10E949B28E091440EF091450E80911A
S1134120780A8083C18382E08093480D1EC0C03129
S1134130E1F481E080936B081092680820E046E97E
S113414050E060E070E082E993E10E949B28E091F6
S1134150360DF091370D8091780A8083C18382E017
S11341608093410E02C0C0936808DF91CF910895F7
S11341701092480D10926C081092410E10926B0828
S113418008958091E90A813071F48091EF0A8111D8
S113419002C00E94ED151092020B8091DC0A8F5F21
S11341A08093DC0A17C08091160B813039F4109289
S11341B0160B8093030B1092490E0AC08091030BD7
S11341C0813041F41092160B1092030B1092460E9C
S11341D01092020B80918E0B90918F0BA091900BFB
S11341E0B091910B80937F0B9093800BA093810BE4
S11341F0B093820B08958091160B813069F410926C
S1134200020B8091490E853020F48F5F8093490E14
S113421008951092490E08958091030B813069F43A
S11342201092020B8091460E863020F48F5F8093AB
S1134230460E08951092460E08958091E90A811160
S113424021C08091220B813009F052C180916E0A05
S113425090916F0A019690936F0A80936E0A209151
S1134260620A3091630A2817390720F430936F0AE1
S113427020936E0A60916E0A70916F0A80E191E05A
S11342800C9463101092020B9091ED0A8091DC0A59
S1134290913009F050C090E08830910508F028C1B1
S11342A0FC01E859FF4F0C94CD3684E68093680AEC
S11342B008958091690A813011F482E001C081E09F
S11342C08093690A089580916A0A8F5F80936A0ACD
S11342D0893C08F40DC188EC80936A0A08958091A2
S11342E06B0A811105C181E080936B0A0895809166
S11342F06C0A8F5F80936C0A853608F4F9C084E6F3
S113430080936C0A089584E380937E0B08958091D2
S11343106D0A833010F48F5F01C081E080936D0AD1
S1134320089580917C0A833610F48F5F01C081E088
S113433080937C0A08959091EF0A913069F4E82FF4
S1134340F0E0EB5AF54F20812F5F20832A3008F4E8
S1134350CFC029E0208308959091E80A9130D1F4E8
S11343608111C6C080919B0B90919C0B01969093F8
S11343709C0B80939B0B80919B0B90919C0B8D3895
S11343809A4008F4B5C08CE89AE090939C0B809313
S11343909B0B08959091B00A913009F055C090E0BC
S11343A08730910508F0A4C0FC01E059FF4F0C943C
S11343B0CD368091730A8F5F8093730A853608F433
S11343C097C084E68093730A08958091740A8F5F7E
S11343D08093740A873908F48BC086E98093740A41
S11343E008958091750A8F5F8093750A833808F465
S11343F07FC082E88093750A08958091780A8E3F81
S113440008F076C08F5F8093780A08958091790AC6
S1134410833010F48F5F01C081E08093790A08959E
S113442080917A0A813011F482E001C081E08093A6
S11344307A0A089580917B0A813011F482E001C0E8
S113444081E080937B0A0895823089F128F48823DF
S113445041F08130C9F008958330A1F18530E9F14C
S113446008958091620A9091630A01969093630A79
S11344708093620A8D329140D8F18CE291E090935E
S1134480630A8093620A08958091640A9091650A90
S113449001969093650A8093640A8D32914040F1AD
S11344A08CE291E09093650A8093640A0895809168
S11344B0660A8F5F8093660A8536D0F084E680931F
S11344C0660A08958091670A8F5F8093670A893C22
S11344D078F088EC8093670A08958091AE0A833659
S11344E020F48091AE0A8F5F01C081E08093AE0A10
S11344F008958091160B813061F41092020B809123
S1134500490E882311F0815001C085E08093490E43
S113451008958091030B813061F41092020B809115
S1134520460E882311F0815001C086E08093460E28
S113453008958091E90A811121C08091220B813074
S113454009F04AC180916E0A90916F0A0197909385
S11345506F0A80936E0A2091640A3091650A82176B
S1134560930720F430936F0A20936E0A60916E0AC9
S113457070916F0A80E191E00C9463101092020B29
S11345809091ED0A8091DC0A913009F04DC090E0E1
S1134590FC013197E730F10508F01EC1E958FF4FDF
S11345A00C94CD368091690A823011F481E001C007
S11345B082E08093690A089580916A0A8150809309
S11345C06A0A843608F008C184E680936A0A08956A
S11345D080916B0A813009F0FFC010926B0A089534
S11345E080916C0A815080936C0A8A3008F0F4C080
S11345F08AE080936C0A089585E380937E0B089586
S113460080916D0A823010F0815001C083E0809364
S11346106D0A089580917C0A823010F0815001C0A7
S113462083E680937C0A08953091EF0A313059F47F
S1134630E82FF0E0EB5AF54F20812150208321111F
S1134640CBC0308308959091E80A9130C9F4811168
S1134650C3C080919B0B90919C0B019790939C0BF2
S113466080939B0B80919B0B90919C0B892B09F061
S1134670B3C081E090E090939C0B80939B0B0895D2
S11346809091B00A913009F055C090E087309105BF
S113469008F0A2C0FC01E258FF4F0C94CD36809183
S11346A0730A81508093730A8E3108F095C08EE1AD
S11346B08093730A08958091740A81508093740AD8
S11346C0803508F089C080E58093740A089580914C
S11346D0750A81508093750A863408F07DC086E49B
S11346E08093750A08958091780A833008F474C021
S11346F081508093780A08958091790A823010F06D
S1134700815001C083E08093790A089580917A0AE8
S1134710813011F482E001C081E080937A0A089527
S113472080917B0A813011F482E001C081E08093A2
S11347307B0A0895823079F128F4882341F081308E
S1134740C1F00895833091F18530D9F108958091B5
S1134750620A9091630A01979093630A8093620AB4
S11347608897D0F588E290E09093630A8093620A78
S113477008958091640A9091650A01979093650A5F
S11347808093640A889740F588E290E09093650AE4
S11347908093640A08958091660A81508093660A22
S11347A08A30D0F48AE08093660A08958091670A7B
S11347B081508093670A823078F482E08093670A9C
S11347C008958091AE0A882321F08091AE0A815029
S11347D001C083E68093AE0A0895FF920F931F935E
S11347E0CF93DF939091760B913009F044C08E32D1
S11347F099F190F48932D1F08C3209F096C49093F7
S11348005B0E90932C0B449A0E94EB0A8091A60BAA
S113481080648093A60B89C4803991F08B3C09F0A5
S113482084C49093560E909313087FC49093560EAD
S11348301092760B80914F0D8E7F80934F0D75C42F
S113484090935B0E10922C0B4498DF91CF911F91A3
S11348500F91FF900C94F10A90935C0E1092760BDA
S113486080914F0D8E7F80934F0D0E94230B85E026
S11348708093720A5AC490E0FC01B897E63AF105B5
S113488008F044C4EB57FF4F0C94CD3681E080937D
S1134890510E68E18BEF96E00E94812A8091790B9A
S11348A0811134C469E184E197E00E94812A0E9465
S11348B0D60A0E94AC0A2AC481E080935B0E8093DE
S11348C02C0B449A0E94EB0A8091A60B80640BC0C7
S11348D081E080935B0E10922C0B44980E94F10AA5
S11348E08091A60B8F7B8093A60B10C481E08093EC
S11348F0520E8091790B813009F008C40E94CE14C5
S113490005C481E08093550E8091790B882329F0AA
S11349108091220B813009F0F9C310927008109233
S11349206F088091DB0A811106C081E08093DB0A65
S11349300E94C10AEBC31092DB0A0E94D60AE6C3A6
S113494081E08093550E1092720810927108809144
S11349506F0890917008892B81F480914A0E909190
S11349604B0E059690934B0E80934A0E81309440E3
S113497008F4CCC380E094E02BC08091470E909162
S1134980480E05969093480E8093470E81309440CC
S113499008F4BCC380E094E02EC081E08093550EFF
S11349A0109272081092710880916F0890917008AB
S11349B0892B99F480914A0E90914B0E0597909310
S11349C04B0E80934A0E449708F0A0C384E190E014
S11349D090934B0E80934A0E99C38091470E909109
S11349E0480E05979093480E8093470E449708F01D
S11349F08DC384E190E09093480E8093470E86C364
S1134A00109272081092710881E08093550E809183
S1134A106F0890917008892B81F480914E0E9091CB
S1134A204F0E059690934F0E80934E0E8130944016
S1134A3008F46CC380E094E02BC080914C0E9091FC
S1134A404D0E059690934D0E80934C0E81309440FC
S1134A5008F45CC380E094E02EC081E08093550E9E
S1134A60109272081092710880916F0890917008EA
S1134A70892B99F480914E0E90914F0E0597909347
S1134A804F0E80934E0E449708F040C384E190E0AB
S1134A9090934F0E80934E0E39C380914C0E90919B
S1134AA04D0E059790934D0E80934C0E449708F04D
S1134AB02DC384E190E090934D0E80934C0E26C359
S1134AC081E08093550E60914A0E70914B0E709365
S1134AD0970A6093960A88E391E00E9463106EE05F
S1134AE08EE297E00E94812A6091960A7091970A5B
S1134AF018C081E08093550E6091470E7091480E66
S1134B007093990A6093980A8AE391E00E94631073
S1134B106CE08DE397E00E94812A6091980A70917D
S1134B20990A80E090E041E00E94822AEFC281E08D
S1134B308093550E60914E0E70914F0E70939B0AA8
S1134B4060939A0A8CE391E00E9463106EE08AE419
S1134B5097E00E94812A60919A0A70919B0AE1CFA2
S1134B6081E08093550E60914C0E70914D0E7093C0
S1134B709D0A60939C0A8EE391E00E9463106CE0AE
S1134B8089E597E00E94812A60919C0A70919D0AB0
S1134B90C8CF81E08093550E81E090E09093700837
S1134BA080936F088091A60B80629DCE81E08093F4
S1134BB0550E1092700810926F088091A60B8F7D8D
S1134BC092CE81E08093550E1CC081E08093550EF7
S1134BD060915C0B70E0762F662780915D0B680F07
S1134BE0711D8091640A9091650A8617970708F0F1
S1134BF08DC27093630A6093620A84E091E00E941C
S1134C0063108AEA8093B20A85E08093B30A8091A4
S1134C105C0B8093B40A80915D0B8093B50A10926B
S1134C20B60A1092B70A1092B80A10926D086EC2B2
S1134C3081E08093550E60915C0B70E0762F6627BF
S1134C4080915D0B680F711D8091620A9091630AD7
S1134C506817790708F05AC27093650A6093640A6A
S1134C6086E091E0CCCF81E08093550E60915D0B9E
S1134C706093660A88E091E009C081E08093550E54
S1134C8060915D0B6093670A89E091E00E94380FA0
S1134C90B8CF81E08093550E60915D0B6093730AE9
S1134CA085E191E0F3CF81E08093550E60915D0B37
S1134CB06093740A86E191E0E9CF81E08093550E18
S1134CC060915D0B60937A0A8CE191E0DFCF81E023
S1134CD08093550E80915C0B813019F0823009F07D
S1134CE0A4CF80936D0812C281E08093550E609129
S1134CF05D0B60937C0A8EE191E0C8CF81E08093E4
S1134D00550E60915D0B60937B0A8DE191E0BECFFF
S1134D1081E08093550E61E186E697E00E94812A46
S1134D2060915D0B6093750A87E191E00EC081E0AC
S1134D308093550E61E186E697E00E94812A609196
S1134D405D0B60937D0A8FE191E00E94380F8AEA3F
S1134D508093B20A85E08093B30A80915C0B8093C0
S1134D60B40A80915D0B8093B50A1092B60A109232
S1134D70B70A1092B80A10926D0861E188E797E0CB
S1134D800E94812AC3C181E08093550E60915D0B1E
S1134D906093690A8BE091E079CF81E08093550EAE
S1134DA060915D0B60936A0A8CE091E06FCF81E0C3
S1134DB08093550E60915D0B60936B0A8DE091E0DA
S1134DC00E94380F32CF81E08093550E60915D0BC5
S1134DD060936C0A8EE091E059CF81E08093550E88
S1134DE060915D0B6093810A83E291E04FCF81E093
S1134DF08093550E1ACF81E08093550EC0915C0BC1
S1134E00D0E0DC2FCC2780915D0BC80FD11D8091A1
S1134E105E0B811108C0D0934B0EC0934A0E6EE016
S1134E208AE897E01DC0813041F4D093480EC093C6
S1134E30470E6CE089E997E013C0823041F4D093C7
S1134E404F0EC0934E0E6FE086EA97E009C08330A0
S1134E5049F4D0934D0EC0934C0E6DE086EB97E071
S1134E600E94812ABE01882777FD8095982F41E012
S1134E700E94822AC6CE81E08093550E60916E0A0C
S1134E8070916F0A6B5F7F4F09C081E08093550E6C
S1134E9060916E0A70916F0A6550710970936F0A80
S1134EA060936E0A10926D0880E191E00E94631095
S1134EB02DC181E08093550E80915C0B8111A1CEB0
S1134EC080915D0B883009F09CCE0E94B51199CE7B
S1134ED081E08093550E10926E08A7CE81E08093F6
S1134EE0550E8AEA8093B20A85E08093B30A8091D2
S1134EF05B0B8093B40A80915C0B8093B50A80911C
S1134F005D0B8093B60A80915E0B8093B70A109272
S1134F10B80A10926D0804EB1AE0C4E3D1E0F12C56
S1134F20F8016081CE0108970E94380FF3E0FF1268
S1134F3002C061E002C0F8016081CE010E94380F16
S1134F40F3940F5F1F4F2196F4E0FF12E9CFA89569
S1134F500E94C2328AE090E00E945C31019721F401
S1134F606EE083E592E00CCF60E183E692E008CF47
S1134F7081E08093550E60915D0B6093780A8AE11D
S1134F8091E084CE81E08093550E60915D0B609337
S1134F909E0A80E491E07ACE81E08093550E609180
S1134FA05D0B6093800A82E291E070CE81E0809391
S1134FB0560E8091E90A811138CE0E940F0B10928F
S1134FC0700810926F0831CE81E08093560E809362
S1134FD0130810926D081092760B98C081E08093AC
S1134FE0530E10926D088091790B813009F01DCE1B
S1134FF00E94D3151ACE81E080935C0E1092700843
S113500010926F081092760B0E94230B86E0809317
S1135010720A0BCEC1E0C093540E8091310B811102
S113502004CE8091220B811100CE0E94F60AC09317
S1135030110BFBCD81E080935A0E90915B0B923360
S113504009F064C08093760B80914F0D816080934A
S11350504F0D1092220B1092110B1092B10AE5CD54
S113506081E08093590E0E94792250C081E08093A0
S1135070580E0E94FB204AC081E08093500E0E948B
S1135080C12044C081E08093550E80915B0B813038
S1135090B9F460915D0B862F90E02091640A309101
S11350A0650A2817390790F52091620A3091630A3E
S11350B08217930758F560939F0A81E491E024C016
S11350C0823049F460915D0B623000F56093A00A70
S11350D082E491E019C0833059F460915D0B8FEF45
S11350E0860F893098F46093A10A83E491E00CC0A0
S11350F0843061F460915D0B8BEF860F8F3030F458
S11351006093A20A84E491E00E94380F8091020B1C
S1135110823058F062E184EC97E00E94812A0E9478
S1135120AE141092160B1092030BDF91CF911F91C6
S11351300F91FF9008950F931F93CF93C22F009761
S113514009F469C0411551056105710509F463C08D
S113515020E030E01CE0129FF001139FF00D1124B9
S1135160EA59F14FA081B181A817B907E1F481E0B0
S113517083874283538364837583028113812481EB
S1135180358140918E0B50918F0B6091900B7091F3
S1135190910B400F511F621F731F46835783608713
S11351A07187C2873AC02F5F3F4F2830310599F687
S11351B020E030E01CE0129FF001139FF00D112459
S11351C0EA59F14FDF011B96038501111FC021E04D
S11351D02C939183808342835383648375830281F8
S11351E013812481358140918E0B50918F0B6091F6
S11351F0900B7091910B400F511F621F731F4683D8
S1135200578360877187C287DC0107C02F5F3F4FD8
S11352102830310581F6A0E0B0E0CD01CF911F9197
S11352200F910895AC010097B1F020E030E06CE0FC
S1135230629FF001639FF00D1124EA59F14F8081C0
S113524091818417950711F4138608952F5F3F4FBA
S11352502830310569F780E090E00895CF93DF931B
S11352608091640E9091650E877099279093650ED6
S11352708093640E28E030E0DCE08091640E90912D
S1135280650ECCE0D89FF001D99FF00D1124EA59A6
S1135290F14F8385813009F0B0C040918E0B50915D
S11352A08F0B6091900B7091910B8091640E909193
S11352B0650ED89FF001D99FF00D1124EA59F14FE2
S11352C086819781A085B185481759076A077B07AE
S11352D008F493C08091640E9091650EC89FF0010C
S11352E0C99FF00D1124EA59F14F82858F3F49F18E
S11352F08091640E9091650EC89FF001C99FF00DD6
S11353001124EA59F14F828518167CF48091640EB9
S11353109091650EC89FF001C99FF00D1124EA59C0
S1135320F14F8285815082870CC08091640E9091E8
S1135330650EC89FF001C99FF00D1124EA59F14F81
S113534013868091640E9091650ECCE0C89FF001A5
S1135350C99FF00D1124EA59F14F808191810E9477
S11353602A058091640E9091650EC89FF001C99F33
S1135370F00D1124EA59F14F8385813051F52091C4
S1135380640E3091650E8091640E9091650EC89FF5
S1135390F001C99FF00D1124EA59F14F4281538164
S11353A06481758180918E0B90918F0BA091900BED
S11353B0B091910B840F951FA61FB71FC29FF001D8
S11353C0C39FF00D1124EA59F14F86839783A08778
S11353D0B1878091640E9091650E01969093650E4D
S11353E08093640E8091640E9091650E8770992766
S11353F09093650E8093640E19C08091640E909111
S1135400650E01969093650E8093640E8091640EF0
S11354109091650E877099279093650E8093640E22
S1135420215031092115310509F027CFDF91CF91A2
S1135430089510928E0B10928F0B1092900B109275
S1135440910B1092650E1092640E80E6E6E6FEE083
S1135450DF011D928A95E9F708950097B1F020E0E5
S113546030E06CE0629FF001639FF00D1124EA5973
S1135470F14F408151814817590711F483850895EC
S11354802F5F3F4F2830310569F780E00895E9EC3C
S1135490F0E08081877E808387E893E10197F1F7CC
S11354A000C000001092CD008CE08093CC00E8ECAA
S11354B0F0E080818260808388E98093C90086E07F
S11354C08093CA0028988FE097E20197F1F700C013
S11354D0000008958091790A0E94472A539A5298AD
S11354E0209A5B9A5A9A28981092D50E1092D40E4C
S11354F01092C60E1092C70E1092C80E1092C90ECA
S113550008950895089564E273E180E190E00E94B3
S11355101237F999FECF64E273E180E390E00E94D0
S11355201237F999FECF64E273E180E590E00E94BE
S11355301237F999FECF8FE493EC0197F1F700C08D
S113554000000C9496114091C60E5091C70E6091C4
S1135550C80E7091C90E762F652F542F442740939F
S1135560C60E5093C70E6093C80E7093C90E8093F5
S1135570C60E8091C90E8234A1F48091C80E853480
S113558081F48091C70E813461F48091C60E823516
S113559041F481E090E09093D50E8093D40E0C9466
S11355A0832A08951F920F920FB60F9211242F93FE
S11355B03F934F935F936F937F938F939F93AF9397
S11355C0BF93CF93DF93EF93FF93C091CE008C2FC3
S11355D00E94A32A8C2F0E941020CA3A11F4109220
S11355E07308E091730881E08E0F80937308F0E0F4
S11355F0E653F14FC0838831D1F5EBECFEE08AEA43
S11356009191890F9EE0E13EF907D1F7109273085A
S11356109091E10E89132BC08091CA0E8A3A39F514
S11356202091CB0E223018F5E22FF0E08AE0289F7B
S113563090011124220F331F2C5E374F80E090E03D
S1135640EC01C653D14FD901A80FB91F4A81129654
S11356504C9312974B8113964C9302968431910587
S113566079F7EE0FFF1FE652F84F11821082FF9177
S1135670EF91DF91CF91BF91AF919F918F917F91E6
S11356806F915F914F913F912F910F900FBE0F90AB
S11356901F9018952B98000000000895E82FF0E063
S11356A0EE0FFF1FEC58F74F808191810895E82F8A
S11356B0F0E0EE0FFF1FEC56F74F808191810895C3
S11356C0239A81110C944A2B000000002B9A089510
S11356D09DB58EBD0000000028EC3FEA8DB58078B2
S11356E031F42150310921153105C1F701C081E0A0
S11356F00895CF92DF92EF92FF920F931F93CF936F
S1135700DF9300D000D01F92CDB7DEB789012115F9
S1135710310581F1239A4C835D836B837A8389837A
S11357200E944A2B259A279A89810E94682B7A81A4
S1135730872F0E94682B6B81862F887F8C5F0E9445
S1135740682B86E08A95F1F700C04C81C42E5D81F8
S1135750D52E7601E00EF11ECE14DF0431F0F601F1
S113576081916F010E94682BF7CF80E00E94602B2B
S1135770C80102C080E090E00F900F900F900F904E
S11357800F90DF91CF911F910F91FF90EF90DF90D9
S1135790CF90089524E030E0AC0160E071E080E057
S11357A090E00C94792B24E030E0AC0160E075E0EB
S11357B080E090E00C94792B26E030E0AC0160E0CE
S11357C079E080E090E00C94792B24E030E0AC01A7
S11357D060E07FE080E090E00C94792B1F93CF93FE
S11357E0DF9300D0CDB7DEB7182FCB017A8369835E
S11357F00E9416329A83898380E2189FB001112493
S1135800685F7B4F882777FD8095982F22E030E0F2
S1135810AE014F5F5F4F0E94792B0F900F90DF9185
S1135820CF911F9108951F93CF93DF9300D0CDB7ED
S1135830DEB7182FCB017A8369830E9416329A83CC
S1135840898380E2189FB0011124685F7F4E882706
S113585077FD8095982F22E030E0AE014F5F5F4FD7
S11358600E94792B0F900F90DF91CF911F91089593
S1135870AB0120E2829FC0011124885F934FBC01D9
S1135880882777FD8095982F24E030E00C94792BBD
S1135890CF93DF9300D0CDB7DEB79A8389830E947C
S11358A016329A83898322E030E0AE014F5F5F4F66
S11358B060E079E180E090E00E94792B0F900F90F6
S11358C0DF91CF9108951F93CF93DF9300D0CDB78D
S11358D0DEB7182FCB017A8369830E9416329A832C
S11358E0898380E2189FB0011124685F774D88276F
S11358F077FD8095982F22E030E0AE014F5F5F4F37
S11359000E94792B0F900F90DF91CF911F910895F2
S1135910CF93DF9300D000D0CDB7DEB7239A4C836A
S11359206B837A8389830E944A2B259A279A8981DB
S11359300E94682B7A81872F0E94682B6B81862FA7
S1135940887F8C5F0E94682B86E08A95F1F700C0FF
S11359504C81842F0E94682B80E00F900F900F9051
S11359600F90DF91CF910C94602B2F923F924F9226
S11359705F926F927F928F929F92AF92BF92CF92DB
S1135980DF92EF92FF920F931F93CF93DF9300D098
S113599000D01F92CDB7DEB74C016C837D8304E841
S11359A018E074E7E72E78E0F72EE4E9AE2EE8E09D
S11359B0BE2EF4EACF2EF8E0DF2E22242394312CDD
S11359C050E0412C512C612C712C910163E0220F89
S11359D0331F6A95E1F7C901915EBC01882777FD01
S11359E08095982FF401408129833A835B830E9438
S11359F0882C29813A81325EB901882777FD809508
S1135A00982FEC81FD8140810E94882CF80111823D
S1135A101082F701118210825B81F1E06F16F0E4CD
S1135A207F06B0F4F4018081811104C0F601118273
S1135A3010820EC0813160F490E0982F8827990F6E
S1135A40990FF801918380830197F60191838083F4
S1135A50F80120813181F1E04F16F0E45F06A8F4EB
S1135A60EC81FD818081811104C0F50111821082D5
S1135A700CC0813150F4880F880FF70110828183A4
S1135A80C9010197F50191838083620E731EF701AA
S1135A90819191917F01480E591E5F5FFFEF8F1A2C
S1135AA09F0A84E0280E311CEC81FD813196FD8330
S1135AB0EC830E5F1F4FF2E0AF0EB11C82E0C80E04
S1135AC0D11C583009F081CF0F900F900F900F9098
S1135AD00F90DF91CF911F910F91FF90EF90DF9086
S1135AE0CF90BF90AF909F908F907F906F905F907A
S1135AF04F903F902F900895482F60E070E0CB01C5
S1135B000C94882C462F24E0829FC0011124019616
S1135B10B3E0880F991FBA95E1F7BC01882777FD98
S1135B208095982F0C94882C462F20E2829FC001E8
S1135B301124885F9E4FBC01882777FD8095982F9C
S1135B400C94882C482F60E07EE280E090E00C9476
S1135B50882C482F60E07BE180E090E00C94882C56
S1135B60482F60E078E180E090E00C94882C482F86
S1135B7060E076E180E090E00C94882C462F68E0A9
S1135B807CE280E090E00C94882CFC018DB58EBD05
S1135B900000000028EC3FEA8DB5807831F42150F4
S1135BA0310921153105C1F703C08EB5808381E029
S1135BB00895CF92DF92EF92FF920F931F93CF93AA
S1135BC0DF9300D000D01F92CDB7DEB78901239AAE
S1135BD04C835D836B837A8389830E944A2B259A45
S1135BE0279A89810E94682B7A81872F0E94682BCB
S1135BF06B81862F887F0E94682B86E08A95F1F757
S1135C0000C04C81C42E5D81D52E7601E00EF11EBC
S1135C10CE14DF0439F0C6010E94C52DEFEFCE1A71
S1135C20DE0AF6CF80E00E94602BC8010F900F902F
S1135C300F900F900F90DF91CF911F910F91FF90D4
S1135C40EF90DF90CF900895CF93DF9300D000D0F2
S1135C50CDB7DEB7239A6C837B838A830E944A2B59
S1135C60259A279A8A810E94682B7B81872F0E941C
S1135C70682B6C81862F887F0E94682B86E08A952A
S1135C80F1F700C0CE0101960E94C52D80E00E946C
S1135C90602B89810F900F900F900F90DF91CF911F
S1135CA00895CF93DF93C5E060E07EE280E090E06A
S1135CB00E94242ED82F0000000060E07EE280E0E5
S1135CC090E00E94242ED81711F0C15069F78D2F4F
S1135CD0DF91CF910895CF92DF92EF92FF92CF930D
S1135CE0DF9320E2829FC0011124885F9C4F6C01E6
