S01200006D6D725F7A625F6E65742E73726563E5
S11300000C942A030C9447030C9447030C94470361
S11300100C9447030C9447030C946E090C948509C3
S11300200C949C090C9447030C9447030C944703C9
S11300300C9447030C9447030C9447030C94470314
S11300400C9447030C9447030C9465080C944703E1
S11300500C9413090C9447030C94EB080C94470379
S11300600C9447030C9447030C9447030C944703E4
S11300700C9491290C9447030C9447033705B80555
S113008039056E05A305AC05AE05B405B005B60586
S1130090B2053405021507150C1511151615F615BC
S11300A01B1520155A155F15641569156E157815FD
S11300B091158F19A419B219C319D119E119EF199E
S11300C0001A271A321A431A561A691A7C1A871AFE
S11300D05A205E20682074207C2088208C20962062
S11300E0DE20EA20F62002210B2115211F21D72131
S11300F0E121ED21F521012205220F225422602263
S11301006C22782281228B2295224B23DB267B23AF
S113011086236123F32600270F27342740271F2730
S11301203A27452745274527452745274527452776
S113013045274527452745274527452745275E2643
S1130140452745274527EA241D25382542254E25E0
S1130150582562254527BD26C825D225DC25E82556
S1130160FC2540264A26A523D223052432246524CF
S11301707E249C24B524CE24DB24D126D225F2254A
S11301809C25E62445274527452745274527452718
S113019045274527452745274527452745274527FB
S11301A0452745274527452745278D2545274527A5
S11301B045274527452745274527452745274527DB
S11301C045274527452745274527452745274527CB
S11301D0452745274527452745276D234527452797
S11301E045274527452745274527452745274527AB
S11301F0452745274527452745274527452745279B
S1130200452745274527452745274527452745278A
S1130210452745274527452745274527452745277A
S1130220452700266D26C72683257925452745279A
S1130230452745274527452745274527452745275A
S1130240452745274527452745277326BD26C72625
S1130250E9266C2500000000963007772C610EEE2D
S1130260BA51099919C46D078FF46A7035A563E909
S1130270A395649E3288DB0EA4B8DC791EE9D5E030
S113028088D9D2972B4CB609BD7CB17E072DB8E72F
S1130290911DBF906410B71DF220B06A4871B9F384
S11302A0DE41BE847DD4DA1AEBE4DD6D51B5D4F4BD
S11302B0C785D38356986C13C0A86B647AF962FD22
S11302C0ECC9658A4F5C0114D96C0663633D0FFA6F
S11302D0F50D088DC8206E3B5E10694CE44160D575
S11302E0727167A2D1E4033C47D4044BFD850DD25F
S11302F06BB50AA5FAA8B5356C98B242D6C9BBDB72
S113030040F9BCACE36CD832755CDF45CF0DD6DC6C
S1130310593DD1ABAC30D9263A00DE518051D7C813
S11303201661D0BFB5F4B42123C4B3569995BACF9E
S11303300FA5BDB89EB802280888055FB2D90CC6BF
S113034024E90BB1877C6F2F114C6858AB1D61C138
S11303503D2D66B69041DC760671DB01BC20D29857
S11303602A10D5EF8985B1711FB5B606A5E4BF9FE4
S113037033D4B8E8A2C9077834F9000F8EA80996D7
S113038018980EE1BB0D6A7F2D3D6D08976C649142
S1130390015C63E6F4516B6B62616C1CD83065855B
S11303A04E0062F2ED95066C7BA5011BC1F4088238
S11303B057C40FF5C6D9B06550E9B712EAB8BE8B79
S11303C07C88B9FCDF1DDD62492DDA15F37CD38C02
S11303D0654CD4FB5861B24DCE51B53A7400BCA300
S11303E0E230BBD441A5DF4AD795D83D6DC4D1A432
S11303F0FBF4D6D36AE96943FCD96E34468867AD09
S1130400D0B860DA732D0444E51D03335F4C0AAAA7
S1130410C97C0DDD3C710550AA41022710100BBEAA
S113042086200CC925B56857B3856F2009D466B9F1
S11304309FE461CE0EF9DE5E98C9D9292298D0B026
S1130440B4A8D7C7173DB359810DB42E3B5CBDB7D3
S1130450AD6CBAC02083B8EDB6B3BF9A0CE2B60354
S11304609AD2B1743947D5EAAF77D29D1526DB0409
S11304708316DC73120B63E3843B64943E6A6D0D54
S1130480A85A6A7A0BCF0EE49DFF099327AE000A9F
S1130490B19E077D44930FF0D2A3088768F2011E32
S11304A0FEC206695D5762F7CB67658071366C19C9
S11304B0E7066B6E761BD4FEE02BD3895A7ADA10EA
S11304C0CC4ADD676FDFB9F9F9EFBE8E43BEB717CB
S11304D0D58EB060E8A3D6D67E93D1A1C4C2D83855
S11304E052F2DF4FF167BBD16757BCA6DD06B53FBB
S11304F04B36B248DA2B0DD84C1B0AAFF64A0336FA
S1130500607A0441C3EF60DF55DF67A8EF8E6E3178
S113051079BE69468CB361CB1A8366BCA0D26F25C1
S113052036E2685295770CCC03470BBBB91602220E
S11305302F260555BE3BBAC5280BBDB2925AB42B23
S1130540046AB35CA7FFD7C231CFD0B58B9ED92C38
S11305501DAEDE5BB0C2649B26F263EC9CA36A759D
S11305600A936D02A906099C3F360EEB8567077254
S113057013570005824ABF95147AB8E2AE2BB17BBB
S1130580381BB60C9B8ED2920DBED5E5B7EFDC7C42
S113059021DFDB0BD4D2D38642E2D4F1F8B3DD6899
S11305A06E83DA1FCD16BE815B26B9F6E177B06F94
S11305B07747B718E65A0888706A0FFFCA3B066681
S11305C05C0B0111FF9E658F69AE62F8D3FF6B610E
S11305D045CF6C1678E20AA0EED20DD75483044EB0
S11305E0C2B30339612667A7F71660D04D4769493E
S11305F0DB776E3E4A6AD1AEDC5AD6D9660BDF4051
S1130600F03BD83753AEBCA9C59EBBDE7FCFB24703
S1130610E9FFB5301CF2BDBD8AC2BACA3093B353E8
S1130620A6A3B4240536D0BA9306D7CD2957DE54F1
S1130630BF67D9232E7A66B3B84A61C4021B685DCA
S1130640942B6F2A37BE0BB4A18E0CC31BDF055A43
S11306508DEF022D11241FBECFEFD0E1DEBFCDBF41
S113066017E0A0E0B1E0E8EAFBE602C005900D92D5
S1130670A83DB107D9F720E1A8EDB7E001C01D926C
S1130680A13FB207E1F70E9424070C94D2350C94E1
S11306900000EAEFFFEEE491E093500AE1E0F0EFAE
S11306A02491E5E0F0EF9491E8E0F0EF8491ECE040
S11306B0F0EFE491243931F4943921F48C3011F4BD
S11306C0EC30B9F084B7877F84BFA89588E10FB672
S11306D0F89480936000109260000FBE83B7817F0E
S11306E083BF83B7816083BF889583B78E7F83BFC1
S11306F0F5CF000008958091D8079091D90701960D
S11307009093D9078093D807459758F00E947B0BA4
S11307101092D9071092D80780914F0A8F5F809367
S11307204F0A0E942A1B0E94410B0E94740B0E94D4
S1130730C3090E94370A0E94E9130E9481160E948D
S113074074160E943F160C94B51012B815B818B858
S11307501BB811B814B817B81AB83E9A389A399A0F
S11307603A9A3B9A3C9A3D9A3E9A16981798109852
S11307701198559A549A129A139A149A479A5E9A0F
S1130780159A5F9A219A589A519A209A5A9A539A8A
S1130790249A239A22980895CF938091C809883087
S11307A011F00E94A5038091780A811102C081E0B2
S11307B003C0843018F083E08093780A8091780A2B
S11307C00E9406296EE082E191E00E94402914BC57
S11307D083E085BD84EC86BD80916E00816080934A
S11307E06E006FE082E291E00E94402982EA8093E9
S11307F0800089E1809381001092820089EE93E069
S1130800909387008093860084EF91E09093890011
S11308108093880090938B0080938A006FE083E339
S113082091E00E9440291DBA8AE280936900EA9807
S113083069E184E491E00E944029109268001092DA
S11308406B0010926C0010926D00109273008091F6
S1130850680084608093680080916D008068809354
S11308606D008091680088608093680080917300B7
S113087080688093730080E58CBD8DB581608DBDEB
S11308801DBC259A2698279A6CE08FE591E00E947A
S11308904029C6E0C0937C0085EA80937A001092D8
S11308A07B0080917A00806480937A006CE08DE60E
S11308B091E00E9440291092C5008CE08093C4000E
S11308C082E08093C00088ED8093C100C093C20091
S11308D029986EE08BE791E0CF910C944029109217
S11308E05A0A1092FC0A1092FB0A1092FE0A109205
S11308F0FD0A1092F20A1092F10A1092F00A109274
S1130900EF0A10924C0B10924D0B10924E0B10925A
S11309104F0B1092500B1092510B1092520B1092DD
S1130920530B1092380B1092390B10923A0B109211
S11309303B0B1092340B1092350B1092360B109225
S1130940370B1092DC0A10920A0B10925C0A8FEF9C
S11309508093E50A83E380937D0B1092870B1092BA
S11309600B0B469810922B0B1092DA0A81E08093BD
S1130970330B1092860B1092500A1092C9091092F0
S1130980CA090E94161C60E18BE891E00E9440298C
S11309900E94D82864E18DE991E00E9440294198A1
S11309A008951092D90A1092DD0A2091130B309108
S11309B0140B3093980B2093970B8091080B809322
S11309C0030B80917B0B90917C0B40914E0D821711
S11309D0930738F481E08093AE0A406440934E0D4F
S11309E010C01092AE0A842F8F7B80934E0D80919D
S11309F05B0A811106C08091830B811102C0459866
S1130A0001C0459A4091740A429FC001439F900DD2
S1130A10112464E670E00E9442357093980B609351
S1130A20970B08950E94D1048091E40A882381F0F1
S1130A308091540B853160F01092540B0E94220B6C
S1130A4080914E0D8E7F80934E0D82E08093710ACB
S1130A5008958B5893418C30910508F089C0825CCD
S1130A609F4FFC010C94783581E00C946D110C942B
S1130A707B038091340C2091920B3091930B2F5F68
S1130A803F4F36952795E82FF0E0E850F44F208348
S1130A903091F40BE32FF0E0EB50F44F20831092ED
S1130AA0930B1092920B8F5F6CE30E9436359093F8
S1130AB0340C81E0830F63E00E9436359093F40B8D
S1130AC00E94F7159093770B8093760B0E94031680
S1130AD090E09093EA0A8093E90A08958091B60B16
S1130AE02091180B3091190B2F5F3F4F36952795A6
S1130AF0E82FF0E0E954F44F20833091F30BE32F17
S1130B00F0E0ED54F44F20831092190B1092180B5F
S1130B108F5F6CE30E9436359093B60B81E0830FB0
S1130B2063E00E9436359093F30B0E940C16909369
S1130B30280B8093270B0E94181690E090930D0BBE
S1130B4080930C0B08952FEF48EC50E060E070E0C8
S1130B5080E993E10C945A270C9421160C94120505
S1130B600C94001F0C9431350C94BD1F0C94D313BA
S1130B700895CF9380917800282F80917900382FA1
S1130B80B90173708091340B9091350BA091360BA1
S1130B90B091370B860F971FA11DB11D8093340BA5
S1130BA09093350BA093360BB093370B6091EF0AFB
S1130BB07091F00A6F5F7F4F6115E4E07E0728F4BF
S1130BC07093F00A6093EF0A9BC01092F00A10929F
S1130BD0EF0AE4E0B695A79597958795EA95D1F73E
S1130BE09C0140E050E01092340B1092350B1092AF
S1130BF0360B1092370BC0917C00C07F60917C0053
S1130C00677009F46DC0663009F077C0E0916B0A33
S1130C10863761E4960710F12A553243A3E3B0E026
S1130C200E948D359B01AC01AE2FB0E00E948D3542
S1130C309B01AC0172E056954795379527957A95B7
S1130C40D1F737FF04C085E08093080B02C01092EF
S1130C50080B5093140B4093130B50C08B3562E375
S1130C60960720F09C012A55324302C020E030E070
S1130C70A3E3B0E00E948D359B01AC01AE2FB0E040
S1130C800E948D359B01AC0162E0569547953795DE
S1130C9027956A95D1F75093140B4093130B109238
S1130CA0080B80916A0A811129C08091780B8130E8
S1130CB029F58091750B813041F08091300B8130A2
S1130CC021F08091210B8130C9F480914E0D8E7FEB
S1130CD080934E0D87E08093710A0E94220B0EC010
S1130CE0C66020916C0A2D7F213041F490932D0B26
S1130CF080932C0B2093DE0A01C0C660C0937C0055
S1130D00CF9108958091EB0A8F5F8093EB0A8A302C
S1130D1008F484C01092EB0A80910F0B8F5F8093CC
S1130D200F0B8091250B8F5F8093250B8091880B8F
S1130D308F5F8093880B80911C0B8F5F843618F42F
S1130D4080931C0B0BC010921C0B459A81E080937E
S1130D505B0A80914E0D806880934E0D8091330B19
S1130D608F5F8093330B8091ED0A8F5F8093ED0A40
S1130D708A3008F453C01092ED0A80919E0B8F5F65
S1130D8080939E0B8091110B8F5F8093110B809148
S1130D908B0B8F5F80938B0B8091040B8F5F809301
S1130DA0040B8091B00A8F5F893C08F088EC809333
S1130DB0B00A8091990B8F5F8093990B8A3070F100
S1130DC01092990B8091540B8F5F8093540B8091F8
S1130DD0790B90917A0B019690937A0B8093790B0F
S1130DE08091010B8F5F8093010B9091E80A913001
S1130DF041F09091020B913021F09091150B9130BC
S1130E0069F48F3158F062E18FEB94E00E9440293D
S1130E100E94B3131092150B1092020B08951092B6
S1130E201C0B10925B0A80914E0D8F7780934E0DB0
S1130E308091AE0A811106C08091830B811102C09A
S1130E4045980895459A089584B78F708093C8098A
S1130E5084B7877F84BFF894A89588E10FB6F89487
S1130E6080936000109260000FBE8091C8098830A2
S1130E7049F02FE789EA93E0215080409040E1F760
S1130E8000C0000064E082ED94E00E94402980E00C
S1130E900E946D110E94CC030E946F0465E087EDEF
S1130EA094E00E94402980E00E946D1178940E9491
S1130EB081316AE070E080E090E00E941B30813074
S1130EC021F46EE083EB91E003C060E183EC91E0F8
S1130ED00E9440292FEF48EE53E060E070E08DE877
S1130EE093E10E945A272FEF48EE53E060E070E050
S1130EF08EE893E10E945A270E9449038091C80911
S1130F00883049F02FEF80E792E0215080409040F4
S1130F10E1F700C000002FE088E190E00FB6F894FC
S1130F20A895809360000FBE209360008091C8094B
S1130F30843021F465E185ED91E017C08091C80902
S1130F40813021F465E18CEE91E00FC08091C809F5
S1130F50823021F468E183E092E007C08091C809FF
S1130F60883029F465E18DE192E00E9440292FEF59
S1130F704AE050E060E070E08BE893E10E945A2779
S1130F802FEF45E050E060E070E083E993E10E94D8
S1130F905A272FEF4AE050E060E070E085E993E1E2
S1130FA00E945A272FEF48EE53E060E070E081E999
S1130FB093E10E945A272FEF40E85EEE66E370E06B
S1130FC086E993E10E945A27A8958091DA079091C7
S1130FD0DB078131974258F0E4E1F8E0DF01119733
S1130FE01C921082329688E0E832F807B9F78091B3
S1130FF0DC079091DD078131974288F480916E0877
S113100080FD439A80FF439880915C0A813099F473
S11310108091E50A0E94F22210925C0A0CC0E8E278
S1131020F8E0DF0111971C921082329688E0EC33CD
S1131030F807B9F7E3CF8091DE0A813081F410928A
S1131040DE0A80912C0B90912D0B0E944A0D809109
S11310502C0B90912D0B90934D0D80934C0D809102
S1131060CA098823B9F08091CA0981508093CA09BA
S1131070E091C909F0E0E553F64F80810E940F0723
S11310808091C9098F5F8093C9098091C9098F77BD
S11310908093C9090E94ED278091300B813021F0A3
S11310A08091210B813011F4429B88B180915A0ABE
S11310B0882309F489CF80915A0A815080935A0A6F
S11310C00E9482060E94B9057FCF1F920F920FB62D
S11310D00F9211248F939F93AF93BF93EF93FF933A
S11310E082EC86BD80918D0B90918E0BA0918F0B1D
S11310F0B091900B0196A11DB11D80938D0B90931F
S11311008E0BA0938F0BB093900B809170089091ED
S113111071080196909371088093700880915A0A1F
S11311208F5F80935A0AEAEDF7E0808191810196FE
S113113091838083ECEDF7E0808191810196918326
S11311408083EEEDF7E08081918101969183808325
S1131150E0EEF7E080819181019691838083E2EE55
S1131160F7E080819181019691838083E4EEF7E03A
S113117080819181019691838083E6EEF7E08081FE
S11311809181019691838083E8EEF7E080819181DB
S1131190019691838083EAEEF7E080819181019644
S11311A091838083ECEEF7E08081918101969183B5
S11311B08083EEEEF7E080819181019691838083B4
S11311C0FF91EF91BF91AF919F918F910F900FBEBF
S11311D00F901F9018951F920F920FB60F92112423
S11311E08F939F93EF93FF93E091E60AEA3058F4CC
S11311F081E08E0F8093E60AF0E0EF54F54F808192
S11312008093C60007C089EF90E00197F1F700C012
S113121000002998FF91EF919F918F910F900FBE3D
S11312200F901F9018951F920F920FB60F921124D2
S11312302F933F934F938F939F93EF93FF938091BB
S1131240C6008093570B20E035E4E22FF0E0E95A22
S1131250F44F80818534F1F02F5F80E090E040917D
S1131260C00047FD06C0883843E1940729F0019681
S1131270F6CF8838934131F4E22FF0E0E95AF44F85
S11312803083E3CF8091C600E22FF0E0E95AF44FB7
S11312908083DBCFE7E5FBE080E09191890F9BE061
S11312A0EE35F907D1F790915E0B89130BC080914D
S11312B0580B823039F48091590B8093E50A81E010
S11312C080935C0AFF91EF919F918F914F913F9191
S11312D02F910F900FBE0F901F9018951F920F9291
S11312E00FB60F9211248F939F938091920B90913C
S11312F0930B01969093930B8093920B9F918F91F4
S11313000F900FBE0F901F9018951F920F920FB65B
S11313100F9211248F939F938091180B9091190B26
S113132001969093190B8093180B9F918F910F90B6
S11313300FBE0F901F9018951F920F920FB60F9229
S113134011242F933F934F935F936F937F938F93C6
S11313509F93AF93BF93EF93FF936DE08DED94E074
S11313600E944029FF91EF91BF91AF919F918F917E
S11313707F916F915F914F913F912F910F900FBE8D
S11313800F901F9018958091100B813039F4809143
S1131390610A9091620A9695879552C08091300BAC
S11313A0813041F52091940B3091950B8091610A25
S11313B09091620A8217930720F49093950B80937F
S11313C0940B2091940B3091950B8091630A90912A
S11313D0640A8217930728F01092950B1092940BCD
S11313E03FC08091560B8823D9F18091940B909142
S11313F0950B26C08091560B813091F58091610A3E
S11314009091620A20916D0A30916E0A82179307B7
S113141020F490936E0A80936D0A8091630A9091F0
S1131420640A20916D0A30916E0A2817390720F456
S113143090936E0A80936D0A80916D0A90916E0A62
S113144023E0880F991F2A95E1F763E070E00E947A
S1131450423568537F4F70938B0060938A000895E0
S113146088EC90E090938B0080938A00089580919B
S1131470100B813039F48091610A9091620A96953B
S1131480879552C08091300B813041F52091940BA7
S11314903091950B8091610A9091620A82179307AB
S11314A020F49093950B8093940B2091940B30919E
S11314B0950B8091630A9091640A8217930728F030
S11314C01092950B1092940B3FC08091560B882379
S11314D0D9F18091940B9091950B26C08091560B75
S11314E0813091F58091610A9091620A20916D0A90
S11314F030916E0A8217930720F490936E0A8093BA
S11315006D0A8091630A9091640A20916D0A30916A
S11315106E0A2817390720F490936E0A80936D0A97
S113152080916D0A90916E0A43E0880F991F4A9545
S1131530E1F763E070E00E94423568537F4F709397
S1131540890060938800089588EC90E09093890066
S1131550809388000895409A389A81E08093780BAC
S1131560EEE4FDE080818860808308954098389A95
S11315701092780BEEE4FDE08081877F80830895EC
S11315803B9A81E090E090936F0880936E08E5EABF
S1131590FBE0808180628083EEE4FDE080818062F4
S11315A0808381818E7F8183089510926F081092C9
S11315B06E083B9AE5EAFBE080818F7D8083EEE450
S11315C0FDE080818F7D808381818E7F8183109275
S11315D0910B0895449A3C9A81E08093820B08957C
S11315E044983C9A1092820B0895429A3A9A81E068
S11315F08093560BEEE4FDE080818061808310923D
S1131600B00A1092330B089542983A9A1092560BEE
S1131610EEE4FDE080818F7E808308950E94040BB8
S11316200E94D50A1092300BEEE4FDE08081109206
S1131630210B8D7F8B7F80831092100B1092860B71
S11316403E9A08950E94B60A0E940E0B1092860BD1
S113165084E993E10C94D12781E08093910B10925B
S1131660110B08958091910B813051F49091110BDD
S11316708091660A891720F41092910B0C94C00A89
S113168008958091300B813071F5429B0EC080919A
S11316901F0B9091200B059720F50E94040B0E94CC
S11316A0D50A10920B0B3E9A1CC020911F0B30914F
S11316B0200B80911D0B90911E0B8A55924382172B
S11316C0930778F480910B0B882339F08091860B73
S11316D0811107C010920B0B3E9A0E94F50A0E94DA
S11316E02C0B0C94320B08958091210B813011F452
S11316F00C94320B0895CF9330916C08332309F482
S113170084C08AEA8093B10A80910E088F5F809327
S11317100E082BEA829F212D11242695922F990FD2
S1131720920F282F291B832F90E009F529E020939D
S1131730B20A019724E1289FF001299FF00D11249A
S1131740ED5EF74F82818093B30A83818093B40A5C
S113175084818093B50A85818093B60A86818093BB
S1131760B70A87818093B80A3093B90A3FC0213001
S1131770E9F42AE02093B20A019724E1289FF001BA
S1131780299FF00D1124ED5EF74F80858093B30AF5
S113179081858093B40A82858093B50A838580937A
S11317A0B60A84858093B70A85851CC02BE02093F4
S11317B0B20A019724E1289FF001299FF00D11241A
S11317C0ED5EF74F86858093B30A87858093B40ACC
S11317D080898093B50A81898093B60A828980932F
S11317E0B70A83898093B80A1092B90A1092BA0A88
S11317F0E1EBFAE081919091BA0A890F8093BA0AD9
S11318008AE0EA3BF807B1F737C180916D088F5F32
S113181080936D088AEA8093B10AC0910F0826E08C
S11318208C2F622F0E9436359130E9F110F19230FD
S113183009F458C0933009F073C088E08093B20A69
S11318408091890A8093B30A80918A0A8093B40AAA
S113185080918B0A8093B50A80918C0A8093B60A92
S11318608091770A8093B70A1092B80A8091710A1E
S113187036C085E08093B20A8091610A9091620A31
S11318809093B30A8093B40A8091630A9091640A96
S11318909093B50A8093B60A80917A0A8093B70A26
S11318A08091660A38C02093B20A8091680A8093B6
S11318B0B30A8091650A8093B40A8091690A80937F
S11318C0B50A80916A0A8093B60A80916B0A809364
S11318D0B70A8091720A8093B80A8091730A809340
S11318E0B90AB9C087E08093B20A8091740A8093E0
S11318F0B30A8091790A8093B40A80917B0A809319
S1131900B50A80917C0A8093B60A80917F0A8093FD
S1131910B70A8091800A8093B80A8091670ADFCF62
S11319208091100B813039F42091610A3091620A60
S11319303695279518C08091560B882391F0809195
S1131940300B813029F42091940B3091950B0BC00E
S11319508091210B813029F420916D0A30916E0A17
S113196002C020E030E082E08093B20A8091780BDC
S1131970811105C01092B60A1092B70A0CC04091AA
S1131980970B5091980B5093B60A4091970B509136
S1131990980B4093B70AE091780BA091300B6091BB
S11319A0210B4091560B9091750B8091E30A509155
S11319B02B0B990F990F880F982B952B80916E08FC
S11319C0880F880F880F982B80E4A89FD0011124DA
S11319D080E8E89FF0011124EA2B80E2689FB001BF
S11319E01124E62B80E1489FA0011124E42B9E2BB7
S11319F09093B30A3093B40A2093B50A20912C0B28
S1131A0030912D0B64E0369527956A95E1F7309374
S1131A10B80A2093B90A8091300B813079F480910F
S1131A20860B813059F42091940B3091950B232B24
S1131A3029F08091B20A80648093B20A8091210BCC
S1131A40813049F48091860B813029F48091B20A67
S1131A5080688093B20ACF5FC0930F081092BA0ACD
S1131A60E1EBFAE081919091BA0A890F8093BA0A66
S1131A708AE0EA3BF807B1F7299A85E88A95F1F7F5
S1131A8000008091B10A8093C60081E08093E60A49
S1131A90CF910895CF93DF9340E050E06091060B1F
S1131AA07091070B6817790708F05EC08B3562E305
S1131AB0960720F09C012A55324302C021E030E011
S1131AC0A4E6B0E00E948D352091670A30E040E042
S1131AD050E00E9456353093200B20931F0BC09189
S1131AE0630AD091640AA091610AB091620AAC1BA6
S1131AF0BD0B0E948D352EE539EC40E050E00E948C
S1131B0056353093950B2093940B8091940B9091C0
S1131B10950B059780F481E08093550B10922A0B66
S1131B208091940B9091950B892B39F41092200B92
S1131B3010921F0B02C01092550B8091940B909140
S1131B40950B8C0F9D1F9093950B8093940B809114
S1131B501F0B9091200B8534954B68F081E08093A6
S1131B602A0B1092550B09C01092200B10921F0BD8
S1131B7081E08093550B10922A0BDF91CF91089549
S1131B80CF93CFB7F894F999FECF0E94A135F99974
S1131B90FECFCFBFCF910895CF93CFB7F894F999E3
S1131BA0FECF0E94AF35F999FECFCFBFCF910895F4
S1131BB0CF93CFB7F894F999FECF0E94A935F9993C
S1131BC0FECFCFBFCF910895CF93CFB7F894F999B3
S1131BD0FECF0E94BD35F999FECFCFBFCF910895B6
S1131BE05F926F927F928F929F92AF92BF92CF92A9
S1131BF0DF92EF92FF920F931F93CF93DF93EC0149
S1131C007C0180E5E80EF11C5E0180EAA80EB11C9F
S1131C108E0100511F4F6E0180ECC81A8EEFD80A56
S1131C20CE010E94C00D982EC7010E94C00D882EBF
S1131C30C5010E94C00D782EC8010E94C00D582E07
S1131C40C6010E94C00D682E981017C0971005C0D9
S1131C509514D9F0692DC80116C0951003C0692DDB
S1131C60C50111C098122AC0692DC5010E94CC0D6E
S1131C70692DC8010E94CC0D61C0971011C0951048
S1131C800AC0692DC7010E94CC0D961409F456C0F0
S1131C90692DC601EFCF981229C0692DC701E6CF7F
S1131CA095100CC098120AC0692DC5010E94CC0D74
S1131CB0981409F443C0692DC701DCCF871016C0FE
S1131CC085100BC0891421F0682DCE010E94CC0D23
S1131CD0861499F1682DC6012EC0861025C089147A
S1131CE041F1682DCE010E94CC0D23C085100BC09C
S1131CF086101AC0891421F0682DCE010E94CC0DE3
S1131D00682DC50118C075100FC076100DC0791468
S1131D1021F0672DCE010E94CC0D781441F0672D7F
S1131D20C7010E94CC0D03C099249A9407C0972C34
S1131D3005C0682DC8010E94CC0D982C892DDF9117
S1131D40CF911F910F91FF90EF90DF90CF90BF90B4
S1131D50AF909F908F907F906F905F9008951F93A6
S1131D60CF93DF93EC01162F0E94CC0D612FCE018F
S1131D70805B9F4F0E94CC0D612FCE0180569F4FF8
S1131D800E94CC0D612FCE0180519F4F0E94CC0D3B
S1131D90612FCE01805C9E4FDF91CF911F910C94F7
S1131DA0CC0D2F923F924F925F926F927F928F92BF
S1131DB09F92AF92BF92CF92DF92EF92FF920F93D6
S1131DC01F93CF93DF9300D000D0CDB7DEB73C0193
S1131DD02C0180E5480E511C4301E0EA8E0E911C53
S1131DE01301F0EF2F0E311C530180ECA81A8EEF73
S1131DF0B80AC3010E94D80DAC01C2014B835C83B5
S1131E000E94D80D8C01C4010E94D80D7C01C1012F
S1131E100E94D80D9C01C50129833A830E94D80DE4
S1131E206C014B815C8129813A814017510789F506
S1131E304E155F0591F44217530731F0BA01C10101
S1131E400E94E40D5C814B814C155D0509F49AC038
S1131E50BA01C5014B835C8311C04217530799F43F
S1131E60BA01C4014B835C830E94E40D4B815C8105
S1131E704C155D0509F486C0BA01C5010E94E40D44
S1131E804B815C817FC04817590779F5BA01C401B9
S1131E900EC04E155F05A1F44217530719F4BA0199
S1131EA0C201E0CF48175907F1F5BA01C2014B83CB
S1131EB05C830E94E40D4B815C81BA01C101DECFD9
S1131EC04217530791F44817590779F4BA01C4012A
S1131ED04B835C830E94E40D4B815C814017510766
S1131EE009F450C0BA01C201C9CF0E151F05D9F4B7
S1131EF00217130769F40417150721F0B801C30189
S1131F000E94E40D0C151D05E1F1B801C50137C0AF
S1131F100C151D0569F50417150779F1B801C301FE
S1131F200E94E40D2AC00217130769F40C151D055D
S1131F30F9F40417150721F0B801C3010E94E40D58
S1131F40B801C4011CC0E216F30691F4EC14FD04BC
S1131F5079F4E416F50621F0B701C3010E94E40DFB
S1131F60E016F10641F0B701C2010E94E40D03C07E
S1131F704FEF50E007C0A70105C0B801C1010E949E
S1131F80E40DA801CA010F900F900F900F90DF91FC
S1131F90CF911F910F91FF90EF90DF90CF90BF9062
S1131FA0AF909F908F907F906F905F904F903F90F5
S1131FB02F9008950F931F93CF93DF93EC018B0120
S1131FC00E94E40DB801CE01805B9F4F0E94E40D96
S1131FD0B801CE0180569F4F0E94E40DB801CE0196
S1131FE080519F4F0E94E40DB801CE01805C9E4F4A
S1131FF0DF91CF911F910F910C94E40DEF92FF921A
S11320000F931F93CF93DF93EC01162FA8956C8148
S11320107D8184E091E00E94DA0F6E817F8186E009
S113202091E00E94DA0F688588E091E00E94AF0E8B
S1132030698589E091E00E94AF0E6A858AE091E0AB
S11320400E94AF0E6B858BE091E00E94AF0E6C8511
S11320508CE091E00E94AF0E6D858DE091E00E94CE
S1132060AF0E6E858EE091E00E94AF0E6F858FE01B
S113207091E00E94AF0E6889798980E191E00E9425
S1132080DA0F112331F06A897B8982E191E00E94A1
S1132090DA0F6C8984E191E00E94AF0E6D8985E1CD
S11320A091E00E94AF0E6E8986E191E00E94AF0E2E
S11320B06F8987E191E00E94AF0E64E079E188E1E5
S11320C091E00E94DA0F6A8D8AE191E00E94AF0EDE
S11320D06B8D8BE191E00E94AF0E6C8D8CE191E0F1
S11320E00E94AF0E6D8D8DE191E00E94AF0E6E8D5A
S11320F08EE191E00E94AF0EFE01E05CFF4F608133
S113210080E491E00E94AF0E112331F060E070E0B2
S113211080E291E00E94DA0F00E010E07E01E00E20
S1132120F11EF70164A5C801845D9E4F0E94AF0EA5
S1132130F70164A9C8018C5C9E4F0E94AF0EF701A1
S113214060A9C801805D9E4F0E94AF0E0F5F1F4FB4
S11321500430110519F7CE018C96DF91CF911F91B0
S11321600F91FF90EF900C94D92E8091790B909160
S11321707A0B81319E4040F110927A0B1092790BC8
S113218060916F0A7091700A6230710520F481E0E9
S11321908093260B0AC0615071097093700A609392
S11321A06F0A82E191E00E94DA0F80E291E00E94DE
S11321B0D10EBC016F5F7F4F70937E0A60937D0ADE
S11321C080E291E00E94DA0F8091260B813029F49D
S11321D00E94220B83E08093710A089584B7877F5D
S11321E084BFA89588E10FB6F8948093600010929C
S11321F060000FBE8FE493EC0197F1F700C000007C
S1132200F8942BE088E190E00FB6F894A8958093B9
S113221060000FBE20936000FFCFCF93DF93CDB754
S1132220DEB7C055D1090FB6F894DEBF0FBECDBFDF
S11322301092AD0A84E091E09E838D8384E690E061
S113224098878F8383E2898784E18A8734E63B8792
S113225021E02C878CE88D872E8742E34F87288BDB
S113226088E790E09A8B898B80E29DEF9C8B8B8B27
S11322701D8A4E8B3F8B388F84E099E19A8F898F2A
S113228082E08B8F93E09C8F8D8F2E8F2F8F1AA2DD
S113229019A285E022968FAF229790EC9DA788EA39
S11322A08EA71FA63DEF38AB9DAB8EAB1FAA28AF00
S11322B08FEF89AB8AAB8BAB1CAA61E0CE01019690
S11322C00E94FE0F2FE788E391E021508040904068
S11322D0E1F700C000000E94EE10CF93DF93C82FF7
S11322E088E191E00E94D10E8430994179F08FE425
S11322F093EC0197F1F700C0000088E191E00E949F
S1132300D10E8430994111F00E940D1180E091E0CA
S11323100E94D10E8931944031F069E174E080E08B
S113232091E00E94DA0F82E091E00E94D10E8131A7
S1132330944131F061E174E182E091E00E94DA0FAE
S113234084E68093670A8BE091E00E94F00D80930D
S1132350680AC11118C090914E0D813031F48093F8
S1132360750B916090934E0D0EC082E08093680AC5
S11323701092750B892F8E7F80934E0D62E08BE057
S113238091E00E94AF0E8CE091E00E94F00D843643
S113239010F484E603C0893C08F088EC8093690A51
S11323A08DE091E00E94F00D80936A0A811104C0CF
S11323B081E08093E40A05C081E080936A0A109268
S11323C0E40A8EE091E00E94F00D853610F084E678
S11323D003C08A3008F48AE080936B0A84E6809311
S11323E0800A84E091E00E94D10E8D3261E096076C
S11323F018F08CE291E005C08832910510F488E26F
S113240090E09093620A8093610A86E091E00E94D2
S1132410D10E8832910518F488E290E006C08D321E
S113242021E0920710F08CE291E09093640A80938B
S1132430630A88E091E00E94F00D8093650A909110
S11324406B0A981718F49093650A05C08A3018F43B
S11324508AE08093650A8AE080937F0A89E091E0AC
S11324600E94F00D823010F482E003C0893C08F031
S113247088EC8093660A80E191E00E94D10E9093EB
S11324806E0A80936D0A2091630A3091640A821760
S1132490930738F02091610A3091620A28173907AE
S11324A020F430936E0A20936D0A82E191E00E9439
S11324B0D10E9093700A80936F0A009721F481E003
S11324C08093260B21C068E170E00E94423570932E
S11324D09B0B60939A0B80919A0B90919B0B8D3878
S11324E09A4030F08CE89AE090939B0B80939A0B7F
S11324F080919A0B90919B0B892B31F481E090E0B1
S113250090939B0B80939A0B8FE091E00E94F00DC7
S11325109FEF980F933008F081E080936C0A85E177
S113252091E00E94F00D8E3110F48EE103C08536E7
S113253008F084E68093720A85E892E090931E0B7B
S113254080931D0B20911D0B30911E0B4091720A3C
S1132550429FC001439F900D112490931E0B8093C2
S11325601D0B86E191E00E94F00D803510F480E5AA
S113257003C0873908F086E98093730A81E890E004
S11325809093070B8093060B2091060B3091070B59
S11325904091730A429FC001439F900D1124909370
S11325A0070B8093060B87E191E00E94F00D8634BF
S11325B010F486E403C0833808F082E88093740A38
S11325C084E680937C0A8AE191E00E94F00D8230D7
S11325D008F482E08093770A8BE191E00E94F00D89
S11325E0811102C081E003C0843008F083E080934D
S11325F0780A8CE191E00E94F00D813009F082E0CC
S11326008093790A8DE191E00E94F00D813009F008
S113261082E080937A0A8EE191E00E94F00D8111AC
S113262002C081E003C0843608F083E680937B0A0D
S113263080E291E00E94D10E90937E0A80937D0AFD
S1132640D091650A2091690A30E0AD2FB0E00E9474
S11326507E356B5F7F4F8F4F9F4F2AE030E040E025
S113266050E00E94563530939D0B20939C0B809133
S11326706B0A6AE0869FC00111242817390728F0E5
S1132680059790939D0B80939C0B2AE0D29FC001E9
S1132690112490937C0B80937B0BC11161C08AE35E
S11326A091E00E94D10E9093980A8093970A909398
S11326B0470E8093460E88E391E00E94D10E9093DA
S11326C0960A8093950A90934A0E8093490E8EE35E
S11326D091E00E94D10E90939C0A80939B0A909360
S11326E04C0E80934B0E8CE391E00E94D10E90939C
S11326F09A0A8093990A90934E0E80934D0E80E42B
S113270091E00E94F00D80939D0A6BE08BEE94E0C3
S11327100E9440296091950A7091960A80E090E0A9
S113272041E00E9441296091970A7091980A80E0E3
S113273090E041E00E9441296091990A70919A0ABF
S113274080E090E041E00E94412960919B0A7091F1
S11327509C0A80E090E041E0DF91CF910C94412904
S1132760DF91CF9108951092E80A1092290B1092EC
S1132770EC0A1092AF0A1092EE0A1092E70A109235
S1132780DB0A1092010B60E187EF94E00E9440297C
S113279081E00E946D118FEF8093090B1092240B3E
S11327A01092AD0A089581E08093300BEEE4FDE0D1
S11327B080811092210B82608B7F80831092100B9A
S11327C01092B00A6CE088E095E00E9440290C94D5
S11327D0B3138091750B813009F0E9C0039933C0BC
S11327E080918D0B90918E0BA0918F0BB091900BDB
S11327F080930A0890930B08A0930C08B0930D08DB
S113280080918D0B90918E0BA0918F0BB091900BBA
S113281040910608509107086091080870910908D2
S1132820841B950BA60BB70B893C9105A105B1053B
S113283008F440C08091780B81113CC00E94D50AF5
S11328400E94AB0A37C080918D0B90918E0BA091A2
S11328508F0BB091900B8093060890930708A09378
S11328600808B093090880918D0B90918E0BA0916C
S11328708F0BB091900B40910A0850910B08609116
S11328800C0870910D08841B950BA60BB70B853FA4
S11328909140A105B10570F08091780B813011F45D
S11328A08093710A0E94220B84E993E10E94D1274C
S11328B01092C809049944C0039942C080918D0BB9
S11328C090918E0BA0918F0BB091900B8093020886
S11328D090930308A0930408B093050880918D0B8E
S11328E090918E0BA0918F0BB091900B4091FE07AD
S11328F05091FF076091000870910108841B950BAB
S1132900A60BB70B4597A105B10508F450C08091FB
S1132910300B81114CC08091C809883011F40C949B
S1132920D31384E993E10E94EC28811140C020E094
S113293040E45FE160E070E084E993E10C945A279D
S1132940049B35C080918D0B90918E0BA0918F0BC1
S1132950B091900B8093FE079093FF07A09300081B
S1132960B093010880918D0B90918E0BA0918F0BE9
S1132970B091900B409102085091030860910408B3
S113298070910508841B950BA60BB70B893C910528
S1132990A105B10560F08091560B813041F484E9C2
S11329A093E10E94D1271092C8090C940E0B08954C
S11329B081E08093210BEEE4FDE080811092300BE6
S11329C084608D7F80831092100B1092B00A0E9455
S11329D0F50A0E942C0B6EE085E195E00E944029E7
S11329E00C94B3138091EC0A813079F58091DB0A61
S11329F090E08830910508F0F9C0FC01E65BFF4FD8
S1132A000C9478356091670A8AE091E0E4C06091A3
S1132A10680A8BE091E0DFC06091690A8CE091E084
S1132A20DAC060916A0A8DE091E0D5C060916B0ACA
S1132A308EE091E0D0C060916C0A8FE091E0CBC051
S1132A4060917B0A8EE191E0C6C08091E70A8130F3
S1132A5001F58091DB0A8111C9C080919A0B909194
S1132A609B0B28E1289FB001299F700D11247093BE
S1132A70700A60936F0A82E191E00E94DA0F8091FC
S1132A806F0A9091700A892B09F4B0C01092260B3A
S1132A9008958091AF0A813009F075C08091DB0AF6
S1132AA090E08730910508F0A1C0FC01EE5AFF4F79
S1132AB00C9478356091720A85E191E08CC0609144
S1132AC0730A86E191E087C06091740A87E191E01E
S1132AD082C06091770A8AE191E07DC06091780AB2
S1132AE08BE191E00E94AF0E8091780A0C94062944
S1132AF06091790A8CE191E00E94AF0E8FEC97E02F
S1132B000197F1F700C000008091790A823009F042
S1132B106DC02FEF48EE53E060E070E08DE893E184
S1132B2030C060917A0A8DE191E00E94AF0E8091ED
S1132B306800877F8093680080916D008F77809311
S1132B406D008EE893E10E94D1278FEC97E0019706
S1132B50F1F700C0000080917A0A823009F046C083
S1132B608091680088608093680080916D0080681F
S1132B7080936D002FEF48EE53E060E070E08EE844
S1132B8093E10C945A278091DB0A8230D9F028F41F
S1132B90882349F0813071F008958430F1F0B8F061
S1132BA08530F1F008956091610A7091620A84E0C1
S1132BB091E006C06091630A7091640A86E091E036
S1132BC00C94DA0F6091650A88E091E004C060918A
S1132BD0660A89E091E00C94AF0E1092710A089590
S1132BE08091AD0A883011F40E940D110895E8EF28
S1132BF0FBE080E090E02191820F911D2CE0E43312
S1132C00F207C9F708958091F60B9091F50B890F9F
S1132C109091F70B890F0895E7EBFBE080E090E0DB
S1132C202191820F911D2BE0E33FF207C9F708952C
S1132C308091B40B9091B30B890F9091B50B890FD0
S1132C40089580914F0D4E9902C0059B07C091E0F5
S1132C509093830B816080934F0D0FC01092830B70
S1132C608E7F80934F0D8091AE0A811106C08091B2
S1132C705B0A811102C045980895459A0895029906
S1132C801FC080918D0B90918E0BA0918F0BB091F2
S1132C90900B4091FA075091FB076091FC077091EB
S1132CA0FD07841B950BA60BB70B853F9140A1052F
S1132CB0B105B0F00E940E0B81E08093E30A12C0CC
S1132CC080918D0B90918E0BA0918F0BB091900BF6
S1132CD08093FA079093FB07A093FC07B093FD073A
S1132CE01092E30A3E9A089580917A0A813011F491
S1132CF000000895823021F480910C0B90910D0B0B
S1132D0008958091790A8130C1F4429B0EC0379BAB
S1132D103FC09091B00A9531D8F19091330B993C12
S1132D2008F463C01092330B26C080910B0B8130E2
S1132D3009F05BC0379951C040C0823009F055C0DA
S1132D40429B29C02091E90A3091EA0A80917B0ACA
S1132D5043E0849FC0011124019728173907C0F468
S1132D608091B00A8531A0F08091330B893CE8F161
S1132D701092330B81E08093860B1092960B109285
S1132D80B00A80930B0B3E9A0E94040B0C94D50A54
S1132D901092330B1FC080910B0B813031F52091C1
S1132DA0E90A3091EA0A80917B0A43E0849FC001DA
S1132DB0112402978217930780F41092330B8091A9
S1132DC0960B8F5F8093960B8091960B833068F0FF
S1132DD01092960B1092860B08958091330B8536D2
S1132DE020F01092330B1092960B08958FEF9FEF03
S1132DF0DC018093630890936408A0936508B09302
S1132E00660808950F931F934091630850916408D6
S1132E1060916508709166088A019B010827D901B1
S1132E20C8019927AA27BB27FC01EE0FFF1FEE0F4D
S1132E30FF1FEC5AFD4F452F562F672F77278081B0
S1132E409181A281B38184279527A627B7278093F0
S1132E50630890936408A0936508B09366081F9173
S1132E600F9108950F931F93CF93DF931F92CDB7C4
S1132E70DEB78C01680F601741F0F80181918F0172
S1132E8069830E9402176981F6CF0F90DF91CF9179
S1132E901F910F9108956091630870916408809167
S1132EA06508909166086095709580959095089551
S1132EB0009789F0662379F0282FFC0180E09E2F8B
S1132EC0921B961738F4A191A827B0E0A05DBA4FE1
S1132ED08C91F5CF08958FEF0895FC01CB010097F5
S1132EE029F485E1808381831282089564E670E089
S1132EF00E944235262F60836AE070E00E944235CA
S1132F0061838283211105C085E18083611101C041
S1132F10818308958091150B813009F0B7C082E157
S1132F208093A60B84E18093A70B2091480E81E047
S1132F30820F8093A80B223009F45FC060F522232E
S1132F4009F445C0213009F091C08091FF0A9091A5
S1132F50000B34E0880F991F3A95E1F760916B0AF2
S1132F6070E00E944235CB016AE070E00E94423575
S1132F706C5F7F4F8DE08093AD0B91E19093AE0B2E
S1132F808093AF0B8EE28093B00B8FE28093B10BF2
S1132F902093B20B4DC3243009F452C008F43FC04F
S1132FA0253009F063C085E18093AD0B83E1809304
S1132FB0AE0B83E28093AF0B8BE08093B00B8093D6
S1132FC0B10B80E18093B20B64E170E031C3809176
S1132FD0890B90918A0B6BE470E00E94423585E185
S1132FE08093AD0B81E18093AE0B8CE28093AF0BA9
S1132FF08DE08093B00B8EE20EC36091760B7091DE
S1133000770B85E18093AD0B8CE28093AE0B81E16D
S11330108093AF0B82E28093B00B81E28FC1609109
S1133020270B7091280B85E18093AD0B91E290936F
S1133030AE0B22E22093AF0B9093B00B9CE046C200
S113304080917D0A90917E0A68E170E00E94423589
S113305085E18093AD0B9EE29093AE0B9DE290933D
S1133060AF0B98E29093B00B93E230C285E180936A
S1133070AD0B8093AE0B8093AF0B8093B00B80931A
S1133080B10B8093B20B6BE770E0D2C29091020B4C
S1133090913009F0A2C08AE08093A60B84E180936A
S11330A0A70B8091450E21E0280F2093A80B8230B6
S11330B0B9F128F4882351F08130D1F07EC08330F7
S11330C009F442C0843009F456C077C08091AE0A36
S11330D061E070E0813009F060E085E18093AD0B40
S11330E08FE28093AE0B9DE09093AF0B91E147C1CB
S11330F061E070E080910B0B813009F060E085E1C4
S11331008093AD0B8CE28093AE0B81E18093AF0B87
S113311082E28093B00B89E28093B10B83E211C108
S11331208091120B61E070E0813009F060E085E18C
S11331308093AD0B91E19093AE0B9CE29093AF0B17
S11331402BE02093B00BC2C160B1669566956927E8
S1133150617070E085E18093AD0B8DE28093AE0BDE
S113316081E18093AF0B84E28093B00B8DE0809378
S1133170B10B88E2E6C0809110089091110820916B
S1133180610A3091620A61E070E02817390740F063
S11331902091630A3091640A8217930708F060E073
S11331A085E18093AD0B8CE28093AE0B81E180933B
S11331B0AF0B82E28093B00B2EC285E18093AD0BFE
S11331C08093AE0B8093AF0B8093B00B8093B10BC5
S11331D08093B20B67E372E02BC29091EE0A809168
S11331E0DB0A913009F05CC08630A0F18091240B99
S11331F08130C9F4EAE2F5E0A4E5BAE081912D91C9
S113320090E0C09730E08217930709F015C225E0DB
S1133210E033F20799F71092EE0A81E08093E70A0F
S11332201092240B0DC2E4E2F5E0A4E5BAE081912A
S11332302D9190E0C09730E08217930709F003C204
S113324085E0EA32F80799F71092EE0A81E080935C
S1133250AF0AF6C18091540A8093A60B8091550A57
S11332608093A70B8091560A8093A80B8091570AEC
S11332708093A90B8091580A8093AA0B8091590AD4
S11332808093AB0B85E18093AD0B8093AE0B809361
S1133290AF0B8093B00B8093B10B8093B20B089566
S11332A094E19093A70B91E0980F9093A80B9091C1
S11332B0E70A913011F594E09093A60B811119C09F
S11332C080919A0B90919B0B883E934028F46091D7
S11332D09A0B70919B0B02C067EE73E085E18093BB
S11332E0AD0B98E29093AE0B93E29093AF0B9DE2FB
S11332F0EAC067E080E396E095C19091EC0A9130D2
S113330009F093C092E09093A60B90E08830910569
S113331008F087C0FC01E75AFF4F0C9478356091A0
S1133320670A70E085E18093AD0B81E18093AE0B79
S11333309CE29093AF0B91E29093B00B8093B10B0E
S11333408CE08093B20B74C16091680A70E085E1EF
S11333508093AD0B98E29093AE0B9DE09093AF0BEE
S11333609EE24AC06091690A70E085E18093AD0BEA
S11333708FE28093AE0B9DE09093AF0B93E290931A
S1133380B00B92E2A3C060916A0A70E085E1809379
S1133390AD0B91E19093AE0B98E29093AF0B94E256
S11333A092C060916B0A70E08FE28093AD0B8DE068
S11333B08093AE0B93E29093AF0B8093B00B81E1BB
S11333C071C085E18093AD0B8093AE0B8093AF0BFE
S11333D08093B00B8093B10B8093B20B27C16091A3
S11333E06C0A70E085E18093AD0B91E19093AE0B94
S11333F09CE29093AF0B9DE09093B00B94E266C077
S113340060917B0A70E085E18093AD0B91E290932B
S1133410AE0B9BE09093AF0B8093B00B8093B10BFA
S113342090CF61E188E396E0FDC09091AF0A9130BE
S113343009F082C093E09093A60B90E08730910549
S113344008F076C0FC01EF59FF4F0C947835609179
S1133450720A70E085E18093AD0B87E28093AE0B36
S11334608DE00AC06091730A70E085E18093AD0B32
S113347089E28093AE0B83E28093AF0B81E180936A
S1133480B00B8CE2C8C06091740A70E08DE0809348
S1133490AD0B81E18093AE0B8DE28093AF0B8FE295
S11334A08093B00B8093B10B81E04BCF6091770A8E
S11334B070E085E18093AD0B9CE09093AE0B93E2BA
S11334C09093AF0B9DE09093B00B9FE29093B10B60
S11334D038CF6091780A70E085E18093AD0B89E282
S11334E08093AE0B9DE29093AF0B9BE09093B00B57
S11334F08093B10B81E125CF6091790A70E085E179
S11335008093AD0B91E29093AE0B9BE00AC0609167
S11335107A0A70E085E18093AD0B9DE09093AE0B49
S11335209CE29093AF0B98E29093B00B93E1CECFD3
S113353062E18AE496E076C091E09093A60B823033
S1133540D9F188F4882339F1813009F068C0609199
S1133550630A7091640A85E18093AD0B9FE29093B6
S1133560AE0B2DE023C0843009F448C0C8F1853087
S113357009F055C06091AD0A70E085E18093AD0B10
S113358080E18093AE0B8FE08093AF0B81E2809358
S1133590B00B83E140C06091610A7091620A85E1D9
S11335A08093AD0B9FE29093AE0B22E22093AF0B7E
S11335B09093B00B98E28ACF6091650A70E08FE235
S11335C08093AD0B8EE08093AE0B8DE08093AF0BB8
S11335D08093B00B81E18093B10B9093B20B28C020
S11335E06091660A70E085E18093AD0B90E1909361
S11335F0AE0B9FE29093AF0B9EE2DACF6091710A1B
S113360070E085E18093AD0B9CE09093AE0B98E263
S11336109093AF0B27CD8093B10B8FE292CE62E1F2
S11336208DE596E00E9440290E94B31360E070E0AB
S113363089EA9BE00C946D1765E180E796E006C08B
S11336401092DB0A089565E186E896E00E9440291D
S11336500C94B3132091130B3091140B80919C0B99
S113366090919D0B2817390710F41092540B8091F8
S1133670050B843369F485E18093A60B8093A70B33
S11336808093A80B8093A90B8093AA0B80E10EC0B2
S11336908533C1F485E18093A60B8093A70B8093B7
S11336A0A80B8093A90B8093AA0B81E18093AB0BA9
S11336B080919E0B8A3008F4A3C01092050B1092DF
S11336C09E0B08958091E80A811194C08091150B96
S11336D0811190C08091020B81118CC08091100BDC
S11336E0813039F46091610A7091620A7695679528
S11336F018C08091560B882391F08091300B813053
S113370029F46091940B7091950B0BC08091210B5F
S1133710813029F460916D0A70916E0A02C060E0F4
S113372070E070934B0D60934A0D89EA9BE00E9410
S11337306D178091970B9091980B9093490D8093FE
S1133740480D84369105C0F42AE0289FB001299FD2
S1133750700D11248091030B680F711D86EA9BE0A4
S11337600E946D178091A60B853181F08091A60B84
S11337708A5E8093A60B0AC0BC0186EA9BE00E9485
S11337806D178091A70B8A5E8093A70B8091A90B7C
S11337908093B00B8091AA0B8093B10B8091AB0BFB
S11337A08093B20B83E18093AD0B82E18093AE0BE7
S11337B081E28093AF0B8091780B813059F4809132
S11337C0A80B8093A90B8091A70B8093A80B8091E1
S11337D0A60B05C01092A90B85E18093A80B8093DA
S11337E0A70B80E28093A60B85E18093AA0B8093BC
S11337F0AB0B08950E948A171092D90A1092DD0A21
S113380008959091820BEEE4FDE0818190FB81F9B3
S113381081839091E30A818190FB82F98183909165
S1133820860B818190FB83F9818308950E94292965
S113383010926B0810926A08109269081092680836
S11338408FE39DE09093420E8093410E87E39DE0C9
S11338509093440E8093430E8CED9DE09093360C30
S11338608093350C88E79DE09093360D8093350D59
S113387080E3E8E4FDE0DF01982F1D929A95E9F7D3
S113388095E19093500D99E19093510D90E49093AC
S1133890520D91E29093530D8093540D86E48093DE
S11338A0550D08952FEF3FEF680F791F861797077F
S11338B0A1F0FC014191CF012427E8E0A90156952C
S11338C0479520FD02C09A0105C09A01F1E02F2717
S11338D0F0EA3F27E15091F7E9CFC9010895DF925B
S11338E0EF92FF920F931F93CF93DF93182FEB0167
S11338F0DB80EA80FD804F2D0C81502F2D2D3E2D35
S1133900211584E0380708F465C0240F351F2536D7
S1133910344008F05FC0FB01E85AFF4F80818111F9
S113392021C08091720A8D8F8091730A8E8F80914D
S1133930740A8F8F80917C0A8FA38091770A8AA35F
S11339408091780A8BA380917A0A8DA38091790A59
S11339508CA38CE0E9E8FAE0DB01D49601900D92A7
S11339608A95E1F780E5FE013896ADE5BAE001906D
S11339700D928A95E1F760E08DE59AE00E94FE0FD2
S11339806AE070E080E090E00E941B308091770A4A
S11339908093370C80E18093380CD092390CE092FC
S11339A03A0CF0923B0C00933C0C66E070E087E329
S11339B09CE00E94521C80933D0C90933E0C8AEA3A
S11339C080933F0C8093400C153311F46AE01EC0C1
S11339D068E02AC08091770A8093370C80E980934D
S11339E0380C82E08093390C63E070E087E39CE05C
S11339F00E94521C80933A0C90933B0C8AEA809369
S1133A003C0C80933D0C153361F467E087E39CE044
S1133A10DF91CF911F910F91FF90EF90DF900C9465
S1133A204029193561F465E087E39CE0DF91CF918B
S1133A301F910F91FF90EF90DF900C946632DF910D
S1133A40CF911F910F91FF90EF90DF9008951F93F6
S1133A50CF93DF93182FC091350CD091360C62E6CA
S1133A6070E0CE010E94521CFE01EE59FF4F2081EE
S1133A7028130BC031968081891307C0BE01812FA2
S1133A80DF91CF911F910C946F1C1092400E1092F5
S1133A906A088091770A8093370C80E98093380C08
S1133AA083E08093390C63E070E087E39CE00E943C
S1133AB0521C80933A0C90933B0C8AEA80933C0C02
S1133AC080933D0C65E087E39CE0153329F4DF9196
S1133AD0CF911F910C944029DF91CF911F910C94A9
S1133AE06632FF920F931F93CF93DF93F82EFB015F
S1133AF025818481438152814F3F510509F008F4A7
S1133B00DFC0C22FD82FCE01840F951F853131E03D
S1133B10930768F48091770A8093370C83E080934D
S1133B20380C2093390CBA01615B724F9FC0411568
S1133B3033E0530708F4BEC0853333E0930708F03D
S1133B4081C08091770A8093370C83E08093380C8E
S1133B502093390C8091150890E0982F88272091A4
S1133B601608820F911D74E0969587957A95E1F772
S1133B708093520D2091170830E0322F2227809134
S1133B801808280F311DF4E036952795FA95E1F7CA
S1133B902093530D2091190830E0322F2227809171
S1133BA01A08280F311DB4E036952795BA95E1F728
S1133BB02093500D20911B0830E0322F2227809152
S1133BC01C08280F311D04E0369527950A95E1F766
S1133BD02093540D2091210830E0322F2227809128
S1133BE02208280F311D94E0369527959A95E1F720
S1133BF02093510D2091230830E0322F2227809109
S1133C002408280F311D74E0369527957A95E1F73D
S1133C102093550D00918D0B10918E0B20918F0BDD
S1133C203091900B0093580D1093590D20935A0D19
S1133C3030935B0D8091C80980935C0DBA01685B79
S1133C40754F14C0411534E05307A0F1813534E0B9
S1133C50930798F58091770A8093370C83E08093DB
S1133C60380C2093390CBA01635A794FAE018AE3B8
S1133C709CE00E9498358E010D5F1F4FB80187E3C9
S1133C809CE00E94521CF801E95CF34F8083FE0122
S1133C90E95CF34F94838AEA8583868385E3F8128B
S1133CA003C06C2F695F29C099E5F9123CC06C2FE1
S1133CB06B5F30C04115524018F08730924098F144
S1133CC08091770A8093370C83E88093380C82E0E4
S1133CD08093390C63E070E087E39CE00E94521CFF
S1133CE080933A0C90933B0C8AEA80933C0C80932B
S1133CF03D0C85E3F8120AC067E087E39CE0DF919E
S1133D00CF911F910F91FF900C94402999E5F912DE
S1133D100AC065E087E39CE0DF91CF911F910F918A
S1133D20FF900C946632DF91CF911F910F91FF9019
S1133D300895FF920F931F93CF93DF93F82EC091B2
S1133D40410ED091420E66E070E0CE010E94521CFA
S1133D508C019E8190130CC09F81911309C0BE01F8
S1133D608F2DDF91CF911F910F91FF900C94711DB6
S1133D706DE184E392E00E944029B80180E090E084
S1133D8041E00E9441291092470D10926B088091E6
S1133D90770A8093370C83E88093380C83E0809310
S1133DA0390C63E070E087E39CE00E94521C80932E
S1133DB03A0C90933B0C8AEA80933C0C80933D0C24
S1133DC085E3F8120AC067E087E39CE0DF91CF91B6
S1133DD01F910F91FF900C94402989E5F8120AC0B5
S1133DE065E087E39CE0DF91CF911F910F91FF90F5
S1133DF00C946632DF91CF911F910F91FF9008953B
S1133E000E94011C80916908813029F4109269088C
S1133E1085E30E94991E80916808813029F41092EC
S1133E20680885E30C94271D0895CF93DF93C82F6A
S1133E30D0916B08D13069F5E091430EF091440EB6
S1133E408091470D91E0980F9093470DE80FF11D75
S1133E50C0838091470D883008F48CC01092470DC0
S1133E6010926B0882E993E10E94D1278091430E5E
S1133E709091440E2091410E3091420E3093440EA5
S1133E802093430E9093420E8093410ED093690881
S1133E9071C0D0916A08D13069F5E091350DF09187
S1133EA0360D8091400E91E0980F9093400EE80FEC
S1133EB0F11DC0838091400E843608F45BC01092DB
S1133EC0400E10926A0882E993E10E94D127809102
S1133ED0350D9091360D2091350C3091360C309380
S1133EE0360D2093350D9093360C8093350CD0937A
S1133EF0680840C09091770A80916708981338C089
S1133F00C330D1F481E080936B081092670820E0FD
S1133F1042E350E060E070E082E993E10E945A27B6
S1133F20E091430EF091440E8091770A8083C1831F
S1133F3082E08093470D1EC0C031E1F481E080939C
S1133F406A081092670820E046E950E060E070E0FB
S1133F5082E993E10E945A27E091350DF091360DE4
S1133F608091770A8083C18382E08093400E02C0EF
S1133F70C0936708DF91CF9108951092470D109276
S1133F806B081092400E10926A0808958091E80A16
S1133F90813071F48091EE0A811102C00E94F21402
S1133FA01092010B8091DB0A8F5F8093DB0A17C0AC
S1133FB08091150B813039F41092150B8093020B0C
S1133FC01092480E0AC08091020B813041F4109285
S1133FD0150B1092020B1092450E1092010B80915A
S1133FE08D0B90918E0BA0918F0BB091900B8093C1
S1133FF07E0B90937F0BA093800BB093810B08955D
S11340008091150B813069F41092010B8091480E58
S1134010853020F48F5F8093480E08951092480EE7
S113402008958091020B813069F41092010B809104
S1134030450E863020F48F5F8093450E08951092CC
S1134040450E08958091E80A811121C08091210BC9
S1134050813009F052C180916D0A90916E0A0196E7
S113406090936E0A80936D0A2091610A3091620ADE
S11340702817390720F430936E0A20936D0A609153
S11340806D0A70916E0A80E191E00C94DA0F10923F
S1134090010B9091EC0A8091DB0A913009F050C039
S11340A090E08830910508F028C1FC01E859FF4FE1
S11340B00C94783584E68093670A08958091680AA1
S11340C0813011F482E001C081E08093680A089590
S11340D08091690A8F5F8093690A893C08F40DC155
S11340E088EC8093690A089580916A0A811105C158
S11340F081E080936A0A089580916B0A8F5F8093B0
S11341006B0A853608F4F9C084E680936B0A089537
S113411084E380937D0B089580916C0A833010F4BE
S11341208F5F01C081E080936C0A089580917B0ABF
S1134130833610F48F5F01C081E080937B0A089579
S11341409091EE0A913069F4E82FF0E0EC5AF54FC3
S113415020812F5F20832A3008F4CFC029E02083F8
S113416008959091E70A9130D1F48111C6C08091ED
S11341709A0B90919B0B019690939B0B80939A0BB7
S113418080919A0B90919B0B8D389A4008F4B5C09E
S11341908CE89AE090939B0B80939A0B08959091EE
S11341A0AF0A913009F055C090E08730910508F0CE
S11341B0A4C0FC01E059FF4F0C9478358091720A39
S11341C08F5F8093720A853608F497C084E68093E3
S11341D0720A08958091730A8F5F8093730A8739F6
S11341E008F48BC086E98093730A08958091740A59
S11341F08F5F8093740A833808F47FC082E88093C9
S1134200740A08958091770A8E3F08F076C08F5F14
S11342108093770A08958091780A833010F48F5F31
S113422001C081E08093780A08958091790A8130F1
S113423011F482E001C081E08093790A08958091AD
S11342407A0A813011F482E001C081E080937A0A15
S11342500895823089F128F4882341F08130C9F02F
S113426008958330A1F18530E9F108958091610AC0
S11342709091620A01969093620A8093610A8D324A
S11342809140D8F18CE291E09093620A8093610AA4
S113429008958091630A9091640A01969093640A48
S11342A08093630A8D32914040F18CE291E09093C7
S11342B0640A8093630A08958091650A8F5F8093EE
S11342C0650A8536D0F084E68093650A0895809166
S11342D0660A8F5F8093660A893C78F088EC809345
S11342E0660A08958091AD0A833620F48091AD0A60
S11342F08F5F01C081E08093AD0A08958091150B12
S1134300813061F41092010B8091480E882311F0E2
S1134310815001C085E08093480E08958091020B7E
S1134320813061F41092010B8091450E882311F0C5
S1134330815001C086E08093450E08958091E80A7B
S1134340811121C08091210B813009F04AC18091F3
S11343506D0A90916E0A019790936E0A80936D0A8C
S11343602091630A3091640A8217930720F43093F2
S11343706E0A20936D0A60916D0A70916E0A80E155
S113438091E00C94DA0F1092010B9091EC0A809159
S1134390DB0A913009F04DC090E0FC013197E73021
S11343A0F10508F01EC1E958FF4F0C94783580914F
S11343B0680A823011F481E001C082E08093680AC7
S11343C008958091690A81508093690A843608F0BF
S11343D008C184E68093690A089580916A0A81304D
S11343E009F0FFC010926A0A089580916B0A815007
S11343F080936B0A8A3008F0F4C08AE080936B0AD9
S1134400089585E380937D0B089580916C0A823032
S113441010F0815001C083E080936C0A089580916C
S11344207B0A823010F0815001C083E680937B0ABE
S113443008953091EE0A313059F4E82FF0E0EC5A47
S1134440F54F2081215020832111CBC03083089562
S11344509091E70A9130C9F48111C3C080919A0BFD
S113446090919B0B019790939B0B80939A0B809157
S11344709A0B90919B0B892B09F0B3C081E090E0DB
S113448090939B0B80939A0B08959091AF0A91306F
S113449009F055C090E08730910508F0A2C0FC01F6
S11344A0E258FF4F0C9478358091720A81508093C2
S11344B0720A8E3108F095C08EE18093720A0895D5
S11344C08091730A81508093730A803508F089C003
S11344D080E58093730A08958091740A81508093D3
S11344E0740A863408F07DC086E48093740A0895C3
S11344F08091770A833008F474C081508093770ADE
S113450008958091780A823010F0815001C083E0D0
S11345108093780A08958091790A813011F482E0B9
S113452001C081E08093790A089580917A0A8130EC
S113453011F482E001C081E080937A0A0895823008
S113454079F128F4882341F08130C1F00895833053
S113455091F18530D9F108958091610A9091620AB0
S113456001979093620A8093610A8897D0F588E254
S113457090E09093620A8093610A08958091630A9F
S11345809091640A01979093640A8093630A8897D0
S113459040F588E290E09093640A8093630A08955A
S11345A08091650A81508093650A8A30D0F48AE04C
S11345B08093650A08958091660A81508093660A03
S11345C0823078F482E08093660A08958091AD0A7F
S11345D0882321F08091AD0A815001C083E6809345
S11345E0AD0A0895FF920F931F93CF93DF93909199
S11345F0750B913009F044C08E3299F190F48932F0
S1134600D1F08C3209F050C490935A0E90932B0B36
S1134610449A0E94EA0A8091A50B80648093A50BBA
S113462043C4803991F08B3C09F03EC49093550EFD
S11346309093120839C49093550E1092750B809183
S11346404E0D8E7F80934E0D2FC490935A0E109270
S11346502B0B4498DF91CF911F910F91FF900C94F5
S1134660F00A90935B0E1092750B80914E0D8E7F25
S113467080934E0D0E94220B85E08093710A14C42E
S113468090E0FC01B897E53AF10508F0FEC3EB575A
S1134690FF4F0C94783581E08093500E68E18BEFE6
S11346A096E00E9440298091780B8111EEC369E164
S11346B084E197E00E9440290E94D50A0E94AB0A37
S11346C0E4C381E080935A0E80932B0B449A0E949A
S11346D0EA0A8091A50B80640BC081E080935A0E96
S11346E010922B0B44980E94F00A8091A50B8F7BAB
S11346F08093A50BCAC381E08093510E8091780BFF
S1134700813009F0C2C30E94D313BFC381E08093F8
S1134710540E8091780B882329F08091210B8130ED
S113472009F0B3C310926F0810926E088091DA0AF0
S1134730811106C081E08093DA0A0E94C00AA5C3F1
S11347401092DA0A0E94D50AA0C381E08093540E25
S1134750109271081092700880916E0890916F0801
S1134760892B81F48091490E90914A0E059690937D
S11347704A0E8093490E8130944008F486C380E049
S113478094E02BC08091460E9091470E059690932D
S1134790470E8093460E8130944008F476C380E03F
S11347A094E02EC081E08093540E10927108109210
S11347B0700880916E0890916F08892B99F480910C
S11347C0490E90914A0E059790934A0E8093490E94
S11347D0449708F05AC384E190E090934A0E809382
S11347E0490E53C38091460E9091470E05979093BE
S11347F0470E8093460E449708F047C384E190E047
S11348009093470E8093460E40C310927108109205
S1134810700881E08093540E80916E0890916F0827
S1134820892B81F480914D0E90914E0E05969093B4
S11348304E0E80934D0E8130944008F426C380E0E0
S113484094E02BC080914B0E90914C0E0596909362
S11348504C0E80934B0E8130944008F416C380E0D4
S113486094E02EC081E08093540E1092710810924F
S1134870700880916E0890916F08892B99F480914B
S11348804D0E90914E0E059790934E0E80934D0EC3
S1134890449708F0FAC284E190E090934E0E80931E
S11348A04D0EF3C280914B0E90914C0E0597909350
S11348B04C0E80934B0E449708F0E7C284E190E0DD
S11348C090934C0E80934B0EE0C281E08093540E83
S11348D06091490E70914A0E7093960A6093950AFE
S11348E088E391E00E94DA0F6EE08EE297E00E9486
S11348F040296091950A7091960A18C081E08093CE
S1134900540E6091460E7091470E7093980A60930E
S1134910970A8AE391E00E94DA0F6CE08DE397E056
S11349200E9440296091970A7091980A80E090E073
S113493041E00E944129A9C281E08093540E609114
S11349404D0E70914E0E70939A0A6093990A8CE3FF
S113495091E00E94DA0F6EE08AE497E00E94402919
S11349606091990A70919A0AE1CF81E08093540E84
S113497060914B0E70914C0E70939C0A60939B0A4D
S11349808EE391E00E94DA0F6CE089E597E00E94E3
S1134990402960919B0A70919C0AC8CF81E0809362
S11349A0540E81E090E090936F0880936E0880919C
S11349B0A50B80629DCE81E08093540E10926F0807
S11349C010926E088091A50B8F7D92CE81E080932A
S11349D0540E1CC081E08093540E60915B0B70E018
S11349E0762F662780915C0B680F711D8091630A96
S11349F09091640A8617970708F047C27093620A79
S1134A006093610A84E091E00E94DA0F8AEA80935D
S1134A10B10A85E08093B20A80915B0B8093B30A5C
S1134A2080915C0B8093B40A1092B50A1092B60A76
S1134A301092B70A10926C0828C281E08093540E39
S1134A4060915B0B70E0762F662780915C0B680F9A
S1134A50711D8091610A9091620A6817790708F0C4
S1134A6014C27093640A6093630A86E091E0CCCF29
S1134A7081E08093540E60915C0B6093650A88E03A
S1134A8091E009C081E08093540E60915C0B6093C7
S1134A90660A89E091E00E94AF0EB8CF81E080936E
S1134AA0540E60915C0B6093720A85E191E0F3CF40
S1134AB081E08093540E60915C0B6093730A86E1ED
S1134AC091E0E9CF81E08093540E60915C0B609398
S1134AD0790A8CE191E0DFCF81E08093540E8091DC
S1134AE05B0B813019F0823009F0A4CF80936C08FD
S1134AF0CCC181E08093540E60915C0B60937B0A7F
S1134B008EE191E0C8CF81E08093540E60915C0BFC
S1134B1060937A0A8DE191E0BECF81E08093540ED8
S1134B2061E186E697E00E94402960915C0B609306
S1134B30740A87E191E00EC081E08093540E61E134
S1134B4086E697E00E94402960915C0B60937C0AA2
S1134B508FE191E00E94AF0E8AEA8093B10A85E06A
S1134B608093B20A80915B0B8093B30A80915C0BB3
S1134B708093B40A1092B50A1092B60A1092B70A3A
S1134B8010926C0861E188E797E00E9440297DC19A
S1134B9081E08093540E60915C0B6093680A8BE013
S1134BA091E079CF81E08093540E60915C0B609327
S1134BB0690A8CE091E06FCF81E08093540E60919C
S1134BC05C0B60936A0A8DE091E00E94AF0E32CFD5
S1134BD081E08093540E60915C0B60936B0A8EE0CD
S1134BE091E059CF81E08093540E60915C0B609307
S1134BF0800A83E291E04FCF81E08093540E1ACF74
S1134C0081E08093540EC0915B0BD0E0DC2FCC2765
S1134C1080915C0BC80FD11D80915D0B811108C080
S1134C20D0934A0EC093490E6EE08AE897E01DC007
S1134C30813041F4D093470EC093460E6CE089E96D
S1134C4097E013C0823041F4D0934E0EC0934D0EC2
S1134C506FE086EA97E009C0833049F4D0934C0EA4
S1134C60C0934B0E6DE086EB97E00E944029BE0195
S1134C70882777FD8095982F41E00E944129C6CE70
S1134C8081E08093540E60916D0A70916E0A6B5F9F
S1134C907F4F09C081E08093540E60916D0A70913A
S1134CA06E0A6550710970936E0A60936D0A1092D2
S1134CB06C0880E191E00E94DA0FE7C081E0809304
S1134CC0540E80915B0B8111A1CE80915C0B8830D6
S1134CD009F09CCE0E940D1199CE81E08093540E70
S1134CE010926D08A7CE81E08093540E8AEA8093D7
S1134CF0B10A85E08093B20A80915A0B8093B30A7B
S1134D0080915B0B8093B40A80915C0B8093B50A0D
S1134D1080915D0B8093B60A1092B70A10926C08CA
S1134D2003EB1AE0C4E3D1E0F12CF8016081CE0179
S1134D3008970E94AF0EF3E0FF1202C061E002C0C8
S1134D40F8016081CE010E94AF0EF3940F5F1F4FF4
S1134D502196F4E0FF12E9CFA8950E9481318AE000
S1134D6090E00E941B30019721F46EE083E592E00D
S1134D700CCF60E183E692E008CF81E08093540E8B
S1134D8060915C0B6093770A8AE191E084CE81E0C4
S1134D908093540E60915C0B60939D0A80E491E0D3
S1134DA07ACE81E08093540E60915C0B60937F0A0D
S1134DB082E291E070CE81E08093550E8091E80A02
S1134DC0811138CE0E940E0B10926F0810926E085B
S1134DD031CE81E08093550E8093120810926C08B6
S1134DE01092750B52C081E08093520E10926C08A1
S1134DF08091780B813009F01DCE0E94D8141ACE10
S1134E0081E080935B0E10926F0810926E081092EE
S1134E10750B0E94220B86E08093710A0BCEC1E0D1
S1134E20C093530E8091300B811104CE8091210BDD
S1134E30811100CE0E94F50AC093100BFBCD81E0D6
S1134E408093590E90915A0B9233F9F48093750B19
S1134E5080914E0D816080934E0D1092210B109223
S1134E60100B1092B00AE6CD81E08093580E0E9498
S1134E707E210BC081E08093570E0E94002005C064
S1134E8081E080934F0E0E94C61F8091010B8230F7
S1134E9058F062E184EC97E00E9440290E94B31329
S1134EA01092150B1092020BDF91CF911F910F916D
S1134EB0FF9008950F931F93CF93C22F009709F487
S1134EC069C0411551056105710509F463C020E00D
S1134ED030E01CE0129FF001139FF00D1124EB59F8
S1134EE0F14FA081B181A817B907E1F481E083876C
S1134EF042835383648375830281138124813581C2
S1134F0040918D0B50918E0B60918F0B7091900B93
S1134F10400F511F621F731F468357836087718739
S1134F20C2873AC02F5F3F4F2830310599F620E001
S1134F3030E01CE0129FF001139FF00D1124EB5997
S1134F40F14FDF011B96038501111FC021E02C9353
S1134F5091838083428353836483758302811381A5
S1134F602481358140918D0B50918E0B60918F0B74
S1134F707091900B400F511F621F731F468357831C
S1134F8060877187C287DC0107C02F5F3F4F2830DD
S1134F90310581F6A0E0B0E0CD01CF911F910F91D2
S1134FA00895AC010097B1F020E030E06CE0629F1E
S1134FB0F001639FF00D1124EB59F14F8081918131
S1134FC08417950711F4138608952F5F3F4F2830F7
S1134FD0310569F780E090E00895CF93DF938091E5
S1134FE0630E9091640E877099279093640E80935A
S1134FF0630E28E030E0DCE08091630E9091640E53
S1135000CCE0D89FF001D99FF00D1124EB59F14F5A
S11350108385813009F0B0C040918D0B50918E0B87
S113502060918F0B7091900B8091630E9091640E40
S1135030D89FF001D99FF00D1124EB59F14F8681CF
S11350409781A085B185481759076A077B0708F43B
S113505093C08091630E9091640EC89FF001C99F24
S1135060F00D1124EB59F14F82858F3F49F1809166
S1135070630E9091640EC89FF001C99FF00D112436
S1135080EB59F14F828518167CF48091630E909150
S1135090640EC89FF001C99FF00D1124EB59F14F24
S11350A08285815082870CC08091630E9091640E3A
S11350B0C89FF001C99FF00D1124EB59F14F1386DD
S11350C08091630E9091640ECCE0C89FF001C99F5B
S11350D0F00D1124EB59F14F808191810E94290533
S11350E08091630E9091640EC89FF001C99FF00DEA
S11350F01124EB59F14F8385813051F52091630ED2
S11351003091640E8091630E9091640EC89FF001FB
S1135110C99FF00D1124EB59F14F428153816481F1
S1135120758180918D0B90918E0BA0918F0BB09116
S1135130900B840F951FA61FB71FC29FF001C39F3A
S1135140F00D1124EB59F14F86839783A087B18723
S11351508091630E9091640E01969093640E8093F7
S1135160630E8091630E9091640E877099279093DB
S1135170640E8093630E19C08091630E9091640E47
S113518001969093640E8093630E8091630E9091C8
S1135190640E877099279093640E8093630E215058
S11351A031092115310509F027CFDF91CF910895F9
S11351B010928D0B10928E0B10928F0B1092900BFD
S11351C01092640E1092630E80E6E5E6FEE0DF01C5
S11351D01D928A95E9F708950097B1F020E030E038
S11351E06CE0629FF001639FF00D1124EB59F14FC5
S11351F0408151814817590711F4838508952F5F21
S11352003F4F2830310569F780E00895E9ECF0E07C
S11352108081877E808387E893E10197F1F700C05E
S113522000001092CD008CE08093CC00E8ECF0E01C
S113523080818260808388E98093C90086E08093BE
S1135240CA0028988FE097E20197F1F700C00000A8
S113525008958091780A0E940629539A5298209AB8
S11352605B9A5A9A28981092D40E1092D30E1092E8
S1135270C50E1092C60E1092C70E1092C80E089555
S11352800895089564E273E180E190E00E94BD35E1
S1135290F999FECF64E273E180E390E00E94BD35AA
S11352A0F999FECF64E273E180E590E00E94BD3598
S11352B0F999FECF8FE493EC0197F1F700C0000059
S11352C00C94EE104091C50E5091C60E6091C70E1D
S11352D07091C80E762F652F542F44274093C50E26
S11352E05093C60E6093C70E7093C80E8093C50E7C
S11352F08091C80E8234A1F48091C70E853481F464
S11353008091C60E813461F48091C50E823541F4DA
S113531081E090E09093D40E8093D30E0C944229B4
S113532008951F920F920FB60F9211242F933F935B
S11353304F935F936F937F938F939F93AF93BF9399
S1135340CF93DF93EF93FF93C091CE008C2F0E94F5
S113535062298C2F0E94151FCA3A11F41092720808
S1135360E091720881E08E0F80937208F0E0E753B9
S1135370F14FC0838831D1F5EAECFEE08AEA9191DD
S1135380890F9EE0E03EF907D1F7109272089091E0
S1135390E00E89132BC08091C90E8A3A39F5209109
S11353A0CA0E223018F5E22FF0E08AE0289F90011F
S11353B01124220F331F2D5E374F80E090E0EC0163
S11353C0C753D14FD901A80FB91F4A8112964C93E4
S11353D012974B8113964C9302968431910579F779
S11353E0EE0FFF1FE652F84F11821082FF91EF91EA
S11353F0DF91CF91BF91AF919F918F917F916F91E9
S11354005F914F913F912F910F900FBE0F901F907E
S113541018952B98000000000895E82FF0E0EE0F97
S1135420FF1FED58F74F808191810895E82FF0E038
S1135430EE0FFF1FED56F74F808191810895239A57
S113544081110C94092A000000002B9A08959DB53F
S11354508EBD0000000028EC3FEA8DB5807831F461
S11354602150310921153105C1F701C081E00895AA
S1135470CF92DF92EF92FF920F931F93CF93DF931C
S113548000D000D01F92CDB7DEB7890121153105B8
S113549081F1239A4C835D836B837A8389830E9491
S11354A0092A259A279A89810E94272A7A81872F97
S11354B00E94272A6B81862F887F8C5F0E94272A6F
S11354C086E08A95F1F700C04C81C42E5D81D52E0B
S11354D07601E00EF11ECE14DF0431F0F601819165
S11354E06F010E94272AF7CF80E00E941F2AC8017B
S11354F002C080E090E00F900F900F900F900F90FB
S1135500DF91CF911F910F91FF90EF90DF90CF909B
S1135510089524E030E0AC0160E071E080E090E0C8
S11355200C94382A24E030E0AC0160E075E080E0BF
S113553090E00C94382A26E030E0AC0160E079E099
S113554080E090E00C94382A24E030E0AC0160E084
S11355507FE080E090E00C94382A1F93CF93DF9390
S113556000D0CDB7DEB7182FCB017A8369830E94B0
S1135570D5309A83898380E2189FB0011124685F33
S11355807B4F882777FD8095982F22E030E0AE018D
S11355904F5F5F4F0E94382A0F900F90DF91CF9199
S11355A01F9108951F93CF93DF9300D0CDB7DEB73B
S11355B0182FCB017A8369830E94D5309A8389831B
S11355C080E2189FB0011124685F7F4E882777FD21
S11355D08095982F22E030E0AE014F5F5F4F0E942C
S11355E0382A0F900F90DF91CF911F910895AB014E
S11355F020E2829FC0011124885F934FBC01882759
S113560077FD8095982F24E030E00C94382ACF93CE
S1135610DF9300D0CDB7DEB79A8389830E94D5305B
S11356209A83898322E030E0AE014F5F5F4F60E0F0
S113563079E180E090E00E94382A0F900F90DF918A
S1135640CF9108951F93CF93DF9300D0CDB7DEB7EA
S1135650182FCB017A8369830E94D5309A8389837A
S113566080E2189FB0011124685F774D882777FD89
S11356708095982F22E030E0AE014F5F5F4F0E948B
S1135680382A0F900F90DF91CF911F910895CF93F7
S1135690DF9300D000D0CDB7DEB7239A4C836B8361
S11356A07A8389830E94092A259A279A89810E94EC
S11356B0272A7A81872F0E94272A6B81862F887F49
S11356C08C5F0E94272A86E08A95F1F700C04C81FE
S11356D0842F0E94272A80E00F900F900F900F9044
S11356E0DF91CF910C941F2A2F923F924F925F9299
S11356F06F927F928F929F92AF92BF92CF92DF92DE
S1135700EF92FF920F931F93CF93DF9300D000D0BB
S11357101F92CDB7DEB74C016C837D8303E818E09C
S113572073E7E72E78E0F72EE3E9AE2EE8E0BE2E2D
S1135730F3EACF2EF8E0DF2E22242394312C50E01C
S1135740412C512C612C712C910163E0220F331FE9
S11357506A95E1F7C901915EBC01882777FD8095C0
S1135760982FF401408129833A835B830E94472B5D
S113577029813A81325EB901882777FD8095982F77
S1135780EC81FD8140810E94472BF8011182108237
S1135790F701118210825B81F1E06F16F0E47F065D
S11357A0B0F4F4018081811104C0F60111821082E9
S11357B00EC0813160F490E0982F8827990F990FDB
S11357C0F801918380830197F60191838083F80126
S11357D020813181F1E04F16F0E45F06A8F4EC81FA
S11357E0FD818081811104C0F501118210820CC0F9
S11357F0813150F4880F880FF70110828183C90129
S11358000197F50191838083620E731EF7018191E4
S113581091917F01480E591E5F5FFFEF8F1A9F0A17
S113582084E0280E311CEC81FD813196FD83EC83EC
S11358300E5F1F4FF2E0AF0EB11C82E0C80ED11C08
S1135840583009F081CF0F900F900F900F900F9068
S1135850DF91CF911F910F91FF90EF90DF90CF9048
S1135860BF90AF909F908F907F906F905F904F907C
S11358703F902F900895482F60E070E0CB010C9486
S1135880472B462F24E0829FC00111240196B3E0E8
S1135890880F991FBA95E1F7BC01882777FD809599
S11358A0982F0C94472B462F20E2829FC00111248D
S11358B0885F9E4FBC01882777FD8095982F0C94B4
S11358C0472B482F60E07EE280E090E00C94472B69
S11358D0482F60E07BE180E090E00C94472B482F58
S11358E060E078E180E090E00C94472B482F60E082
S11358F076E180E090E00C94472B462F68E07CE250
S113590080E090E00C94472BFC018DB58EBD000027
S1135910000028EC3FEA8DB5807831F4215031093C
S113592021153105C1F703C08EB5808381E0089548
S1135930CF92DF92EF92FF920F931F93CF93DF9357
S113594000D000D01F92CDB7DEB78901239A4C83D3
S11359505D836B837A8389830E94092A259A279A17
S113596089810E94272A7A81872F0E94272A6B81A6
S1135970862F887F0E94272A86E08A95F1F700C047
S11359804C81C42E5D81D52E7601E00EF11ECE141D
S1135990DF0439F0C6010E94842CEFEFCE1ADE0A30
S11359A0F6CF80E00E941F2AC8010F900F900F903D
S11359B00F900F90DF91CF911F910F91FF90EF9077
S11359C0DF90CF900895CF93DF9300D000D0CDB770
S11359D0DEB7239A6C837B838A830E94092A259AE3
S11359E0279A8A810E94272A7B81872F0E94272A4F
S11359F06C81862F887F0E94272A86E08A95F1F79A
S1135A0000C0CE0101960E94842C80E00E941F2ACF
S1135A1089810F900F900F900F90DF91CF9108958F
S1135A20CF93DF93C5E060E07EE280E090E00E94E7
S1135A30E32CD82F0000000060E07EE280E090E0DC
S1135A400E94E32CD81711F0C15069F78D2FDF9114
S1135A50CF910895CF92DF92EF92FF92CF93DF938D
S1135A6020E2829FC0011124885F9C4F6C01EE24C8
S1135A70D7FCE094FE2CC5E0C701B6010E94E32CDC
S1135A80D82F00000000C701B6010E94E32CD817EC
S1135A9011F0C15089F78D2FDF91CF91FF90EF90D6
S1135AA0DF90CF900895CF92DF92EF92FF92CF9341
S1135AB0DF9320E2829FC0011124885F9E4F6C0116
S1135AC0EE24D7FCE094FE2CC5E0C701B6010E9489
S1135AD0E32CD82F00000000C701B6010E94E32C7C
S1135AE0D81711F0C15089F78D2FDF91CF91FF9016
S1135AF0EF90DF90CF9008957F928F929F92AF9214
S1135B00BF92CF92DF92EF92FF920F931F93CF93A6
S1135B10DF9324E0829FC0011124019623E0880FC3
S1135B20991F2A95E1F76C0120EED21AEE24D7FCD6
S1135B30E094FE2C4C012FED921AAA2497FCA09419
S1135B40BA2C37E0732E00E010E07A9429F1C701F3
S1135B50B6010E94E32C0000C82FD0E0DC2FCC2734
S1135B60C501B4010E94E32CC80FD11D209789F010
S1135B7000000000C701B6010E94E32C0000082FBA
S1135B8010E0102F0027C501B4010E94E32C080F78
S1135B90111D0C171D07C9F6C801DF91CF911F9184
S1135BA00F91FF90EF90DF90CF90BF90AF909F90B8
S1135BB08F907F9008957F928F929F92AF92BF9221
S1135BC0CF92DF92EF92FF920F931F93CF93DF93C5
S1135BD024E0829FC0011124019663E0880F991F7D
S1135BE06A95E1F76C012AEDD21AEE24D7FCE09411
S1135BF0FE2C4C0129ED921AAA2497FCA094BA2CED
S1135C0077E0772E00E010E07A9429F1C701B6011D
S1135C100E94E32C0000C82FD0E0DC2FCC27C50164
S1135C20B4010E94E32CC80FD11D209789F0000015
S1135C300000C701B6010E94E32C0000082F10E009
S1135C40102F0027C501B4010E94E32C080F111D79
S1135C500C171D07C9F6C801DF91CF911F910F9151
S1135C60FF90EF90DF90CF90BF90AF909F908F9078
S1135C707F9008957F928F929F92AF92BF92CF921E
S1135C80DF92EF92FF920F931F93CF93DF9324E061
S1135C90829FC00111240196A3E0880F991FAA9541
S1135CA0E1F74C0138ED931AAA2497FCA094BA2C7E
S1135CB06C0127EDD21AEE24D7FCE094FE2CB7E059
S1135CC07B2E80E090E07A9429F1C501B4010E9412
S1135CD0E32C0000C82FD0E0DC2FCC27C701B6018D
S1135CE00E94E32CC80FD11D00000000C501B401BF
