S01200006D6D725F7A625F6E65742E73726563E5
S11300000C942B030C9448030C9448030C9448035D
S11300100C9448030C9448030C9499090C94B0096B
S11300200C94C7090C9448030C9448030C9448039B
S11300300C9448030C9448030C9448030C94480310
S11300400C9448030C9448030C9490080C944803B3
S11300500C943E090C9448030C9416090C94480320
S11300600C9448030C9448030C9448030C944803E0
S11300700C94712B0C9448030C9448033805B9056F
S11300803A056F05A405AD05AF05B505B105B7057E
S1130090B30535058A168F16941699169E167E1783
S11300A0A316A816E216E716EC16F116F6160017B4
S11300B01917171B2C1B3A1B4B1B591B691B771B4E
S11300C0881BAF1BBA1BCB1BDE1BF11B041C0F1CB4
S11300D0E221E621F021FC210422102214221E2216
S11300E0662272227E228A2293229D22A7225F23E5
S11300F0692375237D2389238D239723DC23E82318
S1130100F4230024092413241D24D324652803255F
S11301100E25E9247F288C289B28C128CD28AB28CC
S1130120C7282529252925292529252925292529BA
S11301302529252925292529252925292529E6278C
S11301402529252925297226A526C026CA26D6268C
S1130150E026EA262529472850275A2764277027AE
S11301608427C827D2272D255A258D25BA25ED2584
S1130170062624263D26562663265B285A277A27F8
S113018024276E26252925292529252925292529B8
S113019025292529252925292529252925292529EB
S11301A025292529252925292529152725292529ED
S11301B025292529252925292529252925292529CB
S11301C025292529252925292529252925292529BB
S11301D025292529252925292529F52425292529E0
S11301E0252925292529252925292529252925299B
S11301F0252925292529252925292529252925298B
S1130200252925292529252925292529252925297A
S1130210252925292529252925292529252925296A
S113022025298827F52751280B2701272529252942
S1130230252925292529252925292529252925294A
S113024025292529252925292529FB27472851281A
S11302507528F426D32800000000963007772C6117
S11302600EEEBA51099919C46D078FF46A7035A559
S113027063E9A395649E3288DB0EA4B8DC791EE999
S1130280D5E088D9D2972B4CB609BD7CB17E072D19
S1130290B8E7911DBF906410B71DF220B06A487191
S11302A0B9F3DE41BE847DD4DA1AEBE4DD6D51B5D9
S11302B0D4F4C785D38356986C13C0A86B647AF9B9
S11302C062FDECC9658A4F5C0114D96C0663633D19
S11302D00FFAF50D088DC8206E3B5E10694CE441A1
S11302E060D5727167A2D1E4033C47D4044BFD8509
S11302F00DD26BB50AA5FAA8B5356C98B242D6C929
S1130300BBDB40F9BCACE36CD832755CDF45CF0D88
S1130310D6DC593DD1ABAC30D9263A00DE51805100
S1130320D7C81661D0BFB5F4B42123C4B356999588
S1130330BACF0FA5BDB89EB802280888055FB2D908
S11303400CC624E90BB1877C6F2F114C6858AB1D88
S113035061C13D2D66B69041DC760671DB01BC209F
S1130360D2982A10D5EF8985B1711FB5B606A5E4D8
S1130370BF9F33D4B8E8A2C9077834F9000F8EA818
S1130380099618980EE1BB0D6A7F2D3D6D08976C98
S11303906491015C63E6F4516B6B62616C1CD83050
S11303A065854E0062F2ED95066C7BA5011BC1F4D8
S11303B0088257C40FF5C6D9B06550E9B712EAB838
S11303C0BE8B7C88B9FCDF1DDD62492DDA15F37C18
S11303D0D38C654CD4FB5861B24DCE51B53A740000
S11303E0BCA3E230BBD441A5DF4AD795D83D6DC448
S11303F0D1A4FBF4D6D36AE96943FCD96E344688A8
S113040067ADD0B860DA732D0444E51D03335F4C47
S11304100AAAC97C0DDD3C710550AA4102271010BF
S11304200BBE86200CC925B56857B3856F2009D447
S113043066B99FE461CE0EF9DE5E98C9D929229887
S1130440D0B0B4A8D7C7173DB359810DB42E3B5CC7
S1130450BDB7AD6CBAC02083B8EDB6B3BF9A0CE299
S1130460B6039AD2B1743947D5EAAF77D29D15262F
S1130470DB048316DC73120B63E3843B64943E6AEF
S11304806D0DA85A6A7A0BCF0EE49DFF099327AE2F
S1130490000AB19E077D44930FF0D2A3088768F247
S11304A0011EFEC206695D5762F7CB67658071362F
S11304B06C19E7066B6E761BD4FEE02BD3895A7A4F
S11304C0DA10CC4ADD676FDFB9F9F9EFBE8E43BEAF
S11304D0B717D58EB060E8A3D6D67E93D1A1C4C297
S11304E0D83852F2DF4FF167BBD16757BCA6DD069F
S11304F0B53F4B36B248DA2B0DD84C1B0AAFF64A3F
S11305000336607A0441C3EF60DF55DF67A8EF8EDE
S11305106E3179BE69468CB361CB1A8366BCA0D2B6
S11305206F2536E2685295770CCC03470BBBB9169E
S113053002222F260555BE3BBAC5280BBDB2925ADE
S1130540B42B046AB35CA7FFD7C231CFD0B58B9E5E
S1130550D92C1DAEDE5BB0C2649B26F263EC9CA377
S11305606A750A936D02A906099C3F360EEB8567EE
S1130570077213570005824ABF95147AB8E2AE2B6E
S1130580B17B381BB60C9B8ED2920DBED5E5B7EF6E
S1130590DC7C21DFDB0BD4D2D38642E2D4F1F8B386
S11305A0DD686E83DA1FCD16BE815B26B9F6E1776E
S11305B0B06F7747B718E65A0888706A0FFFCA3BCE
S11305C006665C0B0111FF9E658F69AE62F8D3FF6E
S11305D06B6145CF6C1678E20AA0EED20DD7548336
S11305E0044EC2B30339612667A7F71660D04D479E
S11305F06949DB776E3E4A6AD1AEDC5AD6D9660BBE
S1130600DF40F03BD83753AEBCA9C59EBBDE7FCFDD
S1130610B247E9FFB5301CF2BDBD8AC2BACA3093F5
S1130620B353A6A3B4240536D0BA9306D7CD29571D
S1130630DE54BF67D9232E7A66B3B84A61C4021B5D
S1130640685D942B6F2A37BE0BB4A18E0CC31BDFDD
S1130650055A8DEF022D11241FBECFEFD0E1DEBF6E
S1130660CDBF17E0A0E0B1E0E0E9FFE602C00590ED
S11306700D92A83DB107D9F720E1A8EDB7E001C07C
S11306801D92AA3CB207E1F70E944F070C94C637AB
S11306900C940000EAEFFFEEE491E0934B0AE1E0F2
S11306A0F0EF2491E5E0F0EF9491E8E0F0EF84912D
S11306B0ECE0F0EFE491243931F4943921F48C30F6
S11306C011F4EC30B9F084B7877F84BFA89588E132
S11306D00FB6F89480936000109260000FBE83B749
S11306E0817F83BF83B7816083BF889583B78E7F03
S11306F083BFF5CF000008958091DC079091DD075A
S113070001969093DD078093DC07459758F00E948B
S1130710A60B1092DD071092DC0780914A0A8F5FC6
S113072080934A0A0E94B21C0E946C0B0E949F0B89
S11307300E94EE090E94620A0E9466150E9409182E
S11307400E94FC170E94C7170C94D51112B815B853
S113075018B81BB811B814B817B81AB83E9A389A12
S1130760399A3A9A3B9A3C9A3D9A3E9A1698179827
S113077010981198559A549A129A139A149A479A5F
S11307805E9A159A5F9A219A589A519A209A5A9A7F
S1130790539A249A239A22980895CF938091C30957
S11307A0883011F00E94A6038091730A811102C05F
S11307B081E003C0843018F083E08093730A809151
S11307C0730A0E94E62A6EE082E191E00E94202BE7
S11307D014BC83E085BD84EC86BD80916E0081608D
S11307E080936E006FE082E291E00E94202B82EA07
S11307F08093800089E1809381001092820089EEC9
S113080093E0909387008093860084EF91E0909327
S113081089008093880090938B0080938A006FE016
S113082083E391E00E94202B1DBA8AE28093690041
S1130830EA9869E184E491E00E94202B1092680018
S113084010926B0010926C0010926D001092730065
S11308508091680084608093680080916D00806856
S113086080936D0080916800886080936800809117
S1130870730080688093730080E58CBD8DB58160C2
S11308808DBD1DBC259A2698279A6CE08FE591E0D2
S11308900E94202BC6E0C0937C0085EA80937A00F6
S11308A010927B0080917A00806480937A006CE0DF
S11308B08DE691E00E94202B1092C5008CE080937D
S11308C0C40082E08093C00088ED8093C100C0938F
S11308D0C20029986EE08BE791E0CF910C94202B15
S11308E01092550A1092D90A1092D80A1092DB0A73
S11308F01092DA0A1092CF0A1092CE0A1092CD0A00
S11309001092CC0A1092290B10922A0B10922B0BE6
S113091010922C0B10922D0B10922E0B10922F0B69
S11309201092300B1092150B1092160B1092170B9D
S11309301092180B1092110B1092120B1092130BB1
S11309401092140B1092B90A1092E70A1092570AE7
S11309508FEF8093C20A83E38093480B1092520B6B
S11309601092E80A46981092080B1092B70A81E098
S11309708093100B1092510B10924B0A1092C409E1
S11309801092C5090E949E1D60E18BE891E00E94CF
S1130990202B0E94B82A64E18DE991E00E94202B6B
S11309A0419808951092B60A1092BA0A2091F00A5A
S11309B03091F10A3093630B2093620B8091E50A26
S11309C08093E00A8091460B9091470B4091190D5A
S11309D08217930738F481E08093A90A4064409316
S11309E0190D10C01092A90A842F8F7B8093190DC2
S11309F08091560A811106C080914E0B811102C06C
S1130A00459801C0459A40916F0A429FC001439F97
S1130A10900D112464E670E00E9422377093630BFA
S1130A206093620B08950E94D2048091C10A8823C6
S1130A3081F08091310B853160F01092310B0E946E
S1130A404D0B8091190D8E7F8093190D82E0809358
S1130A506C0A08958B5893418C30910508F089C035
S1130A60825C9F4FFC010C946C3781E00C949F12C4
S1130A700C947C038091FF0B20915D0B30915E0BF5
S1130A802F5F3F4F36952795E82FF0E0ED53F44F55
S1130A9020833091BF0BE32FF0E0E054F44F208328
S1130AA010925E0B10925D0B8F5F6CE30E94163701
S1130AB09093FF0B81E0830F63E00E9416379093BD
S1130AC0BF0B0E947F179093420B8093410B0E94AF
S1130AD08B1790E09093C70A8093C60A089580917B
S1130AE0810B2091F50A3091F60A2F5F3F4F36951E
S1130AF02795E82FF0E0EE57F44F20833091BE0B9A
S1130B00E32FF0E0E258F44F20831092F60A10929B
S1130B10F50A8F5F6CE30E9416379093810B81E096
S1130B20830F63E00E9416379093BE0B0E949417C4
S1130B309093050B8093040B0E94A01790E0909370
S1130B40EA0A8093E90A08952FEF48EC50E060E048
S1130B5070E080E993E10C943A290C94A9170C9461
S1130B6013050C9488200C9411370C9445210C9493
S1130B7050150895CF9380917800282F80917900A3
S1130B80382FB90173708091110B9091120BA091C1
S1130B90130BB091140B860F971FA11DB11D8093E9
S1130BA0110B9093120BA093130BB093140B609141
S1130BB0CC0A7091CD0A6F5F7F4F6115E4E07E0728
S1130BC028F47093CD0A6093CC0AC5C01092CD0A64
S1130BD01092CC0AE4E0B695A79597958795EA9587
S1130BE0D1F79C0140E050E01092110B1092120BCF
S1130BF01092130B1092140BC0917C00C07F609173
S1130C007C00677009F497C0663009F0A1C0E091D8
S1130C10660A863761E4960710F12A553243A3E346
S1130C20B0E00E9481379B01AC01AE2FB0E00E947E
S1130C3081379B01AC0172E056954795379527950E
S1130C407A95D1F737FF04C085E08093E50A02C0A6
S1130C501092E50A5093F10A4093F00A7AC08B355A
S1130C6062E3960720F09C012A55324302C020E03B
S1130C7030E0A3E3B0E00E9481379B01AC01AE2FCA
S1130C80B0E00E9481379B01AC0162E05695479524
S1130C90379527956A95D1F75093F10A4093F00A56
S1130CA01092E50A8091650A811134C08091430B4A
S1130CB0813081F58091400B813041F080910D0BA2
S1130CC0813021F08091FE0A813021F58091190D47
S1130CD08E7F8093190D87E080936C0A8091580B66
S1130CE09091590BA0915A0BB0915B0B4091D8078E
S1130CF05091D9076091DA077091DB07841B950B3B
S1130D00A60BB70B89359B41A105B10510F10E94D3
S1130D104D0B1FC08091580B9091590BA0915A0B09
S1130D20B0915B0B8093D8079093D907A093DA070F
S1130D30B093DB070EC0C6602091670A2D7F213077
S1130D4041F490930A0B8093090B2093BB0A01C0D2
S1130D50C660C0937C00CF9108958091C80A8F5FCC
S1130D608093C80A8A3008F484C01092C80A80911B
S1130D70EC0A8F5F8093EC0A8091020B8F5F809363
S1130D80020B8091530B8F5F8093530B8091F90A70
S1130D908F5F843618F48093F90A0BC01092F90A15
S1130DA0459A81E08093560A8091190D806880935A
S1130DB0190D8091100B8F5F8093100B8091CA0ADC
S1130DC08F5F8093CA0A8A3008F453C01092CA0A0B
S1130DD08091690B8F5F8093690B8091EE0A8F5F1E
S1130DE08093EE0A8091560B8F5F8093560B80910F
S1130DF0E10A8F5F8093E10A8091AB0A8F5F893C9F
S1130E0008F088EC8093AB0A8091640B8F5F809329
S1130E10640B8A3070F11092640B8091310B8F5FF8
S1130E208093310B8091440B9091450B01969093E4
S1130E30450B8093440B8091DE0A8F5F8093DE0A1A
S1130E409091C50A913041F09091DF0A913021F0E0
S1130E509091F20A913069F48F3158F062E18FEB8E
S1130E6094E00E94202B0E9430151092F20A1092F6
S1130E70DF0A08951092F90A1092560A8091190D0A
S1130E808F778093190D8091A90A811106C08091F2
S1130E904E0B811102C045980895459A089584B770
S1130EA08F708093C30984B7877F84BFF894A89513
S1130EB088E10FB6F89480936000109260000FBE32
S1130EC08091C309883049F02FE789EA93E02150E3
S1130ED080409040E1F700C0000064E082ED94E0BF
S1130EE00E94202B80E00E949F120E94CD030E944A
S1130EF0700465E087ED94E00E94202B80E00E945E
S1130F009F1278940E9461336AE070E080E090E080
S1130F100E94FB31813021F46EE083EB91E003C049
S1130F2060E183EC91E00E94202B2FEF48EE53E028
S1130F3060E070E08DE893E10E943A292FEF48EEDB
S1130F4053E060E070E08EE893E10E943A290E9449
S1130F504A038091C309883049F02FEF80E792E07B
S1130F60215080409040E1F700C000002FE088E16C
S1130F7090E00FB6F894A895809360000FBE20937C
S1130F8060008091C309843021F465E185ED91E02E
S1130F9017C08091C309813021F465E18CEE91E0A2
S1130FA00FC08091C309823021F468E183E092E0AC
S1130FB007C08091C309883029F465E18DE192E08E
S1130FC00E94202B2FEF4AE050E060E070E08BE8B5
S1130FD093E10E943A292FEF45E050E060E070E091
S1130FE083E993E10E943A292FEF4AE050E060E060
S1130FF070E085E993E10E943A292FEF48EE53E02F
S113100060E070E081E993E10E943A292FEF40E823
S11310105EEE66E370E086E993E10E943A29A895C2
S11310208091DE079091DF078131974258F0EFE01D
S1131030F8E0DF0111971C921082329688E0E332C7
S1131040F807B9F78091E0079091E1078131974261
S113105088F48091690880FD439A80FF43988091C9
S1131060570A813099F48091C20A0E947A2410921E
S1131070570A0CC0E3E2F8E0DF0111971C921082DA
S1131080329688E0E733F807B9F7E3CF8091BB0ADB
S1131090813081F41092BB0A8091090B90910A0B64
S11310A00E94B20D8091090B90910A0B9093180D38
S11310B08093170D8091C5098823B9F08091C509E3
S11310C081508093C509E091C409F0E0EA53F64FDA
S11310D080810E943A078091C4098F5F8093C4097C
S11310E08091C4098F778093C4090E94CD2980918F
S11310F00D0B813021F08091FE0A813011F4429B66
S113110088B18091550A882309F489CF8091550AC2
S113111081508093550A0E94AD060E94BA057FCF84
S11311201F920F920FB60F9211248F939F93AF9338
S1131130BF93EF93FF9382EC86BD8091580B9091FF
S1131140590BA0915A0BB0915B0B0196A11DB11DD7
S11311508093580B9093590BA0935A0BB0935B0B4D
S113116080916B0890916C08019690936C08809321
S11311706B088091550A8F5F8093550AEEEDF7E076
S113118080819181019691838083E0EEF7E08081F4
S11311909181019691838083E2EEF7E080819181D1
S11311A0019691838083E4EEF7E08081918101963A
S11311B091838083E6EEF7E08081918101969183AB
S11311C08083E8EEF7E080819181019691838083AA
S11311D0EAEEF7E080819181019691838083ECEEC1
S11311E0F7E080819181019691838083EEEEF7E0B0
S11311F080819181019691838083E0EFF7E0808183
S11312009181019691838083E2EFF7E0808191815F
S1131210019691838083FF91EF91BF91AF919F914C
S11312208F910F900FBE0F901F9018951F920F92E1
S11312300FB60F9211248F939F93EF93FF93E09136
S1131240C30AEA3058F481E08E0F8093C30AF0E0B9
S1131250E455F54F80818093C60007C089EF90E084
S11312600197F1F700C000002998FF91EF919F9139
S11312708F910F900FBE0F901F9018951F920F9291
S11312800FB60F9211242F933F934F938F939F93F5
S1131290EF93FF938091C6008093340B20E035E4F4
S11312A0E22FF0E0EC5CF44F80818534F1F02F5FA5
S11312B080E090E04091C00047FD06C0883843E1DB
S11312C0940729F00196F6CF8838934131F4E22F40
S11312D0F0E0EC5CF44F3083E3CF8091C600E22F62
S11312E0F0E0EC5CF44F8083DBCFE4E3FBE080E0F0
S11312F09191890F9BE0EB33F907D1F790913B0B68
S113130089130BC08091350B823039F48091360BF0
S11313108093C20A81E08093570AFF91EF919F91D5
S11313208F914F913F912F910F900FBE0F901F906F
S113133018951F920F920FB60F9211248F939F93BB
S113134080915D0B90915E0B019690935E0B809360
S11313505D0B9F918F910F900FBE0F901F9018956A
S11313601F920F920FB60F9211248F939F93809127
S1131370F50A9091F60A01969093F60A8093F50A7D
S11313809F918F910F900FBE0F901F9018951F92F1
S11313900F920FB60F9211242F933F934F935F93A5
S11313A06F937F938F939F93AF93BF93EF93FF9329
S11313B06DE08DED94E00E94202BFF91EF91BF91A1
S11313C0AF919F918F917F916F915F914F913F91D9
S11313D02F910F900FBE0F901F9018958091ED0ADA
S11313E0813039F480915C0A90915D0A96958795D5
S11313F052C080910D0B813041F520915F0B3091EB
S1131400600B80915C0A90915D0A8217930720F427
S11314109093600B80935F0B20915F0B3091600B76
S113142080915E0A90915F0A8217930728F01092C8
S1131430600B10925F0B3FC08091330B8823D9F16E
S113144080915F0B9091600B26C08091330B8130AB
S113145091F580915C0A90915D0A2091680A30911F
S1131460690A8217930720F49093690A8093680AA3
S113147080915E0A90915F0A2091680A3091690A0E
S11314802817390720F49093690A8093680A809199
S1131490680A9091690A23E0880F991F2A95E1F759
S11314A063E070E00E94223768537F4F70938B0093
S11314B060938A00089588EC90E090938B00809369
S11314C08A0008958091ED0A813039F480915C0A94
S11314D090915D0A9695879552C080910D0B81304D
S11314E041F520915F0B3091600B80915C0A9091E3
S11314F05D0A8217930720F49093600B80935F0B2F
S113150020915F0B3091600B80915E0A90915F0A8D
S11315108217930728F01092600B10925F0B3FC064
S11315208091330B8823D9F180915F0B9091600BEC
S113153026C08091330B813091F580915C0A9091A3
S11315405D0A2091680A3091690A8217930720F492
S11315509093690A8093680A80915E0A90915F0A69
S11315602091680A3091690A2817390720F490936A
S1131570690A8093680A8091680A9091690A43E035
S1131580880F991F4A95E1F763E070E00E942237C3
S113159068537F4F7093890060938800089588ECA6
S11315A090E090938900809388000895409A389A37
S11315B081E08093430BE9E1FDE0808188608083D2
S11315C008954098389A1092430BE9E1FDE0808138
S11315D0877F808308953B9A81E090E090936A0826
S11315E080936908E0E7FBE0808180628083E9E121
S11315F0FDE080818062808381818E7F8183089574
S113160010926A08109269083B9AE0E7FBE0808137
S11316108F7D8083E9E1FDE080818F7D80838181FE
S11316208E7F818310925C0B0895449A3C9A81E0EA
S113163080934D0B089544983C9A10924D0B089555
S1131640429A3A9A81E08093330BE9E1FDE080818C
S1131650806180831092AB0A1092100B0895429817
S11316603A9A1092330BE9E1FDE080818F7E80830A
S113167008950E942F0B0E94000B10920D0BE9E1BC
S1131680FDE080811092FE0A8D7F8B7F8083109213
S1131690ED0A1092510B3E9A08950E94E10A0E94AD
S11316A0390B1092510B84E993E10C94B12981E038
S11316B080935C0B1092EE0A089580915C0B81304C
S11316C051F49091EE0A8091610A891720F41092E6
S11316D05C0B0C94EB0A089580910D0B813071F52D
S11316E0429B0EC08091FC0A9091FD0A059720F55B
S11316F00E942F0B0E94000B1092E80A3E9A1CC015
S11317002091FC0A3091FD0A8091FA0A9091FB0A1B
S11317108A5592438217930778F48091E80A8823C4
S113172039F08091510B811107C01092E80A3E9A5A
S11317300E94200B0E94570B0C945D0B089580911E
S1131740FE0A813011F40C945D0B0895CF9330910F
S11317506708332309F484C08AEA8093AC0A809131
S113176009088F5F809309082BEA829F212D112499
S11317702695922F990F920F282F291B832F90E0E3
S113178009F529E02093AD0A019724E1289FF0018F
S1131790299FF00D1124E25FF74F82818093AE0AF6
S11317A083818093AF0A84818093B00A858180937A
S11317B0B10A86818093B20A87818093B30A3093F9
S11317C0B40A3FC02130E9F42AE02093AD0A01971E
S11317D024E1289FF001299FF00D1124E25FF74FC7
S11317E080858093AE0A81858093AF0A8285809339
S11317F0B00A83858093B10A84858093B20A858573
S11318001CC02BE02093AD0A019724E1289FF0012E
S1131810299FF00D1124E25FF74F86858093AE0A6D
S113182087858093AF0A80898093B00A81898093E9
S1131830B10A82898093B20A83898093B30A109291
S1131840B40A1092B50AECEAFAE081919091B50AD3
S1131850890F8093B50A8AE0E53BF807B1F774C1B4
S1131860809168088F5F809368088AEA8093AC0A45
S1131870C0910A0826E08C2F622F0E9416379230FE
S113188009F46FC018F5992309F451C0913009F097
S1131890A4C02093AD0A8091630A8093AE0A80911C
S11318A0600A8093AF0A8091640A8093B00A8091A1
S11318B0650A8093B10A8091660A8093B20A809186
S11318C06D0A8093B30A80916E0A68C0933009F45C
S11318D068C0943009F081C08DE08093AD0A809196
S11318E0990A8093AE0A80919A0A8093AF0A8091F4
S11318F09B0A8093B00A80919C0A8093B10A8091DC
S1131900090B90910A0B8091090B90910A0BE6E068
S113191096958795EA95E1F765E070E00E94223795
S11319207093B20A6093B30A80919D0A37C085E030
S11319308093AD0A80915C0A90915D0A9093AE0AFF
S11319408093AF0A80915E0A90915F0A9093B00AE7
S11319508093B10A8091750A8093B20A8091610ADA
S113196019C087E08093AD0A80916F0A8093AE0A14
S11319708091740A8093AF0A8091760A8093B00AAA
S11319808091770A8093B10A80917A0A8093B20A8F
S113199080917B0A8093B30A8091620A8093B40A8F
S11319A0C2C088E08093AD0A8091840A8093AE0A15
S11319B08091850A8093AF0A8091860A8093B00A49
S11319C08091870A8093B10A8091720A8093B20A47
S11319D01092B30A80916C0AE1CF8091ED0A8130B4
S11319E039F420915C0A30915D0A3695279518C028
S11319F08091330B882391F080910D0B813029F471
S1131A0020915F0B3091600B0BC08091FE0A8130F6
S1131A1029F42091680A3091690A02C020E030E07C
S1131A2082E08093AD0A8091430BC0FF0EC0811108
S1131A3005C01092B10A1092B20A15C08091620BCF
S1131A409091630B9093B10A08C0882391F340915D
S1131A50620B5091630B5093B10A4091620B509109
S1131A60630B4093B20AE091430BA0910D0B60917C
S1131A70FE0A4091330B8091400B9091C00A509123
S1131A80080B880F880F990F892B852B9091690873
S1131A90990F990F990F892B90E4A99FD0011124D4
S1131AA090E8E99FF0011124EA2B90E2699FB001CC
S1131AB01124E62B90E1499FA0011124E42B8E2BE5
S1131AC08093AE0A3093AF0A2093B00A2091090B99
S1131AD030910A0B64E0369527956A95E1F73093C7
S1131AE0B30A2093B40A80910D0B813079F480916C
S1131AF0510B813059F420915F0B3091600B232BF3
S1131B0029F08091AD0A80648093AD0A8091FE0A29
S1131B10813049F48091510B813029F48091AD0AD0
S1131B2080688093AD0ACF5FC0930A081092B50A0B
S1131B30ECEAFAE081919091B50A890F8093B50A95
S1131B408AE0E53BF807B1F7299A95E89A95F1F709
S1131B5000008091AC0A8093C60081E08093C30AA0
S1131B60CF9108958F929F92AF92BF92CF92DF92BE
S1131B70EF92FF920F931F93CF93DF934C01A12C0D
S1131B80B12CA50194016091E30A7091E40A6817ED
S1131B90790708F0D0C08B3562E3960720F09C01EA
S1131BA02A55324302C021E030E0A4E6B0E00E94AE
S1131BB081372091620A30E040E050E00E944A37C9
S1131BC03093FD0A2093FC0AC0915E0AD0915F0A0B
S1131BD000915C0A10915D0AD801AC1BBD0B0E94F8
S1131BE081372EE539EC40E050E00E944A373093CB
S1131BF0600B20935F0B80915F0B9091600B0597B6
S1131C0080F481E08093320B1092070B80915F0B7C
S1131C109091600B892B39F41092FD0A1092FC0A02
S1131C2002C01092320B80915F0B9091600B8C0F6D
S1131C309D1F9093600B80935F0B80919A0A813073
S1131C4009F069C0C0909C0A8AE0C89E6001112412
S1131C50EE24D7FCE094FE2CC501B401F6E0969581
S1131C60879577956795FA95D1F725E030E040E0C0
S1131C7050E00E944A3780910808C216D306E40651
S1131C80F50630F48F5F85310CF463C084E161C0E4
S1131C9081508C3E0CF48CEE809308082C153D0585
S1131CA04E055F05B9F0DA01C9018C199D09AE0929
S1131CB0BF096C017D0160919B0A70E06C9DC001BD
S1131CC06D9D900D7C9D900D11246AE070E00E9442
S1131CD0363702C060E070E08091990A909108085C
S1131CE0690F711D97FD7A95680F711DC617D70787
S1131CF034F02196D093600BC0935F0B0CC0061791
S1131D0017072CF41093600B00935F0B04C07093BF
S1131D10600B60935F0B8091FC0A9091FD0A8534FF
S1131D20954B30F081E08093070B1092320B14C076
S1131D301092070B11C01092FD0A1092FC0A81E068
S1131D408093320B1092070B1092600B10925F0B72
S1131D5003C080930808A7CFDF91CF911F910F9103
S1131D60FF90EF90DF90CF90BF90AF909F908F90B7
S1131D700895CF93CFB7F894F999FECF0E94953781
S1131D80F999FECFCFBFCF910895CF93CFB7F894F1
S1131D90F999FECF0E94A337F999FECFCFBFCF9117
S1131DA00895CF93CFB7F894F999FECF0E949D3749
S1131DB0F999FECFCFBFCF910895CF93CFB7F894C1
S1131DC0F999FECF0E94B137F999FECFCFBFCF91D9
S1131DD008955F926F927F928F929F92AF92BF927B
S1131DE0CF92DF92EF92FF920F931F93CF93DF93E3
S1131DF0EC017C0180E5E80EF11C5E0180EAA80E8E
S1131E00B11C8E0100511F4F6E0180ECC81A8EEF79
S1131E10D80ACE010E94B90E982EC7010E94B90EAD
S1131E20882EC5010E94B90E782EC8010E94B90EF1
S1131E30582EC6010E94B90E682E981017C097102C
S1131E4005C09514D9F0692DC80116C0951003C0BA
S1131E50692DC50111C098122AC0692DC5010E94BF
S1131E60C50E692DC8010E94C50E61C0971011C02E
S1131E7095100AC0692DC7010E94C50E961409F475
S1131E8056C0692DC601EFCF981229C0692DC7012C
S1131E90E6CF95100CC098120AC0692DC5010E94A6
S1131EA0C50E981409F443C0692DC701DCCF87100F
S1131EB016C085100BC0891421F0682DCE010E9434
S1131EC0C50E861499F1682DC6012EC0861025C052
S1131ED0891441F1682DCE010E94C50E23C08510DE
S1131EE00BC086101AC0891421F0682DCE010E94FF
S1131EF0C50E682DC50118C075100FC076100DC031
S1131F00791421F0672DCE010E94C50E781441F09A
S1131F10672DC7010E94C50E03C099249A9407C077
S1131F20972C05C0682DC8010E94C50E982C892DD8
S1131F30DF91CF911F910F91FF90EF90DF90CF90A1
S1131F40BF90AF909F908F907F906F905F90089517
S1131F501F93CF93DF93EC01162F0E94C50E612FC0
S1131F60CE01805B9F4F0E94C50E612FCE0180562B
S1131F709F4F0E94C50E612FCE0180519F4F0E943A
S1131F80C50E612FCE01805C9E4FDF91CF911F91D2
S1131F900C94C50E2F923F924F925F926F927F9254
S1131FA08F929F92AF92BF92CF92DF92EF92FF9265
S1131FB00F931F93CF93DF9300D000D0CDB7DEB73C
S1131FC03C012C0180E5480E511C4301E0EA8E0ED1
S1131FD0911C1301F0EF2F0E311C530180ECA81A51
S1131FE08EEFB80AC3010E94D10EAC01C2014B832B
S1131FF05C830E94D10E8C01C4010E94D10E7C012D
S1132000C1010E94D10E9C01C50129833A830E941B
S1132010D10E6C014B815C8129813A8140175107B3
S113202089F54E155F0591F44217530731F0BA0153
S1132030C1010E94DD0E5C814B814C155D0509F4E4
S11320409AC0BA01C5014B835C8311C04217530780
S113205099F4BA01C4014B835C830E94DD0E4B8169
S11320605C814C155D0509F486C0BA01C5010E9466
S1132070DD0E4B815C817FC04817590779F5BA01A1
S1132080C4010EC04E155F05A1F44217530719F49D
S1132090BA01C201E0CF48175907F1F5BA01C201EC
S11320A04B835C830E94DD0E4B815C81BA01C101CC
S11320B0DECF4217530791F44817590779F4BA0150
S11320C0C4014B835C830E94DD0E4B815C8140170D
S11320D0510709F450C0BA01C201C9CF0E151F053A
S11320E0D9F40217130769F40417150721F0B8018E
S11320F0C3010E94DD0E0C151D05E1F1B801C501F7
S113210037C00C151D0569F50417150779F1B801D9
S1132110C3010E94DD0E2AC00217130769F40C15CF
S11321201D05F9F40417150721F0B801C3010E9435
S1132130DD0EB801C4011CC0E216F30691F4EC14E0
S1132140FD0479F4E416F50621F0B701C3010E94F9
S1132150DD0EE016F10641F0B701C2010E94DD0E6A
S113216003C04FEF50E007C0A70105C0B801C1018B
S11321700E94DD0EA801CA010F900F900F900F90DE
S1132180DF91CF911F910F91FF90EF90DF90CF904F
S1132190BF90AF909F908F907F906F905F904F9083
S11321A03F902F9008950F931F93CF93DF93EC01EB
S11321B08B010E94DD0EB801CE01805B9F4F0E940F
S11321C0DD0EB801CE0180569F4F0E94DD0EB8018E
S11321D0CE0180519F4F0E94DD0EB801CE01805C7C
S11321E09E4FDF91CF911F910F910C94DD0EEF92D2
S11321F0FF920F931F93CF93DF93EC01162FA895B3
S11322006C817D8184E091E00E94D3106E817F8196
S113221086E091E00E94D310688588E091E00E94F6
S1132220A80F698589E091E00E94A80F6A858AE079
S113223091E00E94A80F6B858BE091E00E94A80FAB
S11322406C858CE091E00E94A80F6D858DE091E093
S11322500E94A80F6E858EE091E00E94A80F6F8502
S11322608FE091E00E94A80F6889798980E191E06C
S11322700E94D310112331F06A897B8982E191E0B5
S11322800E94D3106C8984E191E00E94A80F6D89AB
S113229085E191E00E94A80F6E8986E191E00E9499
S11322A0A80F6F8987E191E00E94A80F64E079E1AB
S11322B088E191E00E94D3106A8D8AE191E00E9446
S11322C0A80F6B8D8BE191E00E94A80F6C8D8CE1BF
S11322D091E00E94A80F6D8D8DE191E00E94A80FFE
S11322E06E8D8EE191E00E94A80FFE01E05CFF4F2D
S11322F0608180E491E00E94A80F112331F060E036
S113230070E080E291E00E94D31000E010E07E01D2
S1132310E00EF11EF70164A5C801845D9E4F0E9482
S1132320A80FF70164A9C8018C5C9E4F0E94A80FF6
S1132330F70160A9C801805D9E4F0E94A80F0F5F3E
S11323401F4F0430110519F7CE018C960E94B93045
S1132350FE01EF5BFF4F608181E491E00E94A80FD2
S1132360FE01EE5BFF4F608182E491E00E94A80FC2
S1132370FE01ED5BFF4F608183E491E00E94A80FB2
S1132380FE01EC5BFF4F608184E491E00E94A80FA2
S1132390CB5BDF4F688185E491E0DF91CF911F91A2
S11323A00F91FF90EF900C94A80F8091440B9091A3
S11323B0450B81319E4040F11092450B1092440B25
S11323C060916A0A70916B0A6230710520F481E0B1
S11323D08093030B0AC06150710970936B0A609378
S11323E06A0A82E191E00E94D31080E291E00E94A7
S11323F0CA0FBC016F5F7F4F7093790A6093780AAC
S113240080E291E00E94D3108091030B813029F483
S11324100E944D0B83E080936C0A089584B7877FF4
S113242084BFA89588E10FB6F89480936000109259
S113243060000FBE8FE493EC0197F1F700C0000039
S1132440F8942BE088E190E00FB6F894A895809377
S113245060000FBE20936000FFCFCF93DF93CDB712
S1132460DEB7C055D1090FB6F894DEBF0FBECDBF9D
S11324701092A80A84E091E09E838D8384E690E024
S113248098878F8383E2898784E18A8734E63B8750
S113249021E02C878CE88D872E8742E34F87288B99
S11324A088E790E09A8B898B80E29DEF9C8B8B8BE5
S11324B01D8A4E8B3F8B388F84E099E19A8F898FE8
S11324C082E08B8F93E09C8F8D8F2E8F2F8F1AA29B
S11324D019A285E022968FAF229790EC9DA788EAF7
S11324E08EA71FA63DEF38AB9DAB8EAB1FAA28AFBE
S11324F08FEF89AB8AAB8BAB1CAA84EB23968FAF8F
S1132500239724961FAE249725962FAF25978CE00A
S113251026968FAF269788E027968FAF279761E09E
S1132520CE0101960E94F7102FE788E391E0215035
S113253080409040E1F700C000000E940E12CF934B
S1132540DF93C82F88E191E00E94CA0F843099413B
S113255079F08FE493EC0197F1F700C0000088E173
S113256091E00E94CA0F8430994111F00E942D120B
S113257080E091E00E94CA0F8931944031F069E112
S113258074E080E091E00E94D31082E091E00E9428
S1132590CA0F8131944131F061E174E182E091E04C
S11325A00E94D31084E68093620A8BE091E00E943B
S11325B0E90E8093630AC11118C09091190D8130FE
S11325C031F48093400B91609093190D0EC082E01A
S11325D08093630A1092400B892F8E7F8093190D8C
S11325E062E08BE091E00E94A80F8CE091E00E94F1
S11325F0E90E843610F484E603C0893C08F088ECC4
S11326008093640A8DE091E00E94E90E8093650A4C
S1132610811104C081E08093C10A05C081E08093E8
S1132620650A1092C10A8EE091E00E94E90E853697
S113263010F084E603C08A3008F48AE08093660AC6
S113264084E680937B0A84E091E00E94CA0F8D3275
S113265061E0960718F08CE291E005C0883291059C
S113266010F488E290E090935D0A80935C0A86E01F
S113267091E00E94CA0F8832910518F488E290E034
S113268006C08D3221E0920710F08CE291E0909325
S11326905F0A80935E0A88E091E00E94E90E8093CD
S11326A0600A9091660A981718F49093600A05C01E
S11326B08A3018F48AE08093600A8AE080937A0A68
S11326C089E091E00E94E90E823010F482E003C0B8
S11326D0893C08F088EC8093610A80E191E00E94D3
S11326E0CA0F9093690A8093680A20915E0A309118
S11326F05F0A8217930738F020915C0A30915D0AD3
S11327002817390720F43093690A2093680A82E174
S113271091E00E94CA0F90936B0A80936A0A009713
S113272021F481E08093030B21C068E170E00E94F2
S113273022377093660B6093650B8091650B9091C3
S1132740660B8D389A4030F08CE89AE09093660BD3
S11327508093650B8091650B9091660B892B31F406
S113276081E090E09093660B8093650B8FE091E09D
S11327700E94E90E9FEF980F933008F081E0809358
S1132780670A85E191E00E94E90E8E3110F48EE132
S113279003C0853608F084E680936D0A85E892E0EC
S11327A09093FB0A8093FA0A2091FA0A3091FB0A6B
S11327B040916D0A429FC001439F900D1124909354
S11327C0FB0A8093FA0A86E191E00E94E90E8035C3
S11327D010F480E503C0873908F086E980936E0A17
S11327E081E890E09093E40A8093E30A2091E30A5D
S11327F03091E40A40916E0A429FC001439F900DBC
S113280011249093E40A8093E30A87E191E00E9403
S1132810E90E863410F486E403C0833808F082E8B5
S113282080936F0A84E68093770A8AE191E00E949C
S1132830E90E823008F482E08093720A8BE191E021
S11328400E94E90E811102C081E003C0843008F0C7
S113285083E08093730A8CE191E00E94E90E813059
S113286009F082E08093740A8DE191E00E94E90E00
S1132870813009F082E08093750A8EE191E00E9434
S1132880E90E811102C081E003C0843608F083E6BA
S11328908093760A80E291E00E94CA0F9093790AAD
S11328A08093780AD091600A2091640A30E0AD2FB9
S11328B0B0E00E9472376B5F7F4F8F4F9F4F2AE0CB
S11328C030E040E050E00E944A373093680B209398
S11328D0670B8091660A6AE0869FC001112428175D
S11328E0390728F005979093680B8093670B2AE0CB
S11328F0D29FC00111249093470B8093460BC111C2
S11329005FC08AE391E00E94CA0F9093930A809378
S1132910920A9093120E8093110E88E391E00E9424
S1132920CA0F9093910A8093900A9093150E809306
S1132930140E8EE391E00E94CA0F9093970A80933D
S1132940960A9093170E8093160E8CE391E00E94E2
S1132950CA0F9093950A8093940A9093190E8093CA
S1132960180E80E491E00E94E90E8093980A6BE0CF
S11329708BEE94E00E94202B6091900A7091910A52
S113298080E090E041E00E94212B6091920A7091D6
S1132990930A80E090E041E00E94212B6091940A28
S11329A07091950A80E090E041E00E94212B6091B3
S11329B0960A7091970A80E090E041E00E94212BF2
S11329C081E491E00E94E90E8093990A90E02091BD
S11329D05E0A30915F0A40915C0A50915D0A821749
S11329E0930718F04817590738F4569547953695C4
S11329F02795240F2093990A82E491E00E94E90E1E
S1132A00823018F480939A0A02C010929A0A83E4DE
S1132A1091E00E94E90E811101C081E080939B0A3C
S1132A2080919B0A8F3F19F481E080939B0A84E490
S1132A3091E00E94E90E9BEF980F9F3008F08CE024
S1132A4080939C0A85E491E00E94E90E813011F0A4
S1132A508F3108F088E080939D0ADF91CF9108952B
S1132A601092C50A1092060B1092C90A1092AA0A73
S1132A701092CB0A1092C40A1092B80A1092DE0A7D
S1132A8060E187EF94E00E94202B81E00E949F1276
S1132A908FEF8093E60A1092010B1092A80A089512
S1132AA081E080930D0BE9E1FDE080811092FE0A44
S1132AB082608B7F80831092ED0A1092AB0A6CE0E7
S1132AC088E095E00E94202B0C9430158091400BF7
S1132AD0813009F0F4C0039933C08091580B909170
S1132AE0590BA0915A0BB0915B0B809304089093FF
S1132AF00508A0930608B09307088091580B90919D
S1132B00590BA0915A0BB0915B0B40910008509166
S1132B1001086091020870910308841B950BA60BB1
S1132B20B70B893C9105A105B10508F440C080911B
S1132B30430B81113CC00E94000B0E94D60A37C08F
S1132B408091580B9091590BA0915A0BB0915B0B4B
S1132B508093000890930108A0930208B09303089F
S1132B608091580B9091590BA0915A0BB0915B0B2B
S1132B704091040850910508609106087091070877
S1132B80841B950BA60BB70B853F9140A105B1059E
S1132B9070F08091430B813011F480936C0A0E9491
S1132BA04D0B84E993E10E94B1291092C309049961
S1132BB04DC003994BC08091580B9091590BA09133
S1132BC05A0BB0915B0B8093FC079093FD07A09385
S1132BD0FE07B093FF078091580B9091590BA09179
S1132BE05A0BB0915B0B4091F8075091F907609133
S1132BF0FA077091FB07841B950BA60BB70B45973F
S1132C00A105B10508F45BC080910D0B811157C07B
S1132C108091C309883011F40C94501584E993E130
S1132C200E94CC2A81114BC020919D0A88EE93E02A
S1132C30289FA001299F500D1124662757FD6095F8
S1132C40762F20E084E993E10C943A29049B37C061
S1132C508091580B9091590BA0915A0BB0915B0B3A
S1132C608093F8079093F907A093FA07B093FB07B2
S1132C708091580B9091590BA0915A0BB0915B0B1A
S1132C804091FC075091FD076091FE077091FF078A
S1132C90841B950BA60BB70B893C9105A105B105C7
S1132CA070F010920D0B8091330B813041F484E964
S1132CB093E10E94B1291092C3090C94390B089531
S1132CC081E08093FE0AE9E1FDE0808110920D0B22
S1132CD084608D7F80831092ED0A1092AB0A0E946B
S1132CE0200B0E94570B6EE085E195E00E94202B9B
S1132CF00C9430158091C90A813079F58091B80A15
S1132D0090E08830910508F0F9C0FC01E65BFF4FC4
S1132D100C946C376091620A8AE091E0E4C060919F
S1132D20630A8BE091E0DFC06091640A8CE091E07B
S1132D30DAC06091650A8DE091E0D5C06091660AC1
S1132D408EE091E0D0C06091670A8FE091E0CBC043
S1132D506091760A8EE191E0C6C08091C40A813008
S1132D6001F58091B80A8111C9C08091650B9091D9
S1132D70660B28E1289FB001299F700D11247093E0
S1132D806B0A60936A0A82E191E00E94D3108091F9
S1132D906A0A90916B0A892B09F4B0C01092030B54
S1132DA008958091AA0A813009F075C08091B80A0B
S1132DB090E08730910508F0A1C0FC01EE5AFF4F66
S1132DC00C946C3760916D0A85E191E08CC0609140
S1132DD06E0A86E191E087C060916F0A87E191E015
S1132DE082C06091720A8AE191E07DC06091730AA9
S1132DF08BE191E00E94A80F8091730A0C94E62A5B
S1132E006091740A8CE191E00E94A80F8FEC97E026
S1132E100197F1F700C000008091740A823009F034
S1132E206DC02FEF48EE53E060E070E08DE893E171
S1132E3030C06091750A8DE191E00E94A80F8091E5
S1132E406800877F8093680080916D008F778093FE
S1132E506D008EE893E10E94B1298FEC97E0019711
S1132E60F1F700C000008091750A823009F046C075
S1132E708091680088608093680080916D0080680C
S1132E8080936D002FEF48EE53E060E070E08EE831
S1132E9093E10C943A298091B80A8230D9F028F44D
S1132EA0882349F0813071F008958430F1F0B8F04E
S1132EB08530F1F0089560915C0A70915D0A84E0B8
S1132EC091E006C060915E0A70915F0A86E091E02D
S1132ED00C94D3106091600A88E091E004C0609182
S1132EE0610A89E091E00C94A80F10926C0A08958D
S1132EF08091A80A883011F40E942D120895E3EC01
S1132F00FBE080E090E02191820F911D2BE0EF3FE8
S1132F10F207C9F708958091C10B9091C00B890FF6
S1132F209091C20B890F0895E2E8FBE080E090E005
S1132F302191820F911D2BE0EE3BF207C9F7089512
S1132F4080917F0B90917E0B890F9091800B890F5C
S1132F50089580911A0D4E9902C0059B07C091E017
S1132F6090934E0B816080931A0D0FC010924E0BFC
S1132F708E7F80931A0D8091A90A811106C08091D9
S1132F80560A811102C045980895459A08950299F8
S1132F901FC08091580B9091590BA0915A0BB0917E
S1132FA05B0B4091F4075091F5076091F60770911F
S1132FB0F707841B950BA60BB70B853F9140A10522
S1132FC0B105B0F00E94390B81E08093C00A12C0B1
S1132FD08091580B9091590BA0915A0BB0915B0BB7
S1132FE08093F4079093F507A093F607B093F7073F
S1132FF01092C00A3E9A08958091750A813011F4A6
S113300000000895823021F48091E90A9091EA0A3F
S113301008958091740A8130C1F4429B0EC0379B9D
S11330203FC09091AB0A9531D8F19091100B993C27
S113303008F463C01092100B26C08091E80A813016
S113304009F05BC0379951C040C0823009F055C0C7
S1133050429B29C02091C60A3091C70A8091760A02
S113306043E0849FC0011124019728173907C0F455
S11330708091AB0A8531A0F08091100B893CE8F176
S11330801092100B81E08093510B1092610B1092FF
S1133090AB0A8093E80A3E9A0E942F0B0C94000B13
S11330A01092100B1FC08091E80A813031F52091F5
S11330B0C60A3091C70A8091760A43E0849FC00112
S11330C0112402978217930780F41092100B8091B9
S11330D0610B8F5F8093610B8091610B833068F08B
S11330E01092610B1092510B08958091100B85364C
S11330F020F01092100B1092610B08958FEF9FEF48
S1133100DC0180935E0890935F08A0936008B093FD
S1133110610808950F931F9340915E0850915F08D2
S113312060916008709161088A019B010827D901A8
S1133130C8019927AA27BB27FC01EE0FFF1FEE0F3A
S1133140FF1FEA5AFD4F452F562F672F772780819F
S11331509181A281B38184279527A627B7278093DD
S11331605E0890935F08A0936008B09361081F9174
S11331700F9108950F931F93CF93DF931F92CDB7B1
S1133180DEB78C01680F601741F0F80181918F015F
S113319069830E948A186981F6CF0F90DF91CF91DD
S11331A01F910F91089560915E0870915F0880915E
S11331B06008909161086095709580959095089548
S11331C0009789F0662379F0282FFC0180E09E2F78
S11331D0921B961738F4A191A827B0E0A05DBA4FCE
S11331E08C91F5CF08958FEF0895FC01CB010097E2
S11331F029F485E1808381831282089564E670E076
S11332000E942237262F60836AE070E00E942237F2
S113321061838283211105C085E18083611101C02E
S1133220818308958091F20A813009F0B7C082E168
S11332308093710B84E18093720B2091130E81E0D3
S1133240820F8093730B223009F45FC060F5222350
S113325009F445C0213009F091C08091DC0A9091B5
S1133260DD0A34E0880F991F3A95E1F76091660A08
S113327070E00E942237CB016AE070E00E9422379E
S11332806C5F7F4F8DE08093780B91E19093790B85
S113329080937A0B8EE280937B0B8FE280937C0B7E
S11332A020937D0B4DC3243009F452C008F43FC071
S11332B0253009F063C085E18093780B83E1809326
S11332C0790B83E280937A0B8BE080937B0B809362
S11332D07C0B80E180937D0B64E170E031C38091CD
S11332E0540B9091550B6BE470E00E94223785E1FA
S11332F08093780B81E18093790B8CE280937A0B35
S11333008DE080937B0B8EE20EC36091410B709134
S1133310420B85E18093780B8CE28093790B81E1F9
S113332080937A0B82E280937B0B81E28FC1609160
S1133330040B7091050B85E18093780B91E29093D7
S1133340790B22E220937A0B90937B0B9CE046C28C
S11333508091780A9091790A68E170E00E9422379E
S113336085E18093780B9EE29093790B9DE2909394
S11333707A0B98E290937B0B93E230C285E18093C1
S1133380780B8093790B80937A0B80937B0B8093DB
S11333907C0B80937D0B6BE770E0D2C29091DF0AC7
S11333A0913009F0A2C08AE08093710B84E180938C
S11333B0720B8091100E21E0280F2093730B823042
S11333C0B9F128F4882351F08130D1F07EC08330E4
S11333D009F442C0843009F456C077C08091A90A28
S11333E061E070E0813009F060E085E18093780B62
S11333F08FE28093790B9DE090937A0B91E147C122
S113340061E070E08091E80A813009F060E085E1D4
S11334108093780B8CE28093790B81E180937A0B13
S113342082E280937B0B89E280937C0B83E211C15F
S11334308091EF0A61E070E0813009F060E085E19D
S11334408093780B91E19093790B9CE290937A0BA3
S11334502BE020937B0BC2C160B16695669569270A
S1133460617070E085E18093780B8DE28093790B35
S113347081E180937A0B84E280937B0B8DE08093CF
S11334807C0B88E2E6C080910B0890910C08209197
S11334905C0A30915D0A61E070E02817390740F05A
S11334A020915E0A30915F0A8217930708F060E06A
S11334B085E18093780B8CE28093790B81E1809392
S11334C07A0B82E280937B0B2EC285E18093780B8A
S11334D08093790B80937A0B80937B0B80937C0B86
S11334E080937D0B67E372E02BC29091CB0A8091AD
S11334F0B80A913009F05CC08630A0F18091010BCC
S11335008130C9F4EAE2F5E0AFE4BAE081912D91AB
S113351090E0C09730E08217930709F015C225E0C8
S1133520E033F20799F71092CB0A81E08093C40A42
S11335301092010B0DC2E4E2F5E0AFE4BAE0819130
S11335402D9190E0C09730E08217930709F003C2F1
S113355085E0EA32F80799F71092CB0A81E080936C
S1133560AA0AF6C180914F0A8093710B8091500A88
S11335708093720B8091510A8093730B8091520A4D
S11335808093740B8091530A8093750B8091540A35
S11335908093760B85E18093780B8093790B8093ED
S11335A07A0B80937B0B80937C0B80937D0B089527
S11335B094E19093720B91E0980F9093730B909118
S11335C0C40A913011F594E09093710B811119C0E4
S11335D08091650B9091660B883E934028F460912E
S11335E0650B7091660B02C067EE73E085E1809312
S11335F0780B98E29093790B93E290937A0B9DE287
S1133600EAC067E080E396E095C19091C90A9130E1
S113361009F093C092E09093710B90E0883091058B
S113362008F087C0FC01E75AFF4F0C946C37609197
S1133630620A70E085E18093780B81E18093790BD5
S11336409CE290937A0B91E290937B0B80937C0B9A
S11336508CE080937D0B74C16091630A70E085E116
S11336608093780B98E29093790B9DE090937A0B7A
S11336709EE24AC06091640A70E085E18093780B11
S11336808FE28093790B9DE090937A0B93E2909371
S11336907B0B92E2A3C06091650A70E085E18093A0
S11336A0780B91E19093790B98E290937A0B94E2E2
S11336B092C06091660A70E08FE28093780B8DE08F
S11336C08093790B93E290937A0B80937B0B81E147
S11336D071C085E18093780B8093790B80937A0B8A
S11336E080937B0B80937C0B80937D0B27C160912F
S11336F0670A70E085E18093780B91E19093790BF0
S11337009CE290937A0B9DE090937B0B94E266C0CD
S11337106091760A70E085E18093780B91E2909352
S1133720790B9BE090937A0B80937B0B80937C0BBB
S113373090CF61E188E396E0FDC09091AA0A9130B0
S113374009F082C093E09093710B90E0873091056B
S113375008F076C0FC01EF59FF4F0C946C37609170
S11337606D0A70E085E18093780B87E28093790B92
S11337708DE00AC060916E0A70E085E18093780B59
S113378089E28093790B83E280937A0B81E18093C1
S11337907B0B8CE2C8C060916F0A70E08DE080936F
S11337A0780B81E18093790B8DE280937A0B8FE221
S11337B080937B0B80937C0B81E04BCF6091720AEA
S11337C070E085E18093780B9CE09093790B93E211
S11337D090937A0B9DE090937B0B9FE290937C0BEC
S11337E038CF6091730A70E085E18093780B89E2A9
S11337F08093790B9DE290937A0B9BE090937B0BE3
S113380080937C0B81E125CF6091740A70E085E19F
S11338108093780B91E29093790B9BE00AC06091BE
S1133820750A70E085E18093780B9DE09093790BA5
S11338309CE290937A0B98E290937B0B93E1CECF2A
S113384062E18AE496E076C091E09093710B823055
S1133850D9F188F4882339F1813009F068C0609186
S11338605E0A70915F0A85E18093780B9FE29093E2
S1133870790B2DE023C0843009F448C0C8F18530A9
S113388009F055C06091A80A70E085E18093780B37
S113389080E18093790B8FE080937A0B81E28093AF
S11338A07B0B83E140C060915C0A70915D0A85E105
S11338B08093780B9FE29093790B22E220937A0B0A
S11338C090937B0B98E28ACF6091600A70E08FE25C
S11338D08093780B8EE08093790B8DE080937A0B44
S11338E080937B0B81E180937C0B90937D0B28C0AC
S11338F06091610A70E085E18093780B90E1909388
S1133900790B9FE290937A0B9EE2DACF60916C0A76
S113391070E085E18093780B9CE09093790B98E2BA
S113392090937A0B27CD80937C0B8FE292CE62E149
S11339308DE596E00E94202B0E94301560E070E037
S113394084E79BE00C94F51865E180E796E006C0F7
S11339501092B80A089565E186E896E00E94202B4B
S11339600C9430152091F00A3091F10A8091670B84
S11339709091680B2817390710F41092310B80913D
S1133980E20A843369F485E18093710B8093720BAE
S11339908093730B8093740B8093750B80E10EC03E
S11339A08533C1F485E18093710B8093720B80930E
S11339B0730B8093740B8093750B81E18093760B6A
S11339C08091690B8A3008F4A3C01092E20A109225
S11339D0690B08958091C50A811194C08091F20AFF
S11339E0811190C08091DF0A81118CC08091ED0A11
S11339F0813039F460915C0A70915D0A769567951F
S1133A0018C08091330B882391F080910D0B813085
S1133A1029F460915F0B7091600B0BC08091FE0ADA
S1133A20813029F46091680A7091690A02C060E0EB
S1133A3070E07093160D6093150D84E79BE00E946F
S1133A40F5188091620B9091630B9093140D809301
S1133A50130D84369105C0F42AE0289FB001299FF4
S1133A60700D11248091E00A680F711D81E79BE0BD
S1133A700E94F5188091710B853181F08091710B52
S1133A808A5E8093710B0AC0BC0181E79BE00E94AF
S1133A90F5188091720B8A5E8093720B8091740B7F
S1133AA080937B0B8091750B80937C0B8091760BBC
S1133AB080937D0B83E18093780B82E18093790B73
S1133AC081E280937A0B8091430B813059F4809189
S1133AD0730B8093740B8091720B8093730B8091A2
S1133AE0710B05C01092740B85E18093730B809366
S1133AF0720B80E28093710B85E18093750B809348
S1133B00760B08950E9412191092B60A1092BA0AFE
S1133B10089590914D0BE9E1FDE0818190FB81F9DD
S1133B2081839091C00A818190FB82F98183909175
S1133B30510B818190FB83F9818308950E94092BA5
S1133B401092660810926508109264081092630837
S1133B508AE09DE090930D0E80930C0E82E09DE030
S1133B6090930F0E80930E0E87EA9DE09093010CC4
S1133B708093000C83E49DE09093010D8093000DED
S1133B8080E3E3E1FDE0DF01982F1D929A95E9F7C8
S1133B9095E190931B0D99E190931C0D90E4909303
S1133BA01D0D91E290931E0D80931F0D86E480936A
S1133BB0200D08952FEF3FEF680F791F86179707A1
S1133BC0A1F0FC014191CF012427E8E0A901569519
S1133BD0479520FD02C09A0105C09A01F1E02F2704
S1133BE0F0EA3F27E15091F7E9CFC9010895DF9248
S1133BF0EF92FF920F931F93CF93DF93182FEB0154
S1133C00DB80EA80FD804F2D0C81502F2D2D3E2D21
S1133C10211584E0380708F465C0240F351F2536C4
S1133C20344008F05FC0FB01E85AFF4F80818111E6
S1133C3021C080916D0A8D8F80916E0A8E8F809144
S1133C406F0A8F8F8091770A8FA38091720A8AA35B
S1133C508091730A8BA38091750A8DA38091740A55
S1133C608CA38CE0E4E8FAE0DB01D49601900D9299
S1133C708A95E1F780E5FE013896A8E5BAE001905F
S1133C800D928A95E1F760E088E59AE00E94F710CA
S1133C906AE070E080E090E00E94FB318091720A5B
S1133CA08093020C80E18093030CD092040CE09288
S1133CB0050CF092060C0093070C66E070E082E0BD
S1133CC09CE00E94DA1D8093080C9093090C8AEA08
S1133CD080930A0C80930B0C153311F46AE01EC018
S1133CE068E02AC08091720A8093020C80E9809374
S1133CF0030C82E08093040C63E070E082E09CE0BB
S1133D000E94DA1D8093050C9093060C8AEA809336
S1133D10070C8093080C153361F467E082E09CE0A3
S1133D20DF91CF911F910F91FF90EF90DF900C9452
S1133D30202B193561F465E082E09CE0DF91CF919E
S1133D401F910F91FF90EF90DF900C944634DF9118
S1133D50CF911F910F91FF90EF90DF9008951F93E3
S1133D60CF93DF93182FC091000CD091010C62E621
S1133D7070E0CE010E94DA1DFE01EE59FF4F208152
S1133D8028130BC031968081891307C0BE01812F8F
S1133D90DF91CF911F910C94F71D10920B0E10928E
S1133DA065088091720A8093020C80E98093030C69
S1133DB083E08093040C63E070E082E09CE00E9466
S1133DC0DA1D8093050C9093060C8AEA8093070C05
S1133DD08093080C65E082E09CE0153329F4DF91C0
S1133DE0CF911F910C94202BDF91CF911F910C94B4
S1133DF04634FF920F931F93CF93DF93F82EFB016A
S1133E0025818481438152814F3F510509F008F493
S1133E10DFC0C22FD82FCE01840F951F853131E02A
S1133E20930768F48091720A8093020C83E0809374
S1133E30030C2093040CBA01665E724F9FC04115B7
S1133E4033E0530708F4BEC0853333E0930708F02A
S1133E5081C08091720A8093020C83E08093030CEA
S1133E602093040C8091100890E0982F88272091CB
S1133E701108820F911D74E0969587957A95E1F764
S1133E8080931D0D2091120830E0322F222780915B
S1133E901308280F311DF4E036952795FA95E1F7BC
S1133EA020931E0D2091140830E0322F2227809198
S1133EB01508280F311DB4E036952795BA95E1F71A
S1133EC020931B0D2091160830E0322F2227809179
S1133ED01708280F311D04E0369527950A95E1F758
S1133EE020931F0D20911C0830E0322F222780914F
S1133EF01D08280F311D94E0369527959A95E1F712
S1133F0020931C0D20911E0830E0322F222780912F
S1133F101F08280F311D74E0369527957A95E1F72F
S1133F202093200D0091580B1091590B20915A0B9E
S1133F3030915B0B0093230D1093240D2093250DDA
S1133F403093260D8091C3098093270DBA016D5ECD
S1133F50754F14C0411534E05307A0F1813534E0A6
S1133F60930798F58091720A8093020C83E0809302
S1133F70030C2093040CBA01685A794FAE0185E012
S1133F809CE00E948C378E010D5F1F4FB80182E0C8
S1133F909CE00E94DA1DF801EE5FF34F8083FE017E
S1133FA0EE5FF34F94838AEA8583868385E3F81270
S1133FB003C06C2F695F29C099E5F9123CC06C2FCE
S1133FC06B5F30C04115524018F08730924098F131
S1133FD08091720A8093020C83E88093030C82E040
S1133FE08093040C63E070E082E09CE00E94DA1DA0
S1133FF08093050C9093060C8AEA8093070C8093B7
S1134000080C85E3F8120AC067E082E09CE0DF91C7
S1134010CF911F910F91FF900C94202B99E5F912E9
S11340200AC065E082E09CE0DF91CF911F910F917F
S1134030FF900C944634DF91CF911F910F91FF9024
S11340400895FF920F931F93CF93DF93F82EC0919F
S11340500C0ED0910D0E66E070E0CE010E94DA1DC8
S11340608C019E8190130CC09F81911309C0BE01E5
S11340708F2DDF91CF911F910F91FF900C94F91E1A
S11340806DE184E392E00E94202BB80180E090E08F
S113409041E00E94212B1092120D1092660880912B
S11340A0720A8093020C83E88093030C83E080936C
S11340B0040C63E070E082E09CE00E94DA1D8093CF
S11340C0050C9093060C8AEA8093070C8093080CE5
S11340D085E3F8120AC067E082E09CE0DF91CF91AB
S11340E01F910F91FF900C94202B89E5F8120AC0C0
S11340F065E082E09CE0DF91CF911F910F91FF90EA
S11341000C944634DF91CF911F910F91FF90089545
S11341100E94891D80916408813029F410926408FA
S113412085E30E94212080916308813029F4109254
S1134130630885E30C94AF1E0895CF93DF93C82FD3
S1134140D0916608D13069F5E0910E0EF0910F0E12
S11341508091120D91E0980F9093120DE80FF11DCC
S1134160C0838091120D883008F48CC01092120D17
S11341701092660882E993E10E94B12980910E0EA3
S113418090910F0E20910C0E30910D0E30930F0E66
S113419020930E0E90930D0E80930C0ED093640812
S11341A071C0D0916508D13069F5E091000DF091AE
S11341B0010D80910B0E91E0980F90930B0EE80F78
S11341C0F11DC08380910B0E843608F45BC01092FD
S11341D00B0E1092650882E993E10E94B129809147
S11341E0000D9091010D2091000C3091010C309341
S11341F0010D2093000D9093010C8093000CD0933B
S1134200630840C09091720A80916208981338C084
S1134210C330D1F481E0809366081092620820E0F4
S113422042E350E060E070E082E993E10E943A29C1
S1134230E0910E0EF0910F0E8091720A8083C1837B
S113424082E08093120D1EC0C031E1F481E08093BE
S113425065081092620820E046E950E060E070E0F2
S113426082E993E10E943A29E091000DF091010D59
S11342708091720A8083C18382E080930B0E02C016
S1134280C0936208DF91CF9108951092120D10929D
S1134290660810920B0E1092650808958091C50A65
S11342A0813071F48091CB0A811102C00E947A1688
S11342B01092DE0A8091B80A8F5F8093B80A17C003
S11342C08091F20A813039F41092F20A8093DF0A65
S11342D01092130E0AC08091DF0A813041F41092CB
S11342E0F20A1092DF0A1092100E1092DE0A8091E8
S11342F0580B9091590BA0915A0BB0915B0B809382
S1134300490B90934A0BA0934B0BB0934C0B08951D
S11343108091F20A813069F41092DE0A8091130EC2
S1134320853020F48F5F8093130E08951092130E3E
S113433008958091DF0A813069F41092DE0A809139
S1134340100E863020F48F5F8093100E0895109223
S1134350100E08958091C50A811121C08091FE0A32
S1134360813009F052C18091680A9091690A0196DE
S11343709093690A8093680A20915C0A30915D0ADF
S11343802817390720F43093690A2093680A60914A
S1134390680A7091690A80E191E00C94D31010923C
S11343A0DE0A9091C90A8091B80A913009F050C090
S11343B090E08830910508F028C1FC01E859FF4FCE
S11343C00C946C3784E68093620A08958091630AA2
S11343D0813011F482E001C081E08093630A089582
S11343E08091640A8F5F8093640A893C08F40DC14C
S11343F088EC8093640A08958091650A811105C14F
S113440081E08093650A08958091660A8F5F8093A6
S1134410660A853608F4F9C084E68093660A08952E
S113442084E38093480B08958091670A833010F4E5
S11344308F5F01C081E08093670A08958091760AB6
S1134440833610F48F5F01C081E08093760A08956B
S11344509091CB0A913069F4E82FF0E0E15BF54FDD
S113446020812F5F20832A3008F4CFC029E02083E5
S113447008959091C40A9130D1F48111C6C08091FD
S1134480650B9091660B01969093660B8093650B78
S11344908091650B9091660B8D389A4008F4B5C0F5
S11344A08CE89AE09093660B8093650B0895909145
S11344B0AA0A913009F055C090E08730910508F0C0
S11344C0A4C0FC01E059FF4F0C946C3780916D0A35
S11344D08F5F80936D0A853608F497C084E68093D5
S11344E06D0A089580916E0A8F5F80936E0A8739F2
S11344F008F48BC086E980936E0A089580916F0A50
S11345008F5F80936F0A833808F47FC082E88093BA
S11345106F0A08958091720A8E3F08F076C08F5F0B
S11345208093720A08958091730A833010F48F5F28
S113453001C081E08093730A08958091740A8130E8
S113454011F482E001C081E08093740A089580919F
S1134550750A813011F482E001C081E08093750A0C
S11345600895823089F128F4882341F08130C9F01C
S113457008958330A1F18530E9F1089580915C0AB2
S113458090915D0A019690935D0A80935C0A8D3246
S11345909140D8F18CE291E090935D0A80935C0A9B
S11345A0089580915E0A90915F0A019690935F0A44
S11345B080935E0A8D32914040F18CE291E09093B9
S11345C05F0A80935E0A08958091600A8F5F8093EA
S11345D0600A8536D0F084E68093600A089580915D
S11345E0610A8F5F8093610A893C78F088EC80933C
S11345F0610A08958091A80A833620F48091A80A5C
S11346008F5F01C081E08093A80A08958091F20A27
S1134610813061F41092DE0A8091130E882311F028
S1134620815001C085E08093130E08958091DF0AC4
S1134630813061F41092DE0A8091100E882311F00B
S1134640815001C086E08093100E08958091C50AC0
S1134650811121C08091FE0A813009F04AC1809104
S1134660680A9091690A01979093690A8093680A8D
S113467020915E0A30915F0A8217930720F43093E9
S1134680690A2093680A6091680A7091690A80E156
S113469091E00C94D3101092DE0A9091C90A809193
S11346A0B80A913009F04DC090E0FC013197E73031
S11346B0F10508F01EC1E958FF4F0C946C37809146
S11346C0630A823011F481E001C082E08093630ABE
S11346D008958091640A81508093640A843608F0B6
S11346E008C184E68093640A08958091650A813044
S11346F009F0FFC01092650A08958091660A8150FE
S11347008093660A8A3008F0F4C08AE08093660ACF
S1134710089585E38093480B08958091670A823059
S113472010F0815001C083E08093670A089580915E
S1134730760A823010F0815001C083E68093760AB5
S113474008953091CB0A313059F4E82FF0E0E15B61
S1134750F54F2081215020832111CBC0308308954F
S11347609091C40A9130C9F48111C3C08091650B42
S11347709091660B01979093660B8093650B8091E3
S1134780650B9091660B892B09F0B3C081E090E032
S11347909093660B8093650B08959091AA0A9130CB
S11347A009F055C090E08730910508F0A2C0FC01E3
S11347B0E258FF4F0C946C3780916D0A81508093BE
S11347C06D0A8E3108F095C08EE180936D0A0895CC
S11347D080916E0A815080936E0A803508F089C0FA
S11347E080E580936E0A089580916F0A81508093CA
S11347F06F0A863408F07DC086E480936F0A0895BA
S11348008091720A833008F474C081508093720AD4
S113481008958091730A823010F0815001C083E0C2
S11348208093730A08958091740A813011F482E0B0
S113483001C081E08093740A08958091750A8130E3
S113484011F482E001C081E08093750A08958230FA
S113485079F128F4882341F08130C1F00895833040
S113486091F18530D9F1089580915C0A90915D0AA7
S1134870019790935D0A80935C0A8897D0F588E24B
S113488090E090935D0A80935C0A089580915E0A9B
S113489090915F0A019790935F0A80935E0A8897CC
S11348A040F588E290E090935F0A80935E0A089551
S11348B08091600A81508093600A8A30D0F48AE043
S11348C08093600A08958091610A81508093610AFF
S11348D0823078F482E08093610A08958091A80A76
S11348E0882321F08091A80A815001C083E6809337
S11348F0A80A0895FF920F931F93CF93DF9390918B
S1134900400B913009F044C08E3299F190F4893211
S1134910D1F08C3209F0A8C49093250E9093080B23
S1134920449A0E94150B8091700B80648093700BE5
S11349309BC4803991F08B3C09F096C49093200E6F
S113494090930D0891C49093200E1092400B809187
S1134950190D8E7F8093190D87C49093250E1092A4
S1134960080B4498DF91CF911F910F91FF900C9405
S11349701B0B9093260E1092400B8091190D8E7F85
S11349808093190D0E944D0B85E080936C0A6CC4D2
S113499090E0FC01B897E63AF10508F056C4EB57ED
S11349A0FF4F0C946C3781E080931B0E68E18BEF12
S11349B096E00E94202B8091430B811146C469E14B
S11349C084E197E00E94202B0E94000B0E94D60AEB
S11349D03CC481E08093250E8093080B449A0E9486
S11349E0150B8091700B80640BC081E08093250EC1
S11349F01092080B44980E941B0B8091700B8F7BC4
S1134A008093700B22C481E080931C0E8091430B31
S1134A10813009F01AC40E94501517C481E08093B4
S1134A201F0E8091430B882329F08091FE0A813068
S1134A3009F00BC410926A08109269088091B70AB1
S1134A40811106C081E08093B70A0E94EB0AFDC37E
S1134A501092B70A0E94000BF8C381E080931F0EE6
S1134A6010926C0810926B088091690890916A0802
S1134A70892B81F48091140E9091150E05969093D4
S1134A80150E8093140E8130944008F4DEC380E048
S1134A9094E02BC08091110E9091120E0596909384
S1134AA0120E8093110E8130944008F4CEC380E03E
S1134AB094E02EC081E080931F0E10926C08109237
S1134AC06B088091690890916A08892B99F4809108
S1134AD0140E9091150E05979093150E8093140E55
S1134AE0449708F0B2C384E190E09093150E80934C
S1134AF0140EABC38091110E9091120E05979093F2
S1134B00120E8093110E449708F09FC384E190E045
S1134B109093120E8093110E98C310926C08109209
S1134B206B0881E080931F0E8091690890916A0858
S1134B30892B81F48091180E9091190E059690930B
S1134B40190E8093180E8130944008F47EC380E0DF
S1134B5094E02BC08091160E9091170E05969093B9
S1134B60170E8093160E8130944008F46EC380E0D3
S1134B7094E02EC081E080931F0E10926C08109276
S1134B806B088091690890916A08892B99F4809147
S1134B90180E9091190E05979093190E8093180E84
S1134BA0449708F052C384E190E09093190E8093E7
S1134BB0180E4BC38091160E9091170E0597909383
S1134BC0170E8093160E449708F03FC384E190E0DB
S1134BD09093170E8093160E38C381E080931F0EB6
S1134BE06091140E7091150E7093910A6093900A5F
S1134BF088E391E00E94D3106EE08EE297E00E9479
S1134C00202B6091900A7091910A18C081E08093E2
S1134C101F0E6091110E7091120E7093930A60939F
S1134C20920A8AE391E00E94D3106CE08DE397E04E
S1134C300E94202B6091920A7091930A80E090E088
S1134C4041E00E94212B01C381E080931F0E6091FB
S1134C50180E7091190E7093950A6093940A8CE360
S1134C6091E00E94D3106EE08AE497E00E94202B2A
S1134C706091940A7091950AE1CF81E080931F0EB0
S1134C806091160E7091170E7093970A6093960AAE
S1134C908EE391E00E94D3106CE089E597E00E94D6
S1134CA0202B6091960A7091970AC8CF81E0809377
S1134CB01F0E81E090E090936A08809369088091C8
S1134CC0700B80629DCE81E080931F0E10926A0863
S1134CD0109269088091700B8F7D92CE81E0809351
S1134CE01F0E1CC081E080931F0E6091380B70E092
S1134CF0762F66278091390B680F711D80915E0AAB
S1134D0090915F0A8617970708F09FC270935D0A17
S1134D1060935C0A84E091E00E94D3108AEA809355
S1134D20AC0A85E08093AD0A8091380B8093AE0A7B
S1134D308091390B8093AF0A1092B00A1092B10A95
S1134D401092B20A1092670880C281E080931F0E0D
S1134D506091380B70E0762F66278091390B680FCD
S1134D60711D80915C0A90915D0A6817790708F0BB
S1134D706CC270935F0A60935E0A86E091E0CCCFC8
S1134D8081E080931F0E6091390B6093600A88E084
S1134D9091E009C081E080931F0E6091390B60930C
S1134DA0610A89E091E00E94A80FB8CF81E0809366
S1134DB01F0E6091390B60936D0A85E191E0F3CF8A
S1134DC081E080931F0E6091390B60936E0A86E137
S1134DD091E0E9CF81E080931F0E6091390B6093DD
S1134DE0740A8CE191E0DFCF81E080931F0E809103
S1134DF0380B813019F0823009F0A4CF8093670812
S1134E0024C281E080931F0E6091390B6093760A6F
S1134E108EE191E0C8CF81E080931F0E6091390B41
S1134E206093750A8DE191E0BECF81E080931F0EFF
S1134E3061E186E697E00E94202B6091390B609334
S1134E406F0A87E191E00EC081E080931F0E61E15B
S1134E5086E697E00E94202B6091390B6093770AD5
S1134E608FE191E00E94A80F8AEA8093AC0A85E062
S1134E708093AD0A8091380B8093AE0A8091390BF0
S1134E808093AF0A1092B00A1092B10A1092B20A3B
S1134E901092670861E188E797E00E94202BD5C152
S1134EA081E080931F0E6091390B6093630A8BE05D
S1134EB091E079CF81E080931F0E6091390B60936C
S1134EC0640A8CE091E06FCF81E080931F0E6091C3
S1134ED0390B6093650A8DE091E00E94A80F32CFF0
S1134EE081E080931F0E6091390B6093660A8EE017
S1134EF091E059CF81E080931F0E6091390B60934C
S1134F007B0A83E291E04FCF81E080931F0E1ACF9A
S1134F1081E080931F0EC091380BD0E0DC2FCC27AA
S1134F208091390BC80FD11D80913A0B811108C0B3
S1134F30D093150EC093140E6EE08AE897E01DC05E
S1134F40813041F4D093120EC093110E6CE089E9C4
S1134F5097E013C0823041F4D093190EC093180E19
S1134F606FE086EA97E009C0833049F4D093170EC6
S1134F70C093160E6DE086EB97E00E94202BBE01D5
S1134F80882777FD8095982F41E00E94212BC6CE7B
S1134F9081E080931F0E6091680A7091690A6B5FCB
S1134FA07F4F09C081E080931F0E6091680A709161
S1134FB0690A655071097093690A6093680A1092CE
S1134FC0670880E191E00E94D3103FC181E08093A3
S1134FD01F0E8091380B8111A1CE8091390B88303E
S1134FE009F09CCE0E942D1299CE81E080931F0E71
S1134FF010926808A7CE81E080931F0E8AEA8093FE
S1135000AC0A85E08093AD0A8091370B8093AE0A99
S11350108091380B8093AF0A8091390B8093B00A4A
S113502080913A0B8093B10A1092B20A10926708E9
S11350300EEA1AE0C4E3D1E0F12CF8016081CE015C
S113504008970E94A80FF3E0FF1202C061E002C0BB
S1135050F8016081CE010E94A80FF3940F5F1F4FE7
S11350602196F4E0FF12E9CFA8950E9461336AE02B
S113507070E080E090E00E94FB31813021F46EE02A
S113508083E592E00ACF60E183E692E006CF81E017
S113509080931F0E6091390B6093720A8AE191E04C
S11350A082CE81E080931F0E6091390B6093980A41
S11350B080E491E078CE81E080931F0E6091390BFB
S11350C060937A0A82E291E06ECE81E08093200EB2
S11350D08091C50A811106C00E94390B10926A089A
S11350E0109269081092400B2DCE81E08093200E1F
S11350F080930D08109267081092400BA6C081E0BF
S113510080931D0E109267088091430B813009F043
S113511019CE0E94601616CE81E08093260E10925E
S11351206A08109269081092400B0E944D0B86E0A9
S113513080936C0A07CEC1E0C0931E0E80910D0BC4
S1135140811100CE8091FE0A8111FCCD0E94200BBA
S1135150C093ED0AF7CD81E08093240E9091370B34
S1135160923309F072C08093400B8091190D8160D5
S11351708093190D1092FE0A1092ED0A1092AB0A58
S1135180E1CD81E08093230E0E9406235EC081E07E
S11351908093220E0E94882158C081E080931A0EC9
S11351A00E944E2152C081E080931F0E8091370BE4
S11351B08130C1F46091390B862F90E020915E0A12
S11351C030915F0A2817390708F03FC020915C0A24
S11351D030915D0A82179307C0F56093990A81E4C0
S11351E091E031C0823049F46091390B623068F546
S11351F060939A0A82E491E026C0833059F4609166
S1135200390B8FEF860F8F3400F560939B0A83E48C
S113521091E019C0843059F46091390B8BEF860FFB
S11352208F3098F460939C0A84E491E00CC085303C
S113523061F46091390B8EEF860F8C3130F46093FA
S11352409D0A85E491E00E94A80F8091DE0A8230D5
S113525058F062E184EC97E00E94202B0E94301504
S11352601092F20A1092DF0ADF91CF911F910F91F1
S1135270FF9008950F931F93CF93C22F009709F4C3
S113528069C0411551056105710509F463C020E049
S113529030E01CE0129FF001139FF00D1124E05D3B
S11352A0F14FA081B181A817B907E1F481E08387A8
S11352B042835383648375830281138124813581FE
S11352C04091580B5091590B60915A0B70915B0BA4
S11352D0400F511F621F731F468357836087718776
S11352E0C2873AC02F5F3F4F2830310599F620E03E
S11352F030E01CE0129FF001139FF00D1124E05DDB
S1135300F14FDF011B96038501111FC021E02C938F
S113531091838083428353836483758302811381E1
S1135320248135814091580B5091590B60915A0B4F
S113533070915B0B400F511F621F731F468357838D
S113534060877187C287DC0107C02F5F3F4F283019
S1135350310581F6A0E0B0E0CD01CF911F910F910E
S11353600895AC010097B1F020E030E06CE0629F5A
S1135370F001639FF00D1124E05DF14F8081918174
S11353808417950711F4138608952F5F3F4F283033
S1135390310569F780E090E00895CF93DF93809121
S11353A02E0E90912F0E8770992790932F0E809335
S11353B02E0E28E030E0DCE080912E0E90912F0E2E
S11353C0CCE0D89FF001D99FF00D1124E05DF14F9E
S11353D08385813009F0B0C04091580B5091590B2E
S11353E060915A0B70915B0B80912E0E90912F0E51
S11353F0D89FF001D99FF00D1124E05DF14F868113
S11354009781A085B185481759076A077B0708F477
S113541093C080912E0E90912F0EC89FF001C99FCA
S1135420F00D1124E05DF14F82858F3F49F18091A9
S11354302E0E90912F0EC89FF001C99FF00D1124DC
S1135440E05DF14F828518167CF480912E0E9091C8
S11354502F0EC89FF001C99FF00D1124E05DF14F9C
S11354608285815082870CC080912E0E90912F0EE0
S1135470C89FF001C99FF00D1124E05DF14F138620
S113548080912E0E90912F0ECCE0C89FF001C99F01
S1135490F00D1124E05DF14F808191810E942A0575
S11354A080912E0E90912F0EC89FF001C99FF00D90
S11354B01124E05DF14F8385813051F520912E0E4A
S11354C030912F0E80912E0E90912F0EC89FF001D7
S11354D0C99FF00D1124E05DF14F42815381648135
S11354E075818091580B9091590BA0915A0BB091F2
S11354F05B0B840F951FA61FB71FC29FF001C39FAC
S1135500F00D1124E05DF14F86839783A087B18766
S113551080912E0E90912F0E019690932F0E8093D2
S11355202E0E80912E0E90912F0E877099279093B6
S11355302F0E80932E0E19C080912E0E90912F0E57
S1135540019690932F0E80932E0E80912E0E9091A3
S11355502F0E8770992790932F0E80932E0E215033
S113556031092115310509F027CFDF91CF91089535
S11355701092580B1092590B10925A0B10925B0B0D
S113558010922F0E10922E0E80E6E0E3FEE0DF0173
S11355901D928A95E9F708950097B1F020E030E074
S11355A06CE0629FF001639FF00D1124E05DF14F08
S11355B0408151814817590711F4838508952F5F5D
S11355C03F4F2830310569F780E00895E9ECF0E0B9
S11355D08081877E808387E893E10197F1F700C09B
S11355E000001092CD008CE08093CC00E8ECF0E059
S11355F080818260808388E98093C90086E08093FB
S1135600CA0028988FE097E20197F1F700C00000E4
S113561008958091730A0E94E62A539A5298209A18
S11356205B9A5A9A28981092AD0E1092AC0E109272
S1135630900E1092910E1092920E1092930E089565
S11356400895089564E273E180E190E00E94B13727
S1135650F999FECF64E273E180E390E00E94B137F0
S1135660F999FECF64E273E180E590E00E94B137DE
S1135670F999FECF8FE493EC0197F1F700C0000095
S11356800C940E124091900E5091910E6091920ED6
S11356907091930E762F652F542F44274093900ECC
S11356A05093910E6093920E7093930E8093900E8C
S11356B08091930E8234A1F48091920E853481F40A
S11356C08091910E813461F48091900E823541F481
S11356D081E090E09093AD0E8093AC0E0C94222B5D
S11356E008951F920F920FB60F9211242F933F9398
S11356F04F935F936F937F938F939F93AF93BF93D6
S1135700CF93DF93EF93FF93C091CE008C2F0E9431
S1135710422B8C2F0E949D20CA3A11F410926D08DE
S1135720E0916D0881E08E0F80936D08F0E0EC56F7
S1135730F14FC0838831D1F5E5E9FEE08AEA919121
S1135740890F9EE0EB3AF907D1F710926D0890911A
S1135750AB0E89132BC08091940E8A3A39F52091AF
S1135760950E223018F5E22FF0E08AE0289F900190
S11357701124220F331F225F374F80E090E0EC01A9
S1135780CC56D14FD901A80FB91F4A8112964C9318
S113579012974B8113964C9302968431910579F7B5
S11357A0EE0FFF1FE252F84F11821082FF91EF912A
S11357B0DF91CF91BF91AF919F918F917F916F9125
S11357C05F914F913F912F910F900FBE0F901F90BB
S11357D018952B98000000000895E82FF0E0EE0FD4
S11357E0FF1FE259F74F808191810895E82FF0E07F
S11357F0EE0FFF1FE257F74F808191810895239A9E
S113580081110C94E92B000000002B9A08959DB59A
S11358108EBD0000000028EC3FEA8DB5807831F49D
S11358202150310921153105C1F701C081E00895E6
S1135830CF92DF92EF92FF920F931F93CF93DF9358
S113584000D000D01F92CDB7DEB7890121153105F4
S113585081F1239A4C835D836B837A8389830E94CD
S1135860E92B259A279A89810E94072C7A81872F10
S11358700E94072C6B81862F887F8C5F0E94072CE7
S113588086E08A95F1F700C04C81C42E5D81D52E47
S11358907601E00EF11ECE14DF0431F0F6018191A1
S11358A06F010E94072CF7CF80E00E94FF2BC801F4
S11358B002C080E090E00F900F900F900F900F9037
S11358C0DF91CF911F910F91FF90EF90DF90CF90D8
S11358D0089524E030E0AC0160E071E080E090E005
S11358E00C94182C24E030E0AC0160E075E080E01A
S11358F090E00C94182C26E030E0AC0160E079E0F4
S113590080E090E00C94182C24E030E0AC0160E0DE
S11359107FE080E090E00C94182C1F93CF93DF93EA
S113592000D0CDB7DEB7182FCB017A8369830E94EC
S1135930B5329A83898380E2189FB0011124685F8D
S11359407B4F882777FD8095982F22E030E0AE01C9
S11359504F5F5F4F0E94182C0F900F90DF91CF91F3
S11359601F9108951F93CF93DF9300D0CDB7DEB777
S1135970182FCB017A8369830E94B5329A83898375
S113598080E2189FB0011124685F7F4E882777FD5D
S11359908095982F22E030E0AE014F5F5F4F0E9468
S11359A0182C0F900F90DF91CF911F910895AB01A8
S11359B020E2829FC0011124885F934FBC01882795
S11359C077FD8095982F24E030E00C94182CCF9329
S11359D0DF9300D0CDB7DEB79A8389830E94B532B6
S11359E09A83898322E030E0AE014F5F5F4F60E02D
S11359F079E180E090E00E94182C0F900F90DF91E5
S1135A00CF9108951F93CF93DF9300D0CDB7DEB726
S1135A10182FCB017A8369830E94B5329A838983D4
S1135A2080E2189FB0011124685F774D882777FDC5
S1135A308095982F22E030E0AE014F5F5F4F0E94C7
S1135A40182C0F900F90DF91CF911F910895CF9351
S1135A50DF9300D000D0CDB7DEB7239A4C836B839D
S1135A607A8389830E94E92B259A279A89810E9447
S1135A70072C7A81872F0E94072C6B81862F887FC1
S1135A808C5F0E94072C86E08A95F1F700C04C8158
S1135A90842F0E94072C80E00F900F900F900F909E
S1135AA0DF91CF910C94FF2B2F923F924F925F92F4
S1135AB06F927F928F929F92AF92BF92CF92DF921A
S1135AC0EF92FF920F931F93CF93DF9300D000D0F8
S1135AD01F92CDB7DEB74C016C837D830EE718E0CF
S1135AE07EE6E72E78E0F72EEEE8AE2EE8E0BE2E56
S1135AF0FEE9CF2EF8E0DF2E22242394312C50E04F
S1135B00412C512C612C712C910163E0220F331F25
S1135B106A95E1F7C901915EBC01882777FD8095FC
S1135B20982FF401408129833A835B830E94272DB7
S1135B3029813A81325EB901882777FD8095982FB3
S1135B40EC81FD8140810E94272DF8011182108291
S1135B50F701118210825B81F1E06F16F0E47F0699
S1135B60B0F4F4018081811104C0F6011182108225
S1135B700EC0813160F490E0982F8827990F990F17
S1135B80F801918380830197F60191838083F80162
S1135B9020813181F1E04F16F0E45F06A8F4EC8136
S1135BA0FD818081811104C0F501118210820CC035
S1135BB0813150F4880F880FF70110828183C90165
S1135BC00197F50191838083620E731EF701819121
S1135BD091917F01480E591E5F5FFFEF8F1A9F0A54
S1135BE084E0280E311CEC81FD813196FD83EC8329
S1135BF00E5F1F4FF2E0AF0EB11C82E0C80ED11C45
S1135C00583009F081CF0F900F900F900F900F90A4
S1135C10DF91CF911F910F91FF90EF90DF90CF9084
S1135C20BF90AF909F908F907F906F905F904F90B8
S1135C303F902F900895482F60E070E0CB010C94C2
S1135C40272D462F24E0829FC00111240196B3E042
S1135C50880F991FBA95E1F7BC01882777FD8095D5
S1135C60982F0C94272D462F20E2829FC0011124E7
S1135C70885F9E4FBC01882777FD8095982F0C94F0
S1135C80272D482F60E07EE280E090E00C94272DE1
S1135C90482F60E07BE180E090E00C94272D482FB2
S1135CA060E078E180E090E00C94272D482F60E0DC
S1135CB076E180E090E00C94272D462F68E07CE2AA
S1135CC080E090E00C94272DFC018DB58EBD000082
S1135CD0000028EC3FEA8DB5807831F42150310979
S1135CE021153105C1F703C08EB5808381E0089585
