S01200006D6D725F7A625F6E65742E73726563E5
S11300000C942B030C9448030C9448030C9448035D
S11300100C9448030C9448030C9499090C94B0096B
S11300200C94C7090C9448030C9448030C9448039B
S11300300C9448030C9448030C9448030C94480310
S11300400C9448030C9448030C9487080C944803BC
S11300500C9435090C9448030C940D090C94480332
S11300600C9448030C9448030C9448030C944803E0
S11300700C94312B0C9448030C9448033805B905AF
S11300803A056F05A405AD05AF05B505B105B7057E
S1130090B3053505341639163E1643164816281787
S11300A04D1652168C16911696169B16A016AA1665
S11300B0C316BF1AD41AE21AF31A011B111B1F1B11
S11300C0301B571B621B731B861B991BAC1BB71B76
S11300D08A218E219821A421AC21B821BC21C621DA
S11300E00E221A22262232223B2245224F220723A5
S11300F011231D232523312335233F2384239023D8
S11301009C23A823B123BB23C523322419285E24AE
S1130110692444243F284C285B2881288D286B2897
S11301208728E528E528E528E528E528E528E528C1
S1130130E528E528E528E528E528E528E5289A279F
S1130140E528E528E528ED252826462650265A26C2
S113015064266E26E528FB27EB26F526FF260B27CB
S11301601F27632786278824B524E82415254825D6
S113017061257F259825B125C7250F28F526152744
S1130180BF26DB25E528E528E528E528E528E52838
S1130190E528E528E528E528E528E528E528E528F3
S11301A0E528E528E528E528E528B026E528E5281A
S11301B0E528E528E528E528E528E528E528E528D3
S11301C0E528E528E528E528E528E528E528E528C3
S11301D0E528E528E528E528E5285024E528E5284C
S11301E0E528E528E528E528E528E528E528E528A3
S11301F0E528E528E528E528E528E528E528E52893
S1130200E528E528E528E528E528E528E528E52882
S1130210E528E528E528E528E528E528E528E52872
S1130220E5282327A9270528A6269C26DF25E528D7
S1130230E528E528E528E528E528E528E528E52852
S1130240E528E528E528E528E528AF27FB27052844
S113025035289026932800000000963007772C61FB
S11302600EEEBA51099919C46D078FF46A7035A559
S113027063E9A395649E3288DB0EA4B8DC791EE999
S1130280D5E088D9D2972B4CB609BD7CB17E072D19
S1130290B8E7911DBF906410B71DF220B06A487191
S11302A0B9F3DE41BE847DD4DA1AEBE4DD6D51B5D9
S11302B0D4F4C785D38356986C13C0A86B647AF9B9
S11302C062FDECC9658A4F5C0114D96C0663633D19
S11302D00FFAF50D088DC8206E3B5E10694CE441A1
S11302E060D5727167A2D1E4033C47D4044BFD8509
S11302F00DD26BB50AA5FAA8B5356C98B242D6C929
S1130300BBDB40F9BCACE36CD832755CDF45CF0D88
S1130310D6DC593DD1ABAC30D9263A00DE51805100
S1130320D7C81661D0BFB5F4B42123C4B356999588
S1130330BACF0FA5BDB89EB802280888055FB2D908
S11303400CC624E90BB1877C6F2F114C6858AB1D88
S113035061C13D2D66B69041DC760671DB01BC209F
S1130360D2982A10D5EF8985B1711FB5B606A5E4D8
S1130370BF9F33D4B8E8A2C9077834F9000F8EA818
S1130380099618980EE1BB0D6A7F2D3D6D08976C98
S11303906491015C63E6F4516B6B62616C1CD83050
S11303A065854E0062F2ED95066C7BA5011BC1F4D8
S11303B0088257C40FF5C6D9B06550E9B712EAB838
S11303C0BE8B7C88B9FCDF1DDD62492DDA15F37C18
S11303D0D38C654CD4FB5861B24DCE51B53A740000
S11303E0BCA3E230BBD441A5DF4AD795D83D6DC448
S11303F0D1A4FBF4D6D36AE96943FCD96E344688A8
S113040067ADD0B860DA732D0444E51D03335F4C47
S11304100AAAC97C0DDD3C710550AA4102271010BF
S11304200BBE86200CC925B56857B3856F2009D447
S113043066B99FE461CE0EF9DE5E98C9D929229887
S1130440D0B0B4A8D7C7173DB359810DB42E3B5CC7
S1130450BDB7AD6CBAC02083B8EDB6B3BF9A0CE299
S1130460B6039AD2B1743947D5EAAF77D29D15262F
S1130470DB048316DC73120B63E3843B64943E6AEF
S11304806D0DA85A6A7A0BCF0EE49DFF099327AE2F
S1130490000AB19E077D44930FF0D2A3088768F247
S11304A0011EFEC206695D5762F7CB67658071362F
S11304B06C19E7066B6E761BD4FEE02BD3895A7A4F
S11304C0DA10CC4ADD676FDFB9F9F9EFBE8E43BEAF
S11304D0B717D58EB060E8A3D6D67E93D1A1C4C297
S11304E0D83852F2DF4FF167BBD16757BCA6DD069F
S11304F0B53F4B36B248DA2B0DD84C1B0AAFF64A3F
S11305000336607A0441C3EF60DF55DF67A8EF8EDE
S11305106E3179BE69468CB361CB1A8366BCA0D2B6
S11305206F2536E2685295770CCC03470BBBB9169E
S113053002222F260555BE3BBAC5280BBDB2925ADE
S1130540B42B046AB35CA7FFD7C231CFD0B58B9E5E
S1130550D92C1DAEDE5BB0C2649B26F263EC9CA377
S11305606A750A936D02A906099C3F360EEB8567EE
S1130570077213570005824ABF95147AB8E2AE2B6E
S1130580B17B381BB60C9B8ED2920DBED5E5B7EF6E
S1130590DC7C21DFDB0BD4D2D38642E2D4F1F8B386
S11305A0DD686E83DA1FCD16BE815B26B9F6E1776E
S11305B0B06F7747B718E65A0888706A0FFFCA3BCE
S11305C006665C0B0111FF9E658F69AE62F8D3FF6E
S11305D06B6145CF6C1678E20AA0EED20DD7548336
S11305E0044EC2B30339612667A7F71660D04D479E
S11305F06949DB776E3E4A6AD1AEDC5AD6D9660BBE
S1130600DF40F03BD83753AEBCA9C59EBBDE7FCFDD
S1130610B247E9FFB5301CF2BDBD8AC2BACA3093F5
S1130620B353A6A3B4240536D0BA9306D7CD29571D
S1130630DE54BF67D9232E7A66B3B84A61C4021B5D
S1130640685D942B6F2A37BE0BB4A18E0CC31BDFDD
S1130650055A8DEF022D11241FBECFEFD0E1DEBF6E
S1130660CDBF17E0A0E0B1E0E0E1FFE602C00590F5
S11306700D92A83DB107D9F720E1A8EDB7E001C07C
S11306801D92A43DB207E1F70E9446070C948637F9
S11306900C940000EAEFFFEEE491E0934B0AE1E0F2
S11306A0F0EF2491E5E0F0EF9491E8E0F0EF84912D
S11306B0ECE0F0EFE491243931F4943921F48C30F6
S11306C011F4EC30B9F084B7877F84BFA89588E132
S11306D00FB6F89480936000109260000FBE83B749
S11306E0817F83BF83B7816083BF889583B78E7F03
S11306F083BFF5CF000008958091DC079091DD075A
S113070001969093DD078093DC07459758F00E948B
S1130710530B1092DD071092DC0780914A0A8F5F19
S113072080934A0A0E945A1C0E946E0D0E944C0B30
S11307300E94EE090E945F0A0E9410150E94B317DE
S11307400E94A6170E9471170C94C21112B815B812
S113075018B81BB811B814B817B81AB83E9A389A12
S1130760399A3A9A3B9A3C9A3D9A3E9A1698179827
S113077010981198559A549A129A139A149A479A5F
S11307805E9A159A5F9A219A589A519A209A5A9A7F
S1130790539A249A239A22980895CF938091C30957
S11307A0883011F00E94A6038091730A811102C05F
S11307B081E003C0843018F083E08093730A809151
S11307C0730A0E94A62A6EE082E191E00E94E02A68
S11307D014BC83E085BD84EC86BD80916E0081608D
S11307E080936E006FE082E291E00E94E02A82EA48
S11307F08093800089E1809381001092820089EEC9
S113080093E0909387008093860084EF91E0909327
S113081089008093880090938B0080938A006FE016
S113082083E391E00E94E02A1DBA8AE28093690082
S1130830EA9869E184E491E00E94E02A1092680059
S113084010926B0010926C0010926D001092730065
S11308508091680084608093680080916D00806856
S113086080936D0080916800886080936800809117
S1130870730080688093730080E58CBD8DB58160C2
S11308808DBD1DBC259A2698279A6CE08FE591E0D2
S11308900E94E02AC6E0C0937C0085EA80937A0037
S11308A010927B0080917A00806480937A006CE0DF
S11308B08DE691E00E94E02A1092C5008CE08093BE
S11308C0C40082E08093C00088ED8093C100C0938F
S11308D0C20029986EE08BE791E0CF910C94E02A56
S11308E01092550A1092E30A1092E20A1092E50A55
S11308F01092E40A1092D90A1092D80A1092D70AD8
S11309001092D60A1092330B1092340B1092350BBE
S11309101092360B1092370B1092380B1092390B41
S113092010923A0B10921F0B1092200B1092210B75
S11309301092220B10921B0B10921C0B10921D0B89
S113094010921E0B1092C30A1092F10A1092570AC9
S11309508FEF8093CC0A83E38093520B10925C0B4D
S11309601092F20A46981092120B1092C10A81E07A
S113097080931A0B10925B0B10924B0A1092C409CD
S11309801092C5090E94461D60E18BE891E00E9427
S1130990E02A0E94782A64E18DE991E00E94E02A2D
S11309A0419808951092C00A1092C40A2091FA0A3C
S11309B03091FB0A30936D0B20936C0B8091EF0AFE
S11309C08093EA0A8091500B9091510B4091230D32
S11309D08217930738F481E08093A90A4064409316
S11309E0230D10C01092A90A842F8F7B8093230DAE
S11309F08091560A811106C08091580B811102C062
S1130A00459801C0459A40916F0A429FC001439F97
S1130A10900D112464E670E00E94E23670936D0B31
S1130A2060936C0B08950E94D2048091CB0A8823B2
S1130A3081F080913B0B853160F010923B0B0E945A
S1130A40640D8091230D8E7F8093230D82E080932B
S1130A506C0A08958B5893418C30910508F089C035
S1130A60825C9F4FFC010C942C3781E00C946E1235
S1130A700C947C038091090C2091670B3091680BD6
S1130A802F5F3F4F36952795E82FF0E0E353F44F5F
S1130A9020833091C90BE32FF0E0E653F44F208319
S1130AA01092680B1092670B8F5F6CE30E94D6362E
S1130AB09093090C81E0830F63E00E94D6369093F3
S1130AC0C90B0E94291790934C0B80934B0B0E94E7
S1130AD0351790E09093D10A8093D00A08958091BD
S1130AE08B0B2091FF0A3091000B2F5F3F4F3695FF
S1130AF02795E82FF0E0E457F44F20833091C80B9A
S1130B00E32FF0E0E857F44F20831092000B10928B
S1130B10FF0A8F5F6CE30E94D63690938B0B81E0C3
S1130B20830F63E00E94D6369093C80B0E943E1751
S1130B3090930F0B80930E0B0E944A1790E09093B2
S1130B40F40A8093F30A08952FEF48EC50E060E034
S1130B5070E080E993E10C94FA280C9453170C94F8
S1130B6013050C9430200C94D1360C94ED200C9485
S1130B70FA140895CF9380917800282F80917900FA
S1130B80382FB901737080911B0B90911C0BA091AD
S1130B901D0BB0911E0B860F971FA11DB11D8093D5
S1130BA01B0B90931C0BA0931D0BB0931E0B609119
S1130BB0D60A7091D70A6F5F7F4F6115E4E07E0714
S1130BC028F47093D70A6093D60AC5C01092D70A46
S1130BD01092D60AE4E0B695A79597958795EA957D
S1130BE0D1F79C0140E050E010921B0B10921C0BBB
S1130BF010921D0B10921E0BC0917C00C07F60915F
S1130C007C00677009F497C0663009F0A1C0E091D8
S1130C10660A863761E4960710F12A553243A3E346
S1130C20B0E00E9441379B01AC01AE2FB0E00E94BE
S1130C3041379B01AC0172E056954795379527954E
S1130C407A95D1F737FF04C085E08093EF0A02C09C
S1130C501092EF0A5093FB0A4093FA0A7AC08B353C
S1130C6062E3960720F09C012A55324302C020E03B
S1130C7030E0A3E3B0E00E9441379B01AC01AE2F0A
S1130C80B0E00E9441379B01AC0162E05695479564
S1130C90379527956A95D1F75093FB0A4093FA0A42
S1130CA01092EF0A8091650A811134C080914D0B36
S1130CB0813081F580914A0B813041F08091170B8E
S1130CC0813021F08091080B813021F58091230D32
S1130CD08E7F8093230D87E080936C0A8091620B52
S1130CE09091630BA091640BB091650B4091D80770
S1130CF05091D9076091DA077091DB07841B950B3B
S1130D00A60BB70B89359B41A105B10510F10E94D3
S1130D10640D1FC08091620B9091630BA091640BD2
S1130D20B091650B8093D8079093D907A093DA0705
S1130D30B093DB070EC0C6602091670A2D7F213077
S1130D4041F49093140B8093130B2093C50A01C0B4
S1130D50C660C0937C00CF9108958091D20A8F5FC2
S1130D608093D20A8A3008F47BC01092D20A809110
S1130D70F60A8F5F8093F60A80910C0B8F5F809345
S1130D800C0B80915D0B8F5F80935D0B8091030B47
S1130D908F5F843618F48093030B0BC01092030BFF
S1130DA0459A81E08093560A8091230D8068809350
S1130DB0230D80911A0B8F5F80931A0B8091D40AB4
S1130DC08F5F8093D40A8A3008F44AC01092D40A00
S1130DD08091730B8F5F8093730B8091F80A8F5F00
S1130DE08093F80A8091600B8F5F8093600B8091F1
S1130DF0EB0A8F5F8093EB0A8091AB0A8F5F893C8B
S1130E0008F088EC8093AB0A80916E0B8F5F80931F
S1130E106E0B8A3028F110926E0B80913B0B8F5F22
S1130E2080933B0B8091E80A8F5F8093E80A90914E
S1130E30CF0A913041F09091E90A913021F09091DC
S1130E40FC0A913069F48F3158F062E18FEB94E041
S1130E500E94E02A0E94DA141092FC0A1092E90A15
S1130E6008951092030B1092560A8091230D8F77E8
S1130E708093230D8091A90A811106C08091580B9B
S1130E80811102C045980895459A089584B78F70DA
S1130E908093C30984B7877F84BFF894A89588E1B9
S1130EA00FB6F89480936000109260000FBE80919A
S1130EB0C309883049F02FE789EA93E02150804044
S1130EC09040E1F700C0000064E082ED94E00E94ED
S1130ED0E02A80E00E946E120E94CD030E947004FA
S1130EE065E087ED94E00E94E02A80E00E946E12A3
S1130EF078940E9421336AE070E080E090E00E94E0
S1130F00BB31813021F46EE083EB91E003C060E1FA
S1130F1083EC91E00E94E02A2FEF48EE53E060E07A
S1130F2070E08DE893E10E94FA282FEF48EE53E039
S1130F3060E070E08EE893E10E94FA280E944A0380
S1130F408091C309883049F02FEF80E792E0215067
S1130F5080409040E1F700C000002FE088E190E07D
S1130F600FB6F894A895809360000FBE209360009C
S1130F708091C309843021F465E185ED91E017C0C7
S1130F808091C309813021F465E18CEE91E00FC0BA
S1130F908091C309823021F468E183E092E007C0C4
S1130FA08091C309883029F465E18DE192E00E94C3
S1130FB0E02A2FEF4AE050E060E070E08BE893E134
S1130FC00E94FA282FEF45E050E060E070E083E9EA
S1130FD093E10E94FA282FEF4AE050E060E070E0CD
S1130FE085E993E10E94FA282FEF48EE53E060E090
S1130FF070E081E993E10E94FA282FEF40E85EEE69
S113100066E370E086E993E10E94FA28A89580914E
S1131010DE079091DF078131974258F0EFE0F8E066
S1131020DF0111971C921082329688E0E332F807B0
S1131030B9F78091E0079091E1078131974288F4F4
S11310408091690880FD439A80FF43988091570AF4
S1131050813099F48091CC0A0E9422241092570A7C
S11310600CC0E3E2F8E0DF0111971C921082329683
S113107088E0E733F807B9F7E3CF8091C50A8130F8
S113108081F41092C50A8091130B9091140B0E9465
S11310909F0D8091130B9091140B9093220D8093CC
S11310A0210D8091C5098823B9F08091C50981502B
S11310B08093C509E091C409F0E0EA53F64F8081BA
S11310C00E9431078091C4098F5F8093C409809185
S11310D0C4098F778093C4090E948D298091170BCE
S11310E0813021F08091080B813011F4429B88B14A
S11310F08091550A882309F489CF8091550A81503B
S11311008093550A0E94AD060E94BA057FCF1F92B4
S11311100F920FB60F9211248F939F93AF93BF93A7
S1131120EF93FF9382EC86BD8091620B9091630BE9
S1131130A091640BB091650B0196A11DB11D809324
S1131140620B9093630BA093640BB093650B809137
S11311506B0890916C08019690936C0880936B08CF
S11311608091550A8F5F8093550AEEEDF7E08081F8
S11311709181019691838083E0EEF7E080819181F3
S1131180019691838083E2EEF7E08081918101965C
S113119091838083E4EEF7E08081918101969183CD
S11311A08083E6EEF7E080819181019691838083CC
S11311B0E8EEF7E080819181019691838083EAEEE5
S11311C0F7E080819181019691838083ECEEF7E0D2
S11311D080819181019691838083EEEEF7E0808196
S11311E09181019691838083E0EFF7E08081918182
S11311F0019691838083E2EFF7E0808191810196EB
S113120091838083FF91EF91BF91AF919F918F91D3
S11312100F900FBE0F901F9018951F920F920FB64C
S11312200F9211248F939F93EF93FF93E091CD0A34
S1131230EA3058F481E08E0F8093CD0AF0E0E45553
S1131240F54F80818093C60007C089EF90E0019735
S1131250F1F700C000002998FF91EF919F918F91C1
S11312600F900FBE0F901F9018951F920F920FB6FC
S11312700F9211242F933F938F939F93EF93FF9398
S11312808091C1008F778093C1008091C6008093C4
S11312903E0BEEE3FBE025E48191853411F180E01F
S11312A090E03091C00037FD07C0883833E19307E0
S11312B031F00196A895F5CF8838934111F4208335
S11312C003C08091C60080838BE0E934F80721F7DE
S11312D0EEE3FBE08FEF81939BE0EA34F907D9F763
S11312E018C0EEE3FBE080E09191890F3BE0E53428
S11312F0F307D1F79091450B89130BC080913F0BF5
S1131300823039F48091400B8093CC0A81E0809341
S1131310570A8091C10080688093C100FF91EF91CA
S11313209F918F913F912F910F900FBE0F901F901F
S113133018951F920F920FB60F9211248F939F93BB
S11313408091670B9091680B01969093680B809342
S1131350670B9F918F910F900FBE0F901F90189560
S11313601F920F920FB60F9211248F939F93809127
S1131370FF0A9091000B01969093000B8093FF0A53
S11313809F918F910F900FBE0F901F9018951F92F1
S11313900F920FB60F9211242F933F934F935F93A5
S11313A06F937F938F939F93AF93BF93EF93FF9329
S11313B06DE08DED94E00E94E02AFF91EF91BF91E2
S11313C0AF919F918F917F916F915F914F913F91D9
S11313D02F910F900FBE0F901F9018958091F70AD0
S11313E0813039F420915C0A30915D0A3695279555
S11313F052C08091170B813041F52091690B3091D7
S11314006A0B80915C0A90915D0A8217930720F41D
S113141090936A0B8093690B2091690B30916A0B4E
S113142080915E0A90915F0A8217930728F01092C8
S11314306A0B1092690B3EC080913D0B8823D1F159
S11314402091690B30916A0B26C080913D0B81304D
S113145089F580915C0A90915D0A2091680A309127
S1131460690A8217930720F49093690A8093680AA3
S113147080915E0A90915F0A2091680A3091690A0E
S11314802817390720F49093690A8093680A2091F9
S1131490680A3091690A49E0429FC001439F900D58
S11314A0112463E070E00E94E23670938B00609335
S11314B08A00089510928B0010928A0008958091FA
S11314C0F70A813039F480915C0A90915D0A96950F
S11314D0879552C08091170B813041F52091690B9B
S11314E030916A0B80915C0A90915D0A8217930790
S11314F020F490936A0B8093690B2091690B3091CF
S11315006A0B80915E0A90915F0A8217930728F014
S113151010926A0B1092690B3FC080913D0B882397
S1131520D9F18091690B90916A0B26C080913D0B93
S1131530813091F580915C0A90915D0A2091680A4E
S11315403091690A8217930720F49093690A809373
S1131550680A80915E0A90915F0A2091680A30912E
S1131560690A2817390720F49093690A8093680A56
S11315708091680A9091690A23E0880F991F2A953F
S1131580E1F763E070E00E94E23668537F4F7093A6
S1131590890060938800089588EC90E09093890016
S11315A0809388000895409A389A81E080934D0B87
S11315B0E3E2FDE080818860808308954098389A52
S11315C010924D0BE3E2FDE08081877F80830895D4
S11315D03B9A81E090E090936A0880936908EAE777
S11315E0FBE0808180628083E3E2FDE080818062B1
S11315F0808381818E7F81830895439810926A0845
S1131600109269083B9AEAE7FBE080818F7D808332
S1131610E3E2FDE080818F7D808381818E7F818301
S11316201092660B0895449A3C9A81E08093570B7C
S1131630089544983C9A1092570B0895429A3A9A06
S113164081E080933D0BE3E2FDE080818061808353
S11316501092AB0A10921A0B089542983A9A10927B
S11316603D0BE3E2FDE080818F7E8083089581E07D
S11316708093660B1092F80A08958091660B81306E
S113168051F49091F80A8091610A891720F410921C
S1131690660B0C94E80A08958091080B813011F4CC
S11316A00C943D0B0895CF9320916708222309F4ED
S11316B04EC08AEA8093AC0A909109089F5F909388
S11316C009088BEA989F812D11248695382F330FB2
S11316D0380F892F831B19F589E08093AD0A822F77
S11316E090E0019734E1389FF001399FF00D112407
S11316F0E25FF74F82818093AE0A83818093AF0AC1
S113170084818093B00A85818093B10A8681809315
S1131710B20A87818093B30A2093B40A09C0813046
S113172011F48AE001C08BE08093AD0A1092B40AF0
S11317301092B50AECEAFAE081919091B50A890F0A
S11317408093B50A8AE0E53BF807B1F77DC1809143
S113175068088F5F809368088AEA8093AC0AC09116
S11317600A0827E08C2F622F0E94D636923009F4A3
S11317704EC018F5992389F1913009F0AEC086E086
S11317808093AD0A8091630A8093AE0A8091600AC7
S11317908093AF0A8091640A8093B00A8091650AAD
S11317A08093B10A8091660A8093B20A80916D0A8F
S11317B08093B30A80916E0A46C0943009F462C0E3
S11317C008F444C0953009F088C08EE08093AD0AD7
S11317D08091A00A8093AE0A26C185E08093AD0A69
S11317E080915C0A90915D0A9093AE0A8093AF0A4F
S11317F080915E0A90915F0A9093B00A8093B10A37
S11318008091750A8093B20A8091610A18C020936E
S1131810AD0A80916F0A8093AE0A8091740A809316
S1131820AF0A8091760A8093B00A8091770A8093F8
S1131830B10A80917A0A8093B20A80917B0A8093DC
S1131840B30A8091620A8093B40AEDC088E0809361
S1131850AD0A8091840A8093AE0A8091850A8093B0
S1131860AF0A8091860A8093B00A8091870A809398
S1131870B10A8091720A8093B20A1092B30A8091DD
S11318806C0AE1CF8DE08093AD0A8091990A809330
S1131890AE0A80919A0A8093AF0A80919B0A809342
S11318A0B00A80919C0A8093B10A8091130B9091A5
S11318B0140B8091130B9091140B66E09695879509
S11318C06A95E1F765E070E00E94E2367093B20A2F
S11318D06093B30A80919D0AB6CF8091F70A813054
S11318E039F420915C0A30915D0A3695279518C029
S11318F080913D0B882391F08091170B813029F45E
S11319002091690B30916A0B0BC08091080B8130D8
S113191029F42091680A3091690A02C020E030E07D
S113192082E08093AD0A80914D0BC0FF0EC08111FF
S113193005C01092B10A1092B20A15C080916C0BC6
S113194090916D0B9093B10A08C0882391F3409154
S11319506C0B50916D0B5093B10A40916C0B5091EC
S11319606D0B4093B20AE0914D0BA091170B60915F
S1131970080B40913D0B80914A0B9091CA0A5091FB
S1131980120B880F880F990F892B852B909169086A
S1131990990F990F990F892B90E4A99FD0011124D5
S11319A090E8E99FF0011124EA2B90E2699FB001CD
S11319B01124E62B90E1499FA0011124E42B8E2BE6
S11319C08093AE0A3093AF0A2093B00A2091130B90
S11319D03091140B44E0369527954A95E1F73093FE
S11319E0B30A2093B40A8091170B813079F4809163
S11319F05B0B813059F42091690B30916A0B232BD6
S1131A0029F08091AD0A80648093AD0A8091080B1F
S1131A10813049F480915B0B813029F48091AD0AC7
S1131A2080688093AD0ACF5FC0930A081092B50A0C
S1131A30ECEAFAE081919091B50A890F8093B50A96
S1131A408AE0E53BF807B1F7299A95E89A95F1F70A
S1131A5000008091AC0A8093C60081E08093CD0A97
S1131A60CF910895CF930E94FD0AC0E08091A00A0F
S1131A702C2F30E045E0849FC0011124281739073A
S1131A8074F42FEF40E782E0215040408040E1F7BA
S1131A9000C000000E94530BA895CF5FE7CFCF9101
S1131AA00C942D0B0E94320D1092170BE3E2FDE013
S1131AB080811092080B8D7F8B7F80831092F70AB0
S1131AC010925B0B3E9A08950E94DE0A0E94520D0A
S1131AD010925B0B84E993E10C9471298091170BAC
S1131AE0813061F5429B0CC08091060B9091070BED
S1131AF0059710F50E94320D1092F20A3E9A1CC00E
S1131B002091060B3091070B8091040B9091050BEB
S1131B108A5592438217930778F48091F20A8823B6
S1131B2039F080915B0B811107C01092F20A3E9A42
S1131B300E941E0B0E94370B0C943D0B08958F924C
S1131B409F92AF92BF92CF92DF92EF92FF920F9348
S1131B501F93CF93DF934C01A12CB12CA5019401C9
S1131B606091ED0A7091EE0A6817790708F0D0C009
S1131B708B3562E3960720F09C012A55324302C05C
S1131B8021E030E0A4E6B0E00E9441372091620AEF
S1131B9030E040E050E00E940A373093070B209376
S1131BA0060BC0915E0AD0915F0A00915C0A109105
S1131BB05D0AD801AC1BBD0B0E9441372EE539EC00
S1131BC040E050E00E940A3730936A0B2093690B7F
S1131BD08091690B90916A0B059780F481E0809362
S1131BE03C0B1092110B8091690B90916A0B892B1D
S1131BF039F41092070B1092060B02C010923C0BA2
S1131C008091690B90916A0B8C0F9D1F90936A0BC6
S1131C108093690B80919A0A813009F069C0C09061
S1131C209C0A8AE0C89E60011124EE24D7FCE0944B
S1131C30FE2CC501B401E6E09695879577956795E6
S1131C40EA95D1F725E030E040E050E00E940A3701
S1131C5080910808C216D306E406F50630F48F5FB7
S1131C6085310CF463C084E161C081508C3E0CF476
S1131C708CEE809308082C153D054E055F05B9F0E0
S1131C80DA01C9018C199D09AE09BF096C017D01F6
S1131C9060919B0A70E06C9DC0016D9D900D7C9DD0
S1131CA0900D11246AE070E00E94F63602C060E0F4
S1131CB070E08091990A90910808690F711D97FD51
S1131CC07A95680F711DC617D70734F02196D09303
S1131CD06A0BC093690B0CC0061717072CF41093FA
S1131CE06A0B0093690B04C070936A0B6093690BD1
S1131CF08091060B9091070B8534954B30F081E071
S1131D008093110B10923C0B14C01092110B11C054
S1131D101092070B1092060B81E080933C0B1092FB
S1131D20110B10926A0B1092690B03C08093080880
S1131D30A7CFDF91CF911F910F91FF90EF90DF908C
S1131D40CF90BF90AF909F908F900895CF93CFB7CF
S1131D50F894F999FECF0E945537F999FECFCFBF79
S1131D60CF910895CF93CFB7F894F999FECF0E94FD
S1131D706337F999FECFCFBFCF910895CF93CFB7F3
S1131D80F894F999FECF0E945D37F999FECFCFBF41
S1131D90CF910895CF93CFB7F894F999FECF0E94CD
S1131DA07137F999FECFCFBFCF9108955F926F92AB
S1131DB07F928F929F92AF92BF92CF92DF92EF92D7
S1131DC0FF920F931F93CF93DF93EC017C0180E587
S1131DD0E80EF11C5E0180EAA80EB11C8E010051D0
S1131DE01F4F6E0180ECC81A8EEFD80ACE010E94F4
S1131DF0A60E982EC7010E94A60E882EC5010E9429
S1131E00A60E782EC8010E94A60E582EC6010E9466
S1131E10A60E682E981017C0971005C09514D9F017
S1131E20692DC80116C0951003C0692DC50111C0E4
S1131E3098122AC0692DC5010E94B20E692DC801ED
S1131E400E94B20E61C0971011C095100AC0692D8E
S1131E50C7010E94B20E961409F456C0692DC6013A
S1131E60EFCF981229C0692DC701E6CF95100CC099
S1131E7098120AC0692DC5010E94B20E981409F483
S1131E8043C0692DC701DCCF871016C085100BC075
S1131E90891421F0682DCE010E94B20E861499F1A6
S1131EA0682DC6012EC0861025C0891441F1682D05
S1131EB0CE010E94B20E23C085100BC086101AC03A
S1131EC0891421F0682DCE010E94B20E682DC5013F
S1131ED018C075100FC076100DC0791421F0672D4D
S1131EE0CE010E94B20E781441F0672DC7010E9402
S1131EF0B20E03C099249A9407C0972C05C0682D8C
S1131F00C8010E94B20E982C892DDF91CF911F91A8
S1131F100F91FF90EF90DF90CF90BF90AF909F9084
S1131F208F907F906F905F9008951F93CF93DF936E
S1131F30EC01162F0E94B20E612FCE01805B9F4FE1
S1131F400E94B20E612FCE0180569F4F0E94B20EA6
S1131F50612FCE0180519F4F0E94B20E612FCE019E
S1131F60805C9E4FDF91CF911F910C94B20E2F9203
S1131F703F924F925F926F927F928F929F92AF9215
S1131F80BF92CF92DF92EF92FF920F931F93CF9362
S1131F90DF9300D000D0CDB7DEB73C012C0180E543
S1131FA0480E511C4301E0EA8E0E911C1301F0EF20
S1131FB02F0E311C530180ECA81A8EEFB80AC3010E
S1131FC00E94BE0EAC01C2014B835C830E94BE0E14
S1131FD08C01C4010E94BE0E7C01C1010E94BE0E90
S1131FE09C01C50129833A830E94BE0E6C014B817A
S1131FF05C8129813A814017510789F54E155F05A7
S113200091F44217530731F0BA01C1010E94CA0E7C
S11320105C814B814C155D0509F49AC0BA01C50178
S11320204B835C8311C04217530799F4BA01C4016E
S11320304B835C830E94CA0E4B815C814C155D0509
S113204009F486C0BA01C5010E94CA0E4B815C81A5
S11320507FC04817590779F5BA01C4010EC04E155F
S11320605F05A1F44217530719F4BA01C201E0CF86
S113207048175907F1F5BA01C2014B835C830E94EA
S1132080CA0E4B815C81BA01C101DECF42175307EE
S113209091F44817590779F4BA01C4014B835C835E
S11320A00E94CA0E4B815C814017510709F450C04D
S11320B0BA01C201C9CF0E151F05D9F402171307BF
S11320C069F40417150721F0B801C3010E94CA0E70
S11320D00C151D05E1F1B801C50137C00C151D052E
S11320E069F50417150779F1B801C3010E94CA0EF6
S11320F02AC00217130769F40C151D05F9F4041717
S1132100150721F0B801C3010E94CA0EB801C40129
S11321101CC0E216F30691F4EC14FD0479F4E41601
S1132120F50621F0B701C3010E94CA0EE016F106BC
S113213041F0B701C2010E94CA0E03C04FEF50E044
S113214007C0A70105C0B801C1010E94CA0EA801B9
S1132150CA010F900F900F900F90DF91CF911F91B4
S11321600F91FF90EF90DF90CF90BF90AF909F9032
S11321708F907F906F905F904F903F902F90089535
S11321800F931F93CF93DF93EC018B010E94CA0E30
S1132190B801CE01805B9F4F0E94CA0EB801CE01E8
S11321A080569F4F0E94CA0EB801CE0180519F4FA6
S11321B00E94CA0EB801CE01805C9E4FDF91CF9180
S11321C01F910F910C94CA0EEF92FF920F931F93DD
S11321D0CF93DF93EC01162FA8956C817D8184E069
S11321E091E00E94C0106E817F8186E091E00E94A0
S11321F0C010688588E091E00E94950F698589E0A8
S113220091E00E94950F6A858AE091E00E94950F03
S11322106B858BE091E00E94950F6C858CE091E0DA
S11322200E94950F6D858DE091E00E94950F6E855B
S11322308EE091E00E94950F6F858FE091E00E94FF
S1132240950F6889798980E191E00E94C01011237B
S113225031F06A897B8982E191E00E94C0106C8927
S113226084E191E00E94950F6D8985E191E00E94DF
S1132270950F6E8986E191E00E94950F6F8987E141
S113228091E00E94950F64E079E188E191E00E9479
S1132290C0106A8D8AE191E00E94950F6B8D8BE1ED
S11322A091E00E94950F6C8D8CE191E00E94950F56
S11322B06D8D8DE191E00E94950F6E8D8EE191E020
S11322C00E94950FFE01E05CFF4F608180E491E085
S11322D00E94950F112331F060E070E080E291E0FC
S11322E00E94C01000E010E07E01E00EF11EF70134
S11322F064A5C801845D9E4F0E94950FF70164A9EF
S1132300C8018C5C9E4F0E94950FF70160A9C8011B
S1132310805D9E4F0E94950F0F5F1F4F0430110583
S113232019F7CE018C960E947930FE01EF5BFF4FC6
S1132330608181E491E00E94950FFE01EE5BFF4F06
S1132340608182E491E00E94950FFE01ED5BFF4FF6
S1132350608183E491E00E94950FFE01EC5BFF4FE6
S1132360608184E491E00E94950FCB5BDF4F68812C
S113237085E491E0DF91CF911F910F91FF90EF9051
S11323800C94950F80914E0B90914F0B81319E4090
S113239098F010924F0B10924E0B80E291E00E9445
S11323A0B70FBC016F5F7F4F7093790A6093780A0F
S11323B080E291E00C94C010089584B7877F84BFB5
S11323C0A89588E10FB6F89480936000109260009D
S11323D00FBE8FE493EC0197F1F700C00000F8946E
S11323E02BE088E190E00FB6F894A8958093600004
S11323F00FBE20936000FFCFCF93DF93CDB7DEB73E
S1132400C055D1090FB6F894DEBF0FBECDBF1092F0
S1132410A80A84E091E09E838D8384E690E0988707
S11324208F8383E2898784E18A8734E63B8721E0CE
S11324302C878CE88D872E8742E34F87288B88E78B
S113244090E09A8B898B80E29DEF9C8B8B8B1D8A0D
S11324504E8B89E68F8B388F84E099E19A8F898F30
S113246082E08B8F93E09C8F8D8F2E8F2F8F1AA2FB
S113247019A295E022969FAF229730EC3DA798EAE7
S11324809EA71FA64DEF48AB3DAB9EAB1FAA28AF3E
S11324909FEF99AB9AAB9BAB1CAA94EB23969FAF8F
S11324A0239724961FAE249725962FAF25979CE05B
S11324B026969FAF269727968FAF279761E0CE0188
S11324C001960E94E4102FE788E391E021508040B8
S11324D09040E1F700C000000E94DD11CF93DF932C
S11324E0C82F88E191E00E94B70F8430994179F0B8
S11324F08FE493EC0197F1F700C0000088E191E0CC
S11325000E94B70F8430994111F00E94FC1180E0C1
S113251091E00E94B70F8931964031F069E176E08D
S113252080E091E00E94C01082E091E00E94B70F29
S11325308332944131F063E274E182E091E00E94DD
S1132540C01084E68093620A8BE091E00E94D60E6C
S11325508093630AC11118C09091230D813031F426
S113256080934A0B91609093230D0EC082E0809378
S1132570630A10924A0B892F8E7F8093230D62E0A9
S11325808BE091E00E94950F8CE091E00E94D60EC2
S1132590843610F484E603C0893C08F088EC809308
S11325A0640A8DE091E00E94D60E8093650A811141
S11325B004C081E08093CB0A05C081E08093650A62
S11325C01092CB0A8EE091E00E94D60E853610F070
S11325D084E603C08A3008F48AE08093660A84E6BD
S11325E080937B0A84E091E00E94B70F8D3221E052
S11325F0920718F08CE291E005C08431910510F443
S113260084E190E090935D0A80935C0A86E091E017
S11326100E94B70F8431910518F484E190E006C05C
S11326208D3221E0920710F08CE291E090935F0AE2
S113263080935E0A88E091E00E94D60E8093600A3F
S11326409091660A981718F49093600A05C08A302E
S113265018F48AE08093600A8AE080937A0A89E019
S113266091E00E94D60E823010F482E003C0893CCF
S113267008F088EC8093610A80E191E00E94B70F32
S11326809093690A8093680A20915E0A30915F0AE8
S11326908217930738F020915C0A30915D0A28175D
S11326A0390720F43093690A2093680A8FE091E097
S11326B00E94D60E9FEF980F933008F081E080932C
S11326C0670A85E191E00E94D60E8E3110F48EE106
S11326D003C0853608F084E680936D0A85E892E0AD
S11326E09093050B8093040B2091040B3091050B00
S11326F040916D0A429FC001439F900D1124909315
S1132700050B8093040B86E191E00E94D60E803580
S113271010F480E503C0873908F086E980936E0AD7
S113272081E890E09093EE0A8093ED0A2091ED0AFF
S11327303091EE0A40916E0A429FC001439F900D72
S113274011249093EE0A8093ED0A87E191E00E94B0
S1132750D60E863410F486E403C0833808F082E889
S113276080936F0A84E68093770A88E491E00E945C
S1132770D60E863008F085E08093A00A8AE191E0C5
S11327800E94D60E823008F482E08093720A8BE1B4
S113279091E00E94D60E811102C081E003C0843012
S11327A008F083E08093730A8CE191E00E94D60ED6
S11327B0813009F082E08093740A8DE191E00E94F7
S11327C0D60E813009F082E08093750A8EE191E0A3
S11327D00E94D60E811102C081E003C0843608F045
S11327E083E68093760A80E291E00E94B70F90938B
S11327F0790A8093780AD091600A2091640A30E0C3
S1132800AD2FB0E00E9432376B5F7F4F8F4F9F4FE9
S11328102AE030E040E050E00E940A373093720B27
S11328202093710B6091660A8AE0689FB0011124BD
S11328302617370730F0655071097093720B609357
S1132840710B2AE0D29FC00111249093510B809305
S1132850500BC1115FC08AE391E00E94B70F9093BF
S1132860930A8093920A90931C0E80931B0E88E324
S113287091E00E94B70F9093910A8093900A9093ED
S11328801F0E80931E0E8EE391E00E94B70F90936B
S1132890970A8093960A9093210E8093200E8CE3DE
S11328A091E00E94B70F9093950A8093940A9093B5
S11328B0230E8093220E80E491E00E94D60E809332
S11328C0980A6BE08BEE94E00E94E02A6091900AF3
S11328D07091910A80E090E041E00E94E12A6091C9
S11328E0920A7091930A80E090E041E00E94E12A0C
S11328F06091940A7091950A80E090E041E00E9412
S1132900E12A6091960A7091970A80E090E041E094
S11329100E94E12A81E491E00E94D60E8093990AF4
S113292090E020915E0A30915F0A40915C0A5091D8
S11329305D0A8217930718F04817590738F456951B
S1132940479536952795240F2093990A82E491E0C0
S11329500E94D60E823018F480939A0A02C0109214
S11329609A0A83E491E00E94D60E811101C081E0AD
S113297080939B0A80919B0A8F3F19F481E0809396
S11329809B0A84E491E00E94D60E9BEF980F9F303F
S113299008F08CE080939C0A85E491E00E94D60EB6
S11329A0813011F08F3108F088E080939D0ADF9127
S11329B0CF9108951092CF0A1092100B1092D30A5F
S11329C01092AA0A1092D50A1092CE0A1092C20A44
S11329D01092E80A60E187EF94E00E94E02A81E027
S11329E00E946E128FEF8093F00A10920B0B1092DC
S11329F0A80A089581E08093170BE3E2FDE080814B
S1132A001092080B82608B7F80831092F70A1092D9
S1132A10AB0A6CE088E095E00E94E02A0C94DA149A
S1132A2080914A0B813009F0F4C0039933C080913E
S1132A30620B9091630BA091640BB091650B809332
S1132A40040890930508A0930608B09307088091A2
S1132A50620B9091630BA091640BB091650B409154
S1132A600008509101086091020870910308841BCA
S1132A70950BA60BB70B893C9105A105B10508F48C
S1132A8040C080914D0B81113CC00E94FD0A0E9400
S1132A90D30A37C08091620B9091630BA091640BB1
S1132AA0B091650B8093000890930108A0930208ED
S1132AB0B09303088091620B9091630BA091640B17
S1132AC0B091650B40910408509105086091060887
S1132AD070910708841B950BA60BB70B853F91409B
S1132AE0A105B10570F080914D0B813011F48093F4
S1132AF06C0A0E94640D84E993E10E94712910928A
S1132B00C30904994DC003994BC08091620B909105
S1132B10630BA091640BB091650B8093FC079093B9
S1132B20FD07A093FE07B093FF078091620B90917D
S1132B30630BA091640BB091650B4091F807509121
S1132B40F9076091FA077091FB07841B950BA60B9C
S1132B50B70B4597A105B10508F45BC08091170B2D
S1132B60811157C08091C309883011F40C94FA1470
S1132B7084E993E10E948C2A81114BC020919D0A23
S1132B8088EE93E0289FA001299F500D1124662709
S1132B9057FD6095762F20E084E993E10C94FA28A0
S1132BA0049B37C08091620B9091630BA091640BDE
S1132BB0B091650B8093F8079093F907A093FA07F7
S1132BC0B093FB078091620B9091630BA091640B0F
S1132BD0B091650B4091FC075091FD076091FE0791
S1132BE07091FF07841B950BA60BB70B893C9105CD
S1132BF0A105B10570F01092170B80913D0B813047
S1132C0041F484E993E10E9471291092C3090C9460
S1132C10520D089581E08093080BE3E2FDE080818A
S1132C201092170B84608D7F80831092F70A1092A4
S1132C30AB0A0E941E0B0E94370B6EE085E195E003
S1132C400E94E02A0C94DA148091D30A813079F539
S1132C508091C20A90E08830910508F0F9C0FC0127
S1132C60E65BFF4F0C942C376091620A8AE091E096
S1132C70E4C06091630A8BE091E0DFC06091640A74
S1132C808CE091E0DAC06091650A8DE091E0D5C0F6
S1132C906091660A8EE091E0D0C06091670A8FE08F
S1132CA091E0CBC06091760A8EE191E0C6C080913C
S1132CB0CE0A813001F58091C20A8111C9C0809188
S1132CC06F0B9091700B28E1289FB001299F700D24
S1132CD0112470936B0A60936A0A82E191E00E9466
S1132CE0C01080916A0A90916B0A892B09F4B0C0D4
S1132CF010920D0B08958091AA0A813009F075C0D5
S1132D008091C20A90E08730910508F0A1C0FC01CF
S1132D10EE5AFF4F0C942C3760916D0A85E191E0D7
S1132D208CC060916E0A86E191E087C060916F0A61
S1132D3087E191E082C06091720A8AE191E07DC0EE
S1132D406091730A8BE191E00E94950F8091730A60
S1132D500C94A62A6091740A8CE191E00E94950F6C
S1132D608FEC97E00197F1F700C000008091740A9E
S1132D70823009F06DC02FEF48EE53E060E070E060
S1132D808DE893E130C06091750A8DE191E00E9475
S1132D90950F80916800877F8093680080916D0013
S1132DA08F7780936D008EE893E10E9471298FECF8
S1132DB097E00197F1F700C000008091750A823016
S1132DC009F046C080916800886080936800809113
S1132DD06D00806880936D002FEF48EE53E060E053
S1132DE070E08EE893E10C94FA288091C20A823054
S1132DF0D9F028F4882349F0813071F008958430A3
S1132E00F1F0B8F08530F1F0089560915C0A7091AA
S1132E105D0A84E091E006C060915E0A70915F0AE9
S1132E2086E091E00C94C0106091600A88E091E023
S1132E3004C06091610A89E091E00C94950F1092AE
S1132E406C0A08958091A80A883011F40E94FC113C
S1132E500895EDECFBE080E090E02191820F911D5C
S1132E602CE0E930F207C9F708958091CB0B9091DB
S1132E70CA0B890F9091CC0B890F0895ECE8FBE005
S1132E8080E090E02191820F911D2BE0E83CF20755
S1132E90C9F708958091890B9091880B890F9091BF
S1132EA08A0B890F08958091240D4E9902C0059BC9
S1132EB007C091E09093580B81608093240D0FC05C
S1132EC01092580B8E7F8093240D8091A90A811152
S1132ED006C08091560A811102C045980895459A0A
S1132EE0089502991FC08091620B9091630BA09189
S1132EF0640BB091650B4091F4075091F507609114
S1132F00F6077091F707841B950BA60BB70B853F4B
S1132F109140A105B105B0F00E94520D81E080936B
S1132F20CA0A12C08091620B9091630BA091640B4A
S1132F30B091650B8093F4079093F507A093F6077F
S1132F40B093F7071092CA0A3E9A08958091750AC1
S1132F50813011F400000895823021F48091F30A45
S1132F609091F40A08958091740A8130C1F4429BCF
S1132F700EC0379B3DC09091AB0A9531C8F190913A
S1132F801A0B993C08F461C010921A0B26C0809168
S1132F90F20A813009F059C037994FC03EC08230DF
S1132FA009F053C0429B27C02091D00A3091D10A26
S1132FB08091760A43E0849FC00111240197281769
S1132FC03907B0F48091AB0A853190F080911A0BE7
S1132FD0893CD8F110921A0B81E080935B0B10921C
S1132FE06B0B1092AB0A8093F20A3E9A0C94320D4A
S1132FF010921A0B1FC08091F20A813031F5209192
S1133000D00A3091D10A8091760A43E0849FC001AE
S1133010112402978217930780F410921A0B80915F
S11330206B0B8F5F80936B0B80916B0B833068F01D
S113303010926B0B10925B0B089580911A0B8536DE
S113304020F010921A0B10926B0B08958FEF9FEFE4
S1133050DC0180935E0890935F08A0936008B093AE
S1133060610808950F931F9340915E0850915F0883
S113307060916008709161088A019B010827D90159
S1133080C8019927AA27BB27FC01EE0FFF1FEE0FEB
S1133090FF1FEA5AFD4F452F562F672F7727808150
S11330A09181A281B38184279527A627B72780938E
S11330B05E0890935F08A0936008B09361081F9125
S11330C00F9108950F931F93CF93DF931F92CDB762
S11330D0DEB78C01680F601741F0F80181918F0110
S11330E069830E9432186981F6CF0F90DF91CF91E6
S11330F01F910F91089560915E0870915F0880910F
S113310060089091610860957095809590950895F8
S1133110009789F0662379F0282FFC0180E09E2F28
S1133120921B961738F4A191A827B0E0A05DBA4F7E
S11331308C91F5CF08958FEF0895FC01CB01009792
S113314029F485E1808381831282089564E670E026
S11331500E94E236262F60836AE070E00E94E23625
S113316061838283211105C085E18083611101C0DF
S1133170818308958091FC0A813009F0B7C082E10F
S113318080937B0B84E180937C0B20911D0E81E066
S1133190820F80937D0B223009F45FC060F52223F7
S11331A009F445C0213009F091C08091E60A90915C
S11331B0E70A34E0880F991F3A95E1F76091660AAF
S11331C070E00E94E236CB016AE070E00E94E236D1
S11331D06C5F7F4F8DE08093820B91E19093830B22
S11331E08093840B8EE28093850B8FE28093860B11
S11331F02093870B4DC3243009F452C008F43FC018
S1133200253009F063C085E18093820B83E18093CC
S1133210830B83E28093840B8BE08093850B8093F4
S1133220860B80E18093870B64E170E031C3809169
S11332305E0B90915F0B6BE470E00E94E23685E1D7
S11332408093820B81E18093830B8CE28093840BC7
S11332508DE08093850B8EE20EC360914B0B7091D1
S11332604C0B85E18093820B8CE28093830B81E18C
S11332708093840B82E28093850B81E28FC16091FD
S11332800E0B70910F0B85E18093820B91E290936A
S1133290830B22E22093840B9093850B9CE046C21F
S11332A08091780A9091790A68E170E00E94E23690
S11332B085E18093820B9EE29093830B9DE2909331
S11332C0840B98E29093850B93E230C285E180935E
S11332D0820B8093830B8093840B8093850B809364
S11332E0860B8093870B6BE770E0D2C29091E90A5A
S11332F0913009F0A2C08AE080937B0B84E1809333
S11333007C0B80911A0E21E0280F20937D0B8230D4
S1133310B9F128F4882351F08130D1F07EC0833094
S113332009F442C0843009F456C077C08091A90AD8
S113333061E070E0813009F060E085E18093820B08
S11333408FE28093830B9DE09093840B91E147C1BE
S113335061E070E08091F20A813009F060E085E17B
S11333608093820B8CE28093830B81E18093840BA6
S113337082E28093850B89E28093860B83E211C1FC
S11333808091F90A61E070E0813009F060E085E144
S11333908093820B91E19093830B9CE29093840B36
S11333A02BE02093850BC2C160B1669566956927B1
S11333B0617070E085E18093820B8DE28093830BD2
S11333C081E18093840B84E28093850B8DE080936C
S11333D0860B88E2E6C080910B0890910C0820913E
S11333E05C0A30915D0A61E070E02817390740F00B
S11333F020915E0A30915F0A8217930708F060E01B
S113340085E18093820B8CE28093830B81E180932E
S1133410840B82E28093850B2EC285E18093820B1C
S11334208093830B8093840B8093850B8093860B0E
S11334308093870B67E372E02BC29091D50A809149
S1133440C20A913009F05CC08630A0F180910B0B68
S11334508130C9F4EAE2F5E0AFE4BAE081912D915C
S113346090E0C09730E08217930709F015C225E079
S1133470E033F20799F71092D50A81E08093CE0ADF
S113348010920B0B0DC2E4E2F5E0AFE4BAE08191D7
S11334902D9190E0C09730E08217930709F003C2A2
S11334A085E0EA32F80799F71092D50A81E0809313
S11334B0AA0AF6C180914F0A80937B0B8091500A2F
S11334C080937C0B8091510A80937D0B8091520AEA
S11334D080937E0B8091530A80937F0B8091540AD2
S11334E08093800B85E18093820B8093830B809380
S11334F0840B8093850B8093860B8093870B0895B0
S113350094E190937C0B91E0980F90937D0B9091B4
S1133510CE0A913011F594E090937B0B811119C080
S113352080916F0B9091700B883E934028F46091CA
S11335306F0B7091700B02C067EE73E085E18093AE
S1133540820B98E29093830B93E29093840B9DE219
S1133550EAC067E080E396E095C19091D30A913088
S113356009F093C092E090937B0B90E08830910532
S113357008F087C0FC01E75AFF4F0C942C37609188
S1133580620A70E085E18093820B81E18093830B72
S11335909CE29093840B91E29093850B8093860B2D
S11335A08CE08093870B74C16091630A70E085E1BD
S11335B08093820B98E29093830B9DE09093840B0D
S11335C09EE24AC06091640A70E085E18093820BB8
S11335D08FE28093830B9DE09093840B93E290930E
S11335E0850B92E2A3C06091650A70E085E1809347
S11335F0820B91E19093830B98E29093840B94E275
S113360092C06091660A70E08FE28093820B8DE035
S11336108093830B93E29093840B8093850B81E1D9
S113362071C085E18093820B8093830B8093840B1C
S11336308093850B8093860B8093870B27C16091C1
S1133640670A70E085E18093820B91E19093830B8C
S11336509CE29093840B9DE09093850B94E266C06A
S11336606091760A70E085E18093820B91E29093F9
S1133670830B9BE09093840B8093850B8093860B44
S113368090CF61E188E396E0FDC09091AA0A913061
S113369009F082C093E090937B0B90E08730910512
S11336A008F076C0FC01EF59FF4F0C942C37609161
S11336B06D0A70E085E18093820B87E28093830B2F
S11336C08DE00AC060916E0A70E085E18093820B00
S11336D089E28093830B83E28093840B81E180935E
S11336E0850B8CE2C8C060916F0A70E08DE0809316
S11336F0820B81E18093830B8DE28093840B8FE2B4
S11337008093850B8093860B81E04BCF6091720A86
S113371070E085E18093820B9CE09093830B93E2AD
S11337209093840B9DE09093850B9FE29093860B7E
S113373038CF6091730A70E085E18093820B89E24F
S11337408093830B9DE29093840B9BE09093850B75
S11337508093860B81E125CF6091740A70E085E146
S11337608093820B91E29093830B9BE00AC060915B
S1133770750A70E085E18093820B9DE09093830B42
S11337809CE29093840B98E29093850B93E1CECFC7
S113379062E18AE496E076C091E090937B0B8230FC
S11337A0D9F188F4882339F1813009F068C0609137
S11337B05E0A70915F0A85E18093820B9FE2909389
S11337C0830B2DE023C0843009F448C0C8F1853050
S11337D009F055C06091A80A70E085E18093820BDE
S11337E080E18093830B8FE08093840B81E280934C
S11337F0850B83E140C060915C0A70915D0A85E1AC
S11338008093820B9FE29093830B22E22093840B9C
S11338109093850B98E28ACF6091600A70E08FE202
S11338208093820B8EE08093830B8DE08093840BD6
S11338308093850B81E18093860B9093870B28C03E
S11338406091610A70E085E18093820B90E190932E
S1133850830B9FE29093840B9EE2DACF60916C0A13
S113386070E085E18093820B9CE09093830B98E257
S11338709093840B27CD8093860B8FE292CE62E1E6
S11338808DE596E00E94E02A0E94DA1460E070E080
S11338908EE79BE00C949D1865E180E796E006C0F6
S11338A01092C20A089565E186E896E00E94E02A33
S11338B00C94DA142091FA0A3091FB0A8091710B6E
S11338C09091720B2817390710F410923B0B8091DA
S11338D0EC0A843369F485E180937B0B80937C0B41
S11338E080937D0B80937E0B80937F0B80E10EC0D1
S11338F08533C1F485E180937B0B80937C0B8093AB
S11339007D0B80937E0B80937F0B81E18093800BF2
S11339108091730B8A3008F4A3C01092EC0A1092C1
S1133920730B08958091CF0A811194C08091FC0A91
S1133930811190C08091E90A81118CC08091F70AAD
S1133940813039F460915C0A70915D0A76956795CF
S113395018C080913D0B882391F08091170B813022
S113396029F46091690B70916A0B0BC08091080B6C
S1133970813029F46091680A7091690A02C060E09C
S113398070E07093200D60931F0D8EE79BE00E9402
S11339909D1880916C0B90916D0B90931E0D8093EC
S11339A01D0D84369105C0F42AE0289FB001299F9B
S11339B0700D11248091EA0A680F711D8BE79BE05A
S11339C00E949D1880917B0B853181F080917B0B47
S11339D08A5E80937B0B0AC0BC018BE79BE00E944C
S11339E09D1880917C0B8A5E80937C0B80917E0B6A
S11339F08093850B80917F0B8093860B8091800B45
S1133A008093870B83E18093820B82E18093830B05
S1133A1081E28093840B80914D0B813059F4809125
S1133A207D0B80937E0B80917C0B80937D0B80912A
S1133A307B0B05C010927E0B85E180937D0B8093F8
S1133A407C0B80E280937B0B85E180937F0B8093DA
S1133A50800B08950E94BA181092C00A1092C40AEA
S1133A6008959091570BE3E2FDE0818190FB81F989
S1133A7081839091CA0A818190FB82F9818390911C
S1133A805B0B818190FB83F9818308950E94C92A8D
S1133A9010926608109265081092640810926308E8
S1133AA084E19DE09093170E8093160E8CE09DE0C8
S1133AB09093190E8093180E81EB9DE090930B0C5C
S1133AC080930A0C8DE49DE090930B0D80930A0D76
S1133AD080E3EDE1FDE0DF01982F1D929A95E9F76F
S1133AE095E19093250D99E19093260D90E49093A0
S1133AF0270D91E29093280D8093290D86E48093FD
S1133B002A0D08952FEF3FEF680F791F8617970747
S1133B10A1F0FC014191CF012427E8E0A9015695C9
S1133B20479520FD02C09A0105C09A01F1E02F27B4
S1133B30F0EA3F27E15091F7E9CFC9010895DF92F8
S1133B40EF92FF920F931F93CF93DF93182FEB0104
S1133B50DB80EA80FD804F2D0C81502F2D2D3E2DD2
S1133B60211584E0380708F465C0240F351F253675
S1133B70344008F05FC0FB01E85AFF4F8081811197
S1133B8021C080916D0A8D8F80916E0A8E8F8091F5
S1133B906F0A8F8F8091770A8FA38091720A8AA30C
S1133BA08091730A8BA38091750A8DA38091740A06
S1133BB08CA38CE0E4E8FAE0DB01D49601900D924A
S1133BC08A95E1F780E5FE013896A8E5BAE0019010
S1133BD00D928A95E1F760E088E59AE00E94E4108E
S1133BE06AE070E080E090E00E94BB318091720A4C
S1133BF080930C0C80E180930D0CD0920E0CE0921B
S1133C000F0CF092100C0093110C66E070E08CE045
S1133C109CE00E94821D8093120C9093130C8AEAFC
S1133C208093140C8093150C153311F46AE01EC0B4
S1133C3068E02AC08091720A80930C0C80E980931A
S1133C400D0C82E080930E0C63E070E08CE09CE04D
S1133C500E94821D80930F0C9093100C8AEA80932B
S1133C60110C8093120C153361F467E08CE09CE036
S1133C70DF91CF911F910F91FF90EF90DF900C9403
S1133C80E02A193561F465E08CE09CE0DF91CF9186
S1133C901F910F91FF90EF90DF900C940634DF9109
S1133CA0CF911F910F91FF90EF90DF9008951F9394
S1133CB0CF93DF93182FC0910A0CD0910B0C62E6BE
S1133CC070E0CE010E94821DFE01EE59FF4F20815B
S1133CD028130BC031968081891307C0BE01812F40
S1133CE0DF91CF911F910C949F1D1092150E10928D
S1133CF065088091720A80930C0C80E980930D0C06
S1133D0083E080930E0C63E070E08CE09CE00E9402
S1133D10821D80930F0C9093100C8AEA8093110CEF
S1133D208093120C65E08CE09CE0153329F4DF915C
S1133D30CF911F910C94E02ADF91CF911F910C94A5
S1133D400634FF920F931F93CF93DF93F82EFB015A
S1133D5025818481438152814F3F510509F008F444
S1133D60DFC0C22FD82FCE01840F951F853131E0DB
S1133D70930768F48091720A80930C0C83E080931B
S1133D800D0C20930E0CBA016C5D724F9FC041154F
S1133D9033E0530708F4BEC0853333E0930708F0DB
S1133DA081C08091720A80930C0C83E080930D0C87
S1133DB020930E0C8091100890E0982F8827209172
S1133DC01108820F911D74E0969587957A95E1F715
S1133DD08093270D2091120830E0322F2227809102
S1133DE01308280F311DF4E036952795FA95E1F76D
S1133DF02093280D2091140830E0322F222780913F
S1133E001508280F311DB4E036952795BA95E1F7CA
S1133E102093250D2091160830E0322F222780911F
S1133E201708280F311D04E0369527950A95E1F708
S1133E302093290D20911C0830E0322F22278091F5
S1133E401D08280F311D94E0369527959A95E1F7C2
S1133E502093260D20911E0830E0322F22278091D6
S1133E601F08280F311D74E0369527957A95E1F7E0
S1133E7020932A0D0091620B1091630B2091640B27
S1133E803091650B00932D0D10932E0D20932F0D63
S1133E903093300D8091C3098093310DBA01635E74
S1133EA0754F14C0411534E05307A0F1813534E057
S1133EB0930798F58091720A80930C0C83E08093A9
S1133EC00D0C20930E0CBA01685A794FAE018FE0A5
S1133ED09CE00E944C378E010D5F1F4FB8018CE0AF
S1133EE09CE00E94821DF801E45FF34F8083FE0191
S1133EF0E45FF34F94838AEA8583868385E3F8122B
S1133F0003C06C2F695F29C099E5F9123CC06C2F7E
S1133F106B5F30C04115524018F08730924098F1E1
S1133F208091720A80930C0C83E880930D0C82E0DC
S1133F3080930E0C63E070E08CE09CE00E94821D94
S1133F4080930F0C9093100C8AEA8093110C809349
S1133F50120C85E3F8120AC067E08CE09CE0DF9164
S1133F60CF911F910F91FF900C94E02A99E5F912DB
S1133F700AC065E08CE09CE0DF91CF911F910F9126
S1133F80FF900C940634DF91CF911F910F91FF9015
S1133F900895FF920F931F93CF93DF93F82EC09150
S1133FA0160ED091170E66E070E0CE010E94821DBD
S1133FB08C019E8190130CC09F81911309C0BE0196
S1133FC08F2DDF91CF911F910F91FF900C94A11E23
S1133FD06DE184E392E00E94E02AB80180E090E081
S1133FE041E00E94E12A10921C0D10926608809113
S1133FF0720A80930C0C83E880930D0C83E0809309
S11340000E0C63E070E08CE09CE00E94821D8093C3
S11340100F0C9093100C8AEA8093110C8093120C6D
S113402085E3F8120AC067E08CE09CE0DF91CF9151
S11340301F910F91FF900C94E02A89E5F8120AC0B1
S113404065E08CE09CE0DF91CF911F910F91FF9090
S11340500C940634DF91CF911F910F91FF90089536
S11340600E94311D80916408813029F41092640803
S113407085E30E94C91F80916308813029F410925E
S1134080630885E30C94571E0895CF93DF93C82FDC
S1134090D0916608D13069F5E091180EF091190EAF
S11340A080911C0D91E0980F90931C0DE80FF11D69
S11340B0C08380911C0D883008F48CC010921C0DB4
S11340C01092660882E993E10E9471298091180E8A
S11340D09091190E2091160E3091170E3093190EEF
S11340E02093180E9093170E8093160ED0936408A5
S11340F071C0D0916508D13069F5E0910A0DF09155
S11341000B0D8091150E91E0980F9093150EE80F0A
S1134110F11DC0838091150E843608F45BC01092A3
S1134120150E1092650882E993E10E94712980912D
S11341300A0D90910B0D20910A0C30910B0C3093C9
S11341400B0D20930A0D90930B0C80930A0CD093C3
S1134150630840C09091720A80916208981338C035
S1134160C330D1F481E0809366081092620820E0A5
S113417042E350E060E070E082E993E10E94FA28B3
S1134180E091180EF091190E8091720A8083C18318
S113419082E080931C0D1EC0C031E1F481E0809365
S11341A065081092620820E046E950E060E070E0A3
S11341B082E993E10E94FA28E0910A0DF0910B0D37
S11341C08091720A8083C18382E08093150E02C0BD
S11341D0C0936208DF91CF91089510921C0D109244
S11341E066081092150E1092650808958091CF0A02
S11341F0813071F48091D50A811102C00E94241685
S11342001092E80A8091C20A8F5F8093C20A17C095
S11342108091FC0A813039F41092FC0A8093E90AF7
S113422010921D0E0AC08091E90A813041F4109267
S1134230FC0A1092E90A10921A0E1092E80A809170
S1134240620B9091630BA091640BB091650B80930A
S1134250530B9093540BA093550BB093560B0895A6
S11342608091FC0A813069F41092E80A80911D0E55
S1134270853020F48F5F80931D0E089510921D0EDB
S113428008958091E90A813069F41092E80A8091D6
S11342901A0E863020F48F5F80931A0E08951092C0
S11342A01A0E08958091CF0A811121C08091080BC4
S11342B0813009F052C18091680A9091690A01968F
S11342C09093690A8093680A20915C0A30915D0A90
S11342D02817390720F43093690A2093680A6091FB
S11342E0680A7091690A80E191E00C94C010109200
S11342F0E80A9091D30A8091C20A913009F050C023
S113430090E08830910508F028C1FC01E859FF4F7E
S11343100C942C3784E68093620A08958091630A92
S1134320813011F482E001C081E08093630A089532
S11343308091640A8F5F8093640A893C08F40DC1FC
S113434088EC8093640A08958091650A811105C1FF
S113435081E08093650A08958091660A8F5F809357
S1134360660A853608F4F9C084E68093660A0895DF
S113437084E38093520B08958091670A833010F48C
S11343808F5F01C081E08093670A08958091760A67
S1134390833610F48F5F01C081E08093760A08951C
S11343A09091D50A913069F4E82FF0E0E15BF54F84
S11343B020812F5F20832A3008F4CFC029E0208396
S11343C008959091CE0A9130D1F48111C6C08091A4
S11343D06F0B9091700B01969093700B80936F0B01
S11343E080916F0B9091700B8D389A4008F4B5C092
S11343F08CE89AE09093700B80936F0B08959091E2
S1134400AA0A913009F055C090E08730910508F070
S1134410A4C0FC01E059FF4F0C942C3780916D0A25
S11344208F5F80936D0A853608F497C084E6809385
S11344306D0A089580916E0A8F5F80936E0A8739A2
S113444008F48BC086E980936E0A089580916F0A00
S11344508F5F80936F0A833808F47FC082E880936B
S11344606F0A08958091720A8E3F08F076C08F5FBC
S11344708093720A08958091730A833010F48F5FD9
S113448001C081E08093730A08958091740A813099
S113449011F482E001C081E08093740A0895809150
S11344A0750A813011F482E001C081E08093750ABD
S11344B00895823089F128F4882341F08130C9F0CD
S11344C008958330A1F18530E9F1089580915C0A63
S11344D090915D0A019690935D0A80935C0A8D32F7
S11344E09140D8F18CE291E090935D0A80935C0A4C
S11344F0089580915E0A90915F0A019690935F0AF5
S113450080935E0A8D32914040F18CE291E0909369
S11345105F0A80935E0A08958091600A8F5F80939A
S1134520600A8536D0F084E68093600A089580910D
S1134530610A8F5F8093610A893C78F088EC8093EC
S1134540610A08958091A80A833620F48091A80A0C
S11345508F5F01C081E08093A80A08958091FC0ACE
S1134560813061F41092E80A80911D0E882311F0C5
S1134570815001C085E080931D0E08958091E90A61
S1134580813061F41092E80A80911A0E882311F0A8
S1134590815001C086E080931A0E08958091CF0A5D
S11345A0811121C08091080B813009F04AC18091AA
S11345B0680A9091690A01979093690A8093680A3E
S11345C020915E0A30915F0A8217930720F430939A
S11345D0690A2093680A6091680A7091690A80E107
S11345E091E00C94C0101092E80A9091D30A809143
S11345F0C20A913009F04DC090E0FC013197E730D8
S1134600F10508F01EC1E958FF4F0C942C37809136
S1134610630A823011F481E001C082E08093630A6E
S113462008958091640A81508093640A843608F066
S113463008C184E68093640A08958091650A8130F4
S113464009F0FFC01092650A08958091660A8150AE
S11346508093660A8A3008F0F4C08AE08093660A80
S1134660089585E38093520B08958091670A823000
S113467010F0815001C083E08093670A089580910F
S1134680760A823010F0815001C083E68093760A66
S113469008953091D50A313059F4E82FF0E0E15B08
S11346A0F54F2081215020832111CBC03083089500
S11346B09091CE0A9130C9F48111C3C080916F0BDF
S11346C09091700B01979093700B80936F0B809176
S11346D06F0B9091700B892B09F0B3C081E090E0CF
S11346E09093700B80936F0B08959091AA0A913068
S11346F009F055C090E08730910508F0A2C0FC0194
S1134700E258FF4F0C942C3780916D0A81508093AE
S11347106D0A8E3108F095C08EE180936D0A08957C
S113472080916E0A815080936E0A803508F089C0AA
S113473080E580936E0A089580916F0A815080937A
S11347406F0A863408F07DC086E480936F0A08956A
S11347508091720A833008F474C081508093720A85
S113476008958091730A823010F0815001C083E073
S11347708093730A08958091740A813011F482E061
S113478001C081E08093740A08958091750A813094
S113479011F482E001C081E08093750A08958230AB
S11347A079F128F4882341F08130C1F008958330F1
S11347B091F18530D9F1089580915C0A90915D0A58
S11347C0019790935D0A80935C0A4497D0F584E145
S11347D090E090935D0A80935C0A089580915E0A4C
S11347E090915F0A019790935F0A80935E0A4497C1
S11347F040F584E190E090935F0A80935E0A089507
S11348008091600A81508093600A8A30D0F48AE0F3
S11348108093600A08958091610A81508093610AAF
S1134820823078F482E08093610A08958091A80A26
S1134830882321F08091A80A815001C083E68093E7
S1134840A80A0895FF920F931F93CF93DF9390E0EC
S1134850FC01B897E63AF10508F0B7C4EB57FF4FEF
S11348600C942C3781E08093250E68E18BEF96E061
S11348700E94E02A69E184E197E00E94E02A0E9414
S1134880FD0A0E94D30AA1C481E080932F0E809375
S1134890120B449A0E94130B80917A0B80640BC014
S11348A081E080932F0E1092120B44980E94190BF2
S11348B080917A0B8F7B80937A0B87C481E08093FD
S11348C0260E80914D0B813009F07FC40E94FA14AA
S11348D07CC481E08093290E80914D0B882329F0BC
S11348E08091080B813009F070C410926A0810920C
S11348F069088091C10A811106C081E08093C10AD0
S11349000E94E80A62C41092C10A0E94FD0A5DC4B2
S113491081E08093290E10926C0810926B088091AC
S1134920690890916A08892B81F480911E0E9091F8
S11349301F0E059690931F0E80931E0E8130944097
S113494008F443C480E094E02BC080911B0E909146
S11349501C0E059690931C0E80931B0E8130944080
S113496008F433C480E094E02EC081E08093290EE3
S113497010926C0810926B088091690890916A08F3
S1134980892B99F480911E0E90911F0E0597909398
S11349901F0E80931E0E449708F017C484E190E024
S11349A090931F0E80931E0E10C480911B0E909145
S11349B01C0E059790931C0E80931B0E449708F0D1
S11349C004C484E190E090931C0E80931B0EFDC3FD
S11349D010926C0810926B0881E08093290E8091EC
S11349E0690890916A08892B81F48091220E909134
S11349F0230E05969093230E8093220E81309440CB
S1134A0008F4E3C380E094E02BC08091200E9091E1
S1134A10210E05969093210E8093200E81309440B0
S1134A2008F4D3C380E094E02EC081E08093290E83
S1134A3010926C0810926B088091690890916A0832
S1134A40892B99F48091220E9091230E05979093CF
S1134A50230E8093220E449708F0B7C384E190E0BC
S1134A609093230E8093220EB0C38091200E9091D8
S1134A70210E05979093210E8093200E449708F001
S1134A80A4C384E190E09093210E8093200E9DC3F3
S1134A9081E08093290E60911E0E70911F0E709319
S1134AA0910A6093900A88E391E00E94C0106EE03E
S1134AB08EE297E00E94E02A6091900A7091910A38
S1134AC018C081E08093290E60911B0E70911C0E1A
S1134AD07093930A6093920A8AE391E00E94C01053
S1134AE06CE08DE397E00E94E02A6091920A709155
S1134AF0930A80E090E041E00E94E12A66C381E0ED
S1134B008093290E6091220E7091230E7093950A62
S1134B106093940A8CE391E00E94C0106EE08AE4F2
S1134B2097E00E94E02A6091940A7091950AE1CF7F
S1134B3081E08093290E6091200E7091210E709374
S1134B40970A6093960A8EE391E00E94C0106CE08D
S1134B5089E597E00E94E02A6091960A7091970A8D
S1134B60C8CF81E08093290E80914D0B882329F0D2
S1134B708091080B813009F028C381E090E0909384
S1134B806A088093690880917A0B806294CE81E0F0
S1134B908093290E80914D0B882329F08091080B76
S1134BA0813009F012C310926A081092690880914A
S1134BB07A0B8F7D80CE81E08093290E9AC081E0AC
S1134BC08093290E8091420B813011F44198FDC2EB
S1134BD0823009F0FAC2419AF8C281E08093290E2A
S1134BE08091440B811119C06091420B70E0762FC3
S1134BF066278091430B680F711D80915E0A909126
S1134C005F0A4E966817790708F4DFC270935D0A4D
S1134C1060935C0A84E091E036C0813009F0D5C22B
S1134C208091420B90E0982F88272091430B820FAC
S1134C30911D06972CF01092420B85E08093430B54
S1134C406091430B6093A00A70E088E491E01BC07C
S1134C5081E08093290E6091420B70E0762F6627E5
S1134C608091430B680F711D80915C0A90915D0ADD
S1134C704E978617970708F4A8C270935F0A60934B
S1134C805E0A86E091E00E94C01033C081E0809308
S1134C90290E6091430B6093600A88E091E027C07D
S1134CA081E08093290E6091430B6093610A89E04F
S1134CB091E01DC081E08093290E6091430B6093C5
S1134CC06D0A85E191E013C081E08093290E609123
S1134CD0430B60936E0A86E191E009C081E0809302
S1134CE0290E6091430B6093740A8CE191E00E9459
S1134CF0950F8AEA8093AC0A85E08093AD0A80918F
S1134D00420B8093AE0A8091430B8093AF0A1092BA
S1134D10B00A1092B10A1092B20A1092670855C2F2
S1134D2081E08093290E8091420B813011F0823012
S1134D30A1F78093670849C281E08093290E6091AE
S1134D40430B6093760A8EE191E0D1CF81E08093AA
S1134D50290E6091430B6093750A8DE191E0C7CFF2
S1134D6081E08093290E61E186E697E00E94E02AC3
S1134D706091430B60936F0A87E191E00EC081E07C
S1134D808093290E61E186E697E00E94E02A609113
S1134D90430B6093770A8FE191E00E94950F8AEAB2
S1134DA08093AC0A85E08093AD0A8091420B809396
S1134DB0AE0A8091430B8093AF0A1092B00A10920E
S1134DC0B10A1092B20A1092670861E188E797E08D
S1134DD00E94E02AFAC181E08093290E6091430B7E
S1134DE06093630A8BE091E082CF81E08093290E87
S1134DF06091430B6093640A8CE091E078CF81E08A
S1134E008093290E6091430B6093650A8DE091E0D5
S1134E100E94950F82CF81E08093290E6091430B0D
S1134E206093660A8EE091E062CF81E08093290E60
S1134E306091430B60937B0A83E291E058CF81E059
S1134E408093290E6ACF81E08093290EC091420B92
S1134E50D0E0DC2FCC278091430BC80FD11D80916B
S1134E60440B811108C0D0931F0EC0931E0E6EE038
S1134E708AE897E01DC0813041F4D0931C0EC093A2
S1134E801B0E6CE089E997E013C0823041F4D093A3
S1134E90230EC093220E6FE086EA97E009C08330A8
S1134EA049F4D093210EC093200E6DE086EB97E079
S1134EB00E94E02ABE01882777FD8095982F41E063
S1134EC00E94E12A16CF81E08093290E8091440B41
S1134ED0811107C06091680A7091690A6F5F7F4F02
S1134EE00CC0813009F019CF6091420B70E0762F2D
S1134EF066278091430B680F711D7093690A609354
S1134F00680A80E191E00E94C01007CF81E080939D
S1134F10290E6091680A7091690A61507109709351
S1134F20690A6093680A1092670880E191E00E9420
S1134F30C0104BC181E08093290E8091420B8111F6
S1134F40D8CE8091430B883009F0D3CE0E94FC1157
S1134F50D0CE81E08093290E10926808DECE81E0E5
S1134F608093290E8AEA8093AC0A85E08093AD0A87
S1134F708091410B8093AE0A8091420B8093AF0ADB
S1134F808091430B8093B00A8091440B8093B10AC3
S1134F901092B20A109267080EEA1AE0C4E3D1E054
S1134FA0F12CF8016081CE0108970E94950FF3E07F
S1134FB0FF1202C061E002C0F8016081CE010E94CC
S1134FC0950FF3940F5F1F4F2196F4E0FF12E9CF82
S1134FD0A8950E9421336AE070E080E090E00E948E
S1134FE0BB31813021F46EE083E592E0F1CE60E1E3
S1134FF083E692E0EDCE81E08093290E6091430B2D
S11350006093720A8AE191E072CE81E08093290E66
S11350106091430B6093980A80E491E068CE81E04C
S11350208093290E6091430B60937A0A82E291E0A7
S11350305ECE81E080932A0E80914A0B813041F448
S113504010924A0B8091230D8E7F8093230DBDC057
S11350508091CF0A811106C00E94520D10926A08F5
S11350601092690810924A0B58CE81E080932A0E60
S113507080930D081092670810924A0BA6C081E035
S11350808093270E1092670880914D0B813009F0B0
S113509044CE0E940A1641CE81E08093300E1092D5
S11350A06A081092690810924A0B0E94640D86E007
S11350B080936C0A32CEC1E0C093280E8091170B06
S11350C081112BCE8091080B811127CE0E941E0BDB
S11350D0C093F70A22CE81E080932E0E9091410B6B
S11350E0923309F072C080934A0B8091230D816042
S11350F08093230D1092080B1092F70A1092AB0ABA
S11351000CCE81E080932D0E0E94AE225EC081E021
S113511080932C0E0E94302158C081E08093240E8D
S11351200E94F62052C081E08093290E8091410BA9
S11351308130C1F46091430B862F90E020915E0A88
S113514030915F0A2817390708F03FC020915C0AA4
S113515030915D0A82179307C0F56093990A81E440
S113516091E031C0823049F46091430B623068F5BC
S113517060939A0A82E491E026C0833059F46091E6
S1135180430B8FEF860F8F3400F560939B0A83E403
S113519091E019C0843059F46091430B8BEF860F72
S11351A08F3098F460939C0A84E491E00CC08530BD
S11351B061F46091430B8EEF860F8C3130F4609371
S11351C09D0A85E491E00E94950F8091E80A82305F
S11351D058F062E184EC97E00E94E02A0E94DA141D
S11351E01092FC0A1092E90ADF91CF911F910F915E
S11351F0FF9008950F931F93CF93C22F009709F444
S113520069C0411551056105710509F463C020E0C9
S113521030E01CE0129FF001139FF00D1124E65CB6
S1135220F14FA081B181A817B907E1F481E0838728
S1135230428353836483758302811381248135817E
S11352404091620B5091630B6091640B7091650BFC
S1135250400F511F621F731F4683578360877187F6
S1135260C2873AC02F5F3F4F2830310599F620E0BE
S113527030E01CE0129FF001139FF00D1124E65C56
S1135280F14FDF011B96038501111FC021E02C9310
S11352909183808342835383648375830281138162
S11352A0248135814091620B5091630B6091640BB2
S11352B07091650B400F511F621F731F4683578304
S11352C060877187C287DC0107C02F5F3F4F28309A
S11352D0310581F6A0E0B0E0CD01CF911F910F918F
S11352E00895AC010097B1F020E030E06CE0629FDB
S11352F0F001639FF00D1124E65CF14F80819181F0
S11353008417950711F4138608952F5F3F4F2830B3
S1135310310569F780E090E00895CF93DF938091A1
S1135320380E9091390E877099279093390E809397
S1135330380E28E030E0DCE08091380E9091390E90
S1135340CCE0D89FF001D99FF00D1124E65CF14F19
S11353508385813009F0B0C04091620B5091630B9A
S11353606091640B7091650B8091380E9091390EA9
S1135370D89FF001D99FF00D1124E65CF14F86818E
S11353809781A085B185481759076A077B0708F4F8
S113539093C08091380E9091390EC89FF001C99F37
S11353A0F00D1124E65CF14F82858F3F49F1809125
S11353B0380E9091390EC89FF001C99FF00D112449
S11353C0E65CF14F828518167CF48091380E90913A
S11353D0390EC89FF001C99FF00D1124E65CF14F0E
S11353E08285815082870CC08091380E9091390E4D
S11353F0C89FF001C99FF00D1124E65CF14F13869C
S11354008091380E9091390ECCE0C89FF001C99F6D
S1135410F00D1124E65CF14F808191810E942A05F0
S11354208091380E9091390EC89FF001C99FF00DFC
S11354301124E65CF14F8385813051F52091380EBB
S11354403091390E8091380E9091390EC89FF00139
S1135450C99FF00D1124E65CF14F428153816481B0
S113546075818091620B9091630BA091640BB09154
S1135470650B840F951FA61FB71FC29FF001C39F22
S1135480F00D1124E65CF14F86839783A087B187E2
S11354908091380E9091390E01969093390E809335
S11354A0380E8091380E9091390E87709927909319
S11354B0390E8093380E19C08091380E9091390EB0
S11354C001969093390E8093380E8091380E909106
S11354D0390E877099279093390E8093380E215096
S11354E031092115310509F027CFDF91CF910895B6
S11354F01092620B1092630B1092640B1092650B66
S11355001092390E1092380E80E6EAE3FEE0DF01D5
S11355101D928A95E9F708950097B1F020E030E0F4
S11355206CE0629FF001639FF00D1124E65CF14F83
S1135530408151814817590711F4838508952F5FDD
S11355403F4F2830310569F780E00895E9ECF0E039
S11355508081877E808387E893E10197F1F700C01B
S113556000001092CD008CE08093CC00E8ECF0E0D9
S113557080818260808388E98093C90086E080937B
S1135580CA0028988FE097E20197F1F700C0000065
S113559008958091730A0E94A62A539A5298209AD9
S11355A05B9A5A9A28981092B70E1092B60E1092DF
S11355B09A0E10929B0E10929C0E10929D0E0895BE
S11355C00895089564E273E180E190E00E947137E8
S11355D0F999FECF64E273E180E390E00E947137B1
S11355E0F999FECF64E273E180E590E00E9471379F
S11355F0F999FECF8FE493EC0197F1F700C0000016
S11356000C94DD1140919A0E50919B0E60919C0E6A
S113561070919D0E762F652F542F442740939A0E38
S113562050939B0E60939C0E70939D0E80939A0EE4
S113563080919D0E8234A1F480919C0E853481F476
S113564080919B0E813461F480919A0E823541F4ED
S113565081E090E09093B70E8093B60E0C94E22A0A
S113566008951F920F920FB60F9211242F933F9318
S11356704F935F936F937F938F939F93AF93BF9356
S1135680CF93DF93EF93FF93C091CE008C2F0E94B2
S1135690022B8C2F0E944520CA3A11F410926D08F7
S11356A0E0916D0881E08E0F80936D08F0E0E25682
S11356B0F14FC0838831D1F5EFE9FEE08AEA919198
S11356C0890F9EE0E53BF907D1F710926D089091A0
S11356D0B50E89132BC080919E0E8A3A39F520911C
S11356E09F0E223018F5E22FF0E08AE0289F900107
S11356F01124220F331F225F374F80E090E0EC012A
S1135700C256D14FD901A80FB91F4A8112964C93A2
S113571012974B8113964C9302968431910579F735
S1135720EE0FFF1FE252F84F11821082FF91EF91AA
S1135730DF91CF91BF91AF919F918F917F916F91A5
S11357405F914F913F912F910F900FBE0F901F903B
S113575018952B98000000000895E82FF0E0EE0F54
S1135760FF1FE259F74F808191810895E82FF0E0FF
S1135770EE0FFF1FE257F74F808191810895239A1E
S113578081110C94A92B000000002B9A08959DB55B
S11357908EBD0000000028EC3FEA8DB5807831F41E
S11357A02150310921153105C1F701C081E0089567
S11357B0CF92DF92EF92FF920F931F93CF93DF93D9
S11357C000D000D01F92CDB7DEB789012115310575
S11357D081F1239A4C835D836B837A8389830E944E
S11357E0A92B259A279A89810E94C72B7A81872F12
S11357F00E94C72B6B81862F887F8C5F0E94C72BEA
S113580086E08A95F1F700C04C81C42E5D81D52EC7
S11358107601E00EF11ECE14DF0431F0F601819121
S11358206F010E94C72BF7CF80E00E94BF2BC801F5
S113583002C080E090E00F900F900F900F900F90B7
S1135840DF91CF911F910F91FF90EF90DF90CF9058
S1135850089524E030E0AC0160E071E080E090E085
S11358600C94D82B24E030E0AC0160E075E080E0DB
S113587090E00C94D82B26E030E0AC0160E079E0B5
S113588080E090E00C94D82B24E030E0AC0160E0A0
S11358907FE080E090E00C94D82B1F93CF93DF93AC
S11358A000D0CDB7DEB7182FCB017A8369830E946D
S11358B075329A83898380E2189FB0011124685F4E
S11358C07B4F882777FD8095982F22E030E0AE014A
S11358D04F5F5F4F0E94D82B0F900F90DF91CF91B5
S11358E01F9108951F93CF93DF9300D0CDB7DEB7F8
S11358F0182FCB017A8369830E9475329A83898336
S113590080E2189FB0011124685F7F4E882777FDDD
S11359108095982F22E030E0AE014F5F5F4F0E94E8
S1135920D82B0F900F90DF91CF911F910895AB0169
S113593020E2829FC0011124885F934FBC01882715
S113594077FD8095982F24E030E00C94D82BCF93EA
S1135950DF9300D0CDB7DEB79A8389830E94753276
S11359609A83898322E030E0AE014F5F5F4F60E0AD
S113597079E180E090E00E94D82B0F900F90DF91A6
S1135980CF9108951F93CF93DF9300D0CDB7DEB7A7
S1135990182FCB017A8369830E9475329A83898395
S11359A080E2189FB0011124685F774D882777FD46
S11359B08095982F22E030E0AE014F5F5F4F0E9448
S11359C0D82B0F900F90DF91CF911F910895CF9313
S11359D0DF9300D000D0CDB7DEB7239A4C836B831E
S11359E07A8389830E94A92B259A279A89810E9408
S11359F0C72B7A81872F0E94C72B6B81862F887FC4
S1135A008C5F0E94C72B86E08A95F1F700C04C8119
S1135A10842F0E94C72B80E00F900F900F900F905F
S1135A20DF91CF910C94BF2B2F923F924F925F92B4
S1135A306F927F928F929F92AF92BF92CF92DF929A
S1135A40EF92FF920F931F93CF93DF9300D000D078
S1135A501F92CDB7DEB74C016C837D830EE718E04F
S1135A607EE6E72E78E0F72EEEE8AE2EE8E0BE2ED6
S1135A70FEE9CF2EF8E0DF2E22242394312C50E0CF
S1135A80412C512C612C712C910163E0220F331FA6
S1135A906A95E1F7C901915EBC01882777FD80957D
S1135AA0982FF401408129833A835B830E94E72C79
S1135AB029813A81325EB901882777FD8095982F34
S1135AC0EC81FD8140810E94E72CF8011182108253
S1135AD0F701118210825B81F1E06F16F0E47F061A
S1135AE0B0F4F4018081811104C0F60111821082A6
S1135AF00EC0813160F490E0982F8827990F990F98
S1135B00F801918380830197F60191838083F801E2
S1135B1020813181F1E04F16F0E45F06A8F4EC81B6
S1135B20FD818081811104C0F501118210820CC0B5
S1135B30813150F4880F880FF70110828183C901E5
S1135B400197F50191838083620E731EF7018191A1
S1135B5091917F01480E591E5F5FFFEF8F1A9F0AD4
S1135B6084E0280E311CEC81FD813196FD83EC83A9
S1135B700E5F1F4FF2E0AF0EB11C82E0C80ED11CC5
S1135B80583009F081CF0F900F900F900F900F9025
S1135B90DF91CF911F910F91FF90EF90DF90CF9005
S1135BA0BF90AF909F908F907F906F905F904F9039
S1135BB03F902F900895482F60E070E0CB010C9443
S1135BC0E72C462F24E0829FC00111240196B3E004
S1135BD0880F991FBA95E1F7BC01882777FD809556
S1135BE0982F0C94E72C462F20E2829FC0011124A9
S1135BF0885F9E4FBC01882777FD8095982F0C9471
S1135C00E72C482F60E07EE280E090E00C94E72CE3
S1135C10482F60E07BE180E090E00C94E72C482F73
S1135C2060E078E180E090E00C94E72C482F60E09D
S1135C3076E180E090E00C94E72C462F68E07CE26B
S1135C4080E090E00C94E72CFC018DB58EBD000043
S1135C50000028EC3FEA8DB5807831F421503109F9
S1135C6021153105C1F703C08EB5808381E0089505
S1135C70CF92DF92EF92FF920F931F93CF93DF9314
S1135C8000D000D01F92CDB7DEB78901239A4C8390
S1135C905D836B837A8389830E94A92B259A279A33
S1135CA089810E94C72B7A81872F0E94C72B6B8121
S1135CB0862F887F0E94C72B86E08A95F1F700C063
S1135CC04C81C42E5D81D52E7601E00EF11ECE14DA
S1135CD0DF0439F0C6010E94242EEFEFCE1ADE0A4B
S1135CE0F6CF80E00E94BF2BC8010F900F900F9059
