S02500007367646B6367715F3438355F637279346D31366D5F70756C73655F61642E737265634D
S113000012C02CC0A3CD2AC029C028C027C026C036
S113001025C04DCD23C05CCE21C031CEC3CD1EC082
S11300201DC01CC01BC011241FBECFE5D4E0DEBF21
S1130030CDBF10E0A0E6B0E0E8E8FFE102C0059023
S11300400D92A036B107D9F721E0A0E6B0E001C0D7
S11300501D92A93AB207E1F769DB94CFD1CF0F9390
S11300601F93A22F009709F46CC041155105610537
S1130070710509F466C0E0916C00F0916D00E81719
S1130080F90709F493C0209178003091790028177A
S1130090390709F49BC0209184003091850028170A
S11300A0390709F496C020919000309191002817E7
S11300B0390709F491C020919C0030919D002817C4
S11300C0390709F48CC02091A8003091A9002817A1
S11300D0390709F487C02091B4003091B50028177E
S11300E0390709F482C02091C0003091C10028175B
S11300F0390709F47DC020917700222309F47EC0DA
S113010020918300222309F476C020918F002223BA
S113011009F477C020919B00222309F475C0209133
S1130120A700222309F473C02091B300222309F409
S113013071C02091BF00222349F02091CB002223DB
S113014091F180E090E01F910F91089526E030E056
S1130150F901EE0FFF1FE20FF31FEE0FFF1FEE0F6B
S1130160FF1FE459FF4F21E023879183808342835B
S113017053836483758342815381648175810091C3
S11301809E0110919F012091A0013091A101400F87
S1130190511F621F731F4683578360877187A2872D
S11301A01F910F91089527E030E0D2CF20E030E096
S11301B0F901EE0FFF1FE20FF31FEE0FFF1FEE0F0B
S11301C0FF1FE459FF4F21E02387D1CF21E030E026
S11301D0EFCF22E030E0ECCF23E030E0E9CF24E0C1
S11301E030E0E6CF25E030E0E3CF26E030E0E0CFBA
S11301F027E030E0DDCF21E030E0AACF20E030E09E
S1130200A7CF22E030E0A4CF23E030E0A1CF24E068
S113021030E09ECF25E030E09BCF80916A00909142
S11302206B008770992790936B0080936A0080918C
S11302309E0190919F01A091A001B091A1012091F4
S11302406A0030916B00F901EE0FFF1FE20FF31FFC
S1130250EE0FFF1FEE0FFF1FE459FF4F23852130E0
S113026009F425C120916A0030916B002F5F3F4F44
S113027030936B0020936A0020916A0030916B00E8
S11302802770332730936B0020936A0020916A0013
S113029030916B00F901EE0FFF1FE20FF31FEE0F19
S11302A0FF1FEE0FFF1FE459FF4F2385213009F490
S11302B0A6C120916A0030916B002F5F3F4F3093AD
S11302C06B0020936A0020916A0030916B002770C4
S11302D0332730936B0020936A0020916A00309199
S11302E06B00F901EE0FFF1FE20FF31FEE0FFF1F6C
S11302F0EE0FFF1FE459FF4F2385213009F499C104
S113030020916A0030916B002F5F3F4F30936B0058
S113031020936A0020916A0030916B002770332784
S113032030936B0020936A0020916A0030916B0037
S1130330F901EE0FFF1FE20FF31FEE0FFF1FEE0F89
S1130340FF1FE459FF4F2385213009F48CC120910C
S11303506A0030916B002F5F3F4F30936B00209306
S11303606A0020916A0030916B0027703327309324
S11303706B0020936A0020916A0030916B00F901B0
S1130380EE0FFF1FE20FF31FEE0FFF1FEE0FFF1F15
S1130390E459FF4F2385213009F47FC120916A007D
S11303A030916B002F5F3F4F30936B0020936A00B6
S11303B020916A0030916B002770332730936B00D3
S11303C020936A0020916A0030916B00F901EE0FCE
S11303D0FF1FE20FF31FEE0FFF1FEE0FFF1FE45985
S11303E0FF4F2385213009F472C120916A003091B6
S11303F06B002F5F3F4F30936B0020936A00209176
S11304006A0030916B002770332730936B00209380
S11304106A0020916A0030916B00F901EE0FFF1F12
S1130420E20FF31FEE0FFF1FEE0FFF1FE459FF4F04
S11304302385213009F465C120916A0030916B0055
S11304402F5F3F4F30936B0020936A0020916A0026
S113045030916B002770332730936B0020936A0030
S113046020916A0030916B00F901EE0FFF1FE20F3B
S1130470F31FEE0FFF1FEE0FFF1FE459FF4F2385FD
S1130480213009F458C180916A0090916B00019663
S113049090936B0080936A0080916A0090916B0046
S11304A08770992790936B0080936A000895209138
S11304B06A0030916B00F901EE0FFF1FE20FF31F8A
S11304C0EE0FFF1FEE0FFF1FE459FF4F46815781C8
S11304D06085718584179507A607B70708F4C2CE0F
S11304E080916A0090916B00FC01EE0FFF1FE80FF2
S11304F0F91FEE0FFF1FEE0FFF1FE459FF4F828518
S11305008F3F29F180916A0090916B00FC01EE0FFE
S1130510FF1FE80FF91FEE0FFF1FEE0FFF1FE45937
S1130520FF4F828518160CF020C180916A009091CB
S11305306B00FC01EE0FFF1FE80FF91FEE0FFF1F0A
S1130540EE0FFF1FE459FF4F82858150828780910F
S11305506A0090916B00FC01EE0FFF1FE80FF91F7A
S1130560EE0FFF1FEE0FFF1FE459FF4F80819181B3
S113057025D780916A0090916B00FC01EE0FFF1F5C
S1130580E80FF91FEE0FFF1FEE0FFF1FE459FF4F97
S11305908385813009F077CF20916A0030916B0018
S11305A080916A0090916B00FC01EE0FFF1FE80F31
S11305B0F91FEE0FFF1FEE0FFF1FE459FF4F82815B
S11305C09381A481B58140919E0150919F016091D6
S11305D0A0017091A101840F951FA61FB71FF901F7
S11305E0EE0FFF1FE20FF31FEE0FFF1FEE0FFF1FB3
S11305F0E459FF4F86839783A087B18744CF209126
S11306006A0030916B00F901EE0FFF1FE20FF31F38
S1130610EE0FFF1FEE0FFF1FE459FF4F4681578176
S11306206085718584179507A607B70708F441CE3E
S113063057CF20916A0030916B00F901EE0FFF1F34
S1130640E20FF31FEE0FFF1FEE0FFF1FE459FF4FE2
S1130650468157816085718584179507A607B7077A
S113066008F44ECE3DCF20916A0030916B00F90121
S1130670EE0FFF1FE20FF31FEE0FFF1FEE0FFF1F22
S1130680E459FF4F4681578160857185841795072A
S1130690A607B70708F45BCE23CF20916A003091F8
S11306A06B00F901EE0FFF1FE20FF31FEE0FFF1FA8
S11306B0EE0FFF1FE459FF4F468157816085718516
S11306C084179507A607B70708F468CE09CF2091C9
S11306D06A0030916B00F901EE0FFF1FE20FF31F68
S11306E0EE0FFF1FEE0FFF1FE459FF4F46815781A6
S11306F06085718584179507A607B70708F475CE3A
S1130700EFCE20916A0030916B00F901EE0FFF1FCC
S1130710E20FF31FEE0FFF1FEE0FFF1FE459FF4F11
S1130720468157816085718584179507A607B707A9
S113073008F482CED5CE20916A0030916B00F90185
S1130740EE0FFF1FE20FF31FEE0FFF1FEE0FFF1F51
S1130750E459FF4F46815781608571858417950759
S1130760A607B70708F48FCEBBCE80916A0090919C
S11307706B00FC01EE0FFF1FE80FF91FEE0FFF1FC8
S1130780EE0FFF1FE459FF4F1386E1CE88E10FB649
S1130790F89480934100109241000FBE18BA8EE085
S11307A087BB8CE082BB20E821BB85BB80E384BB94
S11307B083E083BF85E082BF89B7816089BF82EF10
S11307C08FBD89E18EBD88EC90E097BD86BD8CE736
S11307D085BD80E890E0A0E0B0E080936200909353
S11307E06300A0936400B093650023BD84E690E0A9
S11307F09BBD8ABD24E623BD99BD88BD17B887B1CA
S113080087B98FE886B985B7807F85BF85B788604B
S113081085BF8BB78F738BBF8BB780688BBF10BCC2
S113082083E389B982E08BB988ED8AB986E880BD13
S113083097988FE19EE40197F1F700C000000895B6
S113084085B78F7085BF10926B0110926C01109266
S1130850A4011092A20110927201109271011092DF
S11308607901109278011092A8011092A7011092B8
S1130870D8001092D9001092DA001092DB00109286
S1130880750180E099E19093D1008093D00090931A
S1130890D3008093D2009093D5008093D40090939A
S11308A0D7008093D600909387018093860190931C
S11308B089018093880190938B0180938A0190939E
S11308C08D0180938C0184E598E09093CD00809312
S11308D0CC0090937B0180937A0110927601109260
S11308E07301109274011092A3011092A601109248
S11308F077011092E70010929E0110929F011092CE
S1130900A0011092A1011092A5010895A89588E173
S11309100FB6F89480934100109241000FBE2FEF60
S113092080E792E0215080409040E1F700C0000051
S1130930F8942BE088E190E00FB6F894A8958093A2
S113094041000FBE20934100FFCFCF93CFB7F8945F
S1130950A895E199FECFF6DAE199FECFCFBFCF910A
S113096008952F923F924F925F926F927F928F924F
S11309709F92AF92BF92CF92DF92EF92FF920F932A
S11309801F93CF93DF9300D000D0CDB7DEB78C0197
S11309902C0182E6480E511C380194EC690E711C3E
S11309A05801EAEDAE1AEEEFBE0A4801F8E78F1AD5
S11309B0FEEF9F0AFFB6F894A895E199FECFC8010F
S11309C0BCDA9C838B83E199FECFFFBEDFB6F8943B
S11309D0A895E199FECFC201B0DA7C01E199FECF7E
S11309E0DFBE3FB6F894A895E199FECFC301A5DA1E
S11309F06C01E199FECF3FBE2FB7F894A895E19919
S1130A00FECFC5012A8399DA1C012A81E199FECF20
S1130A102FBF4FB7F894A895E199FECFC40149833D
S1130A208CDA9C014981E199FECF4FBF8B819C8177
S1130A308E159F0509F44CC08C159D0539F182155E
S1130A40930509F053C08217930709F04FC01FB7ED
S1130A50F894A895E199FECF6B817C81C30172DA89
S1130A60E199FECF1FBFEB81FC81EE15FF0509F470
S1130A704BC01FB7F894A895E199FECF6B817C8198
S1130A80C20160DAE199FECF1FBF3EC08215930513
S1130A9009F401C1EB81FC81E217F30751F51FB79B
S1130AA0F894A895E199FECF6B817C81C2014ADA62
S1130AB0E199FECF1FBF1FB7F894A895E199FECF27
S1130AC06B817C81C5013EDAE199FECF1FBF1CC05A
S1130AD08C159D0509F47DC08B819C81821593053D
S1130AE009F49DC08217930709F4BCC0EC14FD04FB
S1130AF069F1E214F30409F44EC0C214D304E9F01A
S1130B008FEF90E09C838B838B819C810F900F905F
S1130B100F900F90DF91CF911F910F91FF90EF9065
S1130B20DF90CF90BF90AF909F908F907F906F9009
S1130B305F904F903F902F900895C216D30609F40A
S1130B40F2C0EFEFF0E0FC83EB83DECFE214F304BA
S1130B5009F4C4C0E216F30699F6EB81FC81EE15A4
S1130B60FF0559F0DFB6F894A895E199FECFB701D7
S1130B70C801E8D9E199FECFDFBE1FB7F894A89564
S1130B80E199FECFB701C501DDD9E199FECF1FBFC1
S1130B90FC82EB82B9CFE216F30699F68B819C8135
S1130BA08E159F0559F0DFB6F894A895E199FECF0C
S1130BB0B701C801C7D9E199FECFDFBE1FB7F894CA
S1130BC0A895E199FECFB701C301BCD9E199FECF45
S1130BD0DECF8215930581F01FB7F894A895E199AB
S1130BE0FECF6B817C81C5012A833983ABD93981DE
S1130BF02A81E199FECF1FBFEB81FC81E217F30745
S1130C0009F482CF1FB7F894A895E199FECF6B81C0
S1130C107C81C40197D9E199FECF1FBF75CF1FB75F
S1130C20F894A895E199FECF6B817C81C3012A8356
S1130C30398388D939812A81E199FECF1FBFEB819D
S1130C40FC81E217F30709F45FCF1FB7F894A89566
S1130C50E199FECF6B817C81C40174D9E199FECF07
S1130C601FBF52CF1FB7F894A895E199FECF6B81AF
S1130C707C81C30167D9E199FECF1FBF1FB7F894E8
S1130C80A895E199FECF6B817C81C5015BD9E1997F
S1130C90FECF1FBF39CF1FB7F894A895E199FECFB7
S1130CA06B817C81C2012A8339834CD939812A81A1
S1130CB0E199FECF1FBF8B819C818217930709F4B2
S1130CC023CF1FB7F894A895E199FECF6B817C815F
S1130CD0C40138D9E199FECF1FBF16CF8B819C8107
S1130CE08E159F0579F0DFB6F894A895E199FECFAB
S1130CF0B701C8012A83398325D939812A81E19929
S1130D00FECFDFBEE216F30659F01FB7F894A8959C
S1130D10E199FECFB701C40115D9E199FECF37CFD0
S1130D20FC82EB82F1CEEB81FC81EC15FD0559F0E0
S1130D30BFB6F894A895E199FECFB601C80102D9CF
S1130D40E199FECFBFBEEC14FD0451F31FB7F89434
S1130D50A895E199FECFB601C201F4D8E199FECF7E
S1130D601FBFDC82CB82D0CEFF920F931F93CF9311
S1130D70DF938C01EB01FFB6F894A895E199FECFBF
S1130D80BE01C801DFD8E199FECFFFBEC8018E596C
S1130D909F4FFFB6F894A895E199FECFBE01D2D833
S1130DA0E199FECFFFBEC8018C539F4FFFB6F89464
S1130DB0A895E199FECFBE01C5D8E199FECFFFBE4B
S1130DC0C8018A5D9E4FFFB6F894A895E199FECFBD
S1130DD0BE01B8D8E199FECFFFBEC80188579E4F27
S1130DE01FB7F894A895E199FECFBE01ABD8E1995D
S1130DF0FECF1FBFDF91CF911F910F91FF900895F8
S1130E00F89460E072E380EC90E0AEDF64E578E0B3
S1130E1082EC90E0A9DF60E070E086EC90E0A4DF73
S1130E2066E079E184EC90E090DD66E079E186E2C9
S1130E3091E08BDD66E079E188E891E086DD66E0AB
S1130E4079E18AEE91E081DD66E079E18CE492E07B
S1130E507CDDC5E0D0E08FE39CE90197F1F700C0A9
S1130E60000084EC90E07DDD8630994109F44EC0A9
S1130E708FEF99EF20E0815090402040E1F700C0CF
S1130E8000001FB7F894A895E199FECF66E079E1D8
S1130E9084EC90E057D8E199FECF1FBF1FB7F894B8
S1130EA0A895E199FECF66E079E186E291E04AD81F
S1130EB0E199FECF1FBF1FB7F894A895E199FECF23
S1130EC066E079E188E891E03DD8E199FECF1FBF63
S1130ED01FB7F894A895E199FECF66E079E18AEE10
S1130EE091E030D8E199FECF1FBF1FB7F894A895C1
S1130EF0E199FECF66E079E18CE492E023D8E199B0
S1130F00FECF1FBF2197209709F0A5CF8FEF91EE59
S1130F1024E0815090402040E1F700C00000F6DC5E
S1130F20CF93DF93C5E0D0E084EC90E01ADD863007
S1130F30994169F08FEF99EF20E081509040204073
S1130F40E1F700C000002197209771F759DF8CEB7F
S1130F5090E007DD8931964009F441C0CFB7F89499
S1130F60A895E199FECF69E176E08CEB90E0EAD7B1
S1130F70E199FECFCFBFCFB7F894A895E199FECF02
S1130F8069E176E08EE191E0DDD7E199FECFCFBF54
S1130F90CFB7F894A895E199FECF69E176E080E8AF
S1130FA091E0D0D7E199FECFCFBFCFB7F894A89501
S1130FB0E199FECF69E176E082EE91E0C3D7E19951
S1130FC0FECFCFBFCFB7F894A895E199FECF69E1E2
S1130FD076E084E492E0B6D7E199FECFCFBF8EEB02
S1130FE090E0BFDC8530994009F441C0CFB7F89454
S1130FF0A895E199FECF65E079E08EEB90E0A2D769
S1131000E199FECFCFBFCFB7F894A895E199FECF71
S113101065E079E080E291E095D7E199FECFCFBF1A
S1131020CFB7F894A895E199FECF65E079E082E81E
S113103091E088D7E199FECFCFBFCFB7F894A895B8
S1131040E199FECF65E079E084EE91E07BD7E19908
S1131050FECFCFBFCFB7F894A895E199FECF65E056
S113106079E086E492E06ED7E199FECFCFBF80ECC1
S113107090E077DC909385018093840186EC90E086
S113108070DC8A30910530F5909367008093660098
S113109082EC90E066DC90938F0180938E01209126
S11310A08E0130918F018091840190918501821786
S11310B09307A8F080918E0190918F018436910559
S11310C030F484E690E090938F0180938E01DF9159
S11310D0CF9108951092670010926600D9CF809145
S11310E0840190918501885B9B4090938F0180934C
S11310F08E01DF91CF910895CF939A9930C08CE2FD
S113110091E004C00197009709F4B5C0EFE3FFE153
S11311103197F1F700C000009A9BF4CF209168004A
S11311203091690024313105C0F4A9014F5F5F4F4C
S113113050936900409368004430510570F09A015F
S1131140ABEABAEAD5D6969587959C01220F331F50
S1131150280F391F42175307E1F1CF9108959B9946
S113116010C08CE291E004C00197009709F4C5C057
S1131170EFE3FFE13197F1F700C000009B9BF4CF50
S1131180CDCF80917301813009F4F9C0809174014D
S1131190813021F610927401AC9A20E044EC59E0BD
S11311A060E070E087EB94E05AD780919C019091C5
S11311B09D0190938F0180938E0185E38093750147
S11311C020E044EC59E060E070E085EB94E047D720
S11311D0A5CF8AEA8093DC0083E08093DD00CFB75B
S11311E0F894A0918E01B0918F01B093DF00E0914B
S11311F08E01F0918F01E093E00060918401709181
S113120085017093E10040918401509185014093E0
S1131210E20020919C0130919D013093E300809184
S11312209C0190919D018093E400CFBF9091DD00DB
S11312302091DC00920F2091DE00920F9B0F9E0FF5
S1131240970F940F930F980F9093E500EFE1F3E05D
S11312503197F1F700C00000979A8FE891E0019769
S1131260F1F700C000008091DC008CB981E080932C
S1131270E800CF9108959A9951CFAC9A20E040EDBF
S113128057E060E070E087EB94E0E9D68EE190E00F
S11312900AC0EFE3FFE13197F1F700C00000A89521
S11312A00197009711F09A9BF4CF8EE190E0A895F6
S11312B0FFEF20E732E0F15020403040E1F700C07A
S11312C000000197009799F780919C0190919D01EE
S11312D090938501809384016091840170918501CC
S11312E080EC90E041DD4FEF89EF90E04150804089
S11312F09040E1F700C0000011CF9B990FCFAC9A4A
S113130020E040ED57E060E070E087EB94E0A7D682
S11313108EE190E00AC0EFE3FFE13197F1F700C0FE
S11313200000A8950197009711F09B9BF4CF8EE1E4
S113133090E0A895FFEF20E732E0F15020403040E4
S1131340E1F700C000000197009799F780919C0194
S113135090919D0190938F0180938E0160918E01F5
S113136070918F0182EC90E0FFDC4FEF89EF90E009
S1131370415080409040E1F700C00000CFCE109271
S11313807301AC9A20E048EB5BE060E070E087EB2F
S113139094E065D680919C0190919D019093850184
S11313A08093840184E38093750120E044EC59E048
S11313B060E070E084EB94E052D6B0CE1F93CF93FC
S11313C0DF93863B24E0920709F4D1C008F05EC0A5
S11313D0843B24E0920709F475C0853B944009F0EE
S11313E051C080919C0190919D0190938F018093B5
S11313F08E01C0918E01D0918F011FB7F894A895EA
S1131400E199FECFBE0182EC90E09CD5E199FECF3C
S11314101FBF1FB7F894A895E199FECFBE0184E2DF
S113142091E090D5E199FECF1FBF1FB7F894A8951E
S1131430E199FECFBE0186E891E084D5E199FECF23
S11314401FBF1FB7F894A895E199FECFBE0188EE9F
S113145091E078D5E199FECF1FBF1FB7F894A89506
S1131460E199FECFBE018AE492E06CD5E199FECF0A
S11314701FBF8FE39FE10197F1F700C0000085E3F0
S113148080937501DF91CF911F910895873B24E0EC
S1131490920789F0883B9440A9F785B385FB882798
S11314A080F991E0892780FDAD9A80FFAD98DF91A6
S11314B0CF911F910895AC9810927501DF91CF914F
S11314C01F91089580919C0190919D0190938501B5
S11314D080938401C0918401D09185011FB7F89451
S11314E0A895E199FECFBE0180EC90E02BD5E1995F
S11314F0FECF1FBF1FB7F894A895E199FECFBE0198
S113150082E291E01FD5E199FECF1FBF1FB7F89487
S1131510A895E199FECFBE0184E891E013D5E19945
S1131520FECF1FBF1FB7F894A895E199FECFBE0167
S113153086EE91E007D5E199FECF1FBF1FB7F8945F
S1131540A895E199FECFBE0188E492E0FBD4E1992D
S1131550FECF1FBF8FE39FE10197F1F700C00000AA
S113156084E380937501DF91CF911F910895DF91FA
S1131570CF911F91C1CDCF9320919C0130919D01BA
S113158080918E0190918F0103968217930708F042
S1131590BFC020919C0130919D0180918401909164
S11315A0850104972817390768F520919C0130912B
S11315B09D0180918E0190918F01281B390B4091E0
S11315C084015091850180918E0190918F01481B77
S11315D0590BFA01F695E795A0EAB0E089D46E0FAD
S11315E07F1F811D911D9A0140E050E05FD4285D6A
S11315F03F4F283C310508F092C030937F0120937F
S11316007E0106C087EC90E090937F0180937E0179
S113161080917E0190917F0168EC70E09B01281B12
S1131620390B3BBD2ABD80917E0190917F01681BDF
S1131630790BCB01A0E0B0E080936200909363004B
S1131640A0936400B09365006627782F892F9A2FA2
S113165028EC30E040E050E029D423BD8AEA8093AE
S1131660DC0083E08093DD00CFB7F894A0918E0175
S1131670B0918F01B093DF00E0918E01F0918F0162
S1131680E093E00060918401709185017093E10022
S113169040918401509185014093E20020919C0186
S11316A030919D013093E30080919C0190919D01C4
S11316B08093E400CFBF9091DC002091DD00920F75
S11316C02091DE00920F9B0F9E0F970F940F930FA4
S11316D0980F9093E5008FE193E00197F1F700C034
S11316E00000979A8FE891E00197F1F700C000009D
S11316F08091DC008CB981E08093E80080916901DD
S113170090916A0190939B0180939A01CF910895DF
S113171085E290E090937F0180937E0179CF27EC5E
S113172030E030937F0120937E0172CFF8942FEF45
S113173080E792E0215080409040E1F700C0000033
S113174025D87ED82FEF81EE94E021508040904040
S1131750E1F700C00000E4DB83E08093DD0086E372
S11317608093DE007894AC9A20E04CED55E060E084
S113177070E087EB94E073D42FEF42E350E060E035
S113178070E086EB94E06BD42FEF48EE53E060E01A
S113179070E088EB94E063D42FE088E190E00FB62A
S11317A0F894A895809341000FBE209341008AE0ED
S11317B0882E912CA12CB12CC1E0D0E011E0A89589
S11317C08091A301813009F443C08091600090911D
S11317D06100019709F445C08091A6018111A9C057
S11317E08091A5018823C1F02091A50180919E01DB
S11317F090919F01A091A001B091A101820F911D30
S1131800A11DB11D80939E0190939F01A093A001FF
S1131810B093A1011092A501809178019091790172
S1131820CD9708F03EC180917D01893C50F085B38D
S113183082958170812780FDAC9A80FFAC981092CC
S11318407D01EBD4A8958091A301813009F0BDCF2F
S11318501092A3018091600090916100019709F0BA
S1131860BBCF1092610010926000E0916901F09189
S11318706A012091D0003091D1004091D200509162
S1131880D3006091D4007091D5008091D6009091DE
S1131890D70000E139D34093D2005093D300609332
S11318A0D4007093D5008093D6009093D700F09322
S11318B0D100E093D000C0908001D0908101E090ED
S11318C08201F0908301BF0180E090E0A5019401C2
S11318D0EDD229013A01C701B601660F771F881FAF
S11318E0991F660F771F881F991F660F771F881F20
S11318F0991F6C0D7D1D8E1D9F1DA5019401D6D2CF
S1131900420E531E641E751E409280015092810146
S11319106092820170928301809180019091810193
S113192090939D0180939C018091A601882309F4E2
S113193057CF8091A60181508093A601E091E700E2
S1131940F0E0EE0FFF1FE751FF4F8081918199274F
S11319506091CC007091CD009C01220F331F280FA1
S1131960391F36952795329522952F7023273F707E
S113197023274EE150E0649FC001659F900D749F42
S1131980900D112496958795929582958F7089274D
S11319909F708927280F391F3093CD002093CC00E6
S11319A08091D8009091D900A091DA00B091DB0029
S11319B0820F931FA11DB11D8093D8009093D9006D
S11319C0A093DA00B093DB008091A7019091A80165
S11319D001969093A8018093A7018091A70190910B
S11319E0A8018130904808F451C08091D8009091AA
S11319F0D900A091DA00B091DB00880F991FAA1FCB
S1131A00BB1F8093D8009093D900A093DA00B093C1
S1131A10DB008091D8009091D900A091DA00B091B8
S1131A20DB00880F991FAA1FBB1F880F991FAA1FCD
S1131A30BB1F880F991FAA1FBB1F880F991FAA1FBE
S1131A40BB1F880F991FAA1FBB1F880F991FAA1FAE
S1131A50BB1F880F991FAA1FBB1F8093D8009093A8
S1131A60D900A093DA00B093DB00D0936100C09357
S1131A7060001092A8011092A7011092D800109251
S1131A80D9001092DA001092DB0075DD8091E70036
S1131A908F5F8093E7008091E7008F738093E70066
S1131AA09FCE3EDA1092790110927801BCCE1F923B
S1131AB00F920FB60F9211248F939F9385E082BFEC
S1131AC0369A80916B018F5F80936B019091A50191
S1131AD09F5F9093A5018A3090F110926B018091E1
S1131AE07D018F5F80937D0180917D018B3F18F094
S1131AF08AEF80937D0180916C018F5F80936C01EC
S1131B008A30E8F010926C018091A4018F5F809379
S1131B10A4018A30A0F01092A4018091A2018F5FE9
S1131B208093A2018C3358F01092A2018091780125
S1131B3090917901019690937901809378019F9116
S1131B408F910F900FBE0F901F9018951F920F92B8
S1131B500FB60F9211248F939F93EF93FF93E0910D
S1131B607701F0E08CB59DB5EE0FFF1FE751FF4FF5
S1131B7091838083809177018F5F80937701809137
S1131B8077018F73809377018091A6018F5F809393
S1131B90A601FF91EF919F918F910F900FBE0F902F
S1131BA01F9018951F920F920FB60F9211242F9326
S1131BB03F938F939F93AF93BF9384B1282F85B1A5
S1131BC0382F80916D0190916E01A0916F01B091B9
S1131BD070013370820F931FA11DB11D80936D019D
S1131BE090936E01A0936F01B09370018091CE0029
S1131BF09091CF0001969093CF008093CE00809176
S1131C00CE009091CF008138910570F180916D01E3
S1131C1090916E01A0916F01B0917001B695A79556
S1131C209795879580936D0190936E01A0936F01B2
S1131C30B093700180916D0190916E0190936A014F
S1131C408093690181E090E090936100809360004B
S1131C501092CF001092CE0010926D0110926E017E
S1131C6010926F0110927001BF91AF919F918F916B
S1131C703F912F910F900FBE0F901F9018951F92B8
S1131C800F920FB60F9211248F939F93EF93FF93AC
S1131C908091E8008A30A0F4E091E80081E08E0FA2
S1131CA08093E800F0E0E452FF4F80818CB9FF910B
S1131CB0EF919F918F910F900FBE0F901F901895E9
S1131CC08FE891E00197F1F700C000009798EFCFFB
S1131CD01F920F920FB60F9211242F933F934F939D
S1131CE05F936F937F938F939F93AF93BF93EF9380
S1131CF0FF938BB18C71D1F01092E60010927601B3
S1131D005F9B03C08CB15F99FDCFFF91EF91BF91B1
S1131D10AF919F918F917F916F915F914F913F917F
S1131D202F910F900FBE0F901F9018959CB180912A
S1131D307601813051F09A3A41F710927D01109268
S1131D40E60081E080937601E0CFE091E6008E0F1B
S1131D508093E600F0E0E057FE4F90838930A8F2CC
S1131D601092E60010927601409190019AEA940F45
S1131D7030919101930F20919201920F80919301E0
S1131D80980F60919401960F50919501950F509181
S1131D909601950F50919701950F509198019513C5
S1131DA0B4CF433019F010927D01AFCF10927D0172
S1131DB010927301109274013433C1F02433B1F0E2
S1131DC03533F9F02533E9F0363331F1263321F197
S1131DD0393309F449C0383339F13A3319F42A3321
S1131DE009F458C081E08093A301DDCF81E08093A2
S1131DF0730184E38093DE001092690010926800FE
S1131E00F1CF81E08093740185E38093DE0010922A
S1131E10690010926800E6CF86E38093DE0010929A
S1131E20690010926800DECF2833E1F696E39093C0
S1131E30DE0090E0982F8827860F911D90938F01E4
S1131E4080938E0160918E0170918F0182EC90E0FD
S1131E508BD78FE39FE10197F1F700C00000109248
S1131E60690010926800BECF293309F0BBCF96E316
S1131E709093DE0090E0982F8827860F911D909311
S1131E80850180938401609184017091850180ECC7
S1131E9090E0DECF2093DE006A3008F770E07093A4
S1131EA067006093660086EC90E0D2CFA1E21A2E20
S1131EB0AA1BBB1BFD010DC0AA1FBB1FEE1FFF1FEA
S1131EC0A217B307E407F50720F0A21BB30BE40B3A
S1131ED0F50B661F771F881F991F1A9469F7609581
S1131EE07095809590959B01AC01BD01CF0108953B
S1131EF0A29FB001B39FC001A39F01D0B29F700DF8
S1131F00811D1124911D08950F93083090F0982F8E
S1131F10872F762F652F542F432F322F22270850D7
S1131F20F4CF220F331F441F551F661F771F881FCE
S1131F30991F0A95B2F70F910895A8E1B0E042E025
S1131F4050E005C012D0272F11C0DC01CB01FC01E9
S1131F50E199FECF06C0FFBBEEBBE09A31960DB20D
S1131F600D9241505040B8F70895262FE199FECFC5
S1131F709FBB8EBB2DBB0FB6F894E29AE19A0FBEBD
S10B1F8001960895F894FFCFC7
S9030000FC
