S00F00007367646B6367712E7372656331
S113000012C021C004C31FC01EC01DC01CC01BC021
S11300101AC0A5C218C014C416C0E9C314C013C0C2
S113002012C011C010C011241FBECFE5D4E0DEBF42
S1130030CDBF20E0A0E6B0E001C01D92A939B2070F
S1130040E1F720D2FBC4DCCF8AEA80936E0083E020
S113005080936F0084E3809370001092710010927B
S11300607200109273001092740010927500109236
S1130070760010927700EEE6F0E08191909177009F
S1130080890F8093770080E0E737F807B1F78FE1B5
S113009093E00197F1F700C00000979A8FE891E090
S11300A00197F1F700C0000080916E008CB981E0E7
S11300B080937900089588E10FB6F89481BD11BC4E
S11300C00FBE18BA86E087BB8CE082BB90E891BB78
S11300D085BB80E184BB83E083BF85E082BF89B7B1
S11300E0816089BF82EF8FBD89E18EBD80EA9FE088
S11300F097BD86BD80ED97E09BBD8ABD88E290E008
S113010099BD88BD85B7807F85BF85B7886085BF69
S11301108BB78F738BBF8BB780688BBF10BC83E3A7
S113012089B982E08BB988ED8AB986E880BD979851
S11301308FE19EE40197F1F700C00000089585B7B0
S11301408F7085BF109298001092970010926A00E9
S113015010926B0010926C0010926D0010927F0050
S11301601092960080E094ED909363008093620077
S11301709093650080936400909367008093660079
S113018090936900809368002FE088E190E00FB6B7
S1130190F894A89581BD0FBE21BD0895AF92BF927A
S11301A0CF92DF92EF92FF920F931F93CF93DF933F
S11301B08C011FD4EC01680180E6C80ED11CC60175
S11301C018D47C01580180ECA80EB11CC50111D4CF
S11301D0CE15DF0531F4C817D90789F0BE01C50172
S11301E005C0C817D90721F4BE01C60107D407C04A
S11301F0E816F90621F4B701C80100D4E701CE01DD
S1130200DF91CF911F910F91FF90EF90DF90CF90EE
S1130210BF90AF9008950F931F93CF93DF93EC019A
S11302208B01ECD3B801CE01805A9F4FE7D3B801BC
S1130230CE0180549F4FDF91CF911F910F91DEC368
S1130240F89460E078EA80E190E0E5DF60E074EC47
S113025082E190E0E0DF69E173E084E190E0DBDFDC
S11302602FEF81EE94E0215080409040E1F700C0F0
S11302700000089584E190E091DF8931934009F012
S1130280DFCF80E190E08ADF909386008093850041
S113029080918500909186008091850090918600E0
S11302A08115944C30F48AE094EC9093860080930A
S11302B0850082E190E072DF90938800809387004C
S11302C0209187003091880080918500909186006C
S11302D08217930730F480918500909186000A97E5
S11302E009C080918700909188008115944C30F466
S11302F080E094EC909388008093870008959A9905
S11303000EC082E390E0EFE9FFE03197F1F700C01F
S113031000009A9953C001970097A9F767C09B9969
S11303200EC082E390E0EFE9FFE03197F1F700C0FF
S113033000009B9943C001970097A9F794C080914E
S1130340820083FF1AC080918200877F809382009D
S113035080919300909194009093860080938500FF
S1130360609185007091860080E190E054DFAC9A42
S113037086E980937C0084E31DC08091820084FF21
S11303801DC0809182008F7E8093820080919300B3
S113039090919400909388008093870060918700E7
S11303A07091880082E190E036DFAC9A86E9809310
S11303B07C0085E380937F0010929600809160001A
S11303C0909161008431910508F05BC0019690938F
S11303D06100809360008430910508F452C063E0AA
S11303E070E0ACD2892B09F04CC02ECEF8949A99C7
S11303F02CC0AC9A9A9908C08FE99FE00197F1F755
S113040000C00000A895F6CF8091930090919400CD
S1130410909386008093850060918500709186009A
S113042080E190E00EC080919300909194009093AD
S1130430880080938700609187007091880082E132
S113044090E0E9DE86E980937C0010929800109297
S1130450970010926A0010926B0010926C00109238
S11304606D007894ABCFF8949B99EFCFAC9A9B999D
S1130470DACF8FE99FE00197F1F700C00000A8955B
S1130480F6CF0895F89417DE5ADEF4DE7894AC9A29
S113049084E680937C00A8958091820081FF06C049
S11304A0809182008D7F8093820029DF8091820079
S11304B085FF05C0809182008F7D809382008091AA
S11304C08100893C48F0AC9B02C0AC9801C0AC9A56
S11304D010927C001092810085B7806885BF889552
S11304E085B78F7785BFD7CF0F93DC01E2E6F0E0C5
S11304F02081318142815381648175818681978114
S113050000E15ED242835383648375838683978339
S1130510B183A083CD0123E0969587952A95E1F7D1
S1130520209166003091670036952795369527957A
S1130530409164005091650056954795240F351FEE
S1130540409168005091690073E0569547957A95FB
S1130550E1F7240F351F820F931F0F9108951F9207
S11305600F920FB60F9211242F938F939F9385E0D0
S113057082BF20917A002F5F20937A0080917D00C2
S113058090917E00019690937E0080937D002A30A6
S1130590B0F110927A008091820082608093820090
S11305A0809181008F5F80938100809181008B3FD7
S11305B018F08AEF8093810080917C008F5F809394
S11305C07C0080917C008A3F18F010927C00AC98EB
S11305D080917B008F5F80937B008A3080F0109243
S11305E07B00809196008F5F8093960080919500A8
S11305F08F5F809395008A3010F0109295009F9140
S11306008F912F910F900FBE0F901F9018951F92EE
S11306100F920FB60F9211242F933F934F935F9332
S11306206F937F938F939F93AF93BF93EF93FF93B6
S11306302CB53DB580916A0090916B00A0916C003F
S1130640B0916D00820F931FA11DB11D80936A00AC
S113065090936B00A0936C00B0936D008091970011
S113066090919800019690939800809397008091C0
S11306709700909198008130904208F4A7C080912F
S11306806A0090916B00A0916C00B0916D0023E022
S1130690880F991FAA1FBB1F2A95D1F780936A0060
S11306A090936B00A0936C00B0936D0080916A00EE
S11306B090916B00A0916C00B0916D00BA2FA92F9E
S11306C0982F882780936A0090936B00A0936C0006
S11306D0B0936D0080916C0090916D0090939400A4
S11306E0809393008091930090919400FDDE909309
S11306F094008093930080919300909194001092C1
S113070098001092970010926A0010926B00109259
S11307106C0010926D0020919300309194008091B0
S11307208700909188002817390718F48EE891E023
S11307300DC0209193003091940080918500909198
S113074086008217930738F48FE99FE09093840022
S11307508093830031C02091930030919400809164
S1130760870090918800281B390B40918500509197
S113077086008091870090918800481B590BFA01EC
S1130780F695E795A0E1BEE00FD16E0F7F1F811DA6
S1130790911D9A0140E050E0E5D0C90180579E4F79
S11307A0813A6FE0960710F49C0102C02FE93FE004
S11307B0309384002093830020918300309184003F
S11307C080EA9FE0821B930B9BBD8ABDFF91EF9152
S11307D0BF91AF919F918F917F916F915F914F9155
S11307E03F912F910F900FBE0F901F9018951F925D
S11307F00F920FB60F9211248F939F93EF93FF9351
S1130800809179008A3060F4E091790081E08E0F64
S113081080937900F0E0E259FF4F80818CB907C0E2
S11308208FE891E00197F1F700C000009798FF91DD
S1130830EF919F918F910F900FBE0F901F9018957D
S11308401F920F920FB60F9211248F939F93EF93E1
S1130850FF938BB18C7159F01092780080918200D3
S11308608E7F809382005F9B60C08CB1FCCF8CB183
S11308709091820090FF4EC0E091780091E09E0F2D
S113088090937800F0E0E757FF4F8083993008F4A5
S11308904CC010927800809182008E7F80938200F9
S11308A0E9E8F0E08AEA9191890F90E0E139F907EB
S11308B0D1F790919100891338C0809189008330D9
S11308C031F51092810080918200877F80938200AD
S11308D0809182008F7E8093820080918A0084338D
S11308E021F490918200986005C0853359F4909169
S11308F08200906190938200809370001092610056
S11309001092600080918200806280938200109235
S113091081000BC08A3A49F4109281001092780049
S113092080918200816080938200FF91EF919F917A
S11309308F910F900FBE0F901F901895AA1BBB1B91
S113094051E107C0AA1FBB1FA617B70710F0A61BCB
S1130950B70B881F991F5A95A9F780959095BC01EC
S1130960CD010895A1E21A2EAA1BBB1BFD010DC0E7
S1130970AA1FBB1FEE1FFF1FA217B307E407F5074B
S113098020F0A21BB30BE40BF50B661F771F881F27
S1130990991F1A9469F760957095809590959B01BD
S11309A0AC01BD01CF010895A29FB001B39FC00166
S11309B0A39F01D0B29F700D811D1124911D089534
S11309C00F93083090F0982F872F762F652F542F90
S11309D0432F322F22270850F4CF220F331F441FF6
S11309E0551F661F771F881F991F0A95B2F70F912D
S11309F00895A8E1B0E042E050E005C012D0272FEE
S1130A0011C0DC01CB01FC01E199FECF06C0FFBBA4
S1130A10EEBBE09A31960DB20D9241505040B8F7BA
S1130A200895262FE199FECF9FBB8EBB2DBB0FB639
S1130A30F894E29AE19A0FBE01960895F894FFCFD4
S9030000FC
